0FIRST  031716FIRST  022606LDABS  0225580000000000009002100000000       FIRS0001
4BCOCT  0000090021000000004BFCLOS 0000190021000000004BFOPEN 00002       FIRS0002
90021000000004BFREAD 0000390021000000004BRAKE  000049002100000000       FIRS0003
4BUFFER 0000590021000000004CHNCOM 0000690021000000004CKSUM  00007       FIRS0004
90021000000004CLOSE  0001090021000000004COMARG 000119002100000000       FIRS0005
4DELETE 0001290021000000004EXIT   0001390021000000004FERRTN 00014       FIRS0006
90021000000004GMEM   0001590021000000004NCOM   000169002100000000       FIRS0007
4OCABC  0001790021000000004OPEN   0002090021000000004PRNTER 00021       FIRS0008
90021000000004PRNTP  0002290021000000004RDFLXC 000238000000000024       FIRS0009
90021000000004RDWAIT 0002490021000000004RJUST  000259002100000000       FIRS0010
4SMEM   0002690021000000004TRFILE 0002790021000000004WRFILE 00030       FIRS0011
90021000000004WRWAIT 00031926512144256094446652560608000000002234       FIRS0012
90000000000078000000002250951256263465180000000022479300000000000       FIRS0013
80000000022409000000000032800000000223690000000000268000000002233       FIRS0014
90000000000058000000002241900000000003380000000022379000000000030       FIRS0015
80000000022539777700000000800000000223590000000000228000000002245       FIRS0016
90000770000008000000002252951666060606080000000022519516060606060       FIRS0017
80000000022439000000077777800000000224290000000006608000000002244       FIRS0018
90000001000008000000002232900000000000280000000022309000000000000       FIRS0019
9000000000001800000000224692330000000008000000001601C703140003137       FIRS0020
C703137003136C702573002564C702777002773C702751002745C703145003142       FIRS0021
C703027003024C702737002733C7026550026528000000002254A002000002257       FIRS0022
A063400203151A007400203151A002000002262A063400203151A007400203151       FIRS0023
80000000020569000000000000900000000000090000000000009000000000000       FIRS0024
90000000000009000000000000900000000000090000000000009000000000000       FIRS0025
90000000000009000000000000900000000000090000000000009000000000000       FIRS0026
90000000000009000000000000900000000000090000000000009000000000000       FIRS0027
90000000000008000000002102900000000000090000000000009000000000000       FIRS0028
90000000000009000000000000900000000000090000000000009000000000000       FIRS0029
90000000000009000000000000900000000000090000000000009000000000000       FIRS0030
90000000000009000000000000900000000000080000000016549000000000000       FIRS0031
94647630000029000000000000900000000000092346440001749000000000000       FIRS0032
90000000000009000000000000900000000000090000000000009000000000000       FIRS0033
90000000000009000000000000900000000000090000000000009000000000000       FIRS0034
90000000000009000000000000900000000000090000000000008000000001700       FIRS0035
90000000000009000000000000900000000000090000000000009000000000000       FIRS0036
90000000000009000000000000900000000000090000000000009000000000000       FIRS0037
90000000000009000000000000900000000000090000000000009000000000000       FIRS0038
90000000000009000000000000900000000000090000000000009000000000000       FIRS0039
80000000017249000000000000900000000000090000000000009000000000000       FIRS0040
90000000000009000000000000900000000000090000000000009000000000000       FIRS0041
90000000000009000000000000900000000000090000000000009000000000000       FIRS0042
90000000000009000000000000900000000000090000000000009000000000000       FIRS0043
90000000000008000000001750900000000000090000000000009000000000000       FIRS0044
90000000000009000000000000900000000000090000000000009000000000000       FIRS0045
90000000000009000000000000900000000000090000000000009000000000000       FIRS0046
90000000000009000000000000900000000000090000000000009000000000000       FIRS0047
90000000000009000000000000800000000177490000000000009000000000000       FIRS0048
90000000000009000000000000900000000000090000000000009000000000000       FIRS0049
90000000000009000000000000900000000000090000000000009000000000000       FIRS0050
90000000000009000000000000900000000000090000000000009000000000000       FIRS0051
90000000000009000000000000900000000000080000000020209000000000000       FIRS0052
90000000000009000000000000900000000000090000000000009000000000000       FIRS0053
90000000000009000000000000900000000000090000000000009000000000000       FIRS0054
90000000000009000000000000900000000000090000000000009000000000000       FIRS0055
90000000000009000000000000900000000000090000000000008000000002044       FIRS0056
90000000000009000000000000900000000000090000000000009000000000000       FIRS0057
90000000000009000000000000900000000000090000000000008000000002147       FIRS0058
97777777777779250240606060901604045214496260452144259606043242122       FIRS0059
92163603162609636026465144923465151252380000000021369777777777777       FIRS0060
92163252460609241460235125902606221652596014452144259736063302545       FIRS0061
92331263125249250260624725931266045214480000000021579777777777777       FIRS0062
92460606060609266022466445960466463604690000000000009602321512460       FIRS0063
97777777777779512460606060921517060232192143602231459603143432527       FIRS0064
90000000000009602321512460977777777777790000000000009602321512460       FIRS0065
95146516031459626444602551923302523426093777777777778000000002203       FIRS0066
96043462373609215163314527963214360626397047256046239314527736063       FIRS0067
92460443162629255160232151963512145622680000000021259777777777777       FIRS0068
80000000022259000000100000800000000222290000000000008000000002220       FIRS0069
90000000015408000000002213900000000000180000000021329000000000000       FIRS0070
80000000022149000000000043800000000222190000000002008000000002224       FIRS0071
90000000000008000000001577960622165252497743242122628000000001612       FIRS0072
96060602122628000000002262A002000002360A0020000022668000000000032       FIRS0073
A0021000022648000000002264A063400202345A007400202345A050000002220       FIRS0074
A040200002270A300000001576A062100002301A050000002132A040000002134       FIRS0075
A060100002357A007400400031A300000001600A300000001577A300000002357       FIRS0076
B202220000000A050000002230A060100002130A002000002310A050000002130       FIRS0077
A040000002232A0601000021308000000002310A050000002130A040200002220       FIRS0078
A010000002314A012000002322A053400102130A050000002230A060100101576       FIRS0079
A050000002230A060100101575A002000002305A050000000024A060100002132       FIRS0080
A050000002132A040000002220A060100002126A050000002220A040200002331       FIRS0081
A300000001576A062100002342A0500000021328000000002334A040000002134       FIRS0082
A060100002357A007400400024A300000001600A300000001577A300000002357       FIRS0083
B202220000000A002000002353A0074004000139300000000000A463400102345       FIRS0084
A0634004023539050000400001A06210000232290020002000019077400400000       FIRS0085
A053400202345A45340010234590020004000018000000002360A002000002434       FIRS0086
A0020000023648000000000033A0021000023628000000002362A063400202421       FIRS0087
A007400202421A050000002220A040200002131A040000002132A060100002127       FIRS0088
A050000002230A060100002130A002000002376A050000002130A040000002231       FIRS0089
A060100002130A050000002130A040200000024A010000002414A012000002414       FIRS0090
A050000002217A040200002130A060100002433A0500000021278000000002406       FIRS0091
A0402000021309073400100000A053400202433A050000201652A060100101576       FIRS0092
A002000002373A050000002217A040200002130A060100002217A002000002427       FIRS0093
A0074004000139300000000000A463400102421A0634004024279050000400001       FIRS0094
A06210000237790020002000019077400400000A053400202421A453400102421       FIRS0095
800000000243290020004000018000000002434A007400400011A300000002231       FIRS0096
A300000002215A040200002125A410000002447A007400400022A300000002156       FIRS0097
A007400400022A300000002146A002000001601A002000002460A007400400011       FIRS0098
A300000002232A300000002122A040200002125A010000002460A050000002122       FIRS0099
A060100001600A050000002230A0601000022138000000002460A007400400014       FIRS0100
A300000001602A007400400015A3000000021229076000000002A040000002244       FIRS0101
A060100001613A050000001613A040200002242A060100001614A050000001614       FIRS0102
A040200002242A060100001615A007400400026A300000002243A050000002220       FIRS0103
A060100002126A050000002214A040000002231A0601000021338000000002504       FIRS0104
A050000002214A040000002232A060100002134A050200002230A060100003166       FIRS0105
A050000001614A040200002513A300000000024A062100002526A050000001613       FIRS0106
A040200002517A300000000024A062100002525A007400400002A300000002251       FIRS0107
A300000002215A30000000161293000000000009300000000000A300000003166       FIRS0108
8000000002530A300000001602A007400400012A300000001600A040200002230       FIRS0109
A010000002536A002000001601A007400400020A300000002252A300000001600       FIRS0110
A300000001577A300000002213A050000001615A040200002545A300000000024       FIRS0111
A062100002552A007400400005A300000001600A300000001577B202242000000       FIRS0112
A0500000021338000000002554A040200002555A300000002122A062100002563       FIRS0113
A007400400030A300000001600A300000001577A300000002231B202133000000       FIRS0114
A007400400003A300000002215A300000001612C202231001653A300000001604       FIRS0115
A300000002123A300000001602A450000001653A432000002243A060200002131       FIRS0116
A450000001653A4320000022458000000002600A060200003166A450000002235       FIRS0117
A062100002604A4500000031669476500000000A060200002226A050000002226       FIRS0118
A040000002131A060100002227A450000001653A432000002253A060200003166       FIRS0119
A450000002237A062100002617A4500000031669476500000000A060200002216       FIRS0120
A007400400003A300000002215A3000000016128000000002624C202241001617       FIRS0121
A300000001611A300000002123A300000001602A050000002227A040200002225       FIRS0122
A010000002643A412000002643A007400400017A300000002131A060100002163       FIRS0123
A007400400022A300000002164A002000001603A002000002706A050000002216       FIRS0124
A040200002233A410000002652A050000002226A0402000022368000000002650       FIRS0125
A010000002661A412000002661A007400400017A300000002131A060100002172       FIRS0126
A007400400022A300000002173A002000001603A002000002706A050000002226       FIRS0127
A040200002230A410000002672A050000002231A060100002222A050000002131       FIRS0128
A060100002223A002000001604A002000002706A007400400007A300000001653       FIRS0129
8000000002674A300000001620A300000002226A300000001617A010000002706       FIRS0130
A007400400017A300000002131A060100002175A007400400022A300000002201       FIRS0131
A002000001603A050000002240A060100002217A050000002227A040200002224       FIRS0132
A010000002716A412000002716A050000002227A060100002224A050000002131       FIRS0133
A0402000021328000000002720A010000002733A012000002733A056000002131       FIRS0134
94754000000009076300000000A022100002220A020000002220A460000003166       FIRS0135
A007400400032A300000003166A002000001605A050000002131A040200002126       FIRS0136
A010000002745A412000002745A050000002132A040000002220A060100003166       FIRS0137
A007400400032A3000000031668000000002744A002000001610A050000002227       FIRS0138
A040200002126A010000002770A412000002770A050000002126A040200002131       FIRS0139
A060100003166A007400400033A300000003166A050000002227A040200002126       FIRS0140
A060100002226A050000002126A060100002131A050000002132A040000002220       FIRS0141
A060100003166A007400400032A3000000031668000000002770A007400400033       FIRS0142
A300000002226A002000001603A007400400001A300000002215A300000001612       FIRS0143
A300000001602A050000002220A040200003001A300000001576A062100003012       FIRS0144
A050000002132A040000002134A060100003166A007400400030A300000001600       FIRS0145
A300000001577A300000003166B202220000000A0500000022248000000003014       FIRS0146
A040000002134A060100003166A007400400027A300000001600A300000001577       FIRS0147
A300000003166A300000001606A300000002124A050000002224A040200002244       FIRS0148
A010000003035A050000002224A040000002231A060100002224A050000002221       FIRS0149
A040000002231A060100002221A007400400010A300000001600A300000001577       FIRS0150
8000000003040A007400400020A300000002252A300000001600A300000001577       FIRS0151
A300000002213A050000001615A040200003047A300000000024A062100003054       FIRS0152
A007400400005A300000001600A300000001577B202242000000A050000002221       FIRS0153
A040200003057A300000002055A062100003065A007400400030A300000001600       FIRS0154
A3000000015778000000003064A300000002230B202221000000A052000002222       FIRS0155
A002000003103A007400400022A300000002212A007400400023A300000002122       FIRS0156
A300000002233A007400400025A300000002122A060100003166A007400400000       FIRS0157
A300000003166A060100002223A050000002224A040200002231A060100003166       FIRS0158
A450000002235A0621000031118000000003110A4500000022149076700000000       FIRS0159
A450100002247A450100003166A060200002135A007400400030A300000001600       FIRS0160
A300000001577A300000002231C202231002135A007400400030A300000001600       FIRS0161
A300000001577A300000002232C202231002223A007400400010A300000001600       FIRS0162
A300000001577A300000001602A0074004000168000000003134A300000002250       FIRS0163
A300000001600A007400400021A007400400004A007400400006A300000002231       FIRS0164
A050000002124A040200002234A410000003147A002000001607A002000003150       FIRS0165
A002000001602A0074004000139300000000000A463400103151A063400403162       FIRS0166
9050000400001A060100002513A060100002517A0601000025458000000003160       FIRS0167
A06010000304790020002000019077400400000A053400203151A453400103151       FIRS0168
900200040000180000000031679000000000000                                 FIRS0169
$EOF   FIRST     06/24/10  09:51:45    BSS2OBJ 1.0.0                    FIRS0170
