0PRNTLS0015626PRNTLS0010726PRNTFS00045680000000000009002100000000       PRNT0001
4BZEL  00000090021000000004DERBC 00000190021000000004EXIT  000002       PRNT0002
90021000000004FSTATE00000390021000000004OCABC 0000049002100000000       PRNT0003
4PRNTP 0000059222324606060924216325516094446242560609633144255160       PRNT0004
80000000002229000000000660800000000022190000000006578000000000241       PRNT0005
96057575757578000000000205900000000001280000000002039000000000010       PRNT0006
80000000002329377777777777800000000021190000000000168000000000217       PRNT0007
90000000000578000000000223900000000177780000000002109000000000015       PRNT0008
80000000002369576060606060800000000020790000000000148000000000206       PRNT0009
90000000000138000000000202900000000000780000000002429606060575757       PRNT0010
80000000002459606060606060800000000023090000007777778000000000226       PRNT0011
90000000777778000000000215900000000003480000000001779000000000004       PRNT0012
80000000002479777777777777800000000023595757575757608000000000244       PRNT0013
96060606057578000000000233943252460606080000000002439606060602631       PRNT0014
80000000002349575757575757800000000017590000000000028000000000173       PRNT0015
90000000000008000000000224900000000330080000000002149000000000030       PRNT0016
80000000002279000000777700800000000022090000000000778000000000201       PRNT0017
90000000000068000000000225900000000702080000000001769000000000003       PRNT0018
80000000002379600000610000800000000021290000000000178000000000200       PRNT0019
90000000000058000000000216900000000003780000000002469610000575757       PRNT0020
80000000002139000000000022800000000020490000000000118000000000240       PRNT0021
96057570000008000000000174900000000000180000000002319233000000000       PRNT0022
8000000000013C701063001060C700502000502C701503001501C700670000662       PRNT0023
C7007300007208000000000022C7015040015038000000000250A002000000455       PRNT0024
A0020000002548000000000006A0021000002528000000000252A063400200426       PRNT0025
A007400200426A007400400001A300000000024A060100000452A007400400000       PRNT0026
A300000000452A002000000446A0020000002658000000000010A002100000263       PRNT0027
8000000000263A063400200426A007400200426A007400400004A300000000024       PRNT0028
A060100000452A450000000452A450100000240A060200000452A050000000452       PRNT0029
A002000000446A0020000003008000000000007A0021000002768000000000276       PRNT0030
A063400200426A007400200426A450000000204A062100000303A450000000024       PRNT0031
9476500000000A060200000452A007400400001A300000000452A060100000452       PRNT0032
A450000000213A062100000313A4500000004529076700000000A450100000246       PRNT0033
A060200000023A450000000024A432000000216A060200000452A007400400001       PRNT0034
8000000000322A300000000452A060100000452A450000000200A062100000327       PRNT0035
A4500000000249476500000000A432000000212A060200000453A007400400001       PRNT0036
A300000000453A060100000453A450000000213A062100000340A450000000453       PRNT0037
9076700000000A060200000453A050000000453A040000000452A060100000453       PRNT0038
A4500000004538000000000346A450100000237A060200000024A002000000446       PRNT0039
A0020000003548000000000011A0021000003528000000000352A063400200426       PRNT0040
A007400200426A050000000024A0400000001769076500000043A022100000225       PRNT0041
A460000000031A056000000225A020000000031A460000000453A050000000024       PRNT0042
A040000000176A0402000004539076500000043A022100000201A460000000453       PRNT0043
A007400400001A300000000453A060100000032A4500000000328000000000376       PRNT0044
A432000000220A060200000453A450000000032A432000000227A060200000452       PRNT0045
A450000000201A062100000406A4500000004529076700000000A060200000452       PRNT0046
A007400400001A300000000031A060100000454A450000000214A062100000416       PRNT0047
A4500000004549076700000000A450100000452A450100000453A450100000224       PRNT0048
8000000000422A060200000024A002000000446A0074004000029000000000001       PRNT0049
9300000000000A463400100426A0634004004469050000400001A060100000255       PRNT0050
A060100000266A062100000302A062100000316A062100000326A062100000347       PRNT0051
A062100000354A062100000364A062100000422A040200000425A062100000315       PRNT0052
900200020000180000000004469077400400000A053400200426A453400100426       PRNT0053
90020004000018000000000455A002000000460A063400201507A007400201507       PRNT0054
A050000000024A060100000171A050000000024A060100000156A050000000156       PRNT0055
A040200000173A010000000472A050000000171A040200000174A010000000502       PRNT0056
A007400400006A300000000171A060100000064A007400400006A300000000024       PRNT0057
A060100000062A0074004000058000000000501A300000000064A050000000156       PRNT0058
A040200000173A410000000506A002000001553A050000000156A040200000175       PRNT0059
A410000000530A050000000234A060100000126A050000000234A060100000125       PRNT0060
A050000000234A060100000124A050000000234A060100000051A050000000234       PRNT0061
A060100000050A050000000234A0601000000478000000000525A050000000234       PRNT0062
A060100000046A002000000543A050000000156A040200000176A410000000543       PRNT0063
A050000000243A060100000126A050000000233A060100000125A050000000244       PRNT0064
A060100000124A050000000235A060100000051A050000000171A040200000174       PRNT0065
A010000000562A053400100156A05000010003690734001000008000000000551       PRNT0066
A050000000247A060100100134A007400400005A300000000134A053400100156       PRNT0067
A0500001000369073400100000A050000000234A060100100134A050000000247       PRNT0068
A060100000165A050000000247A060100000164A050000000247A060100000160       PRNT0069
A050000000247A060100000161A050000000247A060100000163A050000000176       PRNT0070
8000000000575A060100000037A050000000174A060100000157A002000000604       PRNT0071
A050000000157A040000000174A060100000157A050000000157A040200000171       PRNT0072
A010000000610A012000001066A053400200157A050000200024A060100000172       PRNT0073
A053400200172A050000200024A060100000056A050000000172A040200000174       PRNT0074
90734002000008000000000621A050000200024A060100000054A050000000156       PRNT0075
A040200000174A410000000627A002000000013A050000000204A060100000037       PRNT0076
A050000000172A0402000001779073400100000A450000000215A062100000637       PRNT0077
A4500001000249476500000000A060200001557A007400400010A300000001557       PRNT0078
A060100000053A0500000001728000000000645A0402000002009073400100000       PRNT0079
A450000000213A062100000652A4500001000249476500000000A432000000226       PRNT0080
A060200001557A007400400006A300000001557A060100000052A053400200156       PRNT0081
A002000200021A050000000172A0402000001759073400100000A450000100024       PRNT0082
A432000000230A060200000050A0074004000118000000000671A300000000050       PRNT0083
A050000000172A0402000001759073400100000A450000000213A062100000700       PRNT0084
A4500001000249476500000000A060200000047A050000000047A040200000164       PRNT0085
A410000000714A050000000245A060100000047A050000000242A060100000046       PRNT0086
A050000000202A060100000037A002000000720A0500000000478000000000715       PRNT0087
A060100000164A007400400007A300000000047A050000000172A040200000176       PRNT0088
9073400100000A450000000213A062100000726A4500001000249476500000000       PRNT0089
A060200000045A050000000045A040200000165A410000000740A050000000245       PRNT0090
A060100000045A050000000242A060100000044A002000000746A050000000045       PRNT0091
8000000000741A060100000165A007400400007A300000000045A050000000206       PRNT0092
A060100000037A050000000156A040200000175A410000000752A002000000013       PRNT0093
A050000000172A0402000001769073400100000A450000100024A432000000230       PRNT0094
A060200000043A050000000043A040200000160A410000000766A050000000245       PRNT0095
A0601000000438000000000765A002000000775A050000000043A060100000160       PRNT0096
A007400400006A300000000160A060100000043A050000000207A060100000037       PRNT0097
A050000000172A0402000001779073400100000A450000000212A062100001003       PRNT0098
A4500001000249476500000000A432000000202A060200000042A050000000042       PRNT0099
A040200000161A4100000010148000000001011A050000000236A060100000042       PRNT0100
A002000001023A050000000042A060100000161A053400200042A050000200030       PRNT0101
A060100000042A050000000210A060100000037A050000000172A040200000177       PRNT0102
9073400100000A450000000213A062100001031A4500001000249476500000000       PRNT0103
A432000000223A060200000041A0500000000418000000001035A040200000163       PRNT0104
A410000001040A002000000013A050000000041A060100000163A007400400004       PRNT0105
A300000000163A060100001557A007400400000A300000001557A060100001557       PRNT0106
A450000000201A062100001053A4500000015579076700000000A450100000217       PRNT0107
A060200000041A050000000211A060100000037A0534001000378000000001061       PRNT0108
A050000000247A060100100056A007400400005A300000000056A002000000601       PRNT0109
A007400400005A300000000024A002000001553A002000001074A063400201507       PRNT0110
A007400201507A050000000024A060100000171A050000000024A060100000156       PRNT0111
A050000000156A040200000173A010000001106A050000000171A040200000174       PRNT0112
8000000001105A010000001113A007400400006A300000000171A060100000067       PRNT0113
A007400400005A300000000067A050000000156A040200000175A010000001120       PRNT0114
A012000001120A002000000014A050000000156A040200000175A410000001130       PRNT0115
A050000000247A060100000135A050000000247A060100000070A002000001134       PRNT0116
A0500000002328000000001131A060100000135A050000000232A060100000070       PRNT0117
A050000000171A040200000174A010000001146A007400400005A300000000145       PRNT0118
A050000000156A040200000176A410000001146A007400400005A300000000155       PRNT0119
A050000000247A060100000163A050000000247A060100000162A050000000247       PRNT0120
A060100000164A0500000002478000000001155A060100000165A050000000247       PRNT0121
A060100000161A050000000247A060100000160A050000000174A060100000157       PRNT0122
A002000001170A050000000157A040000000174A060100000157A050000000157       PRNT0123
A040200000171A010000001174A012000001504A053400200157A050000200024       PRNT0124
A060100000172A053400200172A0500002000248000000001201A060100000104       PRNT0125
A050000000172A0402000001749073400200000A050000200024A060100000102       PRNT0126
A050000000172A0402000001779073400100000A450000000215A062100001215       PRNT0127
A4500001000249476500000000A060200001557A007400400010A300000001557       PRNT0128
A060100000101A050000000177A060100000037A0500000001728000000001225       PRNT0129
A0402000001759073400100000A050000100024A040200000163A410000001235       PRNT0130
A050000000245A060100000077A002000001246A050000000172A040200000175       PRNT0131
9073400200000A050000200024A060100000077A050000000077A060100000163       PRNT0132
A050000000202A060100000037A050000000172A0402000001769073400100000       PRNT0133
8000000001251A050000100024A040200000162A410000001257A050000000245       PRNT0134
A060100000075A002000001270A050000000172A0402000001769073400200000       PRNT0135
A050000200024A060100000075A050000000203A060100000037A050000000075       PRNT0136
A060100000162A050000000172A0402000002009073400100000A050000100024       PRNT0137
A0402000001048000000001275A410000001301A050000000245A060100000073       PRNT0138
A002000001310A050000000172A0402000002009073400200000A050000200024       PRNT0139
A060100000073A050000000205A060100000037A050000000172A040200000201       PRNT0140
9073400100000A050000100024A040200000102A410000001321A050000000245       PRNT0141
A060100000071A0020000013308000000001321A050000000172A040200000201       PRNT0142
9073400200000A050000200024A060100000071A050000000207A060100000037       PRNT0143
A050000000156A040200000176A410000001336A050000000232A060100000070       PRNT0144
A002000001341A053400100037A050000000247A060100100104A007400400005       PRNT0145
A300000000104A053400100037A0500000002418000000001345A060100100104       PRNT0146
A050000000156A040200000175A410000001352A002000000022A007400400003       PRNT0147
A300000000104A300000000102C200203000044A300000000015A007400400010       PRNT0148
A300000000045A060100000115A050000000175A060100000037A050000000044       PRNT0149
A0400000002219076500000043A022100000222A4600000015578000000001371       PRNT0150
A007400400006A300000001557A060100000114A450000000053A432000000230       PRNT0151
A060200001557A007400400006A300000001557A060100000113A050000000113       PRNT0152
A040200000160A410000001410A050000000245A060100000113A002000001414       PRNT0153
A050000000113A060100000160A050000000176A060100000037A450000000213       PRNT0154
8000000001415A062100001417A4500000000529476500000000A060200000112       PRNT0155
A050000000112A040200000164A410000001431A050000000245A060100000112       PRNT0156
A050000000242A060100000111A002000001437A050000000112A060100000164       PRNT0157
A050000000200A060100000037A007400400007A300000000112A450000000213       PRNT0158
A0621000014428000000001441A4500000000539476500000000A060200000110       PRNT0159
A050000000110A040200000165A410000001454A050000000245A060100000110       PRNT0160
A050000000242A060100000107A002000001462A050000000110A060100000165       PRNT0161
A050000000202A060100000037A007400400007A300000000110A053400200047       PRNT0162
A050000200030A0601000001068000000001465A050000000106A040200000161       PRNT0163
A410000001474A053400100037A050000000247A060100100115A002000001476       PRNT0164
A050000000106A060100000161A007400400005A300000000115A002000000022       PRNT0165
A007400400005A300000000170A002000001165A0020000015538000000000057       PRNT0166
97777777777779246257575757960512523465190000000000009602631432562       PRNT0167
90000000000008000000000116957575757575793360434623429303360242565       PRNT0168
96060602164639575757575757960646225245796060606057579432524606060       PRNT0169
96060606026319465125236060960444624604595757575757579025757575757       PRNT0170
96060452144259604521442501800000000004090000000000009000000000000       PRNT0171
90000000000009000000000000900000000000090000000000009000000000000       PRNT0172
90000000000009000000000000900000000000090000000000009000000000000       PRNT0173
90000000000009605757575757900000000000080000000000339000000000016       PRNT0174
90000000000129000000000003900000000000080000000000659777777777777       PRNT0175
96043314542629000000000000800000000013590000000000009442502575757       PRNT0176
92501604345219336043452144960475146274594751462245339026044462460       PRNT0177
96060452144259604521442501977777777777792565335757579252460606024       PRNT0178
96060606064629602631432524964633033606094651252360219604446246045       PRNT0179
80000000000709000000000000900000000000096057575757579000000000000       PRNT0180
96057575757579000000000000960575757575790000000000009605757575757       PRNT0181
90000000000009000000000000960575757575790000000000009777777777777       PRNT0182
90000000000009000000000000900000000000090000000000009000000000000       PRNT0183
90000000000008000000000114900000000000090000000000008000000000166       PRNT0184
97777777777779466026314325960606060604580000000000259606321472557       PRNT0185
96024316242579602451644457900000000000080000000000239377777777777       PRNT0186
95557575757578000000001505A00740040000290000000000019300000000000       PRNT0187
A463400101507A0634004015539050000400001A062100000462A062100001076       PRNT0188
9050000400002A0601000004769050000400003A062100000460A062100000611       PRNT0189
A062100001074A0621000011759050000400004A062100000614A062100000621       PRNT0190
A062100000636A0621000006518000000001531A062100000665A062100000677       PRNT0191
A062100000725A062100000755A062100001002A062100001030A062100001200       PRNT0192
A062100001205A062100001214A062100001227A062100001240A062100001251       PRNT0193
A062100001262A062100001273A062100001304A062100001313A062100001324       PRNT0194
90020002000019077400400000A0534002015078000000001555A453400101507       PRNT0195
900200040000180000000015609000000000000                                 PRNT0196
$EOF   PRNTLS    06/12/10  09:37:52    BSS2OBJ 1.0.0                    PRNT0197
