0SORTER0006146SORTER000372800000000000090021000000004EXIT  000000       SORT0001
96225636060609624651636260964456225636080000000000559777777000000       SORT0002
80000000000519077777077777800000000004590000000000058000000000054       SORT0003
97760000000008000000000044900000000000480000000000569777777777777       SORT0004
80000000000429000000000002800000000004790000000000078000000000053       SORT0005
97700000000008000000000046900000000000680000000000409000000000000       SORT0006
80000000000509000000000036800000000004390000000000038000000000041       SORT0007
9000000000001800000000005292330000000008000000000005C700506000501       SORT0008
C700154000153C700445000442C700442000441C700440000435C700434000431       SORT0009
C7004300004258000000000057A002000000245A0020000000638000000000001       SORT0010
A0021000000618000000000061A063400200227A007400200227A056000000024       SORT0011
A02000000004390131000000009076000000002A040000000050A060100000034       SORT0012
A050000000041A060100000026A002000000077A050000000026A040000000041       SORT0013
A060100000026A050000000026A040200000031A010000000103A012000000154       SORT0014
A053400100026A0500001000248000000000105A040200000024A060100000032       SORT0015
A053400200032A050000200024A060100000036A050000000040A060100000030       SORT0016
A002000000120A050000000030A040000000041A060100000030A050000000030       SORT0017
A040200000046A010000000153A450000000036A432000000053A060200000244       SORT0018
A050000000244A040200000024A0100000001458000000000131A450000000034       SORT0019
A062100000134A4500000000309076700000000A053400100026A450100100024       SORT0020
A060200100024A053400100032A050000000036A060100100024A002000000006       SORT0021
A002000000152A450000000046A062100000150A4500000000369076700000000       SORT0022
A060200000036A002000000115A002000000074A0020000002408000000000155       SORT0023
A0020000001608000000000003A0021000001568000000000156A063400200227       SORT0024
A007400200227A056000000024A02000000004390131000000009076000000002       SORT0025
A040000000050A060100000034A050000000041A060100000026A002000000174       SORT0026
A050000000026A040000000041A060100000026A050000000026A040200000031       SORT0027
A010000000200A012000000225A053400100026A0500001000248000000000202       SORT0028
A040200000024A060100000032A450000000034A062100000207A450000100024       SORT0029
9476500000000A432000000047A060200000037A056000000046A020000000037       SORT0030
A0534001000329013100000000A062100000220A4500001000249476500000000       SORT0031
A053400200037A450100200025A060200100024A002000000171A002000000240       SORT0032
8000000000226A0074004000009300000000000A463400100227A063400400240       SORT0033
9050000400001A062100000063A062100000105A062100000160A062100000202       SORT0034
90020002000019077400400000A053400200227A4534001002279002000400001       SORT0035
8000000000245A002000000371A0020000002518000000000002A002100000247       SORT0036
8000000000247A063400200353A007400200353A050000000031A040000000041       SORT0037
A060100000032A050000000041A060100000026A002000000262A050000000026       SORT0038
A040000000041A060100000026A050000000026A040200000031A010000000351       SORT0039
A050000000040A060100000035A050000000023A0402000000249073400100000       SORT0040
A4500001000248000000000273A432000000024A060200000036A050000000042       SORT0041
A060100000030A002000000303A050000000030A040000000041A060100000030       SORT0042
A050000000030A040200000032A010000000341A053400100030A050000100024       SORT0043
A0402000000249073400100000A450000100024A432000000024A060200000037       SORT0044
A450000000037A4340000000368000000000317A0020000003229077400000000       SORT0045
9475400000000A010000000336A050000000041A060100000035A050000000030       SORT0046
A040200000041A0534001000309073400200000A450000100024A056000200024       SORT0047
A460000100024A060200200024A002000000340A050000000037A060100000036       SORT0048
A002000000300A050000000035A0402000000408000000000343A410000000345       SORT0049
A002000000365A050000000032A040200000041A060100000032A002000000257       SORT0050
A002000000365A0074004000009300000000000A463400100353A063400400365       SORT0051
9050000400001A062100000270A0621000003109050000400002A062100000273       SORT0052
A06210000031390020002000019077400400000A0534002003538000000000367       SORT0053
A4534001003539002000400001A002000000374A063400200545A007400200545       SORT0054
A050000000024A060100000031A050000000031A040200000042A010000000403       SORT0055
A012000000403A002000000606A050000000024A060100000027A050000000024       SORT0056
A060100000033A050000000027A040200000040A410000000413A002000000005       SORT0057
8000000000413A050000000027A040200000043A010000000420A012000000420       SORT0058
A002000000007A007400400002A300000000042A300000000056A053400200027       SORT0059
A002000200016A007400400002A300000000044A300000000054A002000000005       SORT0060
A007400400002A300000000045A300000000051A002000000005A007400400002       SORT0061
A3000000000438000000000437A300000000055A002000000005A002000000005       SORT0062
A007400400001A300000000040A300000000056A007400400001A300000000041       SORT0063
A300000000056A050000000027A040200000041A410000000462A007400400002       SORT0064
A300000000041A300000000056A007400400002A300000000040A300000000056       SORT0065
A002000000470A0074004000028000000000463A300000000040A300000000056       SORT0066
A007400400002A300000000041A300000000056A007400400003A300000000040       SORT0067
A300000000056A007400400003A300000000041A300000000056A050200000033       SORT0068
A060100000033A002000000005A050000000033A040200000040A010000000506       SORT0069
A412000000506A002000000606A0500000000318000000000507A040000000041       SORT0070
A060100000036A05600000003194754000000009076300000000A022100000042       SORT0071
9013100000000A040000000041A060100000037A050000000041A060100000026       SORT0072
A002000000526A050000000026A040000000041A060100000026A050000000026       SORT0073
A040200000037A010000000542A050000000036A0402000000268000000000533       SORT0074
A0534001000269073400200000A450000100024A056000200024A460000100024       SORT0075
A060200200024A002000000523A00200000060680000000000179606060606060       SORT0076
96060606060009606060600000960606000000096060000000009600000000000       SORT0077
90000000000008000000000543A00740040000090000000000019300000000000       SORT0078
A463400100545A0634004006069050000400001A0621000004039050000400002       SORT0079
A0621000004059050000400003A062100000110A062100000142A062100000217       SORT0080
A062100000223A062100000272A0621000003129050000400004A062100000104       SORT0081
A062100000136A0621000001378000000000567A062100000201A062100000206       SORT0082
A062100000307A062100000331A062100000332A062100000333A062100000334       SORT0083
A062100000374A062100000535A062100000536A062100000537A062100000540       SORT0084
A040200000544A06210000026790020002000019077400400000A053400200545       SORT0085
A45340010054590020004000019000000000000                                 SORT0086
$EOF   SORTER    06/11/10  14:10:01    BSS2OBJ 1.0.0                    SORT0087
