0NLREC  001436NLREC  00015800000000000090021000000004EXIT   00000       NLRE0001
90021000000004XMOD   00001800000000001190000000000009000000000001       NLRE0002
92330000000008000000000003C700101000077C7001020001018000000000014       NLRE0003
A002000000017A063400200103A007400200103A050000000024A040200000012       NLRE0004
9013100000000A0200000000249013100000000A040000000024A060100000007       NLRE0005
A05600000000794754000000009076300000000A022100000024A460000000024       NLRE0006
A007400400001A300000000007A300000000024A060100000006A050000000006       NLRE0007
8000000000040A040200000011A010000000043A012000000044A002000000003       NLRE0008
A050000000006A040000000024A060100000005A0560000000059475400000000       NLRE0009
9076300000000A022100000024A02000000002490131000000009076000000002       NLRE0010
A040000000005A060100000010A05600000001094754000000009076300000000       NLRE0011
A0221000000108000000000064A460000000140A0560000000059475400000000       NLRE0012
9076300000000A0221000000249013100000000A0400000001409013100000000       NLRE0013
A020000000024A460000000024A002000000004A050000000011A060100000024       NLRE0014
A002000000134A0074004000009300000000000A463400100103A063400400134       NLRE0015
9050000400001A06210000001780000000001109050000400002A062100000022       NLRE0016
9050000400003A0621000000249050000400004A062100000031A060100000035       NLRE0017
9050000400005A0621000000459050000400006A062100000052A062100000053       NLRE0018
A062100000070A0621000000749050000400007A0621000000329050000400010       NLRE0019
A062100000075A062100000100900200020000180000000001349077400400000       NLRE0020
A053400200103A453400100103900200040000180000000001419000000000000       NLRE0021
$EOF   NLREC     06/29/10  20:40:39    BSS2OBJ 1.0.0                    NLRE0022
