0RECAP  021046RECAP  01641800000000000090021000000004ATTACH 00000       RECA0001
90021000000004BUFFER 0000190021000000004CLOSE  000029002100000000       RECA0002
4EXIT   0000390021000000004LINK   0000490021000000004OPEN   00005       RECA0003
90021000000004PRNTER 0000690021000000004RDWAIT 000079002100000000       RECA0004
4UNLINK 000108000000001635921434360606080000000016319000000000104       RECA0005
80000000016349077777000000800000000163390000007000008000000001630       RECA0006
90000000000078000000001627900000000000380000000016259000000000000       RECA0007
80000000016329000000000660800000000163795160606060608000000001626       RECA0008
9000000000001800000000163692330000000008000000000032C702040002027       RECA0009
C702042002041C702061002055C702055002054C702062002061C702070002067       RECA0010
C702015002011C702015002015C701703001673C701751001741C702050002044       RECA0011
C7020630020628000000001615944332633243380000000016239643326332433       RECA0012
80000000016139742631432534800000000162296023000005068000000001610       RECA0013
96011111111118000000001624964512725456380000000016149606044213143       RECA0014
80000000016179606047466263800000000161296025515146518000000001620       RECA0015
95125434621248000000001616940000000000080000000016219000000000660       RECA0016
8000000001640A002000001643A063400202071A007400202071A007400400000       RECA0017
A300000001615A300000001613A300000000045A007400400005A300000001637       RECA0018
A300000001623A300000001613A300000001616A300000001616A300000000045       RECA0019
A007400400001A300000001623A300000001613C201632000046A300000000045       RECA0020
A0074004000078000000001664A300000001623A300000001613A300000001625       RECA0021
C201627000016A300000000034A300000001611A300000000045A007400400007       RECA0022
A300000001623A300000001613A300000001625C201630000022A300000000034       RECA0023
A300000001611A300000000045A050000000023A040200001613A010000001714       RECA0024
A450000000022A4501000000238000000001710A060200002101A050000002101       RECA0025
A040200001625A410000001715A002000000042A007400400005A300000001637       RECA0026
A300000000022A300000000023A300000001616A300000001616A300000000045       RECA0027
A007400400001A300000000022A300000000023C201632000727A300000000045       RECA0028
A007400400007A300000000022A3000000000238000000001734A300000001625       RECA0029
C201627000016A300000000044A300000001611A300000000045A007400400007       RECA0030
A300000000022A300000000023A300000001625C201630000012A300000000044       RECA0031
A300000001611A300000000045A450000000012A450100000013A060200002101       RECA0032
A050000002101A040200001625A410000001760A0020000000438000000001760       RECA0033
A450000000016A432000001633A060200002101A050000002101A040200001625       RECA0034
A410000001767A002000000043A450000000017A432000001634A060200002101       RECA0035
A050000002101A040200001625A410000002043A050000000016A040200001625       RECA0036
A010000002043A012000002043A007400400000A300000000022A300000000023       RECA0037
8000000002004A300000000033A007400400010A300000001624A300000001614       RECA0038
A300000000040A007400400010A300000001624A300000001617A300000000041       RECA0039
A007400400004A300000001624A300000001614A300000001622A300000001610       RECA0040
A300000001612A300000001620A300000001631A300000000032A002000000044       RECA0041
A0074004000048000000002030A300000001624A300000001617A300000001622       RECA0042
A300000001610A300000001612A300000001620A300000001631A300000000033       RECA0043
A002000000044A007400400006A002000000044A002000000043A007400400000       RECA0044
A300000001615A300000001613A300000000045A007400400002A300000000022       RECA0045
A300000000023A3000000000358000000002054A002000000042A007400400002       RECA0046
A300000001623A300000001613A300000000036A002000002075A007400400006       RECA0047
A007400400002A300000001635A300000001616A300000000037A002000002075       RECA0048
A0074004000039300000000000A463400102071A0634004020759002000200001       RECA0049
9077400400000A053400202071A45340010207180000000021009002000400001       RECA0050
80000000021029000000000000                                              RECA0051
$EOF   RECAP     06/29/10  20:42:55    BSS2OBJ 1.0.0                    RECA0052
