0SETIOT 003546SETIOT 001666SETJUL 0005080000000000009002100000000       SETI0001
4EXIT   000008000000000040900000000055680000000000369000000000101       SETI0002
80000000000329000000000014800000000003790000000005558000000000041       SETI0003
90000002506008000000000026900000000000080000000000319000000000004       SETI0004
80000000000309000000000002800000000004290000007777778000000000033       SETI0005
90000000000228000000000043900003700000080000000000349000000000027       SETI0006
80000000000449000740000000800000000003590000000000338000000000046       SETI0007
97770000000008000000000027900000000000180000000000459233000000000       SETI0008
8000000000047A002000000052A063400200317A007400200317A450000000024       SETI0009
A432000000046A060200000350A450000000035A062100000060A450000000350       SETI0010
9476500000000A060200000024A450000000024A432000000044A060200000350       SETI0011
A450000000034A062100000070A4500000003509476500000000A060200000022       SETI0012
A4500000000248000000000073A432000000043A060200000350A450000000033       SETI0013
A062100000100A4500000003509476500000000A060200000002A450000000024       SETI0014
A432000000042A060200000023A050000000022A040200000030A010000000121       SETI0015
A412000000121A0560000000249475400000000A022100000031A040200000026       SETI0016
A410000000121A0500000000278000000000117A060100000024A002000000123       SETI0017
A050000000026A060100000024A050000000023A040200000041A010000000127       SETI0018
A012000000141A050000000037A0400000000249076000000002A040000000002       SETI0019
A010000000135A012000000141A050000000022A040200000032A010000000143       SETI0020
A412000000143A050000000026A0020000003448000000000143A050000000024       SETI0021
A040200000036A060100000024A053400100022A050000100021A040000000002       SETI0022
A0400000000249013100000000A020000000003A460000000350A056000000024       SETI0023
A0200000000259013100000000A040000000350A040000000023A060100000024       SETI0024
A050000000024A002000000344A002000000170A0634002003178000000000167       SETI0025
A007400200317A05600000002494754000000009076300000000A022100000025       SETI0026
A460000000024A056000000025A02000000002490131000000009076000000002       SETI0027
A0400000000249076500000043A022100000003A460000000002A056000000002       SETI0028
A020000000003A460000000350A056000000024A0200000000259013100000000       SETI0029
8000000000213A040000000350A060100000350A0560000000249475400000000       SETI0030
A022100000350A060100000023A050000000024A040000000036A060100000024       SETI0031
A050000000023A040200000041A010000000230A012000000234A050000000002       SETI0032
A040200000040A010000000236A412000000236A050000000026A002000000344       SETI0033
A0500000000278000000000237A060100000022A002000000244A050000000022       SETI0034
A040000000027A060100000022A050000000022A0400000000279073400100000       SETI0035
A050000100021A040200000002A010000000254A012000000254A002000000241       SETI0036
A050000000022A040200000032A010000000260A012000000264A050000000022       SETI0037
A040200000026A0100000002668000000000263A012000000266A050000000026       SETI0038
A002000000344A053400200022A050000000002A040200200021A060100000002       SETI0039
A450000000033A062100000275A4500000000029076700000000A060200000350       SETI0040
A450000000034A062100000302A4500000000229076700000000A060200000351       SETI0041
A450000000035A062100000307A45000000002480000000003079076700000000       SETI0042
A450100000351A450100000350A450100000023A060200000024A050000000024       SETI0043
A0020000003448000000000025900017023160080000000000039000000250600       SETI0044
90000000005559000000000516900000000046090000000004219000000000363       SETI0045
90000000003249000000000265900000000022790000000001709000000000132       SETI0046
90000000000739000000000037900000000000090000000000008000000000316       SETI0047
A0074004000009300000000000A463400100317A0634004003449050000400001       SETI0048
A062100000052A062100000062A062100000072A062100000102A062100000313       SETI0049
A0621000003149050000400002A062100000117A062100000122A062100000130       SETI0050
A062100000151A062100000162A062100000163A062100000170A062100000201       SETI0051
8000000000342A06210000021590020002000019077400400000A053400200317       SETI0052
A453400100317900200040000180000000003529000000000000                    SETI0053
$EOF   SETIOT    06/29/10  20:49:43    BSS2OBJ 1.0.0                    SETI0054
