0CENTER 00377H0000000774616CENTER 002336ADJUST 000268000000000000       CENT0001
90021000000004EXIT   00000800000000002390000000000028000000000021       CENT0002
90000000000009000000000001800000000002492330000000008000000000002       CENT0003
C700130000124C700231000230C700106000104C7001000000768000000000007       CENT0004
90000000000608000000000025A002000000030A063400200320A007400200320       CENT0005
A050000000024A040200000024A010000000034A412000000035A002000000371       CENT0006
A050000000021A060100000010A050000000022A060100000013A050000000022       CENT0007
A060100000014A002000000047A050000000014A040000000022A060100000014       CENT0008
A050000000014A0402000000248000000000051A010000000053A012000000075       CENT0009
A052000000010A002000000065A053400100014A050000100024A040200000007       CENT0010
A010000000065A050000000014A060100000013A050000000022A060100000010       CENT0011
A452000000010A002000000074A053400100014A050000100024A040200000007       CENT0012
A410000000074A002000000005A0020000000448000000000075A002000000371       CENT0013
A050000000022A060100000012A050000000024A040000000024A040200000024       CENT0014
A060100000020A050000000020A060100000017A050200000022A060100000011       CENT0015
A050000000024A060100000016A050000000024A060100000015A002000000120       CENT0016
A050200000022A040000000015A060100000015A0500000000158000000000121       CENT0017
A040200000013A010000000124A412000000200A053400100017A053400200015       CENT0018
A050000200024A060100100024A050000000017A040000000011A060100000017       CENT0019
A05600000001594754000000009076300000000A022100000023A020000000023       CENT0020
9013100000000A040200000015A010000000145A452000000012A002000000172       CENT0021
8000000000145A053400100015A050000100024A040200000007A410000000172       CENT0022
A053400100017A050000000007A060100100024A050000000017A040000000011       CENT0023
A060100000017A050000000024A040000000022A060100000024A050000000024       CENT0024
A040000000022A060100000024A050000000024A040200000024A010000000171       CENT0025
A4120000001728000000000171A002000000371A050000000011A040200000021       CENT0026
A010000000177A412000000177A002000000003A002000000115A050000000024       CENT0027
A040200000016A410000000204A002000000371A050000000021A060100000012       CENT0028
A050000000022A060100000011A050000000017A040000000022A060100000006       CENT0029
A050000000013A0601000000178000000000215A050000000006A060100000015       CENT0030
A002000000223A050000000015A040000000022A060100000015A050000000015       CENT0031
A040200000020A010000000227A012000000231A002000000002A002000000220       CENT0032
A002000000004A002000000235A063400200320A007400200320A050000000024       CENT0033
A0402000000229076000000002A0400000000248000000000241A010000000243       CENT0034
A412000000244A002000000371A050000000024A0402000000249076500000043       CENT0035
A022100000023A460000000011A050000000024A060100000014A002000000257       CENT0036
A050200000022A040000000014A060100000014A050000000014A040200000022       CENT0037
A010000000263A412000000272A050000000014A0400000000118000000000265       CENT0038
9073400100000A053400200014A050000200024A060100100024A002000000254       CENT0039
A050000000022A060100000014A002000000300A050000000014A040000000022       CENT0040
A060100000014A050000000014A040200000011A010000000304A012000000310       CENT0041
A053400100014A050000000007A060100100024A002000000275A050000000024       CENT0042
8000000000311A040000000011A060100000024A050000000024A040000000011       CENT0043
A060100000024A002000000371A0074004000009300000000000A463400100320       CENT0044
A0634004003719050000400001A062100000056A062100000070A062100000126       CENT0045
A062100000127A062100000146A062100000153A062100000267A062100000270       CENT0046
A06210000030680000000003359050000400002A062100000050A062100000101       CENT0047
A062100000110A062100000112A062100000157A062100000161A062100000200       CENT0048
A062100000251A062100000310A0621000003129050000400003A062100000031       CENT0049
A062100000100A062100000166A062100000235A0621000002449050000400004       CENT0050
A062100000030A0621000001028000000000361A062100000162A062100000164       CENT0051
A062100000165A062100000240A062100000245A062100000313A062100000315       CENT0052
90020002000019077400400000A053400200320A4534001003209002000400001       CENT0053
9000000000000                                                           CENT0054
$EOF   CENTER    08/20/10  12:34:43    BSS2OBJ 1.0.1                    CENT0055
