0SETFT  00363H0000000752076SETFT  001736SETHD  000228000000000000       SETF0001
90021000000004EXIT   0000090021000000004NUMCON 000018000000000020       SETF0002
94747466225248000000000017944215127314580000000000169262123314527       SETF0003
80000000000149232545632551800000000001390000000000028000000000011       SETF0004
90000000000009000000000001800000000001592330000000008000000000003       SETF0005
C700223000220C700171000166800000007522490000000000608000000000021       SETF0006
A002000000024A063400200336A007400200336A050000000012A060100000006       SETF0007
A0500000000119060100000000A05600007612794754000000009076300000000       SETF0008
A022100000013A0200000000139013100000000A040200076127A010000000042       SETF0009
9475400000000A002000000043A050000000012A060100000005A050000077454       SETF0010
8000000000045A040200000011A410000000050A002000000004A050000076702       SETF0011
A040200000014A410000000061A050000076070A0402000774549076500000043       SETF0012
A022100000013A460000000010A002000000121A452000000005A002000000071       SETF0013
A050000076702A040200000016A410000000071A050000000011A060100000010       SETF0014
A0020000001218000000000071A050000076702A040200000016A010000000077       SETF0015
A050000076702A040200000017A410000000103A050000076070A040200077454       SETF0016
A060100000010A002000000121A050000076702A040200000020A410000000121       SETF0017
A050000076126A040200000016A410000000117A452000000005A002000000117       SETF0018
A050000076070A0402000774548000000000115A060100000010A002000000121       SETF0019
A050000000011A060100000010A050000000012A060100000006A002000000127       SETF0020
A050000000006A040000000012A060100000006A050000000006A040200000010       SETF0021
A010000000133A012000000137A053400100006A0500000752249060100100000       SETF0022
A002000000124A050000000010A0400000000128000000000141A060100000006       SETF0023
A002000000146A050000000006A040000000012A060100000006A050000000010       SETF0024
A0400000774549076000000002A040000000006A010000000154A012000000163       SETF0025
A050000000006A040200000010A0534001000069073400200000A050000277453       SETF0026
9060100100000A002000000143A050000000006A0402000000128000000000165       SETF0027
9060100000000A052000076125A002000000171A002000000003A002000000355       SETF0028
A002000000175A063400200336A007400200336A0500000000119060100000000       SETF0029
A052000076125A002000000202A002000000355A050000000012A060100000006       SETF0030
A05600007612794754000000009076300000000A022100000013A020000000013       SETF0031
80000000002119013100000000A040200076127A4100000002169475400000000       SETF0032
A002000000217A050000000012A060100000005A052000076130A002000000223       SETF0033
A002000000355A050000076071A040200000225A300000076123A062100000231       SETF0034
A007400400001A3000000761279300000000000A300000076124A040000076071       SETF0035
A0601000000078000000000235A050000076126A040200000014A410000000246       SETF0036
A050000076070A0402000000079076500000043A022100000013A460000000010       SETF0037
A002000000261A452000000005A002000000256A050000076126A040200000016       SETF0038
A410000000256A050000000011A060100000010A002000000261A050000076070       SETF0039
A040200000007A0601000000108000000000261A050000000006A060100000006       SETF0040
A002000000267A050000000006A040000000012A060100000006A050000000006       SETF0041
A040200000010A010000000273A012000000277A053400100006A050000075224       SETF0042
9060100100000A002000000264A050000000010A040000000012A060100000006       SETF0043
A002000000306A050000000006A0400000000128000000000305A060100000006       SETF0044
A050000000010A0400000000079076000000002A040000000006A010000000314       SETF0045
A012000000323A050000000006A040200000010A0534001000069073400200000       SETF0046
A0500002761239060100100000A002000000303A050000000006A040200000012       SETF0047
90760000000029040000000000A010000000334A0120000003348000000000331       SETF0048
A050000000006A0402000000129060100000000A002000000355A007400400000       SETF0049
9300000000000A463400100336A0634004003559050000400001A062100000135       SETF0050
A062100000161A062100000275A0621000003219050000400002A062100000027       SETF0051
A062100000165A062100000176A062100000326A0621000003339002000200001       SETF0052
80000000003559077400400000A053400200336A4534001003369002000400001       SETF0053
9000000000000                                                           SETF0054
$EOF   SETFT     08/20/10  12:35:03    BSS2OBJ 1.0.1                    SETF0055
