0RDCARD 002346RDCARD 001376WRCARD 0003080000000000009002100000000       RDCA0001
4EXIT   0000090021000000004RDWORD 0000190021000000004WRWORD 00002       RDCA0002
80000000000249000000000036800000000002390000000000168000000000022       RDCA0003
90000000000068000000000020900000000000080000000000259000000000124       RDCA0004
80000000000219000000000001800000000002692330000000008000000000013       RDCA0005
90000000000068000000000017900000000004480000000000049000000000060       RDCA0006
800000000000690000000000778000000000027A002000000032A063400200213       RDCA0007
A007400200213A050000000024A060100000007A050000000007A040200000025       RDCA0008
A010000000042A412000000042A050000000025A060100000007A050000000020       RDCA0009
A060100000012A050000000021A060100000011A002000000052A050000000011       RDCA0010
A040000000021A060100000011A0500000000118000000000053A040200000007       RDCA0011
A010000000056A012000000101A450000000022A062100000061A450000000015       RDCA0012
9076700000000A053400200011A450100200024A060200000015A050000000012       RDCA0013
A040000000021A060100000012A050000000012A040200000022A010000000074       RDCA0014
A412000000100A050000000020A060100000012A0074004000028000000000077       RDCA0015
A300000000015A002000000047A050000000011A060100000011A002000000107       RDCA0016
A050000000011A040000000021A060100000011A050000000011A040200000025       RDCA0017
A010000000113A012000000135A450000000022A062100000116A450000000015       RDCA0018
9076700000000A450100000004A060200000015A050000000012A040000000021       RDCA0019
8000000000123A060100000012A050000000012A040200000022A010000000130       RDCA0020
A412000000134A050000000020A060100000012A007400400002A300000000015       RDCA0021
A002000000104A002000000226A002000000141A063400200213A007400200213       RDCA0022
A050000000020A060100000014A050000000021A060100000011A002000000151       RDCA0023
A0500000000118000000000147A040000000021A060100000011A050000000011       RDCA0024
A040200000023A010000000155A012000000210A007400400001A300000000024       RDCA0025
A060100000016A050000000024A060100000010A002000000166A050200000022       RDCA0026
A040000000010A060100000010A050000000010A040200000020A010000000172       RDCA0027
A412000000207A4500000000108000000000173A062100000175A450000000016       RDCA0028
9476500000000A432000000006A060200000005A050000000014A040000000021       RDCA0029
A060100000014A053400100014A050000000005A060100100024A002000000163       RDCA0030
A002000000146A050000000025A002000000226A0074004000009300000000000       RDCA0031
A463400100213A06340040022690500004000018000000000217A062100000063       RDCA0032
A0621000002059050000400002A0621000000329050000400003A060100000156       RDCA0033
90020002000019077400400000A053400200213A4534001002139002000400001       RDCA0034
9000000000000                                                           RDCA0035
$EOF   RDCARD    06/22/10  15:15:07    BSS2OBJ 1.0.0                    RDCA0036
