0NUMCON 00405H0000000774616NUMCON 0007180000000000009002100000000       NUMC0001
4EXIT   000009466463606060800000000006390000000000049000000000005       NUMC0002
80000000000629000000000002800000000006690000000001008000000000065       NUMC0003
90000000000128000000000060900000000000090000000000018000000000067       NUMC0004
92330000000008000000000003C7001360001238000000000010C700322000310       NUMC0005
C700153000151C700164000153800000000004190000000000449000000000024       NUMC0006
90000000000239000000000043900000000006790000000000659000000000031       NUMC0007
80000000000179000000000003800000000005495146442145439514644214564       NUMC0008
92151212231238000000000004A700000000011A700000000012A700000000003       NUMC0009
8000000000070A002000000073A063400200364A007400200364A050000000060       NUMC0010
A060100000051A050000000024A060100000016A050000000060A060100000013       NUMC0011
A050000000061A060100000014A002000000107A050000000014A040000000061       NUMC0012
A060100000014A050000000014A040200000017A010000000113A012000000122       NUMC0013
A0534001000148000000000114A050000100057A040200000024A410000000121       NUMC0014
A053400200014A002000200007A002000000104A002000000376A056000000016       NUMC0015
94754000000009076300000000A022100000065A0200000000659013100000000       NUMC0016
9076000000002A040000000016A060100000402A007400400001A300000000402       NUMC0017
A056000000016947540000000080000000001409076300000000A022100000065       NUMC0018
A460000000016A050000000016A040200000060A010000000150A412000000150       NUMC0019
A002000000003A002000000010A050000000066A060100000013A050000000061       NUMC0020
A060100000015A002000000161A050000000015A040000000062A060100000015       NUMC0021
A050000000016A040200000060A0100000003108000000000164A056000000016       NUMC0022
94754000000009076300000000A022100000064A0200000000649013100000000       NUMC0023
9076000000002A040000000016A060100000052A0560000000169475400000000       NUMC0024
9076300000000A022100000064A460000000016A0560000000169475400000000       NUMC0025
9076300000000A022100000062A02000000006290131000000008000000000210       NUMC0026
9076000000002A040000000016A060100000053A0560000000169475400000000       NUMC0027
9076300000000A022100000062A460000000016A050000000052A040200000063       NUMC0028
A410000000254A050000000053A040200000060A410000000236A050000000015       NUMC0029
A040000000061A040200000231A300000000050A062100000234A007400400001       NUMC0030
80000000002349300000000000A002000000245A050000000015A040000000062       NUMC0031
A040200000241A300000000050A062100000244A0074004000019300000000000       NUMC0032
A050000000015A040200000247A300000000050A062100000252A007400400001       NUMC0033
9300000000000A002000000307A050000000061A060100000014A002000000262       NUMC0034
A0500000000148000000000260A040000000061A060100000014A050000000014       NUMC0035
A040200000052A010000000266A012000000275A050000000015A040200000270       NUMC0036
A300000000050A062100000273A0074004000019300000000000A002000000257       NUMC0037
A050000000053A040200000061A410000000307A050000000015A040000000061       NUMC0038
A040200000303A3000000000508000000000304A062100000306A007400400001       NUMC0039
9300000000000A002000000156A050000000061A060100000016A002000000316       NUMC0040
A050000000016A040000000061A060100000016A050000000016A040200000051       NUMC0041
A010000000322A012000000332A050000000051A040200000016A040000000061       NUMC0042
A0534001000169073400200000A0500002000408000000000330A060100100024       NUMC0043
A002000000313A050000000051A002000000376A002000000363A002000000340       NUMC0044
8000000000001A0021000003368000000000336A063400200351A007400200351       NUMC0045
A050000000051A040000000061A060100000051A450000000024A450100000013       NUMC0046
A053400100051A060200100040A002000000357A0074004000009300000000000       NUMC0047
A463400100351A0634004003579050000400001A0621000003439002000200001       NUMC0048
9077400400000A053400200351A45340010035180000000003629002000400001       NUMC0049
A0074004000009300000000000A463400100364A0634004003769050000400001       NUMC0050
A0621000000759050000400002A0621000003309050000400003A062100000115       NUMC0051
90020002000019077400400000A053400200364A4534001003649002000400001       NUMC0052
80000000004039000000000000                                              NUMC0053
$EOF   NUMCON    08/20/10  12:35:12    BSS2OBJ 1.0.1                    NUMC0054
