0NUM    01032H0000000774616NUM    007166GET    006606NXCHAR 00604       NUM 0001
800000000000090021000000004EXIT   0000090021000000004READ   00001       NUM 0002
96223214560608000000000576900000000001280000000005759000000000011       NUM 0003
80000000005749000000000006800000000057790000000000778000000000602       NUM 0004
96060606060608000000000600900000000055080000000005729000000000000       NUM 0005
9000000000001800000000060192330000000008000000000004C700670000665       NUM 0006
C700726000723C700613000610C700642000630C700630000623C700774000760       NUM 0007
90000000000608000000000567900000000005790000000000558000000000603       NUM 0008
A002000000606A063400201012A007400201012A050000000572A060100000024       NUM 0009
A050000000013A040000000573A060100000013A050000000013A040200000015       NUM 0010
A010000000620A412000000620A002000000010A053400200013A050000200566       NUM 0011
A002000001023A007400400001A300000000566A300000000600A300000000024       NUM 0012
8000000000627A060100000015A053400100015A050000100566A040200000567       NUM 0013
A010000000642A050000100566A040200000570A010000000642A050000100566       NUM 0014
A040200000012A410000000652A050000000015A040200000573A060100000015       NUM 0015
A050000000015A040200000572A410000000651A002000000010A002000000007       NUM 0016
A0500000005738000000000653A060100000024A050000000572A060100000013       NUM 0017
A002000000006A002000000662A063400201012A007400201012A050000000602       NUM 0018
A060100000571A007400400002A050000000013A040000000573A060100000013       NUM 0019
A053400100013A050000100566A040200000012A010000000700A050000000013       NUM 0020
A040200000015A0100000007028000000000677A412000000702A050000000571       NUM 0021
A002000001023A053400100013A450000100566A432000000577A060200001027       NUM 0022
A450000000574A062100000711A4500000005719076700000000A450100001027       NUM 0023
A060200000571A002000000004A002000000720A063400201012A007400201012       NUM 0024
A050000000572A060100000014A0074004000028000000000723A050000000013       NUM 0025
A040000000573A060100000013A053400100013A050000100566A040200000012       NUM 0026
A010000000736A050000000013A040200000015A010000000740A412000000740       NUM 0027
A050000000014A002000001023A053400100013A050000100566A040200000575       NUM 0028
A010000000745A012000000753A056000000014A0200000005768000000000747       NUM 0029
A0534002000139013100000000A040000200566A060100000014A002000000005       NUM 0030
A002000001011A0020000007608000000000002A0021000007568000000000756       NUM 0031
A063400201001A007400201001A050000000013A040000000573A040200000015       NUM 0032
A010000000765A012000000773A050000000013A0400000005739073400100000       NUM 0033
A050000100566A040200000012A010000000774A002000001005A050000000013       NUM 0034
A040000000573A060100000013A002000000011A0074004000009300000000000       NUM 0035
8000000001002A463400101001A06340040100590020002000019077400400000       NUM 0036
A053400201001A4534001010019002000400001A0074004000009300000000000       NUM 0037
A463400101012A0634004010239050000400001A062100000607A062100000653       NUM 0038
9050000400002A06010000062690020002000019077400400000A053400201012       NUM 0039
A4534001010128000000001026900200040000180000000010309000000000000       NUM 0040
$EOF   NUM       08/20/10  12:35:18    BSS2OBJ 1.0.1                    NUM 0041
