0(MAIN) 010762000000000325H00000007746180000000000009002100000000       (MAI0001
4BCOCT  0000090021000000004CHNCOM 0000190021000000004EXIT   00002       (MAI0002
90021000000004GETCLS 0000390021000000004GETOPT 000049002100000000       (MAI0003
4GETSYS 0000590021000000004.SETUP 0000690021000000004LDOPT  00007       (MAI0004
90021000000004OCRBC  0001090021000000004PR12   000119002100000000       (MAI0005
4RSOPT  0001290021000000004SETOPT 0001390021000000004SETSYS 00014       (MAI0006
90021000000004ZEL    00015800000000015294460606060608000000000103       (MAI0007
92262706263258000000000232960454660626480000000000779216242606014       (MAI0008
80000000002769626325446044800000000005690614106060608000000000055       (MAI0009
90000000000108000000000061910606060606080000000002569606060606014       (MAI0010
80000000001579456022316362800000000025796060606060608000000000176       (MAI0011
95125456360468000000000065914541423645180000000002369604751314563       (MAI0012
80000000002049600100000000800000000031296360606060608000000000060       (MAI0013
90624465144458000000000160945603126601480000000001239266023302131       (MAI0014
80000000002439606004000000800000000017094651444563608000000000307       (MAI0015
96346601406248000000000215960232143436080000000002429606002000000       (MAI0016
80000000001129244651444563800000000024196060010000008000000000127       (MAI0017
93145276014068000000000224960312660274680000000002219602551514651       (MAI0018
80000000001139246060606060800000000020596014062425218000000000222       (MAI0019
96027463145278000000000071921314560312680000000000759214524602330       (MAI0020
80000000001249266023464444800000000022096025452460468000000000057       (MAI0021
90624252124608000000000146943606346601480000000000749214460232143       (MAI0022
80000000002379604751462751800000000011092425212460608000000000223       (MAI0023
96031266014068000000000166946444421452480000000002319604525666023       (MAI0024
80000000001449336063512147800000000027296242606060608000000000164       (MAI0025
94624256044218000000000306963314645602380000000002179602346452431       (MAI0026
80000000000669145414626422800000000027796263254460608000000000261       (MAI0027
96062642262708000000000130931452760634680000000001259302545602746       (MAI0028
80000000002679622165256066800000000014794421633123608000000000136       (MAI0029
93360216463468000000000247960606001000080000000003039627062632544       (MAI0030
80000000001339316260626422800000000016594627512144608000000000115       (MAI0031
92545636047518000000000137933602364515180000000002529606060600400       (MAI0032
80000000001619456246432560800000000020095146446023468000000000153       (MAI0033
94521436260268000000000134931636062312780000000001019223163605064       (MAI0034
80000000001419336031453031800000000025196060606002008000000000323       (MAI0035
97062632544608000000000202951606264226280000000001459432560646225       (MAI0036
80000000001409336025452122800000000025096060606001008000000000117       (MAI0037
92560314421278000000000315963626023465180000000003119636051256225       (MAI0038
80000000001119244651442145800000000032296630314325608000000000151       (MAI0039
94444214524608000000000156945256660234680000000001219256260312660       (MAI0040
80000000003219652560263143800000000031096360212363318000000000142       (MAI0041
93360512562258000000000255960606060600480000000002149602246633060       (MAI0042
80000000003209646360454663800000000012693125627360228000000000175       (MAI0043
95125236346518000000000304963254460243180000000001719465160627062       (MAI0044
80000000002639606462255160800000000015594524626031458000000000105       (MAI0045
92330602646518000000000254960606060600280000000001549452460263143       (MAI0046
80000000002169602346444421800000000030096263602646518000000000063       (MAI0047
91424602631518000000000201951601464142680000000001069233060646225       (MAI0048
80000000001439336062252151800000000025396060606060018000000000070       (MAI0049
91464622551608000000000245960603025434796060434621248000000000240       (MAI0050
96051256225638000000000260960606062256380000000002749626060606060       (MAI0051
80000000000729214360223163800000000032497070707070708000000000053       (MAI0052
90000000000008000000000150944442145243380000000001329314645602346       (MAI0053
80000000000739214360464763800000000022596031434325278000000000271       (MAI0054
96225636270628000000000100921624260606080000000002739626014206044       (MAI0055
80000000001679464763314645800000000020395170604626608000000000262       (MAI0056
96062644444218000000000264961264651602180000000001739471407146114       (MAI0057
80000000002069601406302543800000000016294562606060608000000000235       (MAI0058
96046476331468000000000270962256360462680000000000769216045256660       (MAI0059
80000000002269604346212460800000000031496362146163468000000000107       (MAI0060
92414076022318000000000207960140643462180000000001029223163626060       (MAI0061
80000000002339604626266046800000000013593163621461638000000000122       (MAI0062
92563140760228000000000211960140651256280000000003169636260606060       (MAI0063
80000000001319314645602231800000000011692551604647638000000000234       (MAI0064
96046456064628000000000172946606364514580000000002669621461146163       (MAI0065
80000000000629140760223163800000000011492544606060608000000000317       (MAI0066
96422627062638000000000313963606447606280000000002659616346606225       (MAI0067
80000000002279604421624214800000000030296270624521448000000000301       (MAI0068
96270621407608000000000212960140662256380000000002759626321636462       (MAI0069
80000000001749476331464560800000000017795131456360468000000000067       (MAI0070
91461634660478000000000163945631407146180000000002109601406475131       (MAI0071
80000000001209256060606060800000000023096044217060228000000000244       (MAI0072
96060215127628000000000213960215127626080000000003059633146451407       (MAI0073
80000000000649145414064647800000000005490000000000018000000000104       (MAI0074
92330000000008000000000017C700464000460C700445000440C700447000445       (MAI0075
8000000000325A007400400006A007400400003A300000000023A050000000024       (MAI0076
A040200000050A410000000430A007400400011A300000000064A300000000305       (MAI0077
A300000000213A007400400011A300000000244A300000000230A300000000120       (MAI0078
A007400400011A300000000210A300000000163A300000000067A300000000177       (MAI0079
A3000000001748000000000351A300000000275A007400400011A300000000212       (MAI0080
A300000000301A300000000302A300000000227A300000000265A300000000313       (MAI0081
A300000000317A300000000114A007400400011A300000000212A300000000062       (MAI0082
A300000000266A300000000172A300000000234A300000000116A300000000131       (MAI0083
A300000000316A0074004000118000000000375A300000000211A300000000122       (MAI0084
A300000000135A300000000172A300000000233A300000000174A300000000102       (MAI0085
A007400400011A300000000207A300000000107A300000000314A300000000226       (MAI0086
A300000000076A300000000270A300000000235A300000000162A007400400011       (MAI0087
A300000000206A300000000173A3000000002648000000000421A300000000262       (MAI0088
A300000000203A300000000167A300000000273A300000000100A007400400011       (MAI0089
A002000001070A050000000024A040200000271A410000000474A050000000025       (MAI0090
A060100000052A050000000052A040200000050A410000000447A007400400011       (MAI0091
A300000000225A300000000073A300000000132A3000000001508000000000445       (MAI0092
A007400400001A300000000053A007400400015A300000000026A060100000022       (MAI0093
A450000000022A432000000324A060200001073A050000001073A040200000053       (MAI0094
A010000000465A007400400011A300000000225A300000000072A300000000274       (MAI0095
A002000000021A007400400000A300000000022A060100001073A007400400014       (MAI0096
8000000000471A300000000052A300000001073A002000001070A050000000024       (MAI0097
A040200000260A410000000517A007400400015A300000000025A060100000022       (MAI0098
A450000000022A432000000324A060200001073A050000001073A040200000053       (MAI0099
A010000000511A002000000017A007400400000A300000000022A060100001073       (MAI0100
A0074004000138000000000515A300000001073A002000001070A050000000024       (MAI0101
A040200000240A410000000542A007400400015A300000000025A060100000022       (MAI0102
A450000000022A432000000324A060200001073A050000001073A040200000053       (MAI0103
A010000000534A002000000017A007400400000A300000000022A060100001073       (MAI0104
A007400400012A3000000010738000000000541A002000001070A050000000024       (MAI0105
A040200000246A410000000565A007400400015A300000000025A060100000022       (MAI0106
A450000000022A432000000324A060200001073A050000001073A040200000053       (MAI0107
A010000000557A002000000017A007400400000A300000000022A060100001073       (MAI0108
A007400400007A300000001073A0020000010708000000000565A050000000024       (MAI0109
A040200000245A410000001003A007400400011A300000000070A300000000167       (MAI0110
A300000000274A007400400011A300000000253A300000000143A300000000106       (MAI0111
A300000000201A300000000063A300000000300A300000000216A300000000154       (MAI0112
A300000000120A007400400011A300000000254A3000000001438000000000611       (MAI0113
A300000000105A300000000216A300000000155A300000000263A300000000171       (MAI0114
A300000000304A300000000175A300000000126A300000000320A300000000214       (MAI0115
A007400400011A300000000255A300000000142A300000000310A300000000321       (MAI0116
A300000000121A300000000156A300000000151A300000000322A300000000111       (MAI0117
8000000000635A300000000311A300000000315A300000000117A300000000120       (MAI0118
A007400400011A300000000250A300000000140A300000000145A300000000202       (MAI0119
A300000000323A007400400011A300000000251A300000000141A300000000101       (MAI0120
A300000000134A300000000153A300000000200A300000000161A007400400011       (MAI0121
A3000000002528000000000661A300000000137A300000000115A300000000165       (MAI0122
A300000000133A300000000303A007400400011A300000000247A300000000136       (MAI0123
A300000000147A300000000267A300000000125A300000000130A300000000261       (MAI0124
A300000000277A007400400011A300000000066A300000000303A300000000217       (MAI0125
A300000000306A3000000001648000000000705A300000000272A007400400011       (MAI0126
A300000000253A300000000144A300000000231A300000000166A300000000223       (MAI0127
A300000000110A007400400011A300000000254A300000000144A300000000237       (MAI0128
A300000000074A300000000146A300000000057A007400400011A300000000255       (MAI0129
A300000000144A300000000220A3000000001248000000000731A300000000075       (MAI0130
A300000000071A300000000222A300000000205A300000000113A007400400011       (MAI0131
A300000000250A300000000144A300000000221A300000000224A300000000127       (MAI0132
A300000000110A007400400011A300000000241A300000000144A300000000231       (MAI0133
A300000000166A300000000223A300000000112A0074004000118000000000755       (MAI0134
A300000000242A300000000144A300000000215A300000000307A300000000170       (MAI0135
A007400400011A300000000243A300000000144A300000000220A300000000123       (MAI0136
A300000000160A300000000060A300000000312A007400400011A300000000204       (MAI0137
A300000000144A300000000221A300000000224A300000000127A300000000112       (MAI0138
8000000001001A007400400011A002000001070A050000000024A040200000236       (MAI0139
A410000001067A007400400005A300000000052A300000000022A007400400004       (MAI0140
A300000000053A060100000051A007400400011A300000000065A300000000176       (MAI0141
A300000000174A300000000275A300000000257A007400400010A300000000051       (MAI0142
A0601000010738000000001025A007400400011A300000000235A300000000157       (MAI0143
A300000000256A300000000061A300000001073A450000000051A432000000055       (MAI0144
A060200001073A050000001073A040200000053A010000001061A007400400011       (MAI0145
A300000000261A300000000277A300000000256A300000000056A300000000052       (MAI0146
A007400400010A3000000000228000000001051A060100001073A007400400011       (MAI0147
A300000000261A300000000276A300000000077A300000000061A300000001073       (MAI0148
A002000001065A007400400011A300000000232A300000000103A300000000152       (MAI0149
A007400400011A002000001070A002000000020A007400400001A300000000053       (MAI0150
800000000005097777777777778000000001072A0074004000028000000001074       (MAI0151
9000000000000                                                           (MAI0152
$EOF   (MAIN)    06/24/10  10:22:19    BSS2OBJ 1.0.0                    (MAI0153
