0REMARK0003656REMARK0001346FIRST 00013180000000000009002100000000       REMA0001
4BUFFER00000090021000000004CHNCOM00000190021000000004CLOSE 000002       REMA0002
90021000000004COMARG00000390021000000004EXIT  0000049002100000000       REMA0003
4EXMEM 00000590021000000004FERRTN00000690021000000004FSTATE000007       REMA0004
90021000000004GETTM 00001090021000000004GMEM  0000119002100000000       REMA0005
4OPEN  00001290021000000004PRNTER00001390021000000004PRNTP 000014       REMA0006
90021000000004RDFILE00001590021000000004TSSFIL0000169002100000000       REMA0007
4USRFIL00001790021000000004WHOAMI00002090021000000004WRFILE000021       REMA0008
90021000000004WRWAIT000022800000000012392143436060608000000000120       REMA0009
90000000000618000000000127966606060606080000000001179000000000022       REMA0010
80000000001259516060606060800000000012190000000006609000000100000       REMA0011
80000000001169000000000016800000000012696060602223248000000000115       REMA0012
90000000000028000000000113900000000000090000000000018000000000124       REMA0013
92330000000008000000000024C700334000332C700151000147C700344000342       REMA0014
8000000000130A002000000133A063400200345A007400200345A002000000136       REMA0015
A063400200345A007400200345800000000005497777777777779442502406060       REMA0016
92501604045219514260452144933605125442196031626033339246026465144       REMA0017
92346444421459777777777777963632524606093126604644319142223241460       REMA0018
92545602162609316260632142945214425026097777777777779434645276060       REMA0019
92346512462609316525605125963302145602680000000001009604325626260       REMA0020
92725602145249512440314421960222560232196260446462639512544215142       REMA0021
80000000000339606060606060960606060606096060606060609606060606060       REMA0022
96060606060609606060606060960606060606096060606060609606060606060       REMA0023
96060606060609606060606060960606060606096060606060609606060606060       REMA0024
80000000001129606064622551800000000011195125442151428000000000032       REMA0025
97777777777778000000000052900000077777780000000001069000000004160       REMA0026
8000000000136A007400400003A300000000114A300000000107A040200000032       REMA0027
A410000000154A007400400014A300000000063A007400400014A300000000072       REMA0028
A007400400014A300000000105A007400400001A300000000113A002000000163       REMA0029
A007400400003A300000000115A300000000110A040200000032A410000000163       REMA0030
A0500000001268000000000162A060100000110A007400400006A300000000024       REMA0031
A007400400007A300000000107A300000000110C200114000053A056000000053       REMA0032
94754000000009076300000000A022100000116A0200000001169013100000000       REMA0033
A040200000053A410000000205A050000000053A040200000106A010000000206       REMA0034
A412000000206A0020000000258000000000206A007400400011A300000000031       REMA0035
9076000000002A040000000122A060100000027A050000000027A040200000121       REMA0036
A060100000030A050000000053A040000000121A060100000362A007400400005       REMA0037
A300000000362A007400400012A300000000125A300000000107A300000000110       REMA0038
A300000000031A050000000030A0402000002328000000000232A300000000024       REMA0039
A062100000240A007400400015A300000000107A300000000110A300000000114       REMA0040
B200053000000A007400400002A300000000107A300000000110A053400100030       REMA0041
A450000000117A062100000250A4500001000249476500000000A060200000362       REMA0042
A050000000362A040200000052A410000000256A0020000000258000000000256       REMA0043
A007400400016A007400400012A300000000127A300000000112A300000000111       REMA0044
A300000000113A050000000027A040200000266A300000000024A062100000273       REMA0045
A007400400000A300000000112A300000000111B200121000000A007400400022       REMA0046
A300000000112A300000000111A300000000113C200116000033A007400400010       REMA0047
8000000000302A300000000041A300000000042A007400400020C200115000035       REMA0048
A007400400021A300000000112A300000000111A300000000113C200116000033       REMA0049
A050000000030A040200000315A300000000024A062100000323A007400400021       REMA0050
A300000000112A300000000111A300000000113B200053000000A007400400002       REMA0051
A3000000001128000000000326A300000000111A007400400017A007400400001       REMA0052
A300000000113A007400400013A300000000120A050200000113A060100000362       REMA0053
A007400400002A300000000123A300000000362A300000000026A007400400001       REMA0054
A300000000114A0074004000049300000000000A463400100345A063400400356       REMA0055
9050000400001A0601000002328000000000352A062100000247A060100000266       REMA0056
A06010000031590020002000019077400400000A053400200345A453400100345       REMA0057
900200040000180000000003639000000000000                                 REMA0058
$EOF   REMARK    06/22/10  18:23:04    BSS2OBJ 1.0.0                    REMA0059
