0CANON 0005456CANON 000036800000000000090021000000004EXIT  000000       CANO0001
80000000000249000000000002800000000002790000777700009040000000000       CANO0002
80000000000259000000000014800000000003292000000000008000000000026       CANO0003
90000000077778000000000031910000000000080000000000349300000000000       CANO0004
80000000000229000000000000900000000000180000000000339233000000000       CANO0005
8000000000002C700311000310C700242000237C700301000275C700262000256       CANO0006
80000000000079000000000135900000000006080000000000219000000000540       CANO0007
8000000000035A002000000040A063400200471A007400200471A050000000024       CANO0008
A040200000024A010000000044A412000000045A002000000536A050000000023       CANO0009
A060100000006A050000000023A060100000017A002000000055A050000000017       CANO0010
A040000000023A060100000017A050000000017A040200000024A010000000061       CANO0011
A0120000003118000000000061A452000000006A002000000100A053400100017       CANO0012
A050000100024A040200000007A410000000076A050000000022A060100000006       CANO0013
A050000000017A060100000011A050000000017A060100000014A002000000005       CANO0014
A002000000002A002000000237A053400200017A050000200024A060100000020       CANO0015
A053400200011A0500002000248000000000105A060100000012A050000000020       CANO0016
A040200000007A410000000112A002000000005A050000000020A040200000010       CANO0017
A410000000116A002000000003A050000000020A040200000021A410000000153       CANO0018
A450000000012A432000000034A060200000542A050000000542A040200000022       CANO0019
A010000000134A450000000012A4501000000318000000000131A053400100011       CANO0020
A060200100024A002000000152A050000000012A040200000010A410000000143       CANO0021
A053400100011A050000000020A060100100024A002000000152A050000000012       CANO0022
A040200000021A010000000152A450000000012A450100000031A053400100011       CANO0023
A060200100024A002000000237A450000000012A4320000000268000000000155       CANO0024
A060200000542A050000000542A040200000020A010000000167A450000000012       CANO0025
A432000000032A060200000542A050000000542A040200000022A010000000170       CANO0026
A002000000003A050000000012A040200000010A410000000177A053400100011       CANO0027
A050000000020A060100100024A002000000237A050000000012A040200000021       CANO0028
8000000000201A410000000207A450000000020A450100000031A053400100011       CANO0029
A060200100024A002000000237A450000000012A432000000026A060200000013       CANO0030
A050000000020A040200000013A010000000223A012000000223A050000000020       CANO0031
A060100000013A450000000012A432000000026A060200000020A450000000012       CANO0032
A4320000000318000000000225A060200000542A450000000025A062100000231       CANO0033
A4500000000209076700000000A450100000013A450100000032A450100000542       CANO0034
A053400100011A060200100024A050000000011A040000000023A060100000011       CANO0035
A050000000011A040200000014A010000000255A053400100011A450000100024       CANO0036
A432000000030A0602000005428000000000251A050000000542A040200000022       CANO0037
A010000000255A002000000003A002000000004A050000000011A040200000023       CANO0038
A410000000262A002000000004A050000000011A040200000023A060100000011       CANO0039
A053400100011A450000100024A432000000030A060200000542A050000000542       CANO0040
A040200000022A010000000275A0020000000058000000000275A053400100017       CANO0041
A450000100024A450100000030A060200100024A052000000006A002000000310       CANO0042
A050000000011A040200000014A410000000310A050000000023A060100000006       CANO0043
A002000000052A050000000024A060100000016A050000000024A060100000015       CANO0044
A002000000321A050200000023A040000000015A0601000000158000000000321       CANO0045
A050000000015A040200000023A010000000325A412000000344A053400100015       CANO0046
A450000100024A432000000030A060200000542A050000000542A040200000022       CANO0047
A410000000343A053400100016A053400200015A050000200024A060100100024       CANO0048
A050000000016A040200000023A060100000016A002000000316A050000000023       CANO0049
8000000000345A060100000015A050000000016A040000000023A060100000016       CANO0050
A002000000355A050000000016A040000000023A060100000016A050000000016       CANO0051
A040200000024A010000000361A012000000464A053400200016A050000200024       CANO0052
A060100000013A450000000013A432000000034A060200000542A050000000542       CANO0053
A0402000000228000000000371A410000000376A053400100015A050000000013       CANO0054
A060100100024A002000000460A450000000013A432000000026A053400100015       CANO0055
A060200100024A450000000013A432000000032A060200000542A050000000542       CANO0056
A040200000022A010000000435A050000000015A0400000000239073400100000       CANO0057
A050000000007A0601001000248000000000415A450000000013A432000000027       CANO0058
A060200000542A450000000025A062100000423A4500000005429476500000000       CANO0059
A060200000542A050000000015A0400000000249073400100000A050000000542       CANO0060
A060100100024A050000000015A040000000024A060100000015A450000000013       CANO0061
A432000000031A060200000542A0500000005428000000000441A040200000022       CANO0062
A010000000460A050000000015A0400000000239073400100000A050000000007       CANO0063
A060100100024A050000000015A0400000000249073400100000A050000000021       CANO0064
A060100100024A050000000015A040000000024A060100000015A050000000015       CANO0065
A040000000023A060100000015A002000000352A0500000000158000000000465       CANO0066
A040200000023A060100000024A002000000536A0074004000009300000000000       CANO0067
A463400100471A0634004005369050000400001A062100000064A062100000101       CANO0068
A062100000104A062100000132A062100000141A062100000151A062100000175       CANO0069
A062100000205A062100000236A062100000246A062100000266A062100000276       CANO0070
8000000000511A062100000300A062100000326A062100000336A062100000337       CANO0071
A062100000362A062100000374A062100000401A062100000414A062100000431       CANO0072
A062100000447A0621000004549050000400002A062100000040A062100000056       CANO0073
A062100000313A0621000004669050000400003A062100000041A062100000311       CANO0074
A062100000356800000000053590020002000019077400400000A053400200471       CANO0075
A453400100471900200040000180000000005439000000000000                    CANO0076
$EOF   CANON     06/22/10  15:27:46    BSS2OBJ 1.0.0                    CANO0077
