0(MAIN) 002072000000000030H00000007520780000000000009002100000000       (MAI0001
4BIN    0000090021000000004CHBALL 0000190021000000004CHNCOM 00002       (MAI0002
90021000000004COMARG 0000390021000000004EXIT   000049002100000000       (MAI0003
4.PCOMT 0000590021000000004.SETUP 0000690021000000004RUNOFF 00007       (MAI0004
90021000000004SETBRK 00010800000000002596060222143438000000000024       (MAI0005
96047513145638000000000026960604721272580000000000239454666213163       (MAI0006
80000000000279606062634647800000000002190000000000248000000000020       (MAI0007
90000000000028000000000016900000000000090000000000018000000000022       (MAI0008
92330000000008000000000012C7000440000418000000000030A007400400006       (MAI0009
80000000000149777777777777800000007746190000000000018000000077460       (MAI0010
90000000000008000000077457900000000000080000000774559000000000000       (MAI0011
8000000000031A007400400010A300000000002A007400400003A300000000017       (MAI0012
A060100077456A050000077456A040200000014A410000000056A007400400005       (MAI0013
90000000000019646221272535A00740040000590000000000069606060606051       (MAI0014
96445462626609452144256040947212725604594060406263469474060606060       (MAI0015
A0074004000028000000000055A300000000016A050000000020A060100000015       (MAI0016
A002000000064A050000000015A040000000017A060100000015A050000000015       (MAI0017
A040200000021A010000000070A012000000200A007400400003A300000000015       (MAI0018
A040200000014A010000000200A007400400003A300000000015A060100000013       (MAI0019
A050000000013A0402000000278000000000101A410000000105A050000000016       (MAI0020
A060100077461A002000000177A050000000013A040200000023A410000000115       (MAI0021
A050000000017A060100077460A050000000017A060100077461A002000000177       (MAI0022
A050000000013A040200000026A410000000141A050000000015A040000000017       (MAI0023
A060100000204A007400400003A3000000002048000000000125A060100000013       (MAI0024
A050000000013A040200000014A410000000132A002000000012A050000000015       (MAI0025
A040000000017A060100000015A007400400000A300000000013A060100077457       (MAI0026
A002000000177A050000000013A040200000024A410000000151A050000000017       (MAI0027
A060100077455A050000000017A060100077460A0020000001778000000000151       (MAI0028
A050000000013A040200000025A410000000176A050000000015A040000000017       (MAI0029
A060100000204A007400400003A300000000204A060100000013A050000000013       (MAI0030
A040200000014A410000000166A002000000012A050000000015A040000000017       (MAI0031
A060100000015A007400400001A300000000013A300000000020A300000000012       (MAI0032
8000000000175A002000000177A002000000012A002000000061A007400400007       (MAI0033
A007400400002A300000000016A00740040000480000000002059000000000000       (MAI0034
$EOF   (MAIN)    08/20/10  12:48:27    BSS2OBJ 1.0.1                    (MAI0035
