0(MAIN) 021552000000001166H00000007746180000000000009002100000000       (MAI0001
4ATTNAM 0000090021000000004BUFFER 0000190021000000004CHFILE 00002       (MAI0002
90021000000004CHNCOM 0000390021000000004CLOSE  000049002100000000       (MAI0003
4COM    0000590021000000004DELFIL 0000690021000000004EXIT   00007       (MAI0004
90021000000004FERRTN 0001090021000000004FILBUF 000119002100000000       (MAI0005
4FSTATE 0001290021000000004GCLS   0001390021000000004ISCAN  00014       (MAI0006
90021000000004.SETUP 0001590021000000004NAMASK 000169002100000000       (MAI0007
4OPEN   0001790021000000004PRMESA 0002090021000000004PRMESS 00021       (MAI0008
90021000000004PRNTER 0002290021000000004RDFLXC 000238000000000024       (MAI0009
90021000000004RESETF 0002490021000000004SCAN   000259002100000000       (MAI0010
4SCNFIL 0002690021000000004SETBUF 0002790021000000004UPDATE 00030       (MAI0011
90021000000004WHOAMI 0003190021000000004WRTBUF 000329002100000000       (MAI0012
4WRWAIT 000339665123215124800000000107390000000000168000000001113       (MAI0013
93145276060608000000001133960312745465180000000011069255151465133       (MAI0014
80000000011639706263254460800000000111092560465160628000000001115       (MAI0015
94421233031458000000001143960606060605480000000010729000000000013       (MAI0016
80000000011019000000000660800000000116096660606060609702562606060       (MAI0017
80000000011649742631223460800000000115296335606060608000000001146       (MAI0018
96066214563608000000001145960626331434380000000011059244660704664       (MAI0019
80000000011209462425336060800000000110392163251460448000000001126       (MAI0020
96014475131658000000001136960316260314580000000010749000000000020       (MAI0021
80000000010779000000000034800000000107690000000000248000000001065       (MAI0022
90000000000058000000001122946644524736080000000011419604546636026       (MAI0023
80000000011009000000000061800000000106390000000000038000000001102       (MAI0024
92143436060608000000001067900000000000780000000011659742631432534       (MAI0025
80000000011569643326332433800000000115196333606060608000000001125       (MAI0026
95125506425628000000001124947432563256080000000011349603145234644       (MAI0027
96031626021458000000001075900000000002280000000010629000000000002       (MAI0028
80000000010669000000000006800000000113096023215151708000000001147       (MAI0029
96325513360608000000001111925626360432180000000011239472560515064       (MAI0030
80000000011429606051256370800000000112796022646270338000000001112       (MAI0031
93143256031628000000001154964256263602680000000011509633025605150       (MAI0032
80000000010709000000000010800000000106490000000000048000000001155       (MAI0033
96425626360608000000001153963602160515080000000011379603162604546       (MAI0034
80000000010719000000000011800000000115796631452760408000000001132       (MAI0035
96026464343468000000001121946266063302580000000011629706021457060       (MAI0036
80000000011409604421706022800000000110792560234444248000000001144       (MAI0037
96060663025518000000001114933333325632380000000011179452144250260       (MAI0038
80000000011169452144250160800000000113196023444424608000000001060       (MAI0039
90000000000009000000000001800000000110492330000000008000000000075       (MAI0040
C701716001710C701554001545C701563001557C701700001654C701545001544       (MAI0041
C701571001566C701565001563C701544001543C702025002024C702101002077       (MAI0042
C701610001571C701377001374C7021200021078000000001166A007400400015       (MAI0043
80000000007749000000000000800000000077690000000000008000000001034       (MAI0044
90000000000018000000001002900000000000190000000000008000000000112       (MAI0045
97025626060608000000000777900000000000280000000000369777777777777       (MAI0046
80000000001139605757575757800000000077597360575757578000000001035       (MAI0047
94651575757579466463476463951506425626380000000010419602321515170       (MAI0048
94743462425439606047434663924254325632590747642425439074764452330       (MAI0049
92447642425439244764452330922476424254392247644523309626247512443       (MAI0050
96262475145639475145242543960475131456390000000000168000000001167       (MAI0051
A007400400013A300000000062A300000001060A050000000062A060100001037       (MAI0052
A050000000061A040200000036A410000001264A007400400021A300000000062       (MAI0053
A300000001131A300000001116A300000001117A300000001114A007400400021       (MAI0054
A300000001144A300000001107A300000001140A300000001162A300000001121       (MAI0055
8000000001213A300000001132A300000001157A050000001061A060100001004       (MAI0056
A002000001223A050000001004A040000001061A060100001004A050000001057       (MAI0057
A0402000010619076000000002A040000001004A010000001231A012000001253       (MAI0058
A050000001004A040200001233A300000001057A062100001236A007400400020       (MAI0059
93000000000008000000001237A300000000775A0560000010049475400000000       (MAI0060
9076300000000A022100001071A02000000107190131000000009076000000002       (MAI0061
A040000001004A410000001252A007400400021A002000001220A050000001057       (MAI0062
A040200001255A300000001057A062100001261A007400400021A300000001035       (MAI0063
9300000000000A0074004000038000000001263A300000001060A050000001061       (MAI0064
A060100001004A002000001272A050000001004A040000001061A060100001004       (MAI0065
A050000001004A040200001057A010000001276A012000001303A053400201004       (MAI0066
A050000000061A040200201057A010000001303A002000001267A050000001004       (MAI0067
A040200001057A010000001316A4120000013168000000001307A007400400021       (MAI0068
A300000000061A300000001137A300000001153A300000001155A007400400003       (MAI0069
A300000001060A007400400031C201064001022A007400400010A300000000103       (MAI0070
A050000000061A060100001006A007400400012A300000001036A300000001037       (MAI0071
C201070000065A300000000077A300000001001A0500000000678000000001333       (MAI0072
A040200001061A010000001351A007400400021A300000001150A300000001154       (MAI0073
A300000001112A300000001127A300000001142A300000001123A300000001111       (MAI0074
A300000001147A007400400003A300000001060A002000001374A450000000066       (MAI0075
A432000001061A060200002151A050000002151A040200001060A010000001374       (MAI0076
8000000001357A050200001060A060100002151A050200001060A060100002152       (MAI0077
A007400400002A300000001036A300000001037A300000001061A300000002152       (MAI0078
A300000002151A007400400006A300000001036A300000001037A050000000061       (MAI0079
A040200001130A410000001403A050000001061A060100000774A050000001066       (MAI0080
A0601000007778000000001403A050000001062A060100001004A002000001411       (MAI0081
A050000001004A040000000777A060100001004A050000001004A040200001075       (MAI0082
A010000001415A012000001544A053400101004A050000100062A040200000036       (MAI0083
A010000001544A050000001004A0400000010619073400100000A050000100062       (MAI0084
A040200000036A4100000014438000000001427A050000001004A040200001431       (MAI0085
A300000000062A062100001434A0074004000219300000000000A300000001135       (MAI0086
A300000001134A300000001124A300000001125A300000001151A002000000101       (MAI0087
A050000001004A040200001445A300000000062A062100001450A007400400016       (MAI0088
9300000000000A060100001026A0500000010048000000001453A040000001061       (MAI0089
A040200001455A300000000062A062100001460A0074004000169300000000000       (MAI0090
A060100001027A450000001026A432000001027A060200002152A050000002152       (MAI0091
A040200000036A410000001511A050000001060A060100001040A053400201004       (MAI0092
A050000200062A060100000063A050000001004A0400000010618000000001477       (MAI0093
9073400200000A050000200062A060100000064A007400400012A300000000063       (MAI0094
A300000000064C201070000065A300000000102A300000001000A002000001542       (MAI0095
A050000001061A060100001040A452000001034A002000001523A050000001060       (MAI0096
A060100001034A007400400030A007400400026A300000001156A300000001165       (MAI0097
8000000001523A050000001004A040000001061A040200001526A300000000062       (MAI0098
A062100001536A050000001004A040200001532A300000000062A062100001535       (MAI0099
A00740040001493000000000009300000000000A007400400025C201067000063       (MAI0100
A300000000107A002000000100A002000001406A007400400032A452000000776       (MAI0101
A0020000015548000000001547A050200001060A060100002152A007400400004       (MAI0102
A300000001102A300000002152A007400400024A007400400003A300000001060       (MAI0103
A050000001001A040200001063A410000001563A002000000110A007400400022       (MAI0104
A300000001100A002000000076A050000001000A040200001063A410000001651       (MAI0105
A050000001004A0400000010618000000001573A040200001574A300000000062       (MAI0106
A062100001605A050000001004A040200001600A300000000062A062100001603       (MAI0107
A0074004000219300000000000A3000000001139300000000000A300000001141       (MAI0108
A300000001122A050000001004A0400000010659073400100000A050000100062       (MAI0109
A040200000036A010000001640A0500000010048000000001617A040000001064       (MAI0110
9073400100000A050000100062A040200000036A010000001640A050000001004       (MAI0111
A0400000010639073400100000A050000100062A040200000036A010000001640       (MAI0112
A050000001004A0400000010629073400100000A050000100062A040200000036       (MAI0113
A410000001644A452000000774A002000001644A0500000010768000000001643       (MAI0114
A060100000777A052000001040A002000001647A002000000075A002000000104       (MAI0115
A002000001654A007400400022A300000001100A002000000104A450000001077       (MAI0116
A062100001657A4500000000679476500000000A432000001074A060200002152       (MAI0117
A050000002152A040200001060A010000001667A052000001040A002000001700       (MAI0118
8000000001667A450000000066A432000001074A060200002152A050000002152       (MAI0119
A040200001060A010000001677A452000001040A002000001700A002000001730       (MAI0120
A007400400020A300000000063A300000000113A300000000064A300000001136       (MAI0121
A300000001126A300000001103A300000001120A007400400020A300000001105       (MAI0122
A3000000011458000000001713A300000001146A300000001125A300000001152       (MAI0123
A050000001025A040200001164A010000001724A007400400023A300000000112       (MAI0124
A300000001066A050000000112A040200001161A010000001730A002000000106       (MAI0125
A452000001002A002000001751A050000001060A060100001002A007400400017       (MAI0126
A300000001160A3000000010368000000001737A300000001037A007400400001       (MAI0127
A300000001036A300000001037C201101000114A007400400027C201072001007       (MAI0128
A300000001003A300000000034A300000000111A452000000774A002000002075       (MAI0129
A007400400000C201062000071A050000000063A060100000073A050000000064       (MAI0130
A060100000074A050000001061A0601000010058000000001763A002000001767       (MAI0131
A050000001005A040000001061A060100001005A050000001004A040000001061       (MAI0132
A0400000010059073400100000A050000100062A040200000036A010000002025       (MAI0133
A050000001005A040200001064A010000002002A012000002025A050000001004       (MAI0134
A040000001005A0400000010619073400100000A0500001000628000000002007       (MAI0135
A040200001143A410000002012A002000000105A050000001004A040000001061       (MAI0136
A040000001005A060100002152A050000001064A0402000010059073400100000       (MAI0137
A053400202152A050000200062A060100100074A002000001764A050000001004       (MAI0138
A040000001005A0400000010619073400100000A050000100062A040200000036       (MAI0139
8000000002033A410000002036A050000001076A060100000777A007400400016       (MAI0140
A300000000073A060100001031A007400400016A300000000074A060100001033       (MAI0141
A007400400005A300000001031A060100001030A007400400005A300000001033       (MAI0142
A060100001032A450000000073A432000001031A060200002152A450000000063       (MAI0143
A4320000010308000000002057A450100002152A060200000073A450000000074       (MAI0144
A432000001033A060200002152A450000000064A432000001032A450100002152       (MAI0145
A060200000074A007400400011C201062000063C201064000071A007400400032       (MAI0146
A002000002077A007400400011C201062000063A452000001040A002000002106       (MAI0147
A007400400025C2010670000638000000002103A300000000104A002000000100       (MAI0148
A002000002107A002000000104A007400400021A300000001115A300000001110       (MAI0149
A300000001163A300000001106A300000001133A300000001113A300000000063       (MAI0150
A300000000064A002000000106A002000002150A0020000021258000000000034       (MAI0151
A0021000021238000000002123A063400202140A007400202140A007400400033       (MAI0152
A300000001036A300000001037A300000001060C201073001006A050000001060       (MAI0153
A060100001003A050000001061A060100000776A002000002144A007400400007       (MAI0154
9300000000000A463400102140A06340040214490020002000019077400400000       (MAI0155
A053400202140A45340010214080000000021479002000400001A007400400007       (MAI0156
80000000021539000000000000                                              (MAI0157
$EOF   (MAIN)    12/01/11  13:25:53    BSS2OBJ 1.0.1                    (MAI0158
