0RUNOFF 01334H0000000752076RUNOFF 0016080000000000009002100000000       RUNO0001
4BRKLIN 0000090021000000004CHNCOM 0000190021000000004ENDRD  00002       RUNO0002
90021000000004EXIT   0000390021000000004FRAME  000049002100000000       RUNO0003
4GET    0000590021000000004.PCOMT 0000690021000000004NUMCON 00007       RUNO0004
90021000000004NUM    0001090021000000004NXCHAR 000119002100000000       RUNO0005
4PACK   0001290021000000004PRPIX  0001390021000000004SEEK   00014       RUNO0006
90021000000004SETCHR 0001590021000000004SETDWN 000169002100000000       RUNO0007
4SETLIN 0001790021000000004SETPAG 0002090021000000004SETUP  00021       RUNO0008
90021000000004SETWRD 0002290021000000004SYMGET 000238000000000024       RUNO0009
90021000000004SYMSTO 0002490021000000004WAIT   000258000000000150       RUNO0010
96060606462258000000000063924252631452580000000000679263127645125       RUNO0011
93025212425518000000000126960606060302580000000001039602225273145       RUNO0012
80000000001209606060602247800000000005390000000000028000000000114       RUNO0013
96060604624248000000000135960606060464780000000001119606047212725       RUNO0014
80000000001369606060604721800000000010094751252631678000000000146       RUNO0015
96060606225638000000000151960606242314780000000001019514644214543       RUNO0016
95146442145648000000000057921512122312380000000001159606060462626       RUNO0017
80000000000609224663634644800000000014796060606346478000000000066       RUNO0018
92621233145278000000000074944215127314580000000001419606060606060       RUNO0019
80000000001409606060604744800000000007794721273145278000000000127       RUNO0020
96060606030448000000000065925212431452780000000001379606060604743       RUNO0021
80000000001529606230465163800000000014296060606062308000000000054       RUNO0022
90000000000068000000000073943254527633080000000001059604721472551       RUNO0023
80000000000649244664224325800000000012396060606024628000000000154       RUNO0024
96231452743258000000000144960606060626280000000000759454626314343       RUNO0025
80000000001339606060604526800000000010696060263143438000000000124       RUNO0026
96060606026318000000000055921244164626380000000001169606060602124       RUNO0027
80000000000769454641646263800000000013496060606045418000000000155       RUNO0028
96445242545638000000000145960606060644580000000000719314524254563       RUNO0029
80000000001309606060603145800000000013296060606043438000000000110       RUNO0030
96060433145258000000000107960602643212780000000001259606060602643       RUNO0031
80000000000729316325512143800000000013196060606043318000000000061       RUNO0032
92325456325518000000000122960606060232580000000001049602251252142       RUNO0033
80000000001219606060602251800000000015396062472123258000000000143       RUNO0034
96060606062478000000000056921474725452480000000001179606060602147       RUNO0035
80000000001129606060236624960606025452480000000000519000000000000       RUNO0036
80000000001569744425444634800000000005290000000000018000000000062       RUNO0037
92330000000008000000000027C700227000224C701065001065C700233000232       RUNO0038
C700204000200C700673000670C700630000625C700711000707C701064001061       RUNO0039
C700223000221C700210000206800000007521590000000000338000000075214       RUNO0040
90000000001568000000075213900000000015380000000752249000000000060       RUNO0041
80000000752119000000000040900000000003580000000752169000000000072       RUNO0042
80000000752109000000000057800000007522390000000001358000000075220       RUNO0043
90000000000559000000000055900000000005580000000752629000000000060       RUNO0044
90000000000259000000000027900000000002190000000000478000000077454       RUNO0045
90000000000008000000075234947474662252480000000752729442151273145       RUNO0046
80000000752719000000000000800000007523590000000000058000000075270       RUNO0047
90000000000008000000075233900000000000280000000752329215121223123       RUNO0048
80000000752259000000000054900000000006090000000000608000000076070       RUNO0049
90000000000748000000075306900000000000080000000752749000000000074       RUNO0050
80000000752739000000000102800000007531190000000000019000000000001       RUNO0051
80000000752769000000000000800000007530190000000000008000000000044       RUNO0052
90000000000008000000000157A002000000162A063400201321A007400201321       RUNO0053
A007400400021A007400400014A300000077456A300000000156A300000000031       RUNO0054
A052000077460A002000000200A00740040000690000000000049434621246047       RUNO0055
921472551736093031636051259636451456060A007400400025A007400400011       RUNO0056
A300000000045A3000000000318000000000203A060100000041A452000000045       RUNO0057
A002000000221A452000000044A002000000213A050000000051A060100000044       RUNO0058
A002000000217A050000000041A040200075215A410000000217A002000000027       RUNO0059
A007400400015A300000075222A007400400015A300000000041A002000000032       RUNO0060
A007400400005A300000000051A0601000000428000000000227A050000000042       RUNO0061
A040200000113A410000000241A007400400022A007400400017A007400400020       RUNO0062
A007400400016A007400400001A300000000051A002000001275A050000000042       RUNO0063
A040200000112A410000000246A002000000027A002000001275A050000000042       RUNO0064
A040200000117A010000000254A050000000042A0402000000568000000000253       RUNO0065
A410000000270A007400400002A300000077456A300000000156A007400400005       RUNO0066
A300000000051A060100077456A007400400014A300000077456A300000000156       RUNO0067
A300000000031A002000000032A002000001275A050000000042A040200000143       RUNO0068
A010000000276A050000000042A040200000153A410000000342A007400400010       RUNO0069
8000000000277A300000000051A060100000050A050000000050A040200000051       RUNO0070
A410000000306A050000000052A060100000050A007400400022A007400400017       RUNO0071
A050000000050A040000075305A040200075304A010000000340A012000000340       RUNO0072
A050000000052A060100000043A002000000323A050000000043A040000000052       RUNO0073
A0601000000438000000000323A050000000043A040200000050A010000000327       RUNO0074
A012000000333A007400400012A300000075222A300000000052A002000000320       RUNO0075
A050000075305A040000000050A060100075305A007400400000A002000000341       RUNO0076
A007400400020A002000001275A050000000042A040200000121A010000000350       RUNO0077
A050000000042A0402000001048000000000347A410000000352A007400400000       RUNO0078
A002000001275A050000000042A040200000122A010000000360A050000000042       RUNO0079
A040200000061A410000000372A007400400000A050000000052A060100075313       RUNO0080
A050000000052A060100075303A050000075312A060100075302A050000000051       RUNO0081
A060100075312A002000001275A0500000000428000000000373A040200000131       RUNO0082
A010000000400A050000000042A040200000072A410000000403A050000000052       RUNO0083
A060100000044A002000001275A050000000042A040200000125A010000000411       RUNO0084
A050000000042A040200000107A410000000414A050000000052A060100075301       RUNO0085
A002000001275A050000000042A040200000110A4100000004268000000000417       RUNO0086
A007400400005A300000000051A060100000042A007400400010A300000000051       RUNO0087
A060100076070A002000001275A050000000042A040200000132A410000000435       RUNO0088
A007400400010A300000000051A060100076070A002000001275A050000000042       RUNO0089
A040200000130A010000000443A050000000042A040200000071A410000000447       RUNO0090
8000000000443A007400400010A300000000051A060100075306A002000001275       RUNO0091
A050000000042A040200000145A010000000455A050000000042A040200000155       RUNO0092
A410000000520A007400400000A007400400010A3000000000519076000000002       RUNO0093
A040000075306A060100000046A050000000046A040200000051A010000000471       RUNO0094
A0120000004718000000000467A050000000051A060100000046A050000075210       RUNO0095
A060100076700A050000000052A060100075307A002000000501A050000075307       RUNO0096
A040000000052A060100075307A050000000046A0400000000529076000000002       RUNO0097
A040000075307A010000000515A012000000515A050000075307A040000000052       RUNO0098
9073400100000A0500000752248000000000513A060100176701A002000000476       RUNO0099
A050000000046A060100075310A002000001275A050000000042A040200000134       RUNO0100
A010000000526A050000000042A040200000076A410000000532A007400400000       RUNO0101
A050000000051A060100075311A002000001275A050000000042A040200000116       RUNO0102
A010000000540A050000000042A0402000000558000000000537A410000000544       RUNO0103
A007400400000A050000000052A060100075311A002000001275A050000000042       RUNO0104
A040200000124A010000000552A050000000042A040200000106A410000000556       RUNO0105
A007400400000A050000000052A060100075312A002000001275A050000000042       RUNO0106
A040200000133A010000000564A050000000042A0402000000758000000000563       RUNO0107
A410000000570A007400400000A050000000051A060100075312A002000001275       RUNO0108
A050000000042A040200000144A010000000576A050000000042A040200000154       RUNO0109
A410000000602A007400400000A050000000051A060100075300A002000001275       RUNO0110
A050000000042A040200000123A010000000610A050000000042A040200000064       RUNO0111
8000000000607A410000000614A007400400000A050000000052A060100075300       RUNO0112
A002000001275A050000000042A040200000105A410000000634A007400400005       RUNO0113
A300000000051A060100000042A050000000042A040200000073A410000000633       RUNO0114
A007400400010A300000000051A060100075273A050000075273A040200000054       RUNO0115
A0601000752748000000000633A002000001275A050000000042A040200000142       RUNO0116
A010000000642A050000000042A040200000152A410000000650A007400400010       RUNO0117
A3000000000519076000000002A040000075304A060100075304A002000001275       RUNO0118
A050000000042A040200000137A410000000655A002000000034A002000001275       RUNO0119
A050000000042A0402000000658000000000657A410000000665A007400400005       RUNO0120
A300000000051A060100000042A002000000033A002000001275A050000000042       RUNO0121
A040200000127A410000000674A007400400005A300000000051A060100075234       RUNO0122
A002000001275A050000000042A040200000077A410000000704A007400400005       RUNO0123
A300000000051A060100000042A0020000000358000000000703A002000001275       RUNO0124
A050000000042A040200000140A410000001066A050000000052A060100075270       RUNO0125
A007400400005A300000000051A060100000042A050000000042A040200000141       RUNO0126
A410000000721A002000000030A002000001064A050000000042A040200000074       RUNO0127
A410000000727A050000000042A060100075272A0020000010648000000000727       RUNO0128
A050000000042A040200000066A410000000735A050000000042A060100075272       RUNO0129
A002000001064A050000000042A040200000061A410000000743A050000000042       RUNO0130
A060100075272A002000001064A050000000042A040200000147A410000000751       RUNO0131
A050000000051A060100075271A002000001064A050000000042A040200000060       RUNO0132
8000000000753A410000000757A050000000052A060100075271A002000001064       RUNO0133
A050000000042A040200000115A410000000765A050000000051A060100075270       RUNO0134
A002000001064A050000000042A040200000057A410000000773A050000000042       RUNO0135
A060100075232A002000001064A050000000042A040200000102A410000001001       RUNO0136
A0500000000428000000000777A060100075232A002000001064A050000000042       RUNO0137
A040200000101A410000001007A050000000042A060100075232A002000001064       RUNO0138
A050000000042A040200000151A410000001017A007400400010A300000000051       RUNO0139
A040000075233A060100075233A002000001064A050000000042A040200000146       RUNO0140
A410000001026A0074004000108000000001023A300000000051A060100075233       RUNO0141
A002000001064A050000000042A040200000100A410000001064A007400400011       RUNO0142
A300000000045A300000000031A060100000047A050000000052A060100000043       RUNO0143
A002000001043A050000000043A040000000052A060100000043A052000000045       RUNO0144
A002000001060A007400400011A3000000000458000000001047A300000000031       RUNO0145
A053400100043A060100175267A053400100043A050000175267A040200000047       RUNO0146
A410000001057A002000000036A002000001040A002000000040A050000000043       RUNO0147
A040200000052A060100075235A002000000035A002000001275A050000000042       RUNO0148
A040200000136A010000001074A050000000042A0402000001118000000001073       RUNO0149
A410000001112A050000000052A060100075270A007400400010A300000000051       RUNO0150
A060100000050A050000000050A040200000051A010000001111A007400400022       RUNO0151
A007400400017A050000000050A060100075233A007400400020A002000001275       RUNO0152
A050000000042A040200000135A010000001120A050000000042A040200000114       RUNO0153
8000000001117A410000001134A007400400022A007400400017A056000075233       RUNO0154
94754000000009076300000000A022100000053A0200000000539013100000000       RUNO0155
A040000000052A060100075233A007400400020A002000001275A050000000042       RUNO0156
A040200000120A010000001142A050000000042A040200000103A410000001146       RUNO0157
A0074004000228000000001143A007400400017A007400400020A002000001275       RUNO0158
A050000000042A040200000126A010000001154A050000000042A040200000070       RUNO0159
A410000001206A050000000051A060100000045A050000000052A060100000043       RUNO0160
A002000001164A050000000043A040000000052A060100000043A052000000045       RUNO0161
A002000001174A0074004000118000000001167A300000000045A300000000031       RUNO0162
A053400100043A060100177453A002000001161A050000000043A040200000052       RUNO0163
9073400200000A050000277453A060100000041A050000000043A040200000053       RUNO0164
A060100077454A002000000040A002000001275A050000000042A040200000067       RUNO0165
A410000001233A007400400004A3000000000518000000001213A060100075275       RUNO0166
A050000075305A040000075275A040200075304A010000001221A012000001230       RUNO0167
A007400400013A050000075305A040000075275A060100075305A050000000051       RUNO0168
A060100075276A002000001232A050000000052A060100075276A002000001275       RUNO0169
A050000000042A040200000063A410000001245A0074004000058000000001237       RUNO0170
A300000000051A060100001331A007400400024A300000001331A300000076127       RUNO0171
A002000001275A050000000042A040200000150A410000001275A007400400022       RUNO0172
A007400400005A300000000051A060100001331A007400400023A300000001331       RUNO0173
A300000000051A300000000057A060100001331A007400400007A300000001331       RUNO0174
8000000001263A300000076063A040000000052A060100076066A050000076066       RUNO0175
A060100076065A050000075224A060100076063A050000000052A060100076067       RUNO0176
A002000000032A050000000051A060100000045A050000000051A060100000043       RUNO0177
A002000001305A050000000043A040000000051A060100000043A052000000045       RUNO0178
A0020000013148000000001307A007400400011A300000000045A300000000031       RUNO0179
A060100000041A002000001302A452000075303A002000001317A002000000037       RUNO0180
A002000000040A0074004000039300000000000A463400101321A063400401325       RUNO0181
90020002000019077400400000A053400201321A4534001013219002000400001       RUNO0182
80000000013329000000000000                                              RUNO0183
$EOF   RUNOFF    08/20/10  12:46:53    BSS2OBJ 1.0.1                    RUNO0184
