0SETPAG 01762H0000000752076SETPAG 010556BRKLIN 010506SETLIN 01043       SETP0001
6SETWRD 010366SETCHR 006676SETDWN 006626SETUP  006208000000000000       SETP0002
90021000000004ADJUST 0000090021000000004CENTER 000019002100000000       SETP0003
4EXIT   0000290021000000004PACK   0000390021000000004PKOFF  00004       SETP0004
90021000000004PRPAGE 0000590021000000004PRPIX  000069002100000000       SETP0005
4RSPAGE 0000790021000000004SETFT  0001090021000000004SETHD  00011       SETP0006
90021000000004SETPK  0001290021000000004WAIT   000139212423305160       SETP0007
92124434760609225125214260931453024266393145622551639472746646360       SETP0008
80000000006129000000000006900000000000780000000006159000000000015       SETP0009
80000000006119000000000003800000000061090000000000028000000000614       SETP0010
90000000000138000000000606900000000000090000000000018000000000616       SETP0011
92330000000008000000000023C701271001270C701545001544C701451001444       SETP0012
C701551001550C7010300010268000000000617A002000000622A063400201743       SETP0013
A007400201743A050000000607A060100000031A050000000606A060100076065       SETP0014
A050000000607A060100075277A050000000606A060100075307A050000000606       SETP0015
A060100075310A007400400012A300000077456A300000077455A007400400017       SETP0016
A050000000606A060100075305A0020000006468000000000643A050000075305       SETP0017
A040000000607A060100075305A050000075305A040200000614A010000000652       SETP0018
A012000000656A007400400003A300000075222A300000000607A002000000643       SETP0019
A050000000606A060100076067A002000001754A002000000664A063400201743       SETP0020
A007400201743A007400400004A002000001754A0020000006718000000000667       SETP0021
A063400201743A0074002017439050000000000A040200075222A410000000702       SETP0022
A452000075303A002000000677A007400400016A050000000607A060100000033       SETP0023
A002000001754A452000000033A002000001032A050000000606A060100000033       SETP0024
A452000000031A002000000711A002000000027A452000075312A002000001025       SETP0025
80000000007139050000000000A040200075216A0100000010259050000000000       SETP0026
A040200075224A010000001025A052000076067A002000000724A002000001024       SETP0027
A053400176065A050000176064A040200075211A410000000737A050000076065       SETP0028
A040200000607A060100076065A050000076066A040200000607A060100076066       SETP0029
A0020000010248000000000737A050000076065A0402000006109073400100000       SETP0030
A050000176064A040200075213A010000001020A050000076065A040200000610       SETP0031
9073400100000A050000176064A040200075214A010000001020A050000076065       SETP0032
A0402000006109073400100000A050000176064A040200075215A010000001020       SETP0033
A050000076065A04020000060780000000007639073400100000A050000176064       SETP0034
A040200075213A010000001020A050000076065A0402000006079073400100000       SETP0035
A050000176064A040200075214A010000001020A050000076065A040200000607       SETP0036
9073400100000A050000176064A040200075215A010000001020A053400176065       SETP0037
A050000176064A040200075212A0100000010208000000001007A050000176064       SETP0038
A040200075213A010000001020A050000176064A040200075214A010000001020       SETP0039
A050000176064A040200075215A410000001022A007400400014A300000075224       SETP0040
A007400400014A300000075224A002000001032A007400400016A050000000606       SETP0041
A060100000031A050000000606A060100075313A0074004000148000000001033       SETP0042
9300000000000A002000001754A002000001040A063400201743A007400201743       SETP0043
A007400400015A002000001754A002000001045A063400201743A007400201743       SETP0044
A007400400020A002000001754A002000001052A063400201743A007400201743       SETP0045
A007400400016A002000001754A002000001057A063400201743A007400201743       SETP0046
8000000001057A007400400021A002000001754A002000001142A002000001065       SETP0047
8000000000014A0021000010638000000001063A063400201125A007400201125       SETP0048
A452000076067A0020000010769050000000000A040200075224A410000001076       SETP0049
A007400400015A050000000606A060100075313A0020000011039050000000000       SETP0050
A040200075224A010000001103A050000000607A0601000760679050000000000       SETP0051
A040200075223A410000001112A0500000760668000000001107A040200000607       SETP0052
A060100076066A002000001115A050000076066A040000000607A060100076066       SETP0053
A050000076065A040000000607A060100076065A0534001760659050000000000       SETP0054
A060100176064A002000001136A0074004000029300000000000A463400101125       SETP0055
A0634004011369050000400001A062100001067A0621000010768000000001133       SETP0056
A062100001103A06210000112190020002000019077400400000A053400201125       SETP0057
A4534001011259002000400001A002000001311A0020000011468000000000015       SETP0058
A0021000011448000000001144A063400201301A007400201301A050000076065       SETP0059
A040200000606A010000001152A012000001153A002000001305A452000075312       SETP0060
A002000001172A050000076066A040000075310A040200076070A010000001172       SETP0061
A412000001172A452000075311A002000001171A007400400000A300000076701       SETP0062
A300000075307A3000000760708000000001170A300000075310A007400400020       SETP0063
A050000075306A040200000606A010000001225A412000001225A050000075307       SETP0064
A040200000606A410000001225A050000000607A060100000032A002000001207       SETP0065
A050000000032A040000000607A060100000032A050000000032A040200075306       SETP0066
A010000001213A012000001225A0500000753078000000001214A040000000607       SETP0067
A060100075307A053400175307A050000075224A060100176701A050000075310       SETP0068
A040000000607A060100075310A002000001204A050000000607A060100000032       SETP0069
A002000001233A050000000032A040000000607A060100000032A050000000032       SETP0070
A040200076065A010000001237A012000001271A4520000753138000000001240       SETP0071
A002000001246A053400100032A050000176064A040200075224A410000001246       SETP0072
A002000000023A053400100032A050000176064A040200075223A410000001256       SETP0073
A050000075310A040200000607A060100075310A002000001261A050000075310       SETP0074
A040000000607A060100075310A050000075307A040000000607A060100075307       SETP0075
8000000001264A053400175307A053400200032A050000276064A060100176701       SETP0076
A002000001230A050000000606A060100076065A050000000606A060100076066       SETP0077
A050000000606A060100076067A002000001305A0074004000029300000000000       SETP0078
A463400101301A06340040130590020002000019077400400000A053400201301       SETP0079
A45340010130180000000013109002000400001A002000001440A002000001315       SETP0080
8000000000020A0021000013138000000001313A063400201430A007400201430       SETP0081
A050000075307A040200075306A010000001321A012000001322A002000001434       SETP0082
A050000075305A040200075304A010000001326A412000001327A007400400021       SETP0083
A452000075303A002000001344A007400400001A300000076701A300000075307       SETP0084
A300000076070A300000075310A0500000006068000000001337A060100075303       SETP0085
A452000075302A002000001344A050000000607A060100075312A050000075305       SETP0086
A040000000607A060100075305A007400400003A300000076700A300000075307       SETP0087
A452000075301A002000001401A050000000607A060100000032A002000001362       SETP0088
A050000000032A040000000607A060100000032A0500000760708000000001363       SETP0089
A0402000753109076000000002A040000000032A010000001370A012000001374       SETP0090
A007400400003A300000075224A300000000607A002000001357A007400400003       SETP0091
A300000075227A300000000611A050000000606A060100075301A007400400003       SETP0092
A300000075222A300000000607A050000075305A040200075304A010000001420       SETP0093
8000000001407A012000001420A452000075300A002000001420A050000075305       SETP0094
A040000000607A060100075305A007400400003A300000075222A300000000607       SETP0095
A050000000606A060100075307A050000000606A060100075310A050000000607       SETP0096
A060100075313A002000001434A0074004000029300000000000A463400101430       SETP0097
A063400401434800000000143390020002000019077400400000A053400201430       SETP0098
A4534001014309002000400001A002000001624A0020000014448000000000021       SETP0099
A0021000014428000000001442A063400201614A007400201614A050000076127       SETP0100
A040200077457A010000001451A012000001451A002000000026A452000075277       SETP0101
A002000001457A050000075305A040200000615A010000001457A412000001463       SETP0102
A050000075305A040200000613A010000001464A012000001464A002000000026       SETP0103
A052000076125A0020000014748000000001466A452000077455A002000001474       SETP0104
A007400400003A300000000030A300000000607A002000000024A050000075305       SETP0105
A040000000607A060100000032A002000001503A050000000032A040000000607       SETP0106
A060100000032A050000075231A0402000006119076000000002A040000000032       SETP0107
A010000001515A012000001515A0074004000038000000001512A300000075222       SETP0108
A300000000607A002000001500A007400400010A300000000604A300000000605       SETP0109
A007400400003A300000000603A300000000605A007400400003A300000075222       SETP0110
A300000000607A452000077455A002000001534A007400400003A300000000030       SETP0111
A300000000607A002000001544A007400400003A3000000752228000000001536       SETP0112
A300000000610A452000077461A002000001544A007400400003A300000075222       SETP0113
A300000000607800000000003090000000000528000000001544A007400400005       SETP0114
A052000077461A002000001550A007400400013A007400400007A050000000606       SETP0115
A060100075277A007400400017A050000075233A040000000607A060100075233       SETP0116
A007400400003A300000075222A300000000611A007400400011A300000000604       SETP0117
A300000000605A007400400003A300000000603A3000000006058000000001570       SETP0118
A007400400003A300000075222A300000000611A050000000612A060100075305       SETP0119
A452000075276A002000001612A007400400006A050000075305A040000075275       SETP0120
A060100075305A050000000606A060100075276A050000075305A040200075304       SETP0121
A010000001612A412000001612A002000000025A002000001620A007400400002       SETP0122
80000000016149300000000000A463400101614A0634004016209002000200001       SETP0123
9077400400000A053400201614A4534001016149002000400001A002000001663       SETP0124
A0020000016308000000000016A0021000016268000000001626A063400201653       SETP0125
A007400201653A007400400015A007400400020A452000075300A002000001641       SETP0126
A050000075305A040000000610A040200075304A010000001646A012000001646       SETP0127
A050000075305A040000000607A040200075304A010000001646A412000001647       SETP0128
A007400400021A050000000606A060100075313A0020000016578000000001652       SETP0129
A0074004000029300000000000A463400101653A0634004016579002000200001       SETP0130
9077400400000A053400201653A4534001016539002000400001A002000001742       SETP0131
A0020000016678000000000017A0021000016658000000001665A063400201732       SETP0132
A007400201732A050000075272A060100076126A050000075271A060100076125       SETP0133
A050000075270A060100076130A050000000607A060100000032A002000001703       SETP0134
A050000000032A040000000607A060100000032A050000000032A040200075235       SETP0135
A010000001707A012000001714A053400100032A0534002000328000000001711       SETP0136
A050000275267A060100176123A002000001700A050000075235A060100076071       SETP0137
A050000075234A060100076702A050000075233A060100076127A050000075232       SETP0138
A060100076124A050000075274A060100075304A050000075273A060100075231       SETP0139
A002000001736A0074004000029300000000000A463400101732A063400401736       SETP0140
800000000173590020002000019077400400000A053400201732A453400101732       SETP0141
9002000400001A0074004000029300000000000A463400101743A063400401754       SETP0142
9050000400001A062100000671A062100000713A062100000716A060100001033       SETP0143
90020002000019077400400000A053400201743A4534001017439002000400001       SETP0144
9000000000000                                                           SETP0145
$EOF   SETPAG    08/20/10  12:35:26    BSS2OBJ 1.0.1                    SETP0146
