0SMAIL 0011156SMAIL 000721800000000000090021000000004BUFFER000000       SMAI0001
90021000000004CHFILE00000190021000000004CLOSE 0000029002100000000       SMAI0002
4EXIT  00000390021000000004FSTATE00000490021000000004LINK  000005       SMAI0003
90021000000004OPEN  00000690021000000004TILOCK0000079002100000000       SMAI0004
4UNLINK00001090021000000004WRFILE00001180000000007159000000000660       SMAI0005
80000000007179666060606060800000000071490000000001248000000000712       SMAI0006
90000000000028000000000710900000000000080000000007139000000000004       SMAI0007
80000000007119000000000001800000000071692330000000008000000000013       SMAI0008
C700742000731C701005000776C701034001030C701052001037C701055001052       SMAI0009
C701061001055C7010630010618000000000720A002000000723A063400201064       SMAI0010
A007400201064A050000000713A060100000022A007400400010A300000000706       SMAI0011
A300000000707A300000000013A007400400005A300000000706A300000000707       SMAI0012
A300000000024A300000000024A300000000024A300000000024A300000000710       SMAI0013
A300000000021A050000000022A0402000007118000000000744A060100000022       SMAI0014
A007400400007A300000000017A007400400004A300000000706A300000000707       SMAI0015
C200712000704A300000000014A450000000705A432000000714A060200001111       SMAI0016
A050000001111A040200000710A010000000763A002000000020A050200000710       SMAI0017
A060100001111A050200000710A060100001112A0074004000018000000000770       SMAI0018
A300000000706A300000000707A300000000711A300000001112A300000001111       SMAI0019
A300000000014A007400400006A300000000717A300000000706A300000000707       SMAI0020
A300000000711A300000000712A300000000020A050000000022A040200000711       SMAI0021
A060100000022A007400400000A300000000706A300000000707C200715000023       SMAI0022
8000000001014A050200000710A060100001112A050200000710A060100001111       SMAI0023
A007400400011A300000000706A300000000707A300000000710A200400000024       SMAI0024
A300000001111A300000001112A300000000015A007400400002A300000000706       SMAI0025
A300000000707A300000000016A050000000022A040200000711A060100000022       SMAI0026
A0502000007108000000001040A060100001112A050200000710A060100001111       SMAI0027
A007400400001A300000000706A300000000707A300000000710A300000001111       SMAI0028
A300000001112A300000000017A050000000022A040200000711A060100000022       SMAI0029
A007400400010A300000000706A300000000707A300000000021A050000000022       SMAI0030
A0020000011058000000000706963254460606092246676060608000000001063       SMAI0031
A0074004000039300000000000A463400101064A0634004011059050000400001       SMAI0032
A0601000007349050000400002A0601000007359050000400003A062100001024       SMAI0033
90500004000049076700000022A0622000010249050000400005A060100000736       SMAI0034
9050000400006A06010000073790020002000019077400400000A053400201064       SMAI0035
8000000001107A453400101064900200040000180000000011139000000000000       SMAI0036
$EOF   SMAIL     06/21/10  14:09:29    BSS2OBJ 1.0.0                    SMAI0037
