0SYMGET 00135H0000000774616SYMGET 000676SYMSTO 000408000000000000       SYMG0001
90021000000004EXIT   0000090021000000004.PCOMT 000018000000000033       SYMG0002
90000000000008000000000035900000000001280000000000349000000000001       SYMG0003
80000000000369233000000000800000000000390000000000008000000000037       SYMG0004
A002000000042A063400200116A007400200116A050000000003A040200000035       SYMG0005
A010000000046A412000000055A00740040000190000000000049627044224643       SYMG0006
960632122432596046652551269434666606060A002000000127A050000000003       SYMG0007
A040000000034A060100000003A053400100003A050000000024A060100100017       SYMG0008
8000000000063A050000000024A060100100032A002000000127A002000000071       SYMG0009
A063400200116A007400200116A050000000034A060100000004A002000000077       SYMG0010
A050000000004A040000000034A060100000004A050000000004A040200000003       SYMG0011
A010000000103A012000000113A053400100004A050000100017A040200000024       SYMG0012
A4100000001128000000000107A053400200004A050000200032A002000000127       SYMG0013
A002000000074A050000000033A002000000127A0074004000009300000000000       SYMG0014
A463400100116A0634004001279050000400001A062100000061A062100000105       SYMG0015
9050000400002A06210000006390020002000019077400400000A053400200116       SYMG0016
A453400100116900200040000180000000001339000000000000                    SYMG0017
$EOF   SYMGET    08/20/10  12:35:32    BSS2OBJ 1.0.1                    SYMG0018
