0HOL   0003506HOL   0002776TYPOUT0001756TYPEIN0000546SETKIL000046       HOL 0001
6SETERS000040800000000000090021000000004CANON 0000009002100000000       HOL 0002
4EXIT  00000190021000000004PRBUFF00000290021000000004PRWORD000003       HOL 0003
90021000000004SETFUL00000490021000000004TYLINE0000059002100000000       HOL 0004
4TYWORD0000068000000000033900000000005490000000000779000000000400       HOL 0005
80000000000329000000000006800000000003090000000000009000000000001       HOL 0006
800000000003692330000000008000000000010C700064000061C700164000160       HOL 0007
80000000000219000000000014900000000005780000000000149000000000504       HOL 0008
80000000000179000000000506800000000002390000000000558000000000027       HOL 0009
9000000000044800000000001390000000077778000000000037A002000000042       HOL 0010
A063400200320A007400200320A050000000024A060100000014A002000000341       HOL 0011
A002000000050A063400200320A007400200320A050000000024A060100000017       HOL 0012
A002000000341A002000000056A063400200320A007400200320A050000000030       HOL 0013
A060100000024A007400400005A007400400006A3000000000308000000000063       HOL 0014
A060100000026A050000000027A040200000021A060100000015A002000000073       HOL 0015
A050200000021A040000000015A060100000015A050000000015A040200000030       HOL 0016
A010000000077A412000000157A450000000015A062100000102A450000000026       HOL 0017
9476500000000A432000000013A060200000012A050000000012A040200000014       HOL 0018
8000000000107A410000000120A050000000024A040200000030A010000000117       HOL 0019
A412000000117A050000000024A040200000031A060100000024A002000000151       HOL 0020
A050000000012A040200000017A410000000126A050000000030A060100000024       HOL 0021
A002000000151A450000000032A062100000131A4500000000129476500000000       HOL 0022
A0602000003458000000000133A050000000345A040200000023A010000000141       HOL 0023
A050000000012A040200000023A410000000143A002000000011A002000000151       HOL 0024
A050000000024A040000000031A060100000024A053400100024A050000000012       HOL 0025
A060100100024A050000000024A040200000024A010000000155A412000000156       HOL 0026
A002000000011A0020000000708000000000157A002000000010A007400400000       HOL 0027
A300000000024A300000000024A300000000024A050000000024A040000000031       HOL 0028
A060100000024A053400100024A050000000023A060100100024A050000000024       HOL 0029
A002000000341A002000000177A063400200320A007400200320A050000000030       HOL 0030
A060100000020A007400400004A0500000000318000000000203A060100000016       HOL 0031
A002000000210A050000000016A040000000031A060100000016A050000000016       HOL 0032
A040200000024A010000000214A012000000244A450000000021A062100000217       HOL 0033
A4500000000259076700000000A053400200016A450100200024A060200000025       HOL 0034
A050000000020A040000000031A060100000020A0560000000278000000000227       HOL 0035
94754000000009076300000000A02210000002190131000000009076000000002       HOL 0036
A040000000020A010000000237A412000000243A050000000030A060100000020       HOL 0037
A007400400003A300000000025A002000000205A050000000020A060100000020       HOL 0038
A002000000252A050000000020A040000000031A060100000020A056000000027       HOL 0039
800000000025394754000000009076300000000A0221000000219013100000000       HOL 0040
9076000000002A040000000020A010000000272A012000000272A450000000021       HOL 0041
A062100000266A4500000000259076700000000A450100000022A060200000025       HOL 0042
A002000000247A007400400003A300000000025A007400400002A002000000341       HOL 0043
A0020000003018000000000277A063400200320A007400200320A450000000024       HOL 0044
A432000000035A060200000345A050000000345A040200000030A410000000315       HOL 0045
A450000000024A432000000034A060200000345A050000000345A002000000341       HOL 0046
A002000000317A050000000033A002000000341A0074004000019300000000000       HOL 0047
A463400100320A06340040034180000000003239050000400001A062100000042       HOL 0048
A062100000050A062100000150A060100000161A062100000171A062100000221       HOL 0049
A062100000301A0621000003079050000400002A062100000152A060100000163       HOL 0050
A06210000021190020002000019077400400000A053400200320A453400100320       HOL 0051
900200040000180000000003469000000000000                                 HOL 0052
$EOF   HOL       06/22/10  15:16:19    BSS2OBJ 1.0.0                    HOL 0053
