0HOL   0003516HOL   0003146TYPOUT0002126TYPEIN0000606CANON 000054       HOL 0001
6SETKIL0000466SETERS000040800000000000090021000000004EXIT  000000       HOL 0002
90021000000004PRBUFF00000190021000000004PRWORD0000029002100000000       HOL 0003
4SETFUL00000390021000000004TYLINE00000490021000000004TYWORD000005       HOL 0004
80000000000349000000000077900000000040080000000000339000000000006       HOL 0005
80000000000319000000000000900000000000180000000000369233000000000       HOL 0006
8000000000007C700070000065C70020400020180000000000139000000000137       HOL 0007
80000000000179000000000156800000000002290000000000149000000000057       HOL 0008
80000000000149000000000504800000000002090000000005068000000000024       HOL 0009
90000000000558000000000030900000000004480000000000129000000007777       HOL 0010
8000000000037A002000000042A063400200324A007400200324A050000000024       HOL 0011
A060100000014A002000000342A002000000050A063400200324A007400200324       HOL 0012
A050000000024A060100000020A002000000342A002000000056A063400200324       HOL 0013
A007400200324A002000000342A002000000062A063400200324A007400200324       HOL 0014
A0500000000318000000000063A060100000025A007400400004A007400400005       HOL 0015
A300000000031A060100000027A050000000030A040200000022A060100000015       HOL 0016
A002000000077A050200000022A040000000015A060100000015A050000000015       HOL 0017
A040200000031A010000000103A412000000200A450000000015A062100000106       HOL 0018
A45000000002794765000000008000000000107A432000000012A060200000011       HOL 0019
A050000000011A040200000013A010000000117A050000000011A040200000014       HOL 0020
A410000000127A050000000025A040200000031A010000000126A412000000126       HOL 0021
A050000000025A040200000032A060100000025A002000000172A050000000011       HOL 0022
A040200000017A010000000135A0500000000118000000000133A040200000020       HOL 0023
A410000000140A050000000031A060100000025A002000000172A450000000033       HOL 0024
A062100000143A4500000000119476500000000A060200000346A050000000346       HOL 0025
A040200000024A010000000153A050000000011A040200000024A410000000155       HOL 0026
A002000000010A002000000172A450000000011A4320000000358000000000157       HOL 0027
A060200000346A050000000346A040200000031A410000000172A050000000025       HOL 0028
A040000000032A060100000025A450000000011A432000000034A053400100025       HOL 0029
A060200100024A050000000025A040200000024A010000000176A412000000177       HOL 0030
A002000000010A002000000074A002000000007A050000000025A040000000032       HOL 0031
8000000000203A060100000025A053400100025A050000000024A060100100024       HOL 0032
A050000000025A002000000342A002000000214A063400200324A007400200324       HOL 0033
A050000000031A060100000021A007400400003A050000000032A060100000016       HOL 0034
A002000000225A050000000016A040000000032A060100000016A050000000016       HOL 0035
A0402000000248000000000227A010000000231A012000000261A450000000022       HOL 0036
A062100000234A4500000000269076700000000A053400200016A450100200024       HOL 0037
A060200000026A050000000021A040000000032A060100000021A056000000030       HOL 0038
94754000000009076300000000A02210000002290131000000009076000000002       HOL 0039
A040000000021A0100000002548000000000253A412000000260A050000000031       HOL 0040
A060100000021A007400400002A300000000026A002000000222A050000000021       HOL 0041
A060100000021A002000000267A050000000021A040000000032A060100000021       HOL 0042
A05600000003094754000000009076300000000A0221000000229013100000000       HOL 0043
9076000000002A040000000021A0100000003078000000000277A012000000307       HOL 0044
A450000000022A062100000303A4500000000269076700000000A450100000023       HOL 0045
A060200000026A002000000264A007400400002A300000000026A007400400001       HOL 0046
A002000000342A002000000316A063400200324A007400200324A450000000024       HOL 0047
A432000000034A060200000346A050000000346A0020000003428000000000323       HOL 0048
A0074004000009300000000000A463400100324A0634004003429050000400001       HOL 0049
A062100000042A062100000050A062100000171A062100000206A062100000236       HOL 0050
A0621000003169050000400002A062100000173A0621000002269002000200001       HOL 0051
9077400400000A053400200324A45340010032490020004000018000000000347       HOL 0052
9000000000000                                                           HOL 0053
$EOF   HOL       06/22/10  15:17:11    BSS2OBJ 1.0.0                    HOL 0054
