0(MAIN) 016032000000000345H00000007746180000000000009002100000000       (MAI0001
4CHFILE 0000090021000000004CHNCOM 0000190021000000004COM    00002       (MAI0002
90021000000004DELFIL 0000390021000000004EXIT   000049002100000000       (MAI0003
4FSTATE 0000590021000000004GCLS   0000690021000000004ISCAN  00007       (MAI0004
90021000000004.SETUP 0001090021000000004LJUST  000119002100000000       (MAI0005
4MOVFIL 0001290021000000004NAMASK 0001390021000000004NEWMOD 00014       (MAI0006
90021000000004OCRBC  0001590021000000004PRMESA 000169002100000000       (MAI0007
4PRMESS 0001790021000000004PRNTER 0002090021000000004RDFLXC 00021       (MAI0008
90021000000004SCAN   0002290021000000004SCNFIL 000238000000000024       (MAI0009
90021000000004TSK    0002490021000000004UNLINK 000259002100000000       (MAI0010
4UPDATE 0002690021000000004WHOAMI 0002792425432563258000000000235       (MAI0011
92545636233608000000000267960215127644480000000003239622563604626       (MAI0012
80000000002629474325632560800000000027496031452346448000000000276       (MAI0013
96031626021458000000000325962336060606080000000002259214747433125       (MAI0014
80000000002579456331464560800000000027096023464565258000000000330       (MAI0015
96325513162428000000000326962632660216280000000003319633025604331       (MAI0016
80000000002419271460333333800000000026696014604751468000000000320       (MAI0017
96047514660228000000000254945214425021480000000002249214425011460       (MAI0018
80000000002639475146276045800000000031796047514622608000000000307       (MAI0019
96045256645448000000000240925664544011480000000002529446002146045       (MAI0020
80000000003169604643244560800000000024494324454401148000000000336       (MAI0021
96645440260468000000000255945440160452580000000002509440260452566       (MAI0022
80000000002159016046432445800000000031596046432445448000000000216       (MAI0023
90214603333338000000000221914604521442580000000002179146033333360       (MAI0024
80000000002539452144250114800000000030396044462425608000000000305       (MAI0025
96045214425028000000000304960452144250180000000002129000000000061       (MAI0026
80000000002519444421452460800000000031496046266023468000000000223       (MAI0027
92143606462258000000000230923442643000080000000003449777777770000       (MAI0028
80000000002349254521442524800000000031396045466360518000000000233       (MAI0029
92543256325248000000000311960454663602480000000003009603163356060       (MAI0030
80000000002329242543256325800000000032496230606346608000000000340       (MAI0031
97046646066318000000000242933606024466080000000002209146044462425       (MAI0032
80000000002759603162601457800000000026595757570000008000000000260       (MAI0033
94643242551608000000000213900000000013480000000003379702562606060       (MAI0034
80000000002059000000000006800000000034197426312234608000000000332       (MAI0035
96335606060608000000000245943256325603180000000003219606346602425       (MAI0036
80000000003359646066316230800000000027196024466070468000000000327       (MAI0037
96325243360608000000000236925602425432580000000002569454546636022       (MAI0038
80000000003019603163602321800000000024694331454233608000000000277       (MAI0039
96031626021608000000000211900000000004380000000002379256060406060       (MAI0040
80000000002229214360444624800000000027396031434325278000000000210       (MAI0041
90000000000348000000000243933606060606080000000002729602646644524       (MAI0042
80000000003069604521442560800000000032296066316330608000000000310       (MAI0043
96045465757578000000000261946644524336080000000003129604546636026       (MAI0044
80000000002149000000700000800000000020690000000000078000000000342       (MAI0045
97426314325348000000000334964332633243380000000002049000000000005       (MAI0046
80000000002479440000000000800000000030296043314542628000000000333       (MAI0047
96400000000008000000000203900000000000480000000002649510000000000       (MAI0048
80000000002019000000000002800000000023192400000000008000000000202       (MAI0049
90000000000038000000000226923000000000080000000003439770000000000       (MAI0050
80000000002079000000000010800000000017790000000000009000000000001       (MAI0051
800000000022792330000000008000000000073C700633000610C701002000775       (MAI0052
C701351001340C700645000641C701472001462C701221001215C701366001366       (MAI0053
C701365001361C701263001256C701011001003C7007250007258000000000107       (MAI0054
C701375001366C701361001352C701311001305C701003001003C700727000725       (MAI0055
8000000000115C701574001565C701474001472C701476001475C701437001432       (MAI0056
C701431001423C701443001440C701172001163C701563001553C701553001540       (MAI0057
C701540001537C701536001521C701520001511C7015110015008000000000345       (MAI0058
A0074004000108000000000032977777777777780000000001349605757575757       (MAI0059
80000000001659602631432562800000000014292631516263578000000000163       (MAI0060
96225234645249606060606054800000000013394546606060608000000000161       (MAI0061
9000000000001800000000016090000000000008000000000346A007400400006       (MAI0062
A300000000056A300000000177A050000000200A060100000157A002000000357       (MAI0063
A050000000157A040000000200A060100000157A053400100157A050000100056       (MAI0064
A040200000032A010000000364A002000000354A007400400027C200207000166       (MAI0065
A007400400011A300000000056A060100001577A4500000015778000000000372       (MAI0066
A432000000343A060200000135A050000000135A040200000226A410000000404       (MAI0067
A050000000200A060100000136A050000000202A060100000137A002000000451       (MAI0068
A050000000135A040200000231A410000000414A050000000201A060100000136       (MAI0069
A050000000201A060100000137A002000000451A050000000135A040200000264       (MAI0070
8000000000416A410000000426A050000000202A060100000136A050000000203       (MAI0071
A060100000137A050000000200A060100000160A002000000451A050000000135       (MAI0072
A040200000333A410000000440A050000000203A060100000136A050000000201       (MAI0073
A060100000137A050000000302A060100000165A002000000451A050000000135       (MAI0074
A0402000002478000000000442A410000000450A050000000204A060100000136       (MAI0075
A050000000203A060100000137A002000000451A007400400024A050000000055       (MAI0076
A040200000032A410000000456A053400200136A002000200132A050000000200       (MAI0077
A060100000144A002000000464A050000000144A040000000137A060100000144       (MAI0078
A050000000144A0402000001578000000000466A010000000470A012000001476       (MAI0079
A053400100144A050000100056A040200000032A010000001476A053400200144       (MAI0080
A050000200056A060100000060A050000000144A0400000002009073400200000       (MAI0081
A050000200056A060100000061A050000000144A0400000002019073400200000       (MAI0082
A050000200056A060100000057A0500000001448000000000512A040000000202       (MAI0083
9073400200000A050000200056A060100000155A050000000061A040200000032       (MAI0084
A410000000525A007400400016A300000000060A002000000115A002000000543       (MAI0085
A050000000057A040200000032A410000000543A050000000136A040200000202       (MAI0086
A010000000536A050000000136A040200000200A4100000005438000000000536       (MAI0087
A007400400016A300000000060A300000000134A300000000061A002000000115       (MAI0088
A007400400013A300000000060A060100000145A007400400013A300000000061       (MAI0089
A060100000146A450000000145A432000000146A060200001577A050000001577       (MAI0090
A040200000032A410000000570A050000000177A060100000162A007400400005       (MAI0091
8000000000562A300000000060A300000000061C200207000062A300000000077       (MAI0092
A300000000141A002000000637A050000000200A060100000162A452000000161       (MAI0093
A002000000602A050000000177A060100000161A007400400026A007400400023       (MAI0094
A300000000334A300000000342A007400400007A300000000060A300000000061       (MAI0095
A0074004000228000000000606C200206000060A300000000076A050000000136       (MAI0096
A040200000203A010000000621A450000000064A432000000214A060200001577       (MAI0097
A050000001577A040200000177A010000000633A450000000064A432000000214       (MAI0098
A060200001577A050000001577A040200000177A010000000632A050000000136       (MAI0099
A040200000203A0100000006338000000000632A002000000637A007400400022       (MAI0100
C200206000060A300000000076A002000000073A053400200136A002000200106       (MAI0101
A053400100144A050000100056A040200000164A410000000655A050000000163       (MAI0102
A060100000140A050000000144A0400000002009073400200000A050000200056       (MAI0103
A060100000156A002000000713A0500000001448000000000656A040000000200       (MAI0104
9073400100000A050000100056A040200000164A410000000671A050000000142       (MAI0105
A060100000140A053400200144A050000200056A060100000156A002000000713       (MAI0106
A050000000144A040000000200A040200000674A300000000056A062100000707       (MAI0107
A050000000144A040200000700A300000000056A0621000007058000000000702       (MAI0108
A007400400017A300000000165A3000000001349300000000000A300000000134       (MAI0109
9300000000000A300000000312A300000000261A002000000117A007400400017       (MAI0110
A300000000310A300000000165A300000000322A300000000140A300000000306       (MAI0111
A300000000156A300000000272A300000000243A002000000117A452000000162       (MAI0112
8000000000726A002000000747A050000000144A040000000201A040200000732       (MAI0113
A300000000056A062100000743A450000000210A062100000737A450000000064       (MAI0114
9476500000000A060200001577A007400400014A3000000015779300000000000       (MAI0115
A300000000074A060100000057A002000000761A050000000144A040000000201       (MAI0116
A0402000007528000000000752A300000000056A062100000756A007400400014       (MAI0117
A3000000000639300000000000A300000000074A060100000057A050200000177       (MAI0118
A060100001577A050200000177A060100001600A007400400000A300000000060       (MAI0119
A300000000061A300000000057A300000001600A300000001577A300000000116       (MAI0120
A002000000122A0074004000178000000000776A300000000273A300000000222       (MAI0121
A300000000237A300000000057A002000000117A450000000145A450100000146       (MAI0122
A060200001600A050000001600A040200000177A410000001024A050000000164       (MAI0123
A060100000060A050000000164A060100000061A050000000177A060100000162       (MAI0124
A007400400005A300000000060A3000000000618000000001022C200207000062       (MAI0125
A300000000116A007400400030A300000000060A300000000061A002000000122       (MAI0126
A002000001256A0020000010348000000000030A0021000010328000000001032       (MAI0127
A063400201224A007400201224A007400400005A300000000024A300000000024       (MAI0128
C200201000071A300000000100A300000000143A450000000211A062100001045       (MAI0129
A4500000000729476500000000A060200001254A050000001254A040200000200       (MAI0130
A410000001116A050000000136A040200000202A410000001071A007400400016       (MAI0131
8000000001056A300000000024A300000000134A300000000024A300000000277       (MAI0132
A300000000246A300000000301A300000000256A300000000236A300000000327       (MAI0133
A050000000177A002000001250A007400400016A300000000024A300000000134       (MAI0134
A300000000024A300000000277A300000000246A300000000271A300000000335       (MAI0135
A3000000003218000000001102A300000000245A300000000332A050000000171       (MAI0136
A040200000341A010000001112A007400400021A300000000133A300000000205       (MAI0137
A050000000133A040200000337A010000001116A002000000123A450000000072       (MAI0138
A432000000213A060200001254A050000001254A040200000177A010000001207       (MAI0139
A452000000160A0020000011308000000001126A007400400016A300000000260       (MAI0140
A007400400015A300000000072A060100001254A450000001254A450100000265       (MAI0141
A060200001254A007400400016A300000000024A300000000134A300000000024       (MAI0142
A300000000275A300000001254A300000000220A300000000242A300000000340       (MAI0143
A300000000324A300000000232A3000000003008000000001152A050000000171       (MAI0144
A040200000341A010000001160A007400400021A300000000133A300000000205       (MAI0145
A050000000133A040200000337A010000001174A007400400017A300000000024       (MAI0146
A300000000134A300000000024A300000000311A300000000233A300000000243       (MAI0147
A050000000177A002000001250A050200000177A0601000012548000000001176       (MAI0148
A050200000177A060100001255A007400400000A300000000024A300000000024       (MAI0149
A300000000200A300000001255A300000001254A300000000123A007400400003       (MAI0150
A300000000024A300000000024A300000000123A050000000200A002000001250       (MAI0151
A050000000143A040200000202A010000001221A002000000123A050000000200       (MAI0152
8000000001222A002000001250A0074004000049300000000000A463400101224       (MAI0153
A0634004012509050000400001A060100001035A060100001056A060100001072       (MAI0154
A060100001137A060100001164A060100001201A0601000012109050000400002       (MAI0155
A060100001036A060100001060A060100001074A060100001141A060100001166       (MAI0156
A0601000012028000000001246A06010000121190020002000019077400400000       (MAI0157
A053400201224A45340010122490020004000018000000001256A050000000155       (MAI0158
A040200000032A410000001263A050000000164A060100000155A007400400013       (MAI0159
A300000000057A060100000150A007400400013A300000000155A060100000152       (MAI0160
A007400400002A300000000150A060100000147A007400400002A300000000152       (MAI0161
A060100000151A450000000057A432000000150A0602000000578000000001302       (MAI0162
A450000000155A432000000152A060200000155A450000000060A432000000147       (MAI0163
A450100000057A060200000153A450000000061A432000000151A450100000155       (MAI0164
A060200000154A050000000061A040200000154A410000001324A050000000060       (MAI0165
A040200000153A410000001324A002000000075A007400400030A300000000153       (MAI0166
8000000001326A300000000154A040200000177A410000001340A007400400017       (MAI0167
A300000000060A300000000134A300000000061A300000000313A300000000234       (MAI0168
A002000001351A050200000177A060100001600A007400400000A300000000060       (MAI0169
A300000000061A300000001600A300000000153A300000000154A300000000116       (MAI0170
A0020000001228000000001352A450000000064A432000000214A060200001600       (MAI0171
A050000001600A040200000177A010000001361A002000000122A007400400025       (MAI0172
A300000000060A300000000061A300000000116A002000000122A450000000175       (MAI0173
A432000000201A060200001600A050000001600A040200000201A410000001375       (MAI0174
A002000000121A0500000000578000000001376A040200000166A010000001401       (MAI0175
A002000000120A050000000155A040200000173A410000001405A002000000121       (MAI0176
A450000000175A432000000200A060200001600A050000001600A040200000200       (MAI0177
A010000001414A002000000120A450000000155A432000000344A060200001600       (MAI0178
A050000001600A040200000230A0100000014238000000001422A002000000120       (MAI0179
A007400400012A300000000060A300000000061A300000000057A300000000155       (MAI0180
A300000000116A002000000122A007400400017A300000000273A300000000223       (MAI0181
A300000000314A300000000251A002000000117A052000000162A002000001443       (MAI0182
A002000000117A007400400022C200206000060A3000000001178000000001446       (MAI0183
A050000000136A040200000203A010000001460A450000000064A432000000214       (MAI0184
A060200001600A050000001600A040200000177A410000001460A002000000122       (MAI0185
A053400200136A002000200114A050000000141A040200000202A010000001472       (MAI0186
A050000000136A040200000203A410000001472A053400200136A002000200106       (MAI0187
8000000001472A007400400020A300000000212A002000000122A002000000461       (MAI0188
A007400400001A300000000177A007400400017A300000000056A300000000304       (MAI0189
A300000000305A300000000303A300000000253A300000000305A300000000220       (MAI0190
A300000000217A007400400017A300000000056A300000000304A300000000305       (MAI0191
A3000000003048000000001516A300000000221A300000000216A002000000124       (MAI0192
A007400400017A300000000056A300000000315A300000000215A300000000250       (MAI0193
A300000000255A300000000336A300000000244A300000000316A300000000252       (MAI0194
A300000000240A300000000307A300000000216A002000000124A002000000130       (MAI0195
A007400400017A3000000000568000000001542A300000000304A300000000305       (MAI0196
A300000000317A300000000263A300000000224A300000000254A300000000320       (MAI0197
A300000000266A300000000241A007400400017A300000000331A300000000326       (MAI0198
A300000000330A300000000270A300000000257A300000000225A300000000325       (MAI0199
A007400400001A300000000177A0074004000178000000001566A300000000276       (MAI0200
A300000000274A300000000262A300000000323A300000000267A300000000235       (MAI0201
A007400400001A300000000177A00740040000480000000016019000000000000       (MAI0202
$EOF   (MAIN)    06/25/10  14:57:11    BSS2OBJ 1.0.0                    (MAI0203
