0(MAIN) 077412000000001402H00000007746180000000000009002100000000       (MAI0001
4ACORE  0000090021000000004ALLOT  0000190021000000004ATTACH 00002       (MAI0002
90021000000004ATTNAM 0000390021000000004BCDEC  000049002100000000       (MAI0003
4BCOCT  0000590021000000004BFCLOS 0000690021000000004BFOPEN 00007       (MAI0004
90021000000004BFREAD 0001090021000000004BFWRIT 000119002100000000       (MAI0005
4BUFFER 0001290021000000004BZ57   0001390021000000004BZEL   00014       (MAI0006
90021000000004CHFILE 0001590021000000004CLOSE  000169002100000000       (MAI0007
4COMLOC 0001790021000000004COPY   0002090021000000004DEFBC  00021       (MAI0008
90021000000004DELALL 0002290021000000004DELFIL 000238000000000024       (MAI0009
90021000000004DELMFD 0002490021000000004DELTEM 000259002100000000       (MAI0010
4ENTLIN 0002690021000000004EXITM  0002790021000000004EXIT   00030       (MAI0011
90021000000004FERRTN 0003190021000000004FSTATE 000329002100000000       (MAI0012
4GCLS   0003390021000000004GETARY 0003490021000000004GETBUF 00035       (MAI0013
90021000000004GETTM  0003690021000000004GLOC   000379002100000000       (MAI0014
4.SETUP 0004090021000000004KILL   0004190021000000004LJUST  00042       (MAI0015
90021000000004MINS   0004390021000000004MOVFIL 000449002100000000       (MAI0016
4NULL   0004590021000000004OCABC  0004690021000000004OCLBC  00047       (MAI0017
800000000005090021000000004OCRBC  0005090021000000004OPEN   00051       (MAI0018
90021000000004PCTL   0005290021000000004PRDIAG 000539002100000000       (MAI0019
4PRFULA 0005490021000000004PRFULL 0005590021000000004PRNTON 00056       (MAI0020
90021000000004RDFLXA 0005790021000000004RDFLXC 000609002100000000       (MAI0021
4REPROB 0006190021000000004RESETF 0006290021000000004RJUST  00063       (MAI0022
90021000000004RSSWB  0006490021000000004SCHEDL 000659002100000000       (MAI0023
4SETBCD 0006690021000000004SETBRK 0006790021000000004SETFIL 00070       (MAI0024
90021000000004SETFUL 0007190021000000004SLOC   000729002100000000       (MAI0025
4SNOOZE 00073800000000007490021000000004TSK    000749002100000000       (MAI0026
4UNLINK 0007590021000000004WHOAMI 0007690021000000004WRITE  00077       (MAI0027
90021000000004WRWAIT 0010090021000000004ZEL    001019233042475165       (MAI0028
92346444446459236451234644925456351706092725634751229272563646251       (MAI0029
92763646251609314563606060945464531456395125212463649644762302663       (MAI0030
80000000010259000000000011800000000126696023000005068000000001231       (MAI0031
94751462745608000000001230947514622456080000000012359514664452460       (MAI0032
80000000012649602221234227800000000120194524331422608000000001222       (MAI0033
94663602646648000000001336960662162604580000000011229216263601410       (MAI0034
80000000012639602163604325800000000107491401452525248000000001155       (MAI0035
92725623360608000000001234951316531432580000000011569312545636047       (MAI0036
80000000013479626426263123800000000110791451140131458000000001210       (MAI0037
94533142260608000000001070906254563433180000000011519265146446014       (MAI0038
80000000011509256364514560800000000115392664434360518000000001237       (MAI0039
95151465160608000000001345962632544602580000000011139145114016270       (MAI0040
80000000011329236321433314800000000131296045466360468000000001142       (MAI0041
92524603145338000000001232947637033142280000000012779603162602544       (MAI0042
80000000012029452560141060800000000111191451140143318000000001123       (MAI0043
92163314645338000000001141925233126312380000000013419622551606247       (MAI0044
80000000011449252721436064800000000122194651603143438000000001215       (MAI0045
94563746234148000000001344962623145276080000000011129145114014431       (MAI0046
80000000012149456360601467800000000112192151276444258000000001103       (MAI0047
91422606060608000000001363964622127253380000000011679432527214360       (MAI0048
80000000011069145114013143800000000116393314226060608000000001170       (MAI0049
94331246026648000000001356963602160652180000000013379606651316325       (MAI0050
80000000013629644724216325800000000137797464622551348000000001316       (MAI0051
96051302143268000000001303960433021432680000000012519601443434623       (MAI0052
80000000013619644721632330800000000104390000000001048000000001023       (MAI0053
90000000000078000000001055900000007777780000000011479256233142260       (MAI0054
80000000013469626331234231800000000121394560633025608000000001354       (MAI0055
96331464560318000000001204945264651442180000000012749603021626031       (MAI0056
80000000013739742431624234800000000137597424516444348000000001126       (MAI0057
92260606060608000000001224946644524331480000000013119604546636026       (MAI0058
80000000013439625071642624800000000103290000000000178000000001165       (MAI0059
94060146760608000000001143925246031456080000000013579636043462727       (MAI0060
80000000013009603162604546800000000105290000000034108000000001370       (MAI0061
97000003000008000000001056900000030000080000000012579601467606060       (MAI0062
80000000012719602646644524800000000107791401646225518000000001105       (MAI0063
91443646225518000000001212945606247706080000000011179146421244431       (MAI0064
80000000013319606060624770800000000131396046261467608000000001125       (MAI0065
92164146760608000000001206945276014036380000000010549000000007020       (MAI0066
80000000013359606462255160800000000113792460646225248000000001152       (MAI0067
92663602143638000000001253960144362303180000000013429622563632164       (MAI0068
80000000013049604331452560800000000122094645606445318000000001076       (MAI0069
91401454666608000000001272960265146446080000000013559636014676060       (MAI0070
80000000013059604346274664800000000107391401432162638000000001063       (MAI0071
90000610000608000000001400977770000000080000000010579000000777700       (MAI0072
80000000010539000000006060800000000102790000000000148000000001047       (MAI0073
90000000003778000000001061900001777777780000000010409000000000074       (MAI0074
80000000011369246046266014800000000124095160302521518000000001075       (MAI0075
91401452565258000000001120921442502406080000000011409250140604045       (MAI0076
80000000012419516040452144800000000123395124633144648000000001173       (MAI0077
94425024060608000000001172944250160452180000000012509601443404521       (MAI0078
80000000012279475145634645800000000122594722606060608000000001334       (MAI0079
96063466014678000000001367967606060606080000000011469256046266014       (MAI0080
80000000011279232545632127800000000120794527604725518000000001332       (MAI0081
96062256363318000000001340962255160606080000000012529601443456064       (MAI0082
80000000013239606060604722800000000133396063466014108000000001175       (MAI0083
94460141060608000000001104914436026514680000000011619314527601467       (MAI0084
80000000010269000000000012800000000126296021636014678000000001223       (MAI0085
94663606225638000000001371970600202604580000000011109145114014225       (MAI0086
80000000013769742631223460800000000106290000605757578000000001035       (MAI0087
90000000000308000000001022900000000000680000000010419000000000077       (MAI0088
80000000013269606060606020960606060604080000000013249606060606000       (MAI0089
80000000013729707070707070800000000131496047216323308000000001071       (MAI0090
90760000000048000000001330960606060606080000000010369000000000033       (MAI0091
90000000000348000000001244951666060606080000000010339000000000020       (MAI0092
80000000011249216360146760800000000116093144646224608000000001024       (MAI0093
90000000000108000000001066902406060606080000000013019604045214425       (MAI0094
80000000011779452144250140800000000135296330601443408000000001162       (MAI0095
93145604446458000000001255960146421244480000000013079604446456330       (MAI0096
80000000011649336060606060800000000120594527146760608000000001302       (MAI0097
96042314343318000000001321960604231434380000000010319000000000016       (MAI0098
80000000013749742451446334800000000117694463344060608000000001242       (MAI0099
95160407424518000000001247960140464622580000000012769603145476463       (MAI0100
80000000010609000016000000800000000103090000000000158000000001042       (MAI0101
90000000001028000000001101914221410606080000000011159145114676060       (MAI0102
80000000012269472560601422800000000111491451140163708000000001203       (MAI0103
94525664425628000000001267960255121622580000000011359242543632544       (MAI0104
80000000012439516060606060800000000125496014436462258000000001134       (MAI0105
92425432143438000000001051900000000077780000000010459000000000124       (MAI0106
80000000010509000000000660800000000104490000000001208000000001166       (MAI0107
94060404504408000000001065902406040450380000000013109604501604045       (MAI0108
80000000013209606023464770800000000140197777600000008000000001157       (MAI0109
93144646224338000000001353963314527606380000000013159605125622563       (MAI0110
80000000010179000000000003800000000102190000000000058000000001131       (MAI0111
92345245143218000000001171943473460606080000000012569601464743025       (MAI0112
80000000012739602664452363800000000106790521244431458000000001325       (MAI0113
96060606060148000000001211945601454145480000000013609644523633146       (MAI0114
80000000012169462660216026800000000136496462212725608000000001236       (MAI0115
95151252363608000000001350963302560234680000000010729140126465160       (MAI0116
80000000010469000000000144800000000124595414106060608000000001366       (MAI0117
96631452760148000000001270960264643434680000000012179462660633025       (MAI0118
80000000011459256021457060800000000130696044217060228000000001351       (MAI0119
96330256026648000000001365966302551256080000000012469541454141060       (MAI0120
80000000012619602151276214800000000120094523633146458000000001174       (MAI0121
94431456026648000000001317960601405212480000000011009141060606060       (MAI0122
80000000011029142214541454800000000115492725603162608000000001133       (MAI0123
92363606462218000000001064901234651512580000000011169145460145114       (MAI0124
80000000012759603025434346800000000126596023000003038000000001322       (MAI0125
96060601106008000000001260960212444314580000000010349000000000022       (MAI0126
80000000010149000000000000800000000101690000000000028000000001020       (MAI0127
90000000000048000000001015900000000000180000000011309233000000000       (MAI0128
8000000000206C707577007573C706735006721C702242002236C702317002314       (MAI0129
C702355002352C702412002407C706525006520C706541006526C706550006542       (MAI0130
C706562006551C706610006600C706577006563C706620006611C706632006621       (MAI0131
C702611002605C706514006512C703201003164C7032220032108000000000230       (MAI0132
C705475005467C706505006504C703377003372C703470003461C703473003470       (MAI0133
C703647003642C703762003747C704141004137C707540007535C704323004321       (MAI0134
C704327004323C704363004361C704401004400C705031005014C705275005271       (MAI0135
C705350005345C705354005351C7054600054548000000000252C705461005460       (MAI0136
C705713005704C705744005740C705734005730C706061006060C706046006045       (MAI0137
C705502005476C706410006401C7015560015478000000001402A007400400040       (MAI0138
80000000007659606060606054800000000073394000000000008000000000735       (MAI0139
94000000000019400000000002800000000074390000000000008000000000123       (MAI0140
90000000000009000000000000900000000000090000000000009000000000000       (MAI0141
90000000000009000000000000900000000000080000000007429443326332433       (MAI0142
80000000003279742631432534800000000073496044010401068000000000277       (MAI0143
92344264300028000000000776963314464622480000000007719633144212323       (MAI0144
80000000007639516060606060800000000101296660606060608000000000746       (MAI0145
94560606060608000000000266921434360606080000000010029646225516060       (MAI0146
80000000003259234644444524800000000075294751462245609475146274560       (MAI0147
80000000007779644521442560800000000100396462514647638000000001001       (MAI0148
96451234624258000000000755951234624256080000000007459453145632263       (MAI0149
80000000007549512321432263800000000076195147514622639514751652263       (MAI0150
80000000007609514721632263800000000076796263516331448000000001011       (MAI0151
96651426331448000000000775963314445466680000000010009644531633124       (MAI0152
80000000007729632164016060963216405606080000000002659212446476360       (MAI0153
80000000007419442562274763800000000077096270624462278000000000726       (MAI0154
92662336362638000000000764962216531452780000000007279743025434734       (MAI0155
80000000010139146760606060800000000026393145601410609601464212444       (MAI0156
80000000007569145114106060800000000027591422141060608000000000750       (MAI0157
96046456014678000000000276960141060606080000000007329000000000000       (MAI0158
80000000007479575757575757800000000012093360606060609702562606060       (MAI0159
97777777777778000000001403A007400400076C201020001005A007400400003       (MAI0160
C201016000737A007400400036A300000000326A300000000774A007400400031       (MAI0161
A300000000225A007400400067A300000000231A007400400052A300000001015       (MAI0162
A007400400103A300000001002A060100007732A007400400037A300000007732       (MAI0163
A060100001002A0074004001038000000001427A300000000325A040000001002       (MAI0164
A060100007732A007400400072A300000001014A300000007732A007400400103       (MAI0165
A300000000755A040000001002A060100007732A007400400037A300000007732       (MAI0166
A060100000755A007400400103A300000000760A060100000760A007400400103       (MAI0167
A300000000754A060100000754A0074004001038000000001453A300000000761       (MAI0168
A060100000761A007400400103A300000000762A060100000762A007400400103       (MAI0169
A300000000745A060100007732A450000001034A062100001466A450000007732       (MAI0170
9076700000000A060200000745A007400400103A300000001003A040000001002       (MAI0171
A060100001003A007400400103A300000000746A0601000007468000000001477       (MAI0172
A007400400033A300000000324A300000001014A050000000324A040200001260       (MAI0173
A410000001507A050000001015A060100000743A050000001006A040200001322       (MAI0174
A410000001522A050000001005A040200001265A410000001522A053400100743       (MAI0175
A050000100324A040200001275A410000001522A002000000262A450000000754       (MAI0176
8000000001523A450100000761A450100000762A060200000274A450000000755       (MAI0177
A432000000760A060200007732A050000007732A040200000760A010000001542       (MAI0178
A450000000755A432000000274A060200007732A050000007732A040200000274       (MAI0179
A410000001546A050000001005A040200000734A410000001546A002000000262       (MAI0180
A0074004000748000000001547A053400100743A050000100324A040200000122       (MAI0181
A010000001556A050000100324A040200000727A410000001625A007400400055       (MAI0182
A300000001116A300000001064A300000001133A300000001154A300000001102       (MAI0183
A300000001100A300000001317A300000001174A300000001200A300000001261       (MAI0184
A300000001246A3000000013658000000001573A300000001351A300000001200       (MAI0185
A300000001306A300000001145A300000001217A300000001270A300000001366       (MAI0186
A300000001245A007400400055C201046000444C2010460005558000000000330       (MAI0187
97777777777779106060606060903063414541494464622460749622563606331       (MAI0188
92145246051259472421632560930606040606491405444645639646314541410       (MAI0189
96462255160469462762602160960606040604391404423143439106060606060       (MAI0190
92625511454149646360226426914626031454796064622551149314563466021       (MAI0191
80000000003549604331452560945632551602196360604060259140531454764       (MAI0192
91410606060609622127251454964476044256296260243121439462431263125       (MAI0193
94660604060449140530254343951701454141093151252363469263143256024       (MAI0194
96325626021609433144314521925606040602591405255121629106060606060       (MAI0195
94651701454148000000000400924315125236395146446021609314325626026       (MAI0196
95121517060269606325444746925432563256292544604060249140624254363       (MAI0197
91060606060609465170145414924315125236395146446021609314325626026       (MAI0198
96021434360269254325632562943436040602491406242543219106060606060       (MAI0199
90100341454149264300026074800000000042494460140423449256260265146       (MAI0200
94527602631439234664456331946477060212396060604060239140423464770       (MAI0201
91410606060609740306341454923634651626096321646065259646225516260       (MAI0202
92562254563609214343604751943252151626094321604060239140623452451       (MAI0203
97777777777779145414106060921606462255180000000004509272560216360       (MAI0204
96044256262219513163256021925606040606691405665131639141060606060       (MAI0205
97401003414549602631432562964456331452793060212323469000260663163       (MAI0206
91404234426439472421632560963256040606491406644724219341454141060       (MAI0207
92551607402009254563606462926604751256294563517060468000000000474       (MAI0208
95151217060259216323306021923306040604791406644721639431454141060       (MAI0209
93326332433149602160146464946444721236392624604060239140662507164       (MAI0210
91454141060609216064622551947706046456096060604060629140362477060       (MAI0211
95414106060609606462255114951604626602196065252363469601403632164       (MAI0212
80000000005209256225636021921646040605191406622563639145414106060       (MAI0213
92160646225519252460227060931442560646295131456360639446460406047       (MAI0214
91406512463319251454141060960464543314592562622127259513145636044       (MAI0215
94645604060479140647514563954141060606096064622551149256063466021       (MAI0216
92325456321278000000000544960216047255196262312745629606060406021       (MAI0217
91402472260609003414541410914012160740296023465125609216323302562       (MAI0218
930606040604791405472163238000000001606A007400400055A300000001072       (MAI0219
A300000001350A300000001236A300000001364A300000001216A300000001360       (MAI0220
A300000001211A300000001100A300000001325A300000001067A300000001273       (MAI0221
A300000001256A300000001171A002000006504A053400100743A050000100324       (MAI0222
A040200001131A410000001740A0500000007438000000001632A040000001015       (MAI0223
A060100000743A053400100743A050000100324A040200000727A410000001647       (MAI0224
A007400400104A300000001014A060100007732A007400400055C201016000264       (MAI0225
A300000007732A002000001737A053400100743A050000100324A040200000122       (MAI0226
A010000001654A002000000215A450000000274A4501000007608000000001656       (MAI0227
A060200007732A007400400102A300000007732A050000000746A040000001015       (MAI0228
9013100000000A020000001021A460000000132A007400400103A300000000773       (MAI0229
A060100000124A007400400052A300000001017A007400400055A300000001013       (MAI0230
C200736001005A300000001315A300000001353A300000001157A007400400052       (MAI0231
8000000001702A300000001015A007400400112A050000001014A060100000730       (MAI0232
A002000001712A050000000730A040000001015A060100000730A050000000730       (MAI0233
A040200000132A010000001716A012000001736A050000000124A040000000730       (MAI0234
A060100007732A050000000124A040000000730A060100007733A007400400037       (MAI0235
A3000000077338000000001726A060100007733A450000007733A432000001401       (MAI0236
A060200007733A007400400072A300000007733A300000007732A002000001707       (MAI0237
A007400400111A002000006504A053400100743A050000100324A040200001320       (MAI0238
A410000002264A050000000743A040000001015A060100000743A053400100743       (MAI0239
A050000100324A0402000007278000000001752A410000001765A007400400104       (MAI0240
A300000001014A060100007733A007400400055C201016000264A300000007733       (MAI0241
A300000001310A300000001065A300000001166A002000002263A053400200743       (MAI0242
A050000200324A060100000132A050000000743A0400000010159073400200000       (MAI0243
A050000200324A060100000131A0500000007438000000001776A040000001016       (MAI0244
9073400200000A050000200324A060100000130A050000000743A040000001017       (MAI0245
9073400200000A050000200324A060100000127A050000000131A040200000122       (MAI0246
A410000002021A050000000771A060100000131A050000000132A060100000130       (MAI0247
A050000000131A060100000127A002000002056A0500000001308000000002022       (MAI0248
A040200000122A410000002031A050000000132A060100000130A050000000131       (MAI0249
A060100000127A002000002056A050000000127A040200000122A410000002037       (MAI0250
A050000000131A060100000127A002000002056A050000000132A040200000122       (MAI0251
A410000002044A002000000216A002000002056A050000000743A040000001020       (MAI0252
80000000020469073400100000A050000100324A040200000122A010000002056       (MAI0253
A050000000743A040000001020A060100000743A002000000215A050000000743       (MAI0254
A040000001020A060100000743A050000000127A040200000131A410000002076       (MAI0255
A050000000130A040200000132A410000002076A050000000740A040200000277       (MAI0256
A4100000020768000000002072A050000000737A040200000734A410000002076       (MAI0257
A002000000214A007400400102A300000000762A007400400075A300000000326       (MAI0258
A300000000774A300000000045A007400400015A300000000326A300000000774       (MAI0259
A300000001015A300000000733A300000000733A300000000045A007400400023       (MAI0260
A300000000326A3000000007748000000002116A300000000045A007400400051       (MAI0261
A300000001012A300000000326A300000000774A300000001044A007400400035       (MAI0262
A300000000267A300000001050A007400400035A300000000270A300000001050       (MAI0263
A007400400035A300000000271A300000001050A007400400035A300000000272       (MAI0264
A300000001050A050000000272A0400000010508000000002142A040200002143       (MAI0265
A300000000272A062100002150A007400400012A300000000326A300000000774       (MAI0266
B201050000000A007400400002A300000000734A300000000277A007400400112       (MAI0267
A007400400051A300000000763A300000000132A300000000131A050000000271       (MAI0268
A040000001050A040200002164A300000000271A0621000022078000000002166       (MAI0269
A050000000270A040000001050A040200002171A300000000270A062100002206       (MAI0270
A050000000267A040000001050A040200002176A300000000267A062100002205       (MAI0271
A007400400020A300000000132A300000000131A300000000326A300000000774       (MAI0272
930000000000093000000000009300000000000A300000001050A300000000225       (MAI0273
8000000002212A007400400016A300000000132A300000000131A007400400111       (MAI0274
A007400400016A300000000326A300000000774A007400400002A300000000737       (MAI0275
A300000000740A050000001045A060100000123A007400400032A300000000130       (MAI0276
A300000000127C201016000165A300000000210A450000000166A432000001051       (MAI0277
A0602000001238000000002236A007400400075A300000000130A300000000127       (MAI0278
A300000000045A007400400015A300000000130A300000000127A300000001015       (MAI0279
A300000000733A300000000733A300000000045A007400400023A300000000130       (MAI0280
A300000000127A300000000045A007400400015A300000000326A300000000774       (MAI0281
A300000000123A3000000001308000000002262A300000000127A002000006504       (MAI0282
A053400100743A050000100324A040200001134A410000002322A050000000743       (MAI0283
A040000001015A060100000743A053400100743A050000100324A040200000727       (MAI0284
A410000002310A007400400104A300000001014A060100007733A007400400055       (MAI0285
C201016000264A300000007733A3000000012548000000002306A300000001243       (MAI0286
A002000002321A007400400107A300000000217A300000000211A300000000221       (MAI0287
A007400400002A300000000117A300000000116A007400400022A002000000213       (MAI0288
A002000006504A053400100743A050000100324A040200001135A410000002357       (MAI0289
A050000000743A040000001015A060100000743A0534001007438000000002332       (MAI0290
A050000100324A040200000727A410000002346A007400400104A300000001014       (MAI0291
A060100007733A007400400055C201016000264A300000007733A300000001254       (MAI0292
A300000001243A002000002356A007400400107A300000000217A300000000212       (MAI0293
A300000000221A007400400002A300000000117A300000000116A007400400025       (MAI0294
8000000002356A002000006504A053400100743A050000100324A040200001267       (MAI0295
A410000002432A050000000743A040000001015A060100000743A053400100743       (MAI0296
A050000100324A040200000727A410000002403A007400400104A300000001014       (MAI0297
A060100007733A007400400055C201016000264A300000007733A300000001254       (MAI0298
A3000000012438000000002402A002000002431A007400400107A300000000217       (MAI0299
A300000000213A300000000221A007400400002A300000000117A300000000116       (MAI0300
A007400400001A300000001015A300000001014A300000001014A007400400001       (MAI0301
A300000001016A300000001014A300000001014A007400400001A300000001017       (MAI0302
A300000001014A3000000010148000000002426A007400400024A300000000117       (MAI0303
A3000000001168000000000165946442524466694525676360238000000000164       (MAI0304
94535605757578000000002431A002000006504A053400100743A050000100324       (MAI0305
A040200001275A410000002554A050000000743A040000001015A060100000743       (MAI0306
A053400100743A050000100324A040200000727A410000002450A007400400055       (MAI0307
C2010460006728000000000630977777777777796631632330609622127256062       (MAI0308
96362604425629406051256225925631413606091314055125629606003336014       (MAI0309
92514541410609442562622127970604525666094743256325439666260234644       (MAI0310
94060214343469442562141360913140645256696060023360149272514541410       (MAI0311
96044256262219456014131443800000000065492346442446669134525676360       (MAI0312
96362601464149606040606225960454645256096060013360609106060606060       (MAI0313
92225601454149136044217060914132151271496630255125609512714541410       (MAI0314
9434660144321931456030254396014642124448000000002447A002000002553       (MAI0315
A007400400103A300000000741A060100000741A007400400103A300000000770       (MAI0316
A060100000770A053400100743A050000100324A040200001203A410000002472       (MAI0317
A007400400054A300000001114A300000001226A300000001100A007400400060       (MAI0318
A300000000166A300000001045A002000002520A0534001007438000000002473       (MAI0319
A050000100324A040200001315A410000002503A007400400072A300000001014       (MAI0320
A300000000741A002000000231A002000002520A053400100743A050000100324       (MAI0321
A040200000122A410000002517A007400400054A300000001115C201017000166       (MAI0322
A300000001101A007400400060A300000000163A300000001042A002000002520       (MAI0323
8000000002517A002000000215A050000001014A060100000730A002000002526       (MAI0324
A050000000730A040000001015A060100000730A050000000730A040200001030       (MAI0325
A010000002532A012000002545A050000000770A040000000730A060100007733       (MAI0326
A050000000730A040200002537A300000000166A062100002542A007400400072       (MAI0327
93000000000008000000002543A300000007733A002000002523A450000001060       (MAI0328
A450100000770A060200007733A007400400072A300000007733A300000000741       (MAI0329
A002000006504A053400100743A050000100324A040200001276A410000002651       (MAI0330
A050000000743A040000001015A060100000743A053400100743A050000100324       (MAI0331
A040200000727A4100000026018000000002567A007400400104A300000001014       (MAI0332
A060100007733A007400400055C201016000264A300000007733A300000001247       (MAI0333
A300000001242A300000001176A002000002650A007400400107A300000000217       (MAI0334
A300000000220A300000000224A053400100743A050000100324A040200001374       (MAI0335
A410000002614A050000001015A0601000001328000000002613A002000002624       (MAI0336
A053400100743A050000100324A040200000122A410000002623A050000001014       (MAI0337
A060100000132A002000002624A002000000215A007400400054A300000001114       (MAI0338
A300000001226A300000001100A007400400057C201031000167A007400400112       (MAI0339
A452000000132A002000002643A007400400064A3000000010048000000002637       (MAI0340
A007400400065A300000001016A300000001004A300000001015A007400400026       (MAI0341
C201031000167A300000001004A300000000223A007400400111A002000006504       (MAI0342
A053400100743A050000100324A040200001321A410000002726A050000000743       (MAI0343
A040000001015A060100000743A053400100743A050000100324A040200000727       (MAI0344
8000000002663A410000002675A007400400104A300000001014A060100007733       (MAI0345
A007400400055C201016000264A300000007733A300000001254A300000001243       (MAI0346
A002000002725A007400400107A300000000217A300000000220A300000000221       (MAI0347
A053400100743A050000100324A040200000122A010000002706A002000000215       (MAI0348
A0074004000528000000002707A300000001017A007400400055A300000001013       (MAI0349
C200736001005A300000000750A300000001010A300000001302A300000001205       (MAI0350
C201016000117A300000001164A007400400052A300000001015A007400400041       (MAI0351
A300000001004A002000006504A053400100743A050000100324A040200001307       (MAI0352
A410000003354A0500000007438000000002733A040000001015A060100000743       (MAI0353
A053400100743A050000100324A040200000727A410000002751A007400400055       (MAI0354
A300000001255A300000001162A300000001352A300000001177A300000001301       (MAI0355
A300000001066A002000003353A450000000274A450100000760A060200007733       (MAI0356
A007400400102A300000007733A0534002007438000000002757A050000200324       (MAI0357
A060100000132A050000000743A0400000010159073400200000A050000200324       (MAI0358
A060100000131A050000000132A040200000122A410000002776A050000000776       (MAI0359
A060100000132A050000000771A060100000131A002000003013A050000000131       (MAI0360
A040200000122A410000003004A050000000771A0601000001318000000003003       (MAI0361
A002000003013A050000000743A0400000010169073400100000A050000100324       (MAI0362
A040200000122A010000003013A002000000215A050000000746A040000001015       (MAI0363
9013100000000A020000001021A460000000123A007400400103A300000000773       (MAI0364
A060100000124A007400400035A300000000273A300000000123A007400400002       (MAI0365
8000000003027A300000000734A300000000277A007400400032A300000000776       (MAI0366
A300000000771C201024000156A007400400052A300000001017A007400400055       (MAI0367
A300000001013C200736001005A300000000750A300000001010A300000001315       (MAI0368
A300000001353A300000001160A300000001124A300000000326A300000001013       (MAI0369
A3000000007748000000003053A300000001164A007400400052A300000001015       (MAI0370
A007400400112A007400400063A300000000326A060100000326A007400400015       (MAI0371
A300000000776A300000000771A300000001033A300000000326A300000000774       (MAI0372
A007400400070A300000000776A300000000771A300000000164A300000000165       (MAI0373
A300000001044A3000000010168000000003077A007400400044A300000000326       (MAI0374
A300000000774A300000000737A300000000740A050000000273A040000000123       (MAI0375
A040200003107A300000000273A062100003113A007400400034A300000000124       (MAI0376
B200123000000A007400400106A050000001014A060100000730A002000003123       (MAI0377
A050000000730A040000001015A0601000007308000000003123A050000000730       (MAI0378
A040200000123A010000003127A012000003147A050000000124A040000000730       (MAI0379
A060100007733A050000000124A040000000730A060100007732A007400400037       (MAI0380
A300000007732A060100007732A450000007732A432000001401A060200007732       (MAI0381
A007400400072A300000007732A300000007733A0020000031208000000003147       (MAI0382
A007400400111A007400400002A300000000737A300000000740A050000000746       (MAI0383
A040000001015A060100000123A050000000326A060100000776A050000000774       (MAI0384
A060100000771A050000001244A060100000766A050000000753A040200003166       (MAI0385
A300000000753A062100003176A050000000752A040200003172A300000000752       (MAI0386
8000000003173A062100003175A00740040011393000000000009300000000000       (MAI0387
A300000000746A300000000227A007400400114A007400400100A300000000776       (MAI0388
A300000000771A300000000757C201037000133A002000000226A050000001014       (MAI0389
A060100000731A002000003216A050000000731A040000001015A060100000731       (MAI0390
A0500000007318000000003217A040200001036A010000003222A012000003226       (MAI0391
A053400100731A050000001330A060100100166A002000003213A050000000271       (MAI0392
A040000001050A040200003231A300000000271A062100003253A050000000270       (MAI0393
A040000001050A040200003236A300000000270A062100003252A050000000267       (MAI0394
A040000001050A0402000032438000000003243A300000000267A062100003251       (MAI0395
A007400400007A300000001012A300000000776A3000000007719300000000000       (MAI0396
93000000000009300000000000A300000000225A050000001014A060100000730       (MAI0397
A002000003263A050000000730A040000001015A060100000730A050000000730       (MAI0398
A040200000746A010000003267A0120000033228000000003267A050000000752       (MAI0399
A0400000007309073400100000A050000100752A040200001014A010000003321       (MAI0400
A050000000752A0400000007309073400200000A050000200752A060100000133       (MAI0401
A050000000753A0400000007309073400200000A050000200753A060100000134       (MAI0402
A050000000326A060100000151A050000000774A0601000001528000000003313       (MAI0403
A007400400114A007400400011A300000000776A300000000771C201037000133       (MAI0404
A300000000225A002000003260A007400400006A300000000776A300000000771       (MAI0405
A300000000225A007400400075A300000000132A300000000131A300000000045       (MAI0406
A007400400015A300000000132A300000000131A300000001015A300000000733       (MAI0407
8000000003337A300000000733A300000000045A007400400023A300000000132       (MAI0408
A300000000131A300000000045A007400400015A300000000776A300000000771       (MAI0409
A300000001045A300000000132A300000000131A002000006504A053400100743       (MAI0410
A050000100324A040200001314A410000004052A050000000743A040000001015       (MAI0411
A0601000007438000000003363A053400100743A050000100324A040200000727       (MAI0412
A410000003372A007400400055C20104600062780000000005569777777777777       (MAI0413
93334606060609604623632143951663162257397360466330259252331442143       (MAI0414
96444252460249316260216262913736031636092160141333149606631633060       (MAI0415
93060254524629604325452763960741401312692763303314549141360432545       (MAI0416
94651601413409141320141360921706022256092543632160448000000000602       (MAI0417
96060140160249474631456333925456351706094651602145609257360145460       (MAI0418
92151312122439444446456065946457360234694346232163319462363214360       (MAI0419
92551602145609626025316330946231413603195125601413439145460663025       (MAI0420
93021432660609302143266051943632140604394623604024259233060144343       (MAI0421
8000000000626931456047216396014642124448000000003371A002000004051       (MAI0422
A053400100743A050000100324A040200000122A410000003377A002000000216       (MAI0423
A050000000743A040200003401A300000000324A062100003404A007400400101       (MAI0424
9300000000000A060100007733A450000007733A432000001372A060200007733       (MAI0425
A050000007733A040200001014A410000003426A0500000010148000000003415       (MAI0426
A060100000131A050000000743A040200003420A300000000324A062100003423       (MAI0427
A0074004000059300000000000A060100000127A002000003470A050000001015       (MAI0428
A060100000131A050000000743A040200003432A300000000324A062100003435       (MAI0429
A0074004000139300000000000A060100000166A052000000132A002000003443       (MAI0430
8000000003441A050000000747A060100000165A050000000747A060100000164       (MAI0431
A050000000743A040200003447A300000000324A062100003452A007400400042       (MAI0432
9300000000000A060100007733A007400400017A300000007733A300000000233       (MAI0433
A060100000127A002000000234A050000000743A040200003463A300000000324       (MAI0434
A0621000034668000000003465A0074004001059300000000000A060100000127       (MAI0435
A050000000743A040000001015A060100000743A452000000132A002000003476       (MAI0436
A002000000235A050000000743A040000001015A040200003501A300000000324       (MAI0437
A062100003504A0074004001019300000000000A060100007733A450000007733       (MAI0438
A432000001324A0602000077338000000003511A050000007733A040200001014       (MAI0439
A410000003642A053400100743A050000100324A040200001327A010000003523       (MAI0440
A050000100324A040200001326A410000003642A050000000743A040000001015       (MAI0441
9073400100000A450000100324A432000001041A060200007733A050000007733       (MAI0442
A040200001036A410000003550A0500000007438000000003535A040000001015       (MAI0443
9073400100000A450000001022A062100003542A4500001003249476500000000       (MAI0444
A060200007733A007400400004A300000007733A060100000130A002000003607       (MAI0445
A050000000743A040000001015A040200003553A300000000324A062100003556       (MAI0446
A0074004001019300000000000A060100007733A4500000077338000000003561       (MAI0447
A432000001372A060200007733A050000007733A040200001014A010000003577       (MAI0448
A050000000743A040000001015A040200003571A300000000324A062100003574       (MAI0449
A0074004000049300000000000A060100000130A002000003607A050000000743       (MAI0450
A040000001015A040200003602A300000000324A062100003605A007400400005       (MAI0451
80000000036059300000000000A060100000130A053400100743A050000100324       (MAI0452
A040200001327A410000003615A050200000130A060100000130A050000000127       (MAI0453
A040000000130A060100000127A053400100743A450000001035A062100003624       (MAI0454
A4500001003249076700000000A450100001062A060200000165A050000000743       (MAI0455
A0400000010158000000003631A040200003632A300000000324A062100003635       (MAI0456
A0074004000139300000000000A060100000164A050000000743A040000001016       (MAI0457
A060100000743A452000000132A002000003647A050000000127A040000001002       (MAI0458
A060100000127A052000000131A002000003663A007400400046A300000000127       (MAI0459
A060100007733A0074004000138000000003655A300000007733A060100000166       (MAI0460
A050000000747A060100000165A050000000747A060100000164A053400200743       (MAI0461
A050000200324A060100000126A050000000743A0400000010159073400200000       (MAI0462
A050000200324A060100000125A050000000743A040000001016A060100000743       (MAI0463
A450000000126A450100000125A0602000077338000000003701A050000007733       (MAI0464
A040200000122A410000003705A002000000216A053400100743A050000100324       (MAI0465
A040200000122A010000003712A002000000215A007400400037A300000000127       (MAI0466
A060100000124A050000000126A040200000765A410000003723A007400400047       (MAI0467
A300000000124A060100000126A050000000125A0402000007658000000003725       (MAI0468
A410000003731A007400400050A300000000124A060100000125A007400400101       (MAI0469
A300000000126A060100000126A007400400101A300000000125A060100000125       (MAI0470
A450000000126A450100000125A432000001372A060200007733A050000007733       (MAI0471
A040200001014A010000003747A002000000222A050000001010A040200001376       (MAI0472
8000000003751A010000004000A052200001071A4600000001239413000000000       (MAI0473
A432000000732A060200007733A050000007733A040200000732A010000004000       (MAI0474
A007400400036A300000000326A300000000774A007400400055A300000001110       (MAI0475
A300000001371A300000001223A300000001262A300000000774A300000000275       (MAI0476
A0074004000738000000003775A300000001026A300000000120A002000000236       (MAI0477
A007400400052A300000001017A007400400050A300000000124A060100007733       (MAI0478
A007400400047A300000000124A060100007732A007400400055A300000001013       (MAI0479
C200736001005A300000000750A300000001010A300000001314A300000001161       (MAI0480
C201017000166A3000000011048000000004021A300000001175A300000007732       (MAI0481
A300000007733A300000001333A300000000126A300000000125A300000001164       (MAI0482
A007400400052A300000001015A007400400005A300000000125A060100007733       (MAI0483
A007400400005A300000000126A060100007732A450000001034A062100004043       (MAI0484
A4500000077329076700000000A4501000077338000000004045A060200007733       (MAI0485
A007400400072A300000007733A300000000127A002000006504A053400100743       (MAI0486
A050000100324A040200001323A410000004223A050000000743A040000001015       (MAI0487
A060100000743A050000000743A040200004063A300000000324A062100004066       (MAI0488
A0074004000049300000000000A060100000132A0534001007438000000004071       (MAI0489
A050000100324A040200000727A410000004105A007400400104A300000001014       (MAI0490
A060100007733A007400400055C201016000264A300000007733A300000001252       (MAI0491
A300000001340A002000004222A050000000132A040200001046A010000004111       (MAI0492
A012000004126A050000000743A040200004113A300000000324A062100004116       (MAI0493
8000000004115A0074004001019300000000000A060100007733A450000007733       (MAI0494
A432000001330A060200007733A050000007733A040200001014A010000004130       (MAI0495
A002000000214A002000004222A050000000743A040000001015A060100000743       (MAI0496
A007400400107A300000000237A300000000220A300000000221A007400400052       (MAI0497
A3000000010178000000004141A007400400021A300000000132A060100007733       (MAI0498
A007400400013A300000007733A060100007733A007400400055A300000001013       (MAI0499
C200736001005A300000000750A300000001010A300000001332A300000001207       (MAI0500
A300000001127A300000001146A300000001367C201016000117A300000001334       (MAI0501
A300000007733A3000000011648000000004165A007400400052A300000001015       (MAI0502
A007400400103A300000001225A040000001004A060100007733A007400400072       (MAI0503
A300000000132A300000007733A007400400103A300000000767A040000001004       (MAI0504
A060100007733A007400400103A300000000775A060100007732A007400400037       (MAI0505
A300000007732A060100007732A0074004000728000000004211A300000007732       (MAI0506
A300000007733A007400400103A300000001011A040000001004A060100007733       (MAI0507
A007400400072A300000001014A300000007733A002000006504A053400100743       (MAI0508
A050000100324A040200001227A410000004265A050000000743A040000001015       (MAI0509
A060100000743A053400100743A050000100324A0402000007278000000004235       (MAI0510
A410000004250A007400400104A300000001014A060100007733A007400400055       (MAI0511
C201016000264A300000007733A300000001250A300000001172A300000001173       (MAI0512
A002000004264A050000000743A040000001015A040200004253A300000000324       (MAI0513
A062100004263A050000000743A040200004257A300000000324A062100004262       (MAI0514
8000000004261A00740040005693000000000009300000000000A002000006504       (MAI0515
A053400100743A050000100324A040200001233A410000004717A050000000743       (MAI0516
A040000001015A060100000743A053400100743A050000100324A040200000727       (MAI0517
A410000004313A007400400104A300000001014A060100007733A007400400055       (MAI0518
C2010160002648000000004305A300000007733A300000001247A300000001241       (MAI0519
A300000001140A300000001120A002000004716A050000001015A060100000130       (MAI0520
A007400400107A300000000241A300000000242A300000000221A050000001014       (MAI0521
A060100000130A053400100743A050000100324A040200000122A410000004334       (MAI0522
A007400400112A0074004000028000000004331A300000000734A300000000277       (MAI0523
A002000000243A053400200743A050000200324A060100000776A050000000743       (MAI0524
A040000001015A060100000743A053400100743A050000100324A040200000122       (MAI0525
A010000004354A053400200743A050000200324A060100000771A050000000743       (MAI0526
A040000001015A060100000743A0534001007438000000004355A050000100324       (MAI0527
A040200000122A010000004361A002000000215A050000000763A060100000766       (MAI0528
A007400400113A300000000117A300000000116A300000001015A300000000244       (MAI0529
A050000000135A060100000744A050000001015A060100000127A007400400006       (MAI0530
A300000000776A300000000771A300000000244A0074004001118000000004401       (MAI0531
A052000000127A002000004415A452000000130A002000004415A007400400055       (MAI0532
A300000001075A300000001240A300000001136A300000001367C201016000117       (MAI0533
A002000000231A002000004545A452000000130A002000004451A050000001015       (MAI0534
A060100000730A002000004425A050000000730A040000001015A060100000730       (MAI0535
8000000004425A050000000730A040200001021A010000004431A012000004450       (MAI0536
A053400100730A050000001014A060100100146A050000001026A040200000730       (MAI0537
A040200004437A300000000166A062100004442A0074004000049300000000000       (MAI0538
9013100000000A020000001040A053400100730A460000100140A002000004422       (MAI0539
A0020000045458000000004451A007400400103A300000000773A060100000124       (MAI0540
A050000001020A060100000730A002000004462A050200001015A040000000730       (MAI0541
A060100000730A050000000730A040200001014A010000004466A412000004545       (MAI0542
A050000000746A0400000010159013100000000A0200000007309013100000000       (MAI0543
A040000000124A0400000010048000000004475A060100007733A007400400037       (MAI0544
A300000007733A060100000125A450000000125A432000001061A060200007733       (MAI0545
A050000001021A0402000007309073400100000A050000007733A060100100140       (MAI0546
A450000001031A062100004514A4500000001259476500000000A060200007733       (MAI0547
A050000001021A04020000073090734001000008000000004521A050000007733       (MAI0548
A060100100146A050000001021A0402000007309073400100000A050000100146       (MAI0549
A040200001014A010000004544A050000001021A0402000007309073400100000       (MAI0550
A450000100146A450100001047A060200007733A050000001021A040200000730       (MAI0551
9073400100000A050000007733A060100100146A0020000044578000000004545       (MAI0552
A007400400055A300000001013A300000000744A300000001013C201016000117       (MAI0553
A050000001015A060100000730A002000004560A050000000730A040000001015       (MAI0554
A060100000730A050000000730A040200001021A010000004564A012000004641       (MAI0555
A053400100730A053400200730A450000100146A450100200140A060200007733       (MAI0556
8000000004571A050000007733A040200001014A010000004640A007400400021       (MAI0557
A300000000730A060100007733A450000001027A062100004602A450000007733       (MAI0558
9076700000000A450100001053A060200000126A050000000730A040200004607       (MAI0559
A300000000140A062100004612A0074004000439300000000000A060100007733       (MAI0560
A0074004000148000000004615A300000007733A060100007733A050000000730       (MAI0561
A040200004621A300000000146A062100004624A0074004000439300000000000       (MAI0562
A060100007732A007400400014A300000007732A060100007732A007400400014       (MAI0563
A300000000126A060100007734A007400400055A300000007734A300000007732       (MAI0564
A300000007733A0020000045558000000004641A452000000127A002000004670       (MAI0565
A450000001022A062100004646A4500000001519476500000000A432000001057       (MAI0566
A060200007734A450000000151A432000001400A450100001063A450100007734       (MAI0567
A060200007734A007400400055A300000001073A300000001305A300000001355       (MAI0568
A300000007734A300000000152A3000000012728000000004665A300000001013       (MAI0569
A300000000153A300000001164A052000000130A002000004716A007400400021       (MAI0570
A300000001004A060100007734A007400400013A300000007734A060100007734       (MAI0571
A007400400103A300000001000A040000001004A060100007733A007400400037       (MAI0572
A300000007733A060100007733A007400400055A3000000010768000000004711       (MAI0573
A300000001220A300000001355A300000007733A300000001304A300000007734       (MAI0574
A002000006504A053400100743A050000100324A040200001342A410000005247       (MAI0575
A050000000743A040000001015A060100000743A053400100743A050000100324       (MAI0576
A040200000727A410000004745A007400400104A300000001014A060100007734       (MAI0577
8000000004735A007400400055C201016000264A300000007734A300000001253       (MAI0578
A300000001152A300000001137A300000001335A002000005246A053400200743       (MAI0579
A050000200324A060100000126A050000000743A0400000010159073400200000       (MAI0580
A050000200324A060100000146A050000000743A0400000010169073400200000       (MAI0581
A0500002003248000000004761A060100000140A050000000743A040000001017       (MAI0582
A060100000743A450000000126A450100000146A450100000140A060200007734       (MAI0583
A050000007734A040200000122A410000004775A002000000216A007400400004       (MAI0584
A300000000126A060100000126A050000000126A040200001021A010000005004       (MAI0585
A012000005007A0500000001268000000005005A040200001014A410000005010       (MAI0586
A002000000214A007400400107A300000000245A300000000220A300000000221       (MAI0587
A050000000746A040000001015A060100007734A050000000126A040200001015       (MAI0588
9013100000000A020000007734A460000007734A007400400103A300000000772       (MAI0589
A040200007734A040000001004A0601000001248000000005031A007400400037       (MAI0590
A300000000124A060100000125A450000000125A432000001061A060200000137       (MAI0591
A450000001031A062100005042A4500000001259476500000000A450100001047       (MAI0592
A060200000145A050000000140A040200000765A410000005053A050000000137       (MAI0593
A060100000136A002000005072A007400400101A3000000001408000000005055       (MAI0594
A060100007734A450000007734A432000001330A060200007734A050000007734       (MAI0595
A040200001014A010000005065A002000000214A007400400004A300000000140       (MAI0596
9013100000000A020000001054A460000000136A050000000146A040200000765       (MAI0597
A410000005100A050000000145A060100000144A002000005117A007400400101       (MAI0598
8000000005101A300000000146A060100007734A450000007734A432000001330       (MAI0599
A060200007734A050000007734A040200001014A010000005112A002000000214       (MAI0600
A007400400004A3000000001469013100000000A020000001054A460000000144       (MAI0601
A007400400052A300000001017A05600000013694754000000009076300000000       (MAI0602
A0221000010548000000005125A460000007734A007400400021A300000007734       (MAI0603
A060100007734A007400400013A300000007734A060100007734A056000000144       (MAI0604
94754000000009076300000000A022100001054A460000007733A007400400021       (MAI0605
A300000007733A060100007733A007400400013A300000007733A060100007733       (MAI0606
A056000000137947540000000080000000051519076300000000A022100001054       (MAI0607
A460000007732A007400400021A300000007732A060100007732A007400400013       (MAI0608
A300000007732A060100007732A05600000014594754000000009076300000000       (MAI0609
A022100001054A460000007735A007400400021A300000007735A060100007735       (MAI0610
A007400400013A300000007735A0601000077358000000005175A007400400021       (MAI0611
A300000000126A060100007736A007400400013A300000007736A060100007736       (MAI0612
A007400400055A300000001013C200736001005A300000000750A300000001010       (MAI0613
A300000001332A300000001206A300000001125A300000007736A300000001313       (MAI0614
C201016000117A300000001272A300000007735A3000000002768000000005221       (MAI0615
A300000007732A300000001333A300000007733A300000000276A300000007734       (MAI0616
A300000001164A007400400052A300000001015A450000000136A432000001061       (MAI0617
A060200007736A450000001031A062100005237A4500000001449076700000000       (MAI0618
A432000001401A450100007736A060200007736A007400400072A300000007736       (MAI0619
8000000005245A300000000124A002000006504A053400100743A050000100324       (MAI0620
A040200001331A410000005373A050000000743A040000001015A060100000743       (MAI0621
A053400100743A050000100324A040200000727A410000005267A007400400055       (MAI0622
A300000001117A300000001212A300000001105A002000005372A050000000743       (MAI0623
A0601000001328000000005271A007400400107A300000000217A300000000250       (MAI0624
A300000000221A007400400021A300000001004A060100007736A007400400013       (MAI0625
A300000007736A060100007736A007400400055A300000001077A300000001271       (MAI0626
A300000001257C201016000117A300000001304A300000007736A007400400103       (MAI0627
A300000000265A0601000002658000000005315A050000000265A040000001002       (MAI0628
A060100007736A450000001056A450100001004A060200007735A007400400072       (MAI0629
A300000007735A300000007736A050000000265A040000001004A060100007736       (MAI0630
A050000000265A040000001004A060100007735A007400400037A300000007735       (MAI0631
A060100007735A450000007735A4501000013708000000005341A060200007735       (MAI0632
A007400400072A300000007735A300000007736A007400400073A300000001052       (MAI0633
A300000000120A002000000247A007400400036A300000000326A300000000774       (MAI0634
A007400400055A300000001013C201016000117A300000001300A300000001357       (MAI0635
A300000001143A300000001165A300000000774A0074004000738000000005365       (MAI0636
A300000001032A300000000120A050000000132A060100000743A002000000246       (MAI0637
A002000006504A053400100743A050000100324A040200001343A410000006063       (MAI0638
A050000000743A040000001015A060100000743A053400100743A050000100324       (MAI0639
A040200000727A410000005411A007400400055C2010460007248000000000673       (MAI0640
97777777777779336060606060951256231242593162606346609436064262460       (MAI0641
92560263145219255125606330921632560663096031452431239145460606346       (MAI0642
91413606060609742451644434951601413140494234141360469140474243162       (MAI0643
96022706014139434346662524960222560264692551604421709145460606462       (MAI0644
80000000007179333333606060964622551026096462255101609642624601443       (MAI0645
931456062507196014642124448000000005410A002000006062A007400400035       (MAI0646
A300000000267A300000001050A007400400035A300000000270A300000001050       (MAI0647
A007400400035A300000000271A300000001050A007400400035A300000000272       (MAI0648
A300000001050A007400400035A300000000273A300000001050A007400400105       (MAI0649
A300000000726A060100000726A0074004001058000000005434A300000000764       (MAI0650
A040000001015A060100000130A050000000130A040000001022A060100000127       (MAI0651
A007400400037A3000000001309013100000000A020000001030A460000000130       (MAI0652
A007400400002A300000000742A300000000327A007400400031A300000000256       (MAI0653
A007400400107A300000000217A300000000252A3000000002218000000005460       (MAI0654
A007400400112A007400400032A300000000117A300000000116C201024000156       (MAI0655
A300000000230A002000000260A007400400055A300000001115C201016000117       (MAI0656
A300000001311A300000001224A300000001126A002000000257A053400100743       (MAI0657
A050000100324A040200001375A410000005510A050000001015A060100000161       (MAI0658
8000000005504A050000000743A040000001015A060100000743A002000005521       (MAI0659
A053400100743A050000100324A040200001373A410000005521A050000001016       (MAI0660
A060100000161A050000000743A040000001015A060100000743A050000001014       (MAI0661
A060100000730A002000005527A050000000730A040000001030A060100000730       (MAI0662
A0500000007308000000005530A040200000130A010000005533A012000005573       (MAI0663
A050000000127A040000000730A060100007736A007400400037A300000007736       (MAI0664
A060100000132A050000000127A040000000730A040000001015A060100007736       (MAI0665
A007400400037A300000007736A060100000131A050000000131A040200000116       (MAI0666
A410000005572A0500000001328000000005554A040200000117A410000005572       (MAI0667
A007400400111A007400400055A300000000756A300000001013C201016000117       (MAI0668
A300000001274A300000001204A300000001354A300000001213A300000001346       (MAI0669
A300000001147A002000000257A002000005524A007400400072A300000000122       (MAI0670
A300000000726A007400400001A3000000010168000000005600A300000001055       (MAI0671
A007400400001A300000001015A300000001055A050000000270A040000001050       (MAI0672
A040200005607A300000000270A062100005623A050000000267A040000001050       (MAI0673
A040200005614A300000000267A062100005622A007400400007A300000000763       (MAI0674
A300000000117A300000000116930000000000093000000000008000000005624       (MAI0675
A300000000733A300000000256A007400400015A300000000116A300000000117       (MAI0676
A300000001015A300000000733A300000000733A300000000045A007400400023       (MAI0677
A300000000116A300000000117A300000000045A050000000273A040000001050       (MAI0678
A040200005644A300000000273A062100005666A050000000272A040000001050       (MAI0679
8000000005650A040200005651A300000000272A062100005665A050000000271       (MAI0680
A040000001050A040200005656A300000000271A062100005664A007400400007       (MAI0681
A300000001012A300000000116A30000000011793000000000009300000000000       (MAI0682
9300000000000A300000000256A007400400010A300000000117A300000000116       (MAI0683
C2010170001338000000005674A300000000255A300000000733A300000000256       (MAI0684
A007400400011A300000000116A300000000117C201017000133A300000000256       (MAI0685
A007400400010A300000000117A300000000116C201023000133A300000000255       (MAI0686
A300000000733A300000000256A053400200735A450000000133A450100200133       (MAI0687
A060200007736A0500000077368000000005720A040200001014A010000005727       (MAI0688
A007400400011A300000000116A300000000117C201023000133A300000000256       (MAI0689
A002000000253A007400400006A300000000117A300000000116A300000000256       (MAI0690
A007400400006A300000000116A300000000117A300000000256A007400400015       (MAI0691
A300000000117A300000000116A3000000010158000000005744A007400400023       (MAI0692
A300000000117A300000000116A007400400015A300000000116A300000000117       (MAI0693
A300000001043A300000000117A300000000116A050000000161A040200001015       (MAI0694
A410000006045A050000001016A060100000161A007400400051A300000000763       (MAI0695
A300000000117A300000000116A007400400051A3000000010128000000005770       (MAI0696
A300000000116A300000000117A300000001014A300000001015A050000000272       (MAI0697
A040000001050A040200005777A300000000272A062100006004A007400400012       (MAI0698
A300000000116A300000000117B201050000000A050000000271A040000001050       (MAI0699
A040200006010A300000000271A062100006033A050000000270A040000001050       (MAI0700
8000000006014A040200006015A300000000270A062100006032A050000000267       (MAI0701
A040000001050A040200006022A300000000267A062100006031A007400400020       (MAI0702
A300000000117A300000000116A300000000116A3000000001179300000000000       (MAI0703
93000000000009300000000000A300000001050A300000000256A007400400016       (MAI0704
A3000000001178000000006040A300000000116A007400400016A300000000116       (MAI0705
A300000000117A002000000254A007400400062A007400400072A300000001014       (MAI0706
A300000000726A007400400111A053400100743A050000100324A040200000122       (MAI0707
A010000006057A002000000251A002000000231A007400400053A002000000257       (MAI0708
A002000006504A0534001007438000000006064A050000100324A040200001361       (MAI0709
A410000006116A050000000743A040000001015A060100000743A053400100743       (MAI0710
A050000100324A040200000727A410000006110A007400400104A300000001014       (MAI0711
A060100007736A007400400055C201016000264A300000007736A300000001251       (MAI0712
A300000001303A300000001316A0020000061158000000006110A050000001015       (MAI0713
A060100000132A050000001377A060100000165A002000000232A002000006504       (MAI0714
A053400100743A050000100324A040200001362A410000006424A050000000743       (MAI0715
A040000001015A060100000743A053400100743A050000100324A040200000727       (MAI0716
A410000006143A007400400104A300000001014A0601000077368000000006134       (MAI0717
A007400400055C201016000264A300000007736A300000001310A300000001065       (MAI0718
A300000001166A002000006423A053400200743A050000200324A060100000132       (MAI0719
A050000000743A0400000010159073400200000A050000200324A060100000131       (MAI0720
A050000000743A0400000010169073400200000A050000200324A060100000130       (MAI0721
8000000006160A050000000743A0400000010179073400200000A050000200324       (MAI0722
A060100000127A050000000131A040200000122A410000006177A050000000771       (MAI0723
A060100000131A050000000132A060100000130A050000000131A060100000127       (MAI0724
A002000006234A050000000130A040200000122A410000006207A050000000132       (MAI0725
A0601000001308000000006204A050000000131A060100000127A002000006234       (MAI0726
A050000000127A040200000122A410000006215A050000000131A060100000127       (MAI0727
A002000006234A050000000132A040200000122A410000006222A002000000216       (MAI0728
A002000006234A050000000743A0400000010209073400100000A050000100324       (MAI0729
A040200000122A0100000062348000000006230A050000000743A040000001020       (MAI0730
A060100000743A002000000215A050000000127A040200000131A410000006251       (MAI0731
A050000000130A040200000132A410000006251A050000000740A040200000277       (MAI0732
A410000006251A050000000737A040200000734A410000006251A002000000214       (MAI0733
A007400400102A300000000762A0074004000358000000006254A300000000267       (MAI0734
A300000001050A007400400035A300000000270A300000001050A007400400035       (MAI0735
A300000000271A300000001050A007400400035A300000000272A300000001050       (MAI0736
A007400400051A300000000763A300000000132A300000000131A007400400002       (MAI0737
A300000000734A300000000277A007400400112A0074004000158000000006300       (MAI0738
A300000000326A300000000774A300000001015A300000000733A300000000733       (MAI0739
A300000000045A007400400023A300000000326A300000000774A300000000045       (MAI0740
A007400400051A300000001012A300000000326A300000000774A300000001044       (MAI0741
A050000000272A040000001050A040200006322A300000000272A062100006327       (MAI0742
8000000006324A007400400012A300000000326A300000000774B201050000000       (MAI0743
A050000000271A040000001050A040200006333A300000000271A062100006356       (MAI0744
A050000000270A040000001050A040200006340A300000000270A062100006355       (MAI0745
A050000000267A040000001050A040200006345A300000000267A062100006354       (MAI0746
A0074004000208000000006350A300000000132A300000000131A300000000326       (MAI0747
A300000000774930000000000093000000000009300000000000A300000001050       (MAI0748
A300000000225A007400400016A300000000326A300000000774A007400400016       (MAI0749
A300000000132A300000000131A050000001044A060100000123A007400400032       (MAI0750
A300000000130A3000000001278000000006374C201016000165A300000000261       (MAI0751
A450000000166A432000001051A060200000123A007400400015A300000000130       (MAI0752
A300000000127A300000001015A300000000733A300000000733A300000000045       (MAI0753
A007400400023A300000000130A300000000127A300000000045A007400400015       (MAI0754
A300000000326A300000000774A3000000001238000000006420A300000000130       (MAI0755
A300000000127A007400400111A002000006504A053400100743A050000100324       (MAI0756
A040200001337A410000006461A050000000743A040000001015A060100000743       (MAI0757
A053400100743A050000100324A040200000727A410000006450A007400400104       (MAI0758
A300000001014A060100007736A007400400055C2010160002648000000006444       (MAI0759
A300000007736A300000001254A300000001243A002000006460A007400400107       (MAI0760
A300000000217A300000000220A300000000221A007400400071A007400400077       (MAI0761
A300000001004A007400400066A002000006504A050000000743A040200001014       (MAI0762
A410000006470A050000001015A060100000743A002000000262A002000006504       (MAI0763
8000000006470A050000000743A040200006472A300000000324A062100006476       (MAI0764
A007400400055A3000000011159300000000000A300000001300A300000001356       (MAI0765
A300000001170A300000001200A300000001163A007400400062A007400400002       (MAI0766
A300000000737A300000000740A300000000027A007400400027A007400400054       (MAI0767
A3000000007568000000006514A007400400053A007400400054A300000000275       (MAI0768
A002000000231A007400400055A300000001106A300000001167A300000001363       (MAI0769
A300000001103A002000000231A050000000743A040200006530A300000000324       (MAI0770
A062100006537A007400400055A300000001106A300000001167A300000001121       (MAI0771
A30000000121493000000000008000000006540A300000000275A002000000231       (MAI0772
A007400400055A300000001112A300000001344A300000001121A300000001215       (MAI0773
A300000001126A002000000231A007400400055A300000001112A300000001344       (MAI0774
A300000001221A300000001144A300000001341A300000001141A300000001123       (MAI0775
A300000001103A002000000231A0074004000218000000006564A300000001004       (MAI0776
A060100007736A007400400013A300000007736A060100007736A007400400055       (MAI0777
A300000001111A300000001202A300000007736A300000001277A300000001232       (MAI0778
A002000000231A007400400055A300000000756A300000001013C201016000117       (MAI0779
A300000001300A300000001357A300000001142A3000000011038000000006610       (MAI0780
A002000000231A007400400055A300000000756A300000000126A300000000125       (MAI0781
A300000001312A300000001132A300000001126A002000000231A007400400055       (MAI0782
A300000001113A300000001345A300000001237A300000001153A300000001150       (MAI0783
A300000001151A300000001070A300000001210A002000000231A002000006706       (MAI0784
8000000006634A0020000066378000000000102A0021000066358000000006635       (MAI0785
A063400206671A007400206671A450000000755A432000000024A060200006705       (MAI0786
A050000006705A040200000024A410000006646A002000006701A007400400050       (MAI0787
A300000000024A060100006705A007400400013A300000006705A060100006705       (MAI0788
A007400400055A300000001107A300000001347A300000001156A300000001234       (MAI0789
8000000006661A300000001155A300000001074A300000001263A300000001122       (MAI0790
A300000006705A300000000275A002000000231A0074004000309300000000000       (MAI0791
A463400106671A0634004067019050000400001A062100006640A062100006643       (MAI0792
A06010000664790020002000019077400400000A053400206671A453400106671       (MAI0793
90020004000018000000006706A002000006775A0020000067128000000000103       (MAI0794
A0021000067108000000006710A063400206760A007400206760A007400400042       (MAI0795
A300000000024A060100006774A007400400017A300000006774A300000000207       (MAI0796
A002000006770A007400400063A300000000024A060100006774A007400400013       (MAI0797
A300000006774A060100006774A007400400055A300000001115A300000006774       (MAI0798
A300000001336A3000000012228000000006734A300000001201A002000000231       (MAI0799
A0020000067418000000000105A0021000067378000000006737A063400206760       (MAI0800
A007400206760A007400400042A300000000024A060100006774A007400400000       (MAI0801
A300000006774A300000000207A060100006774A450000001034A062100006753       (MAI0802
A4500000067749476500000000A060200006774A050000006774A002000006770       (MAI0803
A0074004000309300000000000A463400106760A0634004067708000000006763       (MAI0804
9050000400001A060100006713A060100006722A0601000067429002000200001       (MAI0805
9077400400000A053400206760A45340010676090020004000018000000006775       (MAI0806
A0020000070208000000000104A0021000067768000000006776A063400207010       (MAI0807
A007400207010A050000000743A040200001015A040200007003A300000000324       (MAI0808
A062100007006A0074004000139300000000000A0020000070149300000000000       (MAI0809
A463400107010A06340040701490020002000019077400400000A053400207010       (MAI0810
A4534001070109002000400001A002000007071A0020000070248000000000111       (MAI0811
A0021000070228000000007022A063400207057A007400207057A450000000745       (MAI0812
9076000000006A060200007067A007400400037A300000001003A060100007070       (MAI0813
A450000007070A432000007067A060200007070A007400400072A300000007070       (MAI0814
A300000001003A002000007063A0020000070448000000000112A002100007042       (MAI0815
8000000007042A063400207057A007400207057A007400400037A300000001003       (MAI0816
A060100007070A450000007070A450100000745A060200007070A007400400072       (MAI0817
A300000007070A300000001003A002000007063A0074004000309300000000000       (MAI0818
A463400107057A06340040706390020002000019077400400000A053400207057       (MAI0819
A453400107057800000000706690020004000018000000007071A002000007320       (MAI0820
A0020000070758000000000107A0021000070738000000007073A063400207277       (MAI0821
A007400207277A053400100743A050000100324A040200000122A410000007107       (MAI0822
A050000001002A060100001004A007400400110A300000000024A002000000024       (MAI0823
A002000007275A050000000743A040200007111A300000000324A062100007114       (MAI0824
A0074004001019300000000000A060100007317A4500000073178000000007117       (MAI0825
A432000001330A060200007317A050000007317A040200001014A410000007160       (MAI0826
A050000000743A040200007126A300000000324A062100007131A007400400004       (MAI0827
9300000000000A060100001004A050000001004A040200000746A010000007140       (MAI0828
A412000007140A002000000217A050000001004A040200001014A410000007152       (MAI0829
8000000007143A050000001264A060100000117A050000001235A060100000116       (MAI0830
A050000001330A060100000744A002000007154A007400400110A300000000024       (MAI0831
A050000000743A040000001015A060100000743A002000007275A053400100743       (MAI0832
A050000100324A040200000765A410000007174A050000001002A060100001004       (MAI0833
A0074004001108000000007167A300000000024A050000000743A040000001015       (MAI0834
A060100000743A002000007275A050000000743A040200007176A300000000324       (MAI0835
A062100007201A0074004000619300000000000A060100000117A050000000743       (MAI0836
A040000001015A060100000743A053400100743A050000100324A040200000122       (MAI0837
A410000007213A0020000002178000000007213A053400200743A050000200324       (MAI0838
A060100000116A050000000743A040000001015A060100000743A007400400106       (MAI0839
A050000001015A060100001004A002000007230A050000001004A040000001015       (MAI0840
A060100001004A050000000753A040000000746A040200001004A040000001015       (MAI0841
9073400200000A050000000116A0402002007538000000007237A410000007250       (MAI0842
A050000000752A040000000746A040200001004A0400000010159073400200000       (MAI0843
A050000000117A040200200752A010000007255A050000001004A040200000746       (MAI0844
A010000007254A012000007255A002000007225A050000001004A040200000746       (MAI0845
A010000007266A412000007266A050000001014A0601000010048000000007263       (MAI0846
A050000001330A060100000744A002000000024A007400400103A300000000777       (MAI0847
A040000001004A060100007317A007400400037A300000007317A060100000744       (MAI0848
A002000007313A0074004000309300000000000A463400107277A063400407313       (MAI0849
9050000400001A0621000071059050000400002A0621000072659050000400003       (MAI0850
8000000007307A060100007104A060100007153A0601000071679002000200001       (MAI0851
9077400400000A053400207277A45340010727790020004000018000000007320       (MAI0852
A002000007375A0020000073248000000000110A0021000073228000000007322       (MAI0853
A063400207362A007400207362A007400400103A300000001230A040000001004       (MAI0854
A060100007374A007400400037A300000007374A060100000117A050000000117       (MAI0855
A040200001014A410000007342A050000000743A040000001015A060100000743       (MAI0856
A002000000024A007400400103A300000001231A040000001004A060100007374       (MAI0857
8000000007346A007400400037A300000007374A060100000116A007400400103       (MAI0858
A300000000777A040000001004A060100007374A007400400037A300000007374       (MAI0859
A060100000744A002000007370A0074004000309300000000000A463400107362       (MAI0860
A0634004073709050000400001A06210000734190020002000019077400400000       (MAI0861
A0534002073628000000007372A45340010736290020004000018000000000751       (MAI0862
90000000000018000000007375A002000007456A0020000074018000000000106       (MAI0863
A0021000073778000000007377A063400207445A007400207445A452000000751       (MAI0864
A002000007413A050000001014A060100000751A007400400035A300000000752       (MAI0865
A300000000746A007400400035A300000000753A300000000746A050000000752       (MAI0866
A040000000746A040200007416A300000000752A062100007426A007400400103       (MAI0867
A300000001230A0400000010158000000007423A060100007455A007400400034       (MAI0868
A300000007455B200746000000A050000000753A040000000746A040200007432       (MAI0869
A300000000753A062100007442A007400400103A300000001231A040000001015       (MAI0870
A060100007455A007400400034A300000007455B200746000000A002000007451       (MAI0871
A0074004000309300000000000A4634001074458000000007447A063400407451       (MAI0872
90020002000019077400400000A053400207445A4534001074459002000400001       (MAI0873
800000000072590000000000018000000007456A002000007621A002000007462       (MAI0874
8000000000113A0021000074608000000007460A063400207601A007400207601       (MAI0875
A452000000725A002000007535A050000001014A060100000725A007400400035       (MAI0876
A300000000267A300000001050A007400400035A300000000270A300000001050       (MAI0877
A007400400035A300000000271A300000001050A050000000270A040000001050       (MAI0878
A040200007502A300000000270A0621000075168000000007504A050000000267       (MAI0879
A040000001050A040200007507A300000000267A062100007515A007400400007       (MAI0880
A300000000766A300000000776A30000000077193000000000009300000000000       (MAI0881
A300000000733A300000000225A050000000271A040000001050A040200007524       (MAI0882
A300000000271A062100007531A007400400012A3000000007768000000007530       (MAI0883
A300000000771B201050000000A050000001015A060100000757A002000007540       (MAI0884
A050000000757A040000001037A060100000757A007400400010A300000000776       (MAI0885
A300000000771C201037000133A300000000206A300000000733A300000000225       (MAI0886
A050000001014A060100000730A002000007555A050000000730A040000001015       (MAI0887
8000000007554A060100000730A050000000730A040200000024A010000007561       (MAI0888
A012000007572A053400100730A050000100024A040200000134A410000007571       (MAI0889
A050000100024A040200000133A410000007571A002000007615A002000007552       (MAI0890
A002000000240A007400400006A300000000776A300000000771A300000000225       (MAI0891
A0020000000248000000007600A0074004000309300000000000A463400107601       (MAI0892
A0634004076159050000400001A0621000075659050000400002A062100007562       (MAI0893
9050000400003A0621000075569050000400004A0621000075779002000200001       (MAI0894
9077400400000A053400207601A4534001076019002000400001A002000007731       (MAI0895
A0020000076258000000000114A0021000076238000000007623A063400207717       (MAI0896
A007400207717A050000001014A060100000731A002000007633A050000000731       (MAI0897
A040000001015A060100000731A050000000731A040200001020A010000007637       (MAI0898
A012000007710A050000000133A040200001266A010000007647A050000001025       (MAI0899
A0402000007319073400100000A050000001014A0601001001668000000007647       (MAI0900
A050000001025A040200000731A040200007652A300000000166A062100007655       (MAI0901
A0074004000049300000000000A060100007727A056000000731A020000000123       (MAI0902
9013100000000A040000000273A0400000007309073400100000A450000100273       (MAI0903
A432000001061A060200007730A05600000773094754000000009076300000000       (MAI0904
8000000007673A0221000010409013100000000A040000007727A060100007730       (MAI0905
A007400400021A300000007730A060100007730A050000001025A040200000731       (MAI0906
9073400100000A050000007730A060100100166A002000007630A050000000752       (MAI0907
A0400000007309073400100000A050000001014A060100100752A002000007723       (MAI0908
A00740040003080000000077179300000000000A463400107717A063400407723       (MAI0909
90020002000019077400400000A053400207717A4534001077179002000400001       (MAI0910
8000000007731A00740040003080000000077379000000000000                    (MAI0911
$EOF   (MAIN)    06/24/10  17:50:58    BSS2OBJ 1.0.0                    (MAI0912
