0ARCHA  002266ARCHA  00056800000000000090021000000004APPEND 00000       ARCH0001
90021000000004BZEL   0000190021000000004DAYTIM 000029002100000000       ARCH0002
4DEFBC  0000390021000000004EXIT   0000490021000000004FSTATE 00005       ARCH0003
90021000000004WRWAIT 00006800000000004190000000000168000000000035       ARCH0004
90000000000008000000000044900000000606080000000000469000000600000       ARCH0005
80000000000539610000000000800000000004290000000000229000000000030       ARCH0006
80000000000479000000610000800000000005296000000000008000000000037       ARCH0007
90000000000069000000000014800000000004590000000077778000000000050       ARCH0008
90000777700008000000000054977770000000080000000000369000000000001       ARCH0009
800000000005192330000000008000000000055A002000000060A063400200174       ARCH0010
A007400200174A007400400005A300000000024A300000000024C200036000031       ARCH0011
A007400400002A300000000010A300000000033A450000000010A432000000054       ARCH0012
A060200000032A450000000010A432000000050A060200000011A450000000010       ARCH0013
A432000000045A060200000034A0500000000248000000000101A060100000020       ARCH0014
A050000000024A060100000017A450000000040A062100000107A450000000011       ARCH0015
9476500000000A060200000222A450000000037A062100000114A450000000032       ARCH0016
9476500000000A450100000052A450100000047A450100000222A060200000021       ARCH0017
A450000000043A062100000124A45000000003394765000000008000000000125       ARCH0018
A060200000222A450000000042A062100000131A4500000000349076700000000       ARCH0019
A450100000053A450100000046A450100000222A060200000022A450000000040       ARCH0020
A062100000141A4500000000339076700000000A450100000044A060200000023       ARCH0021
A007400400003A300000000031A060100000222A007400400001A300000000222       ARCH0022
8000000000151A060100000024A050200000035A060100000222A050200000035       ARCH0023
A060100000223A007400400006A300000000024A300000000024A300000000035       ARCH0024
C200041000012A300000000223A300000000222A007400400000A300000000024       ARCH0025
A300000000024A300000000024A300000000024A0020000002168000000000012       ARCH0026
97777770000009777777000000977777700000097777770000009777777000011       ARCH0027
94521442501609452144250260960444461242496170706030309444433446060       ARCH0028
94545454545459606060606060960606000000090000606060608000000000173       ARCH0029
A0074004000049300000000000A463400100174A0634004002169050000400001       ARCH0030
A060100000157A0601000001669050000400002A060100000160A060100000167       ARCH0031
9050000400003A060100000061A062100000102A0601000001709050000400004       ARCH0032
A060100000062A062100000100A06010000017190020002000019077400400000       ARCH0033
8000000000217A053400200174A45340010017490020004000018000000000224       ARCH0034
9000000000000                                                           ARCH0035
$EOF   ARCHA     06/24/10  08:33:53    BSS2OBJ 1.0.0                    ARCH0036
