0GETVAL 000616GETVAL 00013800000000000090021000000004EXIT   00000       GETV0001
80000000000069000000000132900000000013380000000000039000000000055       GETV0002
80000000000119606221652524800000000000590000000000728000000000004       GETV0003
90000000000608000000000002900000000000180000000000109233000000000       GETV0004
8000000000012A002000000015A063400200033A007400200033A050000000004       GETV0005
A060100000024A050000000005A060100000024A050000000011A060100000024       GETV0006
A050000000003A060100000024A050000000007A060100000024A050000000006       GETV0007
A060100000024A002000000053A0074004000009300000000000A463400100033       GETV0008
A06340040005380000000000369050000400001A0621000000169050000400002       GETV0009
A0621000000209050000400003A0621000000229050000400004A062100000024       GETV0010
9050000400005A0621000000269050000400006A0621000000309002000200001       GETV0011
9077400400000A053400200033A45340010003390020004000019000000000000       GETV0012
$EOF   GETVAL    06/24/10  14:31:48    BSS2OBJ 1.0.0                    GETV0013
