0(MAIN) 042312000000003541H00000007746180000000000009002100000000       (MAI0001
4ASSIGN 0000090021000000004BCDEC  0000190021000000004BREAD  00002       (MAI0002
90021000000004CHMODE 0000390021000000004CHNCOM 000049002100000000       (MAI0003
4COMARG 0000590021000000004DEFBC  0000690021000000004DORMNT 00007       (MAI0004
90021000000004ENDRD  0001090021000000004EXIT   000119002100000000       (MAI0005
4FILE   0001290021000000004FSTAT  0001390021000000004FWRITE 00014       (MAI0006
90021000000004.PCOMT 0001590021000000004.SETUP 000169002100000000       (MAI0007
4PRNTP  0001790021000000004RENAME 0002090021000000004SEEK   00021       (MAI0008
90021000000004SETBCD 0002290021000000004SETEOF 000238000000000024       (MAI0009
90021000000004SETVBF 0002490021000000004VREAD  000259002100000000       (MAI0010
4ZEL    000269234644224560964622560606080000000035319000000023420       (MAI0011
80000000035249000000000012900000000001480000000035239000000000006       (MAI0012
80000000035309000000000036800000000352690000000000168000000003536       (MAI0013
96060606060548000000003535960606022626280000000035349235164452330       (MAI0014
80000000035409606221652524800000000352290000000000038000000003527       (MAI0015
90000000000228000000003521900000000000280000000035379606060646225       (MAI0016
80000000035339234644223145800000000351790000000000009000000000001       (MAI0017
800000000353292330000000008000000000055C704172004170C704164004163       (MAI0018
C704147004145C704167004165C704150004147C703747003745C703706003702       (MAI0019
C7040660040628000000003541A007400400016A007400400005A300000003517       (MAI0020
A040200003533A410000003547A007400400027A007400400005A300000003517       (MAI0021
A040200003537A410000003554A007400400030A002000004226A002000003560       (MAI0022
8000000000027A0021000035568000000003556A063400204215A007400204215       (MAI0023
A007400400005A300000003520A300000003472A040200003432A410000003566       (MAI0024
A002000000055A050000003521A060100003451A002000003574A050000003451       (MAI0025
A040000003520A060100003451A050000003466A040200003576A300000000054       (MAI0026
A062100003602A007400400005A30000000345180000000036029300000000000       (MAI0027
A040200003432A010000003615A050000003451A040200003527A010000003611       (MAI0028
A012000003615A050000003466A040000003520A060100003466A002000003571       (MAI0029
A050000003466A040200003522A010000003622A012000003622A002000000055       (MAI0030
A050000000054A060100003471A050000000053A0601000034708000000003626       (MAI0031
A050000003470A040200003540A010000003642A050000003470A040200003534       (MAI0032
A010000003642A050000003470A040200003535A010000003642A050000003472       (MAI0033
A040200003536A410000003645A050000003517A060100003501A002000003653       (MAI0034
A007400400026A300000003472A060100003472A007400400001A300000003472       (MAI0035
8000000003652A060100003472A007400400000A300000003513A300000000747       (MAI0036
A300000001630A007400400024A300000003526A050000003521A060100000065       (MAI0037
A002000003667A050000000065A040000003520A060100000065A050000000065       (MAI0038
A040200003466A010000004150A012000004150A053400200065A050000200054       (MAI0039
A0601000000548000000003676A050000003517A060100003433A050000003520       (MAI0040
A060100003450A007400400013A300000000054A040200003517A410000003737       (MAI0041
A450000003530A062100003711A4500000000549476500000000A432000003454       (MAI0042
A060200003514A450000003447A432000003457A450100003514A060200003447       (MAI0043
A450000003523A0621000037238000000003722A4500000000549076700000000       (MAI0044
A060200003514A450000003514A450100003402A060200003446A050000000053       (MAI0045
A060100003445A007400400017A300000003447A007400400017A300000003441       (MAI0046
A007400400007A007400400021A300000000054A300000002511A300000003372       (MAI0047
A007400400023A300000000057A4520000034338000000003746A002000003753       (MAI0048
A007400400002A300000000054C203414003431A002000003757A007400400025       (MAI0049
A300000000054C203404003431A060100003515A452000003450A002000003771       (MAI0050
A050000003515A040200003517A010000003767A012000003767A050000003520       (MAI0051
A060100003433A050000003517A060100003450A4520000035018000000003772       (MAI0052
A002000004141A0500000035159076000000003A060100000066A052000003450       (MAI0053
A002000004020A050000000066A040200003526A010000004020A007400400006       (MAI0054
A300000003472A060100004225A450000003525A062100004011A450000004225       (MAI0055
9076700000000A450100003402A060200003474A007400400017A300000003500       (MAI0056
8000000004016A050000003517A060100003501A452000003502A002000004073       (MAI0057
A050000003517A060100003451A002000004030A050000003451A040000003523       (MAI0058
A060100003451A050000003451A040200003525A010000004034A012000004062       (MAI0059
A450000003451A062100004037A4500000034159476500000000A432000003454       (MAI0060
A0602000035148000000004042A050000003514A040200003524A010000004046       (MAI0061
A412000004051A050000003514A040200003402A410000004060A450000003523       (MAI0062
A062100004054A4500000034569076700000000A450100003454A060200003456       (MAI0063
A002000004061A002000000064A002000004025A4500000034569076000000006       (MAI0064
A432000003455A0602000034528000000004066A450000003415A432000003452       (MAI0065
A060200003516A050000003517A060100003502A007400400006A300000003472       (MAI0066
A060100003514A450000003514A432000003454A060200004225A450000003530       (MAI0067
A062100004104A4500000042259076700000000A060200003510A450000003510       (MAI0068
A450100003403A060200003414A4500000035238000000004112A062100004114       (MAI0069
A4500000035149476500000000A432000003456A060200003514A450000003415       (MAI0070
A432000003453A450100003516A060200003510A450000003514A450100003510       (MAI0071
A060200003415A050000003472A040000003520A060100003472A050000003514       (MAI0072
A040200003531A010000004135A412000004141A0500000035178000000004136       (MAI0073
A060100003472A007400400017A300000003507A007400400014A300000003513       (MAI0074
C203414003431A002000000062A007400400010A300000000054A002000003664       (MAI0075
A007400400012A300000003513A007400400003A300000003471A300000003517       (MAI0076
A007400400020A300000003513A300000003471A040200003517A010000004163       (MAI0077
8000000004162A002000000060A007400400022A007400400004A007400400017       (MAI0078
A300000003465A002000000056A007400400017A300000003401A002000000056       (MAI0079
A0020000041768000000000030A0021000041748000000004174A063400204215       (MAI0080
A007400204215A00740040001590000000000019646225606060A007400400005       (MAI0081
A300000003520A300000000054A040200003432A410000004207A002000000061       (MAI0082
A050000000054A040200003536A410000004213A002000000061A002000000063       (MAI0083
80000000034569000000000000800000000345397700000000009000000000077       (MAI0084
90077777777778000000003457977777777770080000000034669000000000000       (MAI0085
80000000034329777777777777800000000350190000000000019000000000001       (MAI0086
80000000034029000000000060900006060606080000000035129452631432534       (MAI0087
97423464422318000000003442977777777777794664452433609604546636026       (MAI0088
90000000000009000000000060926314325600080000000034349777777777777       (MAI0089
96331456425609634660234645964622560546094425604651609646225604521       (MAI0090
80000000034739777777777777900000000006092460216360609626346474725       (MAI0091
94523314527609606225506425800000000350397777777777779255126434666       (MAI0092
92543246046659452325602631960622550642580000000034609777777777777       (MAI0093
94526314325349234644223160925603162607494325604521449452566602631       (MAI0094
80000000033739777777777777933602631434593143016033339214425026026       (MAI0095
9214425016045960622550604592346442231458000000004214A007400400011       (MAI0096
9300000000000A463400104215A06340040422190020002000019077400400000       (MAI0097
A053400204215A45340010421590020004000018000000004226A007400400011       (MAI0098
9000000000000                                                           (MAI0099
$EOF   (MAIN)    12/08/10  10:54:19    BSS2OBJ 1.0.1                    (MAI0100
