0CLOSEW 014436CLOSEW 007406SETCOL 007126SINHB  007046SETSR  00672       CLOS0001
6BKSET  006226TABSET 005646NEWBKS 005546NEWTBS 005446BOTTOM 00525       CLOS0002
6READ   004436WRITE  002716SETBK  0026280000000000009002100000000       CLOS0003
4DERBC  0000090021000000004EXIT   0000190021000000004FILE   00002       CLOS0004
90021000000004RDWORD 0000390021000000004WRWORD 000049263143432260       CLOS0005
92763233051609512423215124962255131214396263233051609665123215124       CLOS0006
80000000002569000000000000900000000000192330000000008000000000015       CLOS0007
C700543000542C700521000514C700435000434C700430000424C700531000527       CLOS0008
80000000001469377777777777800000000021290000000000008000000000207       CLOS0009
90000000001238000000000252937777777777780000000002119000000000024       CLOS0010
80000000002209000000000000800000000017593777777777779777777777777       CLOS0011
90000000000129000000000012800000000022290000000000128000000000255       CLOS0012
96000000000008000000000014900000000000080000000001509000000000060       CLOS0013
96060606060608000000000223900000000005580000000002259000000000072       CLOS0014
80000000001479000000000035800000000021590000000001108000000000210       CLOS0015
90000000001248000000000224900000000011080000000002219000000000016       CLOS0016
80000000002149000000000002800000000021390000000000068000000000153       CLOS0017
90000000000068000000000174900000000007780000000002549777777777700       CLOS0018
8000000000261A002000000264A063400201403A007400201403A450000000024       CLOS0019
A432000000174A060200000147A002000001435A002000000273A063400201403       CLOS0020
A007400201403A050000000256A060100000152A050000000256A060100000253       CLOS0021
A050000000024A040200000257A010000000304A012000000304A002000001435       CLOS0022
A0500000000248000000000305A040200000257A060100000205A050000000257       CLOS0023
A060100000202A050000000257A060100000201A002000000317A050000000201       CLOS0024
A040000000257A060100000201A050000000201A040200000205A010000000323       CLOS0025
A012000000434A050000000256A060100000253A002000000331A050000000253       CLOS0026
A040000000257A0601000002538000000000331A053400100253A050000100252       CLOS0027
A040200000202A010000000336A012000000337A002000000326A050000000256       CLOS0028
A060100000152A002000000345A050000000152A040000000257A060100000152       CLOS0029
A053400100152A050000100146A040200000202A010000000353A012000000353       CLOS0030
A002000000342A053400100201A4500001000248000000000355A432000000174       CLOS0031
A060200000173A050000000173A040200000225A410000000411A053400100253       CLOS0032
A050000100252A040200000175A410000000371A050000000150A060100000173       CLOS0033
A002000000020A050000000202A060100000202A002000000377A050000000202       CLOS0034
A040000000257A060100000202A053400200253A0500000002028000000000401       CLOS0035
A040200200252A010000000410A007400400011A300000000150A300000000202       CLOS0036
A300000000017A002000000374A002000000433A053400200152A050000000202       CLOS0037
A040200200146A410000000424A050000000173A040200000147A410000000424       CLOS0038
A050000000202A040200000257A060100000202A002000000433A007400400011       CLOS0039
8000000000425A300000000173A300000000202A300000000017A050000000202       CLOS0040
A040000000257A060100000202A002000000314A007400400005A052000000014       CLOS0041
A002000000440A007400400010A007400400012A002000001435A002000000445       CLOS0042
A063400201403A007400201403A050000000256A060100000152A050000000256       CLOS0043
A0601000002538000000000451A050000000024A040200000257A060100000205       CLOS0044
A050000000257A060100000202A050000000256A060100000203A007400400007       CLOS0045
A300000000024A050000000257A060100000201A002000000470A050000000201       CLOS0046
A040000000257A060100000201A050000000201A040200000205A010000000474       CLOS0047
A012000000514A0074004000068000000000475A300000000173A300000000202       CLOS0048
A300000000016A050000000173A040200000150A010000000505A050000000201       CLOS0049
A060100000203A053400100201A050000000173A060100100024A050000000202       CLOS0050
A040000000257A060100000202A002000000465A050000000203A040000000257       CLOS0051
9073400100000A050000000223A0601001000248000000000521A050000000203       CLOS0052
A040000000257A002000001435A002000000527A063400201403A007400201403       CLOS0053
A007400400007A300000000015A050000000215A040000000257A060100000202       CLOS0054
A007400400005A052000000014A002000000540A007400400010A007400400012       CLOS0055
A002000000021A002000001435A002000000546A0634002014038000000000545       CLOS0056
A007400201403A050000000175A060100000252A050000000256A060100000220       CLOS0057
A002000001435A002000000556A063400201403A007400201403A050000000175       CLOS0058
A060100000146A050000000256A060100000212A002000001435A002000000566       CLOS0059
A063400201403A007400201403A050000000220A040200000211A010000000572       CLOS0060
8000000000571A412000000573A002000001435A050000000220A040200000256       CLOS0061
A010000000607A412000000607A050000000220A0402000002579073400200000       CLOS0062
A050000000024A040200200252A010000000607A012000000607A002000001435       CLOS0063
A053400100220A050000000024A060100100252A050000000220A040000000257       CLOS0064
A0601000002208000000000615A053400100220A050000000175A060100100252       CLOS0065
A002000001435A002000000624A063400201403A007400201403A050000000024       CLOS0066
A040200000215A010000000631A412000000631A002000001435A050000000212       CLOS0067
A040200000207A010000000635A412000000636A002000001435A050000000024       CLOS0068
A040200000257A0100000006428000000000641A012000000643A002000001435       CLOS0069
A050000000212A040200000256A010000000657A412000000657A050000000212       CLOS0070
A0402000002579073400200000A050000000024A040200200146A010000000657       CLOS0071
A012000000657A002000001435A053400100212A050000000024A060100100146       CLOS0072
A050000000212A040000000257A0601000002128000000000665A053400100212       CLOS0073
A050000000175A060100100146A002000001435A002000000674A063400201403       CLOS0074
A007400201403A050000000024A060100000222A050000000024A060100000177       CLOS0075
A050000000024A060100000200A002000001435A002000000706A063400201403       CLOS0076
A007400201403A050000000024A060100000014A0020000014358000000000711       CLOS0077
A002000000714A063400201403A007400201403A050000000024A060100000215       CLOS0078
A050000000215A040200000256A410000000723A050000000224A060100000215       CLOS0079
A050000000215A040200000224A010000000730A050000000257A060100000014       CLOS0080
A050000000215A040200000210A010000000736A412000000736A050000000210       CLOS0081
8000000000735A060100000215A002000001435A002000000742A063400201403       CLOS0082
A007400201403A050000000177A060100000222A007400400002A002000001435       CLOS0083
A002000001032A0020000007528000000000007A0021000007508000000000750       CLOS0084
A063400201020A007400201020A050000000221A060100000217A002000000760       CLOS0085
A050200000257A040000000217A060100000217A050000000217A040200000257       CLOS0086
A010000000764A412000000771A007400400003A300000000024A053400100217       CLOS0087
A060100100172A002000000755A002000001026A0020000007758000000000012       CLOS0088
A0021000007738000000000773A063400201020A007400201020A050000000221       CLOS0089
A060100000217A002000001003A050200000257A040000000217A060100000217       CLOS0090
A050000000217A040200000257A010000001007A412000001016A050000000217       CLOS0091
A040200001011A300000000172A062100001014A0074004000049300000000000       CLOS0092
A002000001000A0020000010268000000001017A0074004000019300000000000       CLOS0093
A463400101020A0634004010269050000400001A0601000007659002000200001       CLOS0094
9077400400000A053400201020A4534001010209002000400001A002000001205       CLOS0095
A0020000010368000000000006A0021000010348000000001034A063400201157       CLOS0096
A007400201157A050000000024A040200000215A010000001043A412000001043       CLOS0097
A002000000024A050000000024A04020000025790131000000009475400000000       CLOS0098
9076300000000A022100000213A060100001204A050000000213A040200000257       CLOS0099
A0402000012049013100000000A020000000153A4600000002068000000001060       CLOS0100
A050000000024A0402000002579076500000043A0221000002139013100000000       CLOS0101
9076000000002A040000000221A060100000217A053400100217A450000000206       CLOS0102
A062100001074A4500001001729476500000000A432000000174A060200000024       CLOS0103
A002000001200A0020000011038000000000011A0021000011018000000001101       CLOS0104
A063400201157A007400201157A050000000024A040200000215A010000001110       CLOS0105
A412000001110A002000000024A050000000024A0402000002579013100000000       CLOS0106
94754000000009076300000000A022100000213A060100001204A050000000213       CLOS0107
A040200000257A0402000012049013100000000A020000000153A460000000206       CLOS0108
8000000001125A050000000024A0402000002579076500000043A022100000213       CLOS0109
90131000000009076000000002A040000000221A060100000217A450000000024       CLOS0110
A432000000174A060200001204A450000000206A062100001143A450000001204       CLOS0111
9076700000000A060200001204A450000000206A062100001150A450000000254       CLOS0112
90767000000008000000001151A053400100217A432000100172A450100001204       CLOS0113
A060200100172A002000001200A0074004000019300000000000A463400101157       CLOS0114
A0634004012009050000400001A062100001076A0621000011359050000400002       CLOS0115
A062100001036A062100001043A062100001060A062100001103A062100001110       CLOS0116
A06210000112590500004000038000000001175A062100001042A062100001107       CLOS0117
90020002000019077400400000A053400201157A4534001011579002000400001       CLOS0118
8000000001205A002000001277A0020000012118000000000010A002100001207       CLOS0119
8000000001207A063400201266A007400201266A007400400000A300000000222       CLOS0120
A060100001276A450000001276A450100000255A060200000204A050000000213       CLOS0121
A0402000002149013100000000A0200000001539013100000000A062100001226       CLOS0122
A4500000001519076700000000A060200001276A056000000153A020000000214       CLOS0123
90131000000008000000001233A062100001235A4500000002049476500000000       CLOS0124
A450100001276A060200000170A056000000153A0200000002149013100000000       CLOS0125
A062100001245A4500000001519476500000000A060200001276A050000000213       CLOS0126
A0402000002149013100000000A0200000001539013100000000A062100001256       CLOS0127
A45000000020490767000000008000000001257A450100001276A060200000171       CLOS0128
A050000000222A040000000200A060100000222A002000001272A007400400001       CLOS0129
9300000000000A463400101266A06340040127290020002000019077400400000       CLOS0130
A053400201266A45340010126690020004000018000000001277A002000001402       CLOS0131
A0020000013038000000000005A0021000013018000000001301A063400201371       CLOS0132
A007400201371A050000000202A040200000257A060100000216A050000000216       CLOS0133
A040200000257901310000000094754000000009076300000000A022100000213       CLOS0134
A0400000002579013100000000A020000000153A460000000206A050000000216       CLOS0135
A0402000002579076500000043A02210000021390131000000008000000001325       CLOS0136
9076000000002A040000000221A060100000217A450000000206A062100001333       CLOS0137
A4500000001519476500000000A060200001401A056000000153A020000000213       CLOS0138
9013100000000A040200000206A062100001343A4500000001769076700000000       CLOS0139
A053400100217A432000100172A450100001401A060200100172A050000000217       CLOS0140
8000000001351A040200000257A060100000217A002000001357A050200000257       CLOS0141
A040000000217A060100000217A050000000217A040200000257A010000001363       CLOS0142
A412000001367A053400100217A050000000151A060100100172A002000001354       CLOS0143
A002000001375A0074004000019300000000000A463400101371A063400401375       CLOS0144
900200020000180000000013759077400400000A053400201371A453400101371       CLOS0145
90020004000018000000001402A0074004000019300000000000A463400101403       CLOS0146
A0634004014359050000400001A062100000264A062100000354A062100000507       CLOS0147
A062100000520A062100000602A062100000610A062100000624A062100000636       CLOS0148
A062100000652A062100000660A062100000674A062100000676A062100000706       CLOS0149
A06210000071490500004000028000000001426A062100000277A062100000304       CLOS0150
A062100000451A0621000007009050000400003A0601000004619002000200001       CLOS0151
9077400400000A053400201403A45340010140390020004000019000000000000       CLOS0152
$EOF   CLOSEW    06/24/10  14:18:04    BSS2OBJ 1.0.0                    CLOS0153
