0(MAIN) 046612000000001645H00000007746180000000000009002100000000       (MAI0001
4ASSIGN 0000090021000000004BIN    0000190021000000004BKSET  00002       (MAI0002
90021000000004BOTTOM 0000390021000000004CANON  000049002100000000       (MAI0003
4CHFILE 0000590021000000004CLOSEW 0000690021000000004CLRNAM 00007       (MAI0004
90021000000004COMARG 0001090021000000004DELFIL 000119002100000000       (MAI0005
4ENDRD  0001290021000000004EXIT   0001390021000000004GETVAL 00014       (MAI0006
90021000000004HOL    0001590021000000004.PCOMT 000169002100000000       (MAI0007
4.SETUP 0001790021000000004NEWBKS 0002090021000000004NEWTBS 00021       (MAI0008
90021000000004READ   0002290021000000004RENAME 000238000000000024       (MAI0009
90021000000004SEEK   0002490021000000004SETBK  000259002100000000       (MAI0010
4SETCOL 0002690021000000004SETERS 0002790021000000004SETKIL 00030       (MAI0011
90021000000004SETSR  0003190021000000004SINHB  000329002100000000       (MAI0012
4TABSET 0003390021000000004TYPEIN 0003490021000000004TYPOUT 00035       (MAI0013
90021000000004WHOAMI 0003690021000000004WRITE  000379232431453163       (MAI0014
92343624664639272563606060947514563606096322314531638000000001557       (MAI0015
90000000001028000000001556900000000007580000000015559000000000070       (MAI0016
80000000015539000000000063800000000154790000000000518000000001544       (MAI0017
90000000000448000000001541900000000003780000000015369000000000032       (MAI0018
80000000015349000000000025800000000153090000000000138000000001572       (MAI0019
96021432746438000000001525900000000000780000000015709442124635145       (MAI0020
80000000015519000000000056800000000154690000000000468000000001543       (MAI0021
90000000000428000000001540900000000003680000000015329000000000020       (MAI0022
80000000015269000000000010800000000160596060602621478000000001554       (MAI0023
90000000000678000000001552900000000005780000000015509000000000052       (MAI0024
80000000015459000000000045800000000154290000000000408000000001537       (MAI0025
90000000000338000000001535900000000002680000000015339000000000021       (MAI0026
80000000015319000000000014800000000160696060604421248000000001524       (MAI0027
90000000000068000000001600960602631432580000000015609000000000110       (MAI0028
80000000015759604523464362800000000161196060606045238000000001527       (MAI0029
90000000000128000000001642962255131214380000000016369606060606251       (MAI0030
80000000015739602242622563800000000163196060606060548000000001643       (MAI0031
96321226225638000000001637960606060632280000000016049606050643163       (MAI0032
80000000016279606060606050800000000164196062474331638000000001633       (MAI0033
96060606060628000000001621960606060602780000000016329606060606060       (MAI0034
80000000015649233021452725800000000161596060606060238000000001640       (MAI0035
96060606346478000000001634960606060606380000000015769604751314563       (MAI0036
80000000016269606060606047800000000160196060263145248000000001620       (MAI0037
96060606060268000000001567943462321632580000000016249606060606043       (MAI0038
80000000016079606060462626800000000161296060606046458000000001644       (MAI0039
96525513126708000000001635960606060606580000000015779606022426247       (MAI0040
80000000016109606060602242800000000160296060423143438000000001623       (MAI0041
96060606060428000000001574960255121622580000000016179606060606025       (MAI0042
80000000015719512563704725800000000163096060606060518000000001561       (MAI0043
92147472545248000000001613960606060602180000000015629224663634644       (MAI0044
80000000016149606060606022800000000156693145622551638000000001622       (MAI0045
96060606060318000000001603960604525676380000000016259606060606045       (MAI0046
80000000015659242543256325800000000161696060606060248000000001520       (MAI0047
90000000000008000000001523900000000000380000000015229000000000002       (MAI0048
80000000015219000000000001800000000156392330000000008000000000046       (MAI0049
C702240002225C702763002760C703660003657C703657003652C703736003727       (MAI0050
C703366003362C703367003366C701737001731C703706003674C702421002414       (MAI0051
C703204003172C703440003434C704021004016C703413003407C702120002114       (MAI0052
C702114002106C702573002572C7025620025528000000000070C703313003301       (MAI0053
C703117003113C703627003616C702433002430C701743001737C702614002611       (MAI0054
C702225002223C703021003007C703051003046C703056003051C703125003123       (MAI0055
C702511002503C7026620026578000000001645A0074004000178000000000702       (MAI0056
97777777777778000000000713974314547646380000000007119743145476301       (MAI0057
80000000001149000000000000800000000150090000000000008000000000115       (MAI0058
90000000005508000000001646A007400400036C201522000105A050000000106       (MAI0059
A060100000703A007400400014A300000000113A300000001512A300000000124       (MAI0060
A300000001473A300000001505A300000000111A007400400007A300000000713       (MAI0061
A300000000703A300000000050A300000001521A007400400007A300000000711       (MAI0062
A300000000703A3000000000508000000001672A300000001521A007400400000       (MAI0063
A300000000713A300000000703A007400400010A300000001521A060100001501       (MAI0064
A050000000124A060100001502A050000001501A040200000702A410000001710       (MAI0065
A007400400040A002000000065A007400400010A300000001522A060100001502       (MAI0066
A050000001502A040200000702A4100000017208000000001716A050000000124       (MAI0067
A060100001502A007400400040A007400400024A300000001501A300000001502       (MAI0068
A300000000065A050000001521A060100000707A050000001521A060100001500       (MAI0069
A052000000114A002000001737A00740040001690000000000029002501240131       (MAI0070
9016300356060A007400400034A300000000700A3000000001158000000001742       (MAI0071
A060100000122A050000000122A040200001523A010000001753A012000001753       (MAI0072
A050000000677A040200001473A410000001753A002000000065A050000000122       (MAI0073
A040200001522A010000001760A012000001760A002000000074A050000001520       (MAI0074
A060100000126A007400400042A300000001520A060100000123A050000000123       (MAI0075
8000000001766A040200001616A010000001773A050000000123A040200001565       (MAI0076
A410000002024A007400400042A300000001520A060100004656A007400400001       (MAI0077
A300000004656A060100001476A050000001521A060100000714A002000002007       (MAI0078
A050000000714A040000001521A060100000714A050000000714A040200001476       (MAI0079
A0100000020218000000002012A012000002021A007400400022A300000001471       (MAI0080
A300000000115A300000000056A060100000717A002000002004A050000001520       (MAI0081
A060100000717A002000003673A050000000123A040200001625A010000002032       (MAI0082
A050000000123A040200001603A410000002074A007400400042A300000001520       (MAI0083
A060100004656A0074004000018000000002036A300000004656A060100001476       (MAI0084
A050000001476A040200001520A410000002045A050000001521A060100001476       (MAI0085
A050000001521A060100000714A002000002053A050000000714A040000001521       (MAI0086
A060100000714A050000000714A040200001476A010000002057A012000002073       (MAI0087
A007400400037A300000001471A3000000007178000000002062A052000001500       (MAI0088
A002000002065A007400400041A007400400022A300000001471A300000000115       (MAI0089
A300000000056A060100000717A002000002050A002000003673A050000000123       (MAI0090
A040200001622A010000002102A050000000123A040200001566A410000002156       (MAI0091
A007400400037A300000001471A300000000717A0020000000768000000002106       (MAI0092
A052000000114A002000002114A00740040001690000000000029003101450147       (MAI0093
9016401630035A007400400034A300000000700A300000000115A060100000122       (MAI0094
A050000000677A040200001473A410000002130A050000000122A040200001523       (MAI0095
A010000002130A012000002130A002000000055A007400400037A300000001471       (MAI0096
8000000002132A300000000717A050000001521A060100000714A002000002141       (MAI0097
A050000000714A040000001521A060100000714A050000000714A040200000122       (MAI0098
A010000002145A012000002152A053400100714A053400200714A050000200700       (MAI0099
A060100101471A002000002136A050000000122A060100000717A002000000064       (MAI0100
A0020000036738000000002156A050000000123A040200001614A010000002164       (MAI0101
A050000000123A040200001562A410000002176A007400400037A300000001471       (MAI0102
A300000000717A050000001520A060100000717A452000001500A002000002174       (MAI0103
A007400400003A002000000065A002000003673A050000000123A040200001613       (MAI0104
A010000002204A0500000001238000000002202A040200001561A410000002215       (MAI0105
A050000000717A040200001520A010000002213A412000002213A050000000717       (MAI0106
A040200001521A060100000717A002000000046A002000003673A050000000123       (MAI0107
A040200001630A010000002223A050000000123A040200001571A410000002251       (MAI0108
A050000001520A060100000717A0500000001268000000002226A040000001521       (MAI0109
A060100000126A002000002234A050000000126A040000001521A060100000126       (MAI0110
A050000000126A040200000122A010000002240A012000002250A050000000717       (MAI0111
A040000001521A060100000717A053400100717A053400200126A050000200700       (MAI0112
A060100101471A002000002231A002000003673A0500000001238000000002252       (MAI0113
A040200001617A010000002257A050000000123A040200001574A410000002275       (MAI0114
A050000000126A0400000015219073400100000A050000100700A040200000113       (MAI0115
A010000002274A050000000126A040000001521A040200002270A300000000700       (MAI0116
A062100002273A0074004000279300000000000A002000003673A050000000123       (MAI0117
8000000002276A040200001623A010000002303A050000000123A040200001602       (MAI0118
A410000002321A050000000126A0400000015219073400100000A050000100700       (MAI0119
A040200000113A010000002320A050000000126A040000001521A040200002314       (MAI0120
A300000000700A062100002317A0074004000309300000000000A002000003673       (MAI0121
A0500000001238000000002322A040200001610A010000002327A050000000123       (MAI0122
A040200001577A410000002345A050000000126A0400000015219073400100000       (MAI0123
A050000100700A040200000113A010000002344A050000000126A040000001521       (MAI0124
A040200002340A300000000700A062100002343A0074004000259300000000000       (MAI0125
A002000003673A0500000001238000000002346A040200001635A010000002353       (MAI0126
A050000000123A040200001644A410000002372A007400400042A300000001520       (MAI0127
A060100000123A050000000123A040200001612A410000002364A050000001520       (MAI0128
A060100000114A002000002371A050000000123A040200001607A410000002371       (MAI0129
A050000001521A060100000114A0020000036738000000002372A050000000123       (MAI0130
A040200001624A010000002400A050000000123A040200001567A410000002404       (MAI0131
A050000001521A060100001472A002000000057A002000003673A050000000123       (MAI0132
A040200001620A010000002412A050000000123A040200001601A410000002575       (MAI0133
A050000001520A060100001472A050000000126A0400000015218000000002416       (MAI0134
A040200000122A010000002421A412000002426A050000001477A060100000122       (MAI0135
A050000000126A040000001521A060100000126A050000000122A060100001477       (MAI0136
A007400400037A300000001471A300000000717A052000001500A002000002436       (MAI0137
A007400400041A007400400022A300000001471A300000000115A300000000056       (MAI0138
8000000002442A060100000717A050000001520A060100000716A002000002451       (MAI0139
A050000000716A040000001521A060100000716A050000000717A040200000122       (MAI0140
A0400000001269013100000000A02000000147290131000000009076000000002       (MAI0141
A040000000716A010000002463A012000002573A050000000716A060100000715       (MAI0142
A0500000001268000000002466A040000001521A060100000714A002000002474       (MAI0143
A050000000714A040000001521A060100000714A050000000714A040200000122       (MAI0144
A010000002562A012000002562A050000000715A040000001521A060100000715       (MAI0145
A053400100715A053400200714A050000101471A040200200700A410000002511       (MAI0146
A002000000067A0534001007148000000002512A050000100700A040200000113       (MAI0147
A410000002522A053400100715A050000101471A040200001512A410000002522       (MAI0148
A002000000067A050000000126A0400000015219076000000002A040000000714       (MAI0149
A010000002535A050000000714A0402000015219073400100000A050000100700       (MAI0150
A040200000113A010000002536A0020000000668000000002536A053400100715       (MAI0151
A050000101471A040200001512A010000002546A050000101471A040200000113       (MAI0152
A010000002546A002000000066A050000000715A040000001521A060100000715       (MAI0153
A002000000103A050000000126A0400000015219076000000002A040000000714       (MAI0154
A410000002561A050000000715A060100000705A0020000024718000000002562       (MAI0155
A050000000715A060100000704A052000000114A002000002571A007400400043       (MAI0156
A300000000705A300000000704A002000000074A002000002446A002000000073       (MAI0157
A002000003673A050000000123A040200001626A010000002603A050000000123       (MAI0158
A040200001576A410000002651A007400400042A300000001520A060100004656       (MAI0159
8000000002606A007400400001A300000004656A060100001475A050000000717       (MAI0160
A040200001520A410000002625A00740040001690000000000069004501460060       (MAI0161
90123016401519015101250145901630060014390131014501259003360606060       (MAI0162
A002000002630A007400400035A300000001471A300000000717A050000001475       (MAI0163
A0402000015218000000002632A060100001475A050000001475A040200001520       (MAI0164
A010000002650A412000002650A007400400037A300000001471A300000000717       (MAI0165
A007400400022A300000001471A300000000115A300000000056A060100000717       (MAI0166
A002000000075A002000003673A050000000123A040200001634A010000002657       (MAI0167
A050000000123A0402000016408000000002656A410000002667A007400400037       (MAI0168
A300000001471A300000000717A452000001500A002000002665A007400400003       (MAI0169
A007400400041A002000003673A050000000123A040200001615A010000002675       (MAI0170
A050000000123A040200001564A410000003257A050000000126A040000001521       (MAI0171
A060100000126A053400200126A0500002007008000000002702A060100001504       (MAI0172
A050000000126A060100001510A050000000126A040000001521A060100000126       (MAI0173
A002000002714A050000000126A040000001521A060100000126A050000000126       (MAI0174
A040200000122A010000002725A012000002725A053400100126A050000100700       (MAI0175
A040200001504A010000002725A002000002711A0500000001268000000002726       (MAI0176
A060100001511A050000000126A040000001521A060100000126A002000002736       (MAI0177
A050000000126A040000001521A060100000126A050000000126A040200000122       (MAI0178
A010000002747A012000002747A053400100126A050000100700A040200001504       (MAI0179
A010000002747A002000002733A050000000126A060100000701A050000000126       (MAI0180
8000000002752A040000001521A060100000126A050000001521A060100001514       (MAI0181
A050000001520A060100000710A007400400042A300000001520A060100000123       (MAI0182
A050000000123A040200001632A410000002770A002000000077A002000003006       (MAI0183
A050000000123A040200001621A410000003003A050000001510A040000001521       (MAI0184
90760000000028000000002776A040000001511A010000003002A050000001521       (MAI0185
A060100000710A002000003006A007400400001A300000000123A060100001514       (MAI0186
A002000000047A050000000717A060100000714A002000003015A050200001521       (MAI0187
A040000000714A060100000714A050000000714A040200001521A010000003021       (MAI0188
A412000003031A0500000001158000000003022A040000000714A040200000717       (MAI0189
9073400100000A053400200714A050000201471A060100101471A002000003012       (MAI0190
A050000000115A040200000717A040000001521A060100000125A050000001520       (MAI0191
A060100001516A050000001520A060100000117A050000000717A040000001521       (MAI0192
A060100000120A050000000717A0601000001168000000003046A050000001516       (MAI0193
A040000001521A060100001516A050000000125A040200000115A010000003056       (MAI0194
A412000003056A002000000060A050000000125A060100000715A050000001510       (MAI0195
A040000001521A060100000714A002000003067A050000000714A040000001521       (MAI0196
A060100000714A050000000714A040200001511A0100000031128000000003072       (MAI0197
A012000003112A050000000715A040200000115A010000003077A412000003100       (MAI0198
A002000000060A053400100714A053400200715A050000100700A040200201471       (MAI0199
A010000003106A002000000071A050000000715A040000001521A060100000715       (MAI0200
A002000003064A002000000102A053400101516A053400200125A050000201471       (MAI0201
8000000003116A060100101471A050000000125A040000001521A060100000125       (MAI0202
A002000000100A050000001521A060100000117A050000001511A040200001510       (MAI0203
A040200001521A040000000125A060100000125A050000001516A060100000120       (MAI0204
A050000001511A040000001521A060100000714A002000003143A050000000714       (MAI0205
A0400000015218000000003142A060100000714A050000000714A040200000701       (MAI0206
A010000003164A012000003164A053400101516A053400200714A050000200700       (MAI0207
A060100101471A050000001516A040000001521A060100001516A050000001516       (MAI0208
A040200000125A010000003163A412000003163A002000000060A002000003140       (MAI0209
A050000001516A0402000015218000000003166A060100000116A452000000710       (MAI0210
A002000003172A002000000101A050000001516A060100001516A002000003200       (MAI0211
A050000001516A040000001521A060100001516A050000000125A040200000115       (MAI0212
A010000003204A012000003214A053400101516A053400200125A050000201471       (MAI0213
A060100101471A050000000125A0400000015218000000003212A060100000125       (MAI0214
A002000003175A050000001516A040200001521A060100000717A050000001514       (MAI0215
A040200001521A060100001514A052000000117A002000003230A050000001514       (MAI0216
A040200001520A010000003230A012000003235A052000000114A002000003235       (MAI0217
A007400400043A300000000120A300000000116A0074004000048000000003236       (MAI0218
A300000001471A300000000717A300000000115A050000001514A040200001520       (MAI0219
A010000003256A412000003256A007400400037A300000001471A300000000717       (MAI0220
A007400400022A300000001471A300000000115A300000000056A060100000717       (MAI0221
A002000000077A002000003673A050000000123A040200001633A010000003265       (MAI0222
8000000003262A050000000123A040200001641A410000003346A007400400042       (MAI0223
A300000001520A060100001515A050000001515A040200001632A410000003274       (MAI0224
A002000000072A452000000707A002000003314A050000001515A040200001501       (MAI0225
A410000003314A007400400016900000000001090047014301259012101620125       (MAI0226
90060016401628000000003306901250060012190145014601639013001250151       (MAI0227
90060014501219014401250033A002000000074A007400400042A300000001520       (MAI0228
A060100001507A050000001507A040200001632A410000003324A050000001502       (MAI0229
A060100001507A007400400007A300000001515A300000001507A300000000070       (MAI0230
A300000001521A0074004000068000000003332A007400400023A300000000713       (MAI0231
A300000000703A300000001515A300000001507A007400400000A300000000713       (MAI0232
A300000000703A050000000702A060100001501A002000000104A002000003673       (MAI0233
A050000000123A040200001627A010000003354A050000000123A040200001604       (MAI0234
A410000003370A007400400012A0074004000068000000003356A007400400011       (MAI0235
A300000000711A300000000703A300000000053A007400400011A300000000713       (MAI0236
A300000000703A300000000054A002000000050A002000003673A050000000123       (MAI0237
A040200001637A010000003376A050000000123A040200001643A410000003425       (MAI0238
A007400400042A300000001520A060100001513A0500000015138000000003402       (MAI0239
A040200001631A410000003406A007400400044A002000003424A007400400021       (MAI0240
A050000001513A040200001632A410000003413A002000000074A007400400001       (MAI0241
A300000001513A060100004656A007400400033A300000004656A007400400042       (MAI0242
A300000001520A060100001513A002000000063A002000003673A050000000123       (MAI0243
8000000003426A040200001573A410000003452A007400400042A300000001520       (MAI0244
A060100000110A007400400020A050000000110A040200001632A410000003440       (MAI0245
A002000000074A007400400001A300000000110A060100004656A007400400002       (MAI0246
A300000004656A007400400042A300000001520A060100000110A002000000061       (MAI0247
A0020000036738000000003452A050000000123A040200001636A010000003460       (MAI0248
A050000000123A040200001642A410000003534A007400400042A300000001520       (MAI0249
A060100000706A050000000706A040200001607A410000003471A007400400032       (MAI0250
A300000001521A002000003533A050000000706A040200001612A410000003477       (MAI0251
A007400400032A3000000015208000000003476A002000003533A050000000706       (MAI0252
A040200001632A410000003507A050000001527A060100000706A050000001527       (MAI0253
A060100000712A002000003526A007400400001A300000000706A060100000706       (MAI0254
A007400400042A300000001520A060100000712A050000000712A040200001632       (MAI0255
A410000003523A050000001527A0601000007128000000003522A002000003526       (MAI0256
A007400400001A300000000712A060100000712A007400400031A300000000706       (MAI0257
A300000000712A007400400032A300000001520A002000003673A050000000123       (MAI0258
A040200001611A010000003542A050000000123A040200001575A410000003561       (MAI0259
A007400400042A300000001520A060100001474A0500000014748000000003546       (MAI0260
A040200001632A410000003553A007400400026A300000001560A002000003560       (MAI0261
A007400400001A300000001474A060100004656A007400400026A300000004656       (MAI0262
A002000003673A050000000123A040200001600A410000003661A007400400042       (MAI0263
A300000001520A060100001503A050000001521A060100000121A050000001503       (MAI0264
8000000003572A040200001632A410000003603A050000001501A060100001503       (MAI0265
A050000001502A060100001507A050000001520A060100000121A002000003613       (MAI0266
A007400400042A300000001520A060100001507A050000001507A040200001632       (MAI0267
A410000003613A050000001502A060100001507A050000001503A040200000702       (MAI0268
A4100000036308000000003616A00740040001690000000000079004501460060       (MAI0269
90126013101439012500600145901210144012590060012701319016501250145       (MAI0270
9003360606060A002000000074A007400400037A300000001471A300000000717       (MAI0271
A050000001520A060100000717A452000001500A002000003640A007400400003       (MAI0272
A007400400007A3000000015038000000003642A300000001507A300000000070       (MAI0273
A300000000121A007400400006A007400400011A300000000711A300000000703       (MAI0274
A300000000051A007400400023A300000000713A300000000703A300000001503       (MAI0275
A300000001507A007400400013A002000003673A0074004000169000000000005       (MAI0276
90045014601639006001210060901510125015080000000036669016401250162       (MAI0277
9016300356060A007400400035A300000000700A300000000122A002000000074       (MAI0278
A0074004000169000000000010900250145012490060014601269006001260131       (MAI0279
90143012500609015101250121901230130012590124006001229017000356060       (MAI0280
A007400400035A300000000700A300000000122A0500000015208000000003712       (MAI0281
A060100000717A050000001520A060100001500A002000000074A002000003766       (MAI0282
A0020000037228000000000041A0021000037208000000003720A063400203755       (MAI0283
A007400203755A007400400006A007400400011A300000000711A300000000703       (MAI0284
A300000000052A050200001520A060100003765A007400400005A300000000713       (MAI0285
A300000000703A300000003765A300000000711A007400400024A300000000711       (MAI0286
A300000000703A300000000050A007400400000A3000000007138000000003744       (MAI0287
A300000000703A050000001521A060100001500A050000001520A060100000717       (MAI0288
A050000001520A060100000707A002000003761A0074004000139300000000000       (MAI0289
A463400103755A06340040376190020002000019077400400000A053400203755       (MAI0290
A45340010375590020004000018000000003766A002000004074A002000003772       (MAI0291
8000000000042A0021000037708000000003770A063400204063A007400204063       (MAI0292
A050000001632A060100001517A050000000126A060100000126A002000004002       (MAI0293
A050000000126A040000001521A060100000126A050000000126A040000001521       (MAI0294
A040200000122A010000004016A012000004016A050000000126A040000001521       (MAI0295
9073400100000A050000100700A0402000001138000000004014A410000004016       (MAI0296
A002000003777A050000000126A040000001521A060100000126A053400100126       (MAI0297
A050000100700A040200000113A410000004027A050000001517A002000004067       (MAI0298
A050000000126A040200000122A010000004037A012000004037A053400100126       (MAI0299
A050000100700A040200001512A410000004044A0500000001268000000004040       (MAI0300
A040200001521A060100000126A050000001517A002000004067A050000000126       (MAI0301
A040200004046A300000000700A062100004051A0074004000159300000000000       (MAI0302
A060100004073A450000001524A062100004056A4500000015179076700000000       (MAI0303
A450100004073A060200001517A002000000062A0074004000139300000000000       (MAI0304
8000000004064A463400104063A06340040406790020002000019077400400000       (MAI0305
A053400204063A45340010406390020004000018000000004074A002000004165       (MAI0306
A0020000041008000000000043A0021000040768000000004076A063400204144       (MAI0307
A007400204144A050000000024A040200001521A060100004164A007400400035       (MAI0308
A300000001471A300000004164A007400400035A300000001506A300000001521       (MAI0309
A050000000024A040200000024A040000001521A060100004164A050000000024       (MAI0310
A040200001521A040200004120A300000001471A0621000041238000000004122       (MAI0311
A0074004000359300000000000A300000004164A007400400035A300000000112       (MAI0312
A300000001521A050000000717A040200000024A060100004164A050000000024       (MAI0313
A040200004135A300000001471A062100004140A0074004000359300000000000       (MAI0314
A300000004164A002000004160A0074004000139300000000000A463400104144       (MAI0315
8000000004146A0634004041609050000400001A062100004100A062100004112       (MAI0316
A0621000041159050000400002A062100004111A062100004131A062100004133       (MAI0317
90020002000019077400400000A053400204144A4534001041449002000400001       (MAI0318
8000000004165A002000004210A0020000041718000000000040A002100004167       (MAI0319
8000000004167A063400204200A007400204200A007400400044A007400400026       (MAI0320
A300000001560A007400400032A300000001520A002000004204A007400400013       (MAI0321
9300000000000A463400104200A06340040420490020002000019077400400000       (MAI0322
A053400204200A4534001042009002000400001A002000004655A002000004214       (MAI0323
8000000000044A0021000042128000000004212A063400204645A007400204645       (MAI0324
A007400400021A007400400020A050000001502A040200001606A410000004316       (MAI0325
A050000001531A060100001513A050000004226A060100004307A002000004310       (MAI0326
A002000004227A050000001533A060100001513A050000004234A060100004307       (MAI0327
A002000004310A002000004235A0500000015358000000004236A060100001513       (MAI0328
A050000004242A060100004307A002000004310A002000004243A050000001537       (MAI0329
A060100001513A050000004250A060100004307A002000004310A002000004251       (MAI0330
A050000001542A060100001513A050000004256A060100004307A002000004310       (MAI0331
A002000004257A050000001545A060100001513A0500000042648000000004262       (MAI0332
A060100004307A002000004310A002000004265A050000001550A060100001513       (MAI0333
A050000004272A060100004307A002000004310A002000004273A050000001552       (MAI0334
A060100001513A050000004300A060100004307A002000004310A002000004301       (MAI0335
A050000001554A060100001513A050000004306A060100004307A002000004310       (MAI0336
8000000004306A002000004313A002000004307A007400400033A300000001513       (MAI0337
A002000004307A007400400002A300000001531A002000004643A050000001502       (MAI0338
A040200001605A410000004406A050000001526A060100001513A050000004326       (MAI0339
A060100004401A002000004402A002000004327A050000001532A060100001513       (MAI0340
A0500000043348000000004332A060100004401A002000004402A002000004335       (MAI0341
A050000001540A060100001513A050000004342A060100004401A002000004402       (MAI0342
A002000004343A050000001543A060100001513A050000004350A060100004401       (MAI0343
A002000004402A002000004351A050000001546A060100001513A050000004356       (MAI0344
A060100004401A0020000044028000000004356A002000004357A050000001550       (MAI0345
A060100001513A050000004364A060100004401A002000004402A002000004365       (MAI0346
A050000001551A060100001513A050000004372A060100004401A002000004402       (MAI0347
A002000004373A050000001554A060100001513A050000004400A060100004401       (MAI0348
A002000004402A002000004405A0020000044018000000004402A007400400033       (MAI0349
A300000001513A002000004401A002000004643A050000001502A040200001570       (MAI0350
A410000004514A050000001525A060100001513A050000004416A060100004505       (MAI0351
A002000004506A002000004417A050000001531A060100001513A050000004424       (MAI0352
A060100004505A002000004506A002000004425A0500000015338000000004426       (MAI0353
A060100001513A050000004432A060100004505A002000004506A002000004433       (MAI0354
A050000001535A060100001513A050000004440A060100004505A002000004506       (MAI0355
A002000004441A050000001537A060100001513A050000004446A060100004505       (MAI0356
A002000004506A002000004447A050000001542A060100001513A050000004454       (MAI0357
8000000004452A060100004505A002000004506A002000004455A050000001545       (MAI0358
A060100001513A050000004462A060100004505A002000004506A002000004463       (MAI0359
A050000001550A060100001513A050000004470A060100004505A002000004506       (MAI0360
A002000004471A050000001552A060100001513A050000004476A060100004505       (MAI0361
A0020000045068000000004476A002000004477A050000001554A060100001513       (MAI0362
A050000004504A060100004505A002000004506A002000004511A002000004505       (MAI0363
A007400400033A300000001513A002000004505A007400400002A300000001525       (MAI0364
A002000004643A050000001502A040200001572A410000004634A050000001530       (MAI0365
A060100001513A0500000045248000000004522A060100004627A002000004630       (MAI0366
A002000004525A050000001532A060100001513A050000004532A060100004627       (MAI0367
A002000004630A002000004533A050000001534A060100001513A050000004540       (MAI0368
A060100004627A002000004630A002000004541A050000001536A060100001513       (MAI0369
A050000004546A060100004627A0020000046308000000004546A002000004547       (MAI0370
A050000001541A060100001513A050000004554A060100004627A002000004630       (MAI0371
A002000004555A050000001544A060100001513A050000004562A060100004627       (MAI0372
A002000004630A002000004563A050000001547A060100001513A050000004570       (MAI0373
A060100004627A002000004630A002000004571A0500000015518000000004572       (MAI0374
A060100001513A050000004576A060100004627A002000004630A002000004577       (MAI0375
A050000001553A060100001513A050000004604A060100004627A002000004630       (MAI0376
A002000004605A050000001555A060100001513A050000004612A060100004627       (MAI0377
A002000004630A002000004613A050000001556A060100001513A050000004620       (MAI0378
8000000004616A060100004627A002000004630A002000004621A050000001557       (MAI0379
A060100001513A050000004626A060100004627A002000004630A002000004633       (MAI0380
A002000004627A007400400033A300000001513A002000004627A002000004643       (MAI0381
A0074004000169000000000005900630121012290162006001459014601630060       (MAI0382
901620125016380000000046429003360606060A002000004651A007400400013       (MAI0383
9300000000000A463400104645A06340040465190020002000019077400400000       (MAI0384
A053400204645A4534001046459002000400001A0074004000138000000004657       (MAI0385
9000000000000                                                           (MAI0386
$EOF   (MAIN)    06/29/10  14:13:12    BSS2OBJ 1.0.0                    (MAI0387
