0(MAIN) 037132000000001555H00000007746180000000000009002100000000       (MAI0001
4ASSIGN 0000090021000000004BIN    0000190021000000004BOTTOM 00002       (MAI0002
90021000000004CANON  0000390021000000004CHFILE 000049002100000000       (MAI0003
4CLOSEW 0000590021000000004CLRNAM 0000690021000000004COMARG 00007       (MAI0004
90021000000004DELFIL 0001090021000000004ENDRD  000119002100000000       (MAI0005
4EXIT   0001290021000000004GETVAL 0001390021000000004HOL    00014       (MAI0006
90021000000004.PCOMT 0001590021000000004.SETUP 000169002100000000       (MAI0007
4READ   0001790021000000004RENAME 0002090021000000004SEEK   00021       (MAI0008
90021000000004SETERS 0002290021000000004SETKIL 000238000000000024       (MAI0009
90021000000004TYPEIN 0002490021000000004TYPOUT 000259002100000000       (MAI0010
4WHOAMI 0002690021000000004WRITE  0002792343624664639272563606060       (MAI0011
94751456360608000000001504900000000000680000000015209606026314325       (MAI0012
80000000015249606050643163800000000154496060606060508000000001553       (MAI0013
96062474331638000000001547960606060606280000000015369606060606027       (MAI0014
80000000015469606060606060800000000151092330214527258000000001532       (MAI0015
96060606060238000000001552960606063464780000000015509606060606063       (MAI0016
80000000015179604751314563800000000154396060606060478000000001521       (MAI0017
96060263145248000000001535960606060602680000000015139434623216325       (MAI0018
80000000015419606060606043800000000152596060604626268000000001527       (MAI0019
96060606046458000000001554965255131267080000000015519606060606065       (MAI0020
80000000015159602251252142800000000152696060606022518000000001522       (MAI0021
96060423143438000000001540960606060604280000000015169602551216225       (MAI0022
80000000015349606060606025800000000151495125637047258000000001545       (MAI0023
96060606060518000000001505921474725452480000000015309606060606021       (MAI0024
80000000015069224663634644800000000153196060606060228000000001512       (MAI0025
93145622551638000000001537960606060603180000000015239606045256763       (MAI0026
80000000015429606060606045800000000151192425432563258000000001533       (MAI0027
96060606060248000000001500900000000000080000000015039000000000003       (MAI0028
80000000015029000000000002800000000150190000000000018000000001507       (MAI0029
92330000000008000000000034C702146002133C702676002673C703402003401       (MAI0030
C703401003374C703460003451C703301003275C703302003301C701645001637       (MAI0031
C703430003416C702334002327C703117003105C703543003540C702026002022       (MAI0032
C702022002014C702506002505C702475002465C703226003214C703032003026       (MAI0033
8000000000056C703351003340C702346002343C701651001645C702527002524       (MAI0034
C702133002131C702734002722C702764002761C702771002764C703040003036       (MAI0035
C702424002416C7025750025728000000001555A0074004000168000000000665       (MAI0036
97777777777778000000001467900000000005580000000006749743145476463       (MAI0037
80000000006739743145476301800000000007790000000000008000000001460       (MAI0038
9000000000000800000000010090000000005508000000001556A007400400026       (MAI0039
C201502000071A050000000072A060100000666A007400400013A300000000076       (MAI0040
A300000001473A300000000107A300000001454A300000001465A300000000074       (MAI0041
A007400400006A300000000674A300000000666A300000000036A300000001501       (MAI0042
A007400400006A300000000673A300000000666A3000000000368000000001602       (MAI0043
A300000001501A007400400000A300000000674A300000000666A007400400007       (MAI0044
A300000001501A060100001461A050000000107A060100001462A050000001461       (MAI0045
A040200000665A410000001617A002000000051A007400400007A300000001502       (MAI0046
A060100001462A050000001462A040200000665A410000001627A050000000107       (MAI0047
8000000001626A060100001462A007400400021A300000001461A300000001462       (MAI0048
A300000000051A050000001501A060100000671A050000001501A060100001460       (MAI0049
A052000000077A002000001645A00740040001590000000000029002501240131       (MAI0050
9016300356060A007400400024A300000000663A300000000100A060100000105       (MAI0051
A0500000001058000000001652A040200001503A010000001661A012000001661       (MAI0052
A050000000662A040200001454A410000001661A002000000051A050000000105       (MAI0053
A040200001502A010000001666A012000001666A002000000060A050000001500       (MAI0054
A060100000111A007400400031A300000001500A060100000106A050000000106       (MAI0055
A040200001533A0100000017018000000001676A050000000106A040200001511       (MAI0056
A410000001732A007400400031A300000001500A060100003710A007400400001       (MAI0057
A300000003710A060100001456A050000001501A060100000675A002000001715       (MAI0058
A050000000675A040000001501A060100000675A050000000675A040200001456       (MAI0059
A010000001727A012000001727A0074004000178000000001722A300000001452       (MAI0060
A300000000100A300000000044A060100000700A002000001712A050000001500       (MAI0061
A060100000700A002000003415A050000000106A040200001542A010000001740       (MAI0062
A050000000106A040200001523A410000002002A007400400031A300000001500       (MAI0063
A060100003710A007400400001A300000003710A0601000014568000000001746       (MAI0064
A050000001456A040200001500A410000001753A050000001501A060100001456       (MAI0065
A050000001501A060100000675A002000001761A050000000675A040000001501       (MAI0066
A060100000675A050000000675A040200001456A010000001765A012000002001       (MAI0067
A007400400027A300000001452A300000000700A052000001460A002000001773       (MAI0068
8000000001772A007400400030A007400400017A300000001452A300000000100       (MAI0069
A300000000044A060100000700A002000001756A002000003415A050000000106       (MAI0070
A040200001537A010000002010A050000000106A040200001512A410000002064       (MAI0071
A007400400027A300000001452A300000000700A002000000062A052000000077       (MAI0072
A0020000020228000000002016A00740040001590000000000029003101450147       (MAI0073
9016401630035A007400400024A300000000663A300000000100A060100000105       (MAI0074
A050000000662A040200001454A410000002036A050000000105A040200001503       (MAI0075
A010000002036A012000002036A002000000043A007400400027A300000001452       (MAI0076
A300000000700A0500000015018000000002042A060100000675A002000002047       (MAI0077
A050000000675A040000001501A060100000675A050000000675A040200000105       (MAI0078
A010000002053A012000002060A053400100675A053400200675A050000200663       (MAI0079
A060100101452A002000002044A050000000105A060100000700A002000000050       (MAI0080
A002000003415A050000000106A0402000015318000000002066A010000002072       (MAI0081
A050000000106A040200001506A410000002104A007400400027A300000001452       (MAI0082
A300000000700A050000001500A060100000700A452000001460A002000002102       (MAI0083
A007400400002A002000000051A002000003415A050000000106A040200001530       (MAI0084
A010000002112A050000000106A040200001505A4100000021238000000002112       (MAI0085
A050000000700A040200001500A010000002121A412000002121A050000000700       (MAI0086
A040200001501A060100000700A002000000034A002000003415A050000000106       (MAI0087
A040200001545A010000002131A050000000106A040200001514A410000002157       (MAI0088
A050000001500A060100000700A050000000111A040000001501A060100000111       (MAI0089
8000000002136A002000002142A050000000111A040000001501A060100000111       (MAI0090
A050000000111A040200000105A010000002146A012000002156A050000000700       (MAI0091
A040000001501A060100000700A053400100700A053400200111A050000200663       (MAI0092
A060100101452A002000002137A002000003415A050000000106A040200001534       (MAI0093
A0100000021658000000002162A050000000106A040200001516A410000002203       (MAI0094
A050000000111A0400000015019073400100000A050000100663A040200000076       (MAI0095
A010000002202A050000000111A040000001501A040200002176A300000000663       (MAI0096
A062100002201A0074004000229300000000000A002000003415A050000000106       (MAI0097
A040200001540A0100000022118000000002206A050000000106A040200001522       (MAI0098
A410000002227A050000000111A0400000015019073400100000A050000100663       (MAI0099
A040200000076A010000002226A050000000111A040000001501A040200002222       (MAI0100
A300000000663A062100002225A0074004000239300000000000A002000003415       (MAI0101
A050000000106A040200001526A0100000022358000000002232A050000000106       (MAI0102
A040200001515A410000002260A053400100111A050000100663A040200001467       (MAI0103
A410000002244A050000001467A060100001454A002000002257A050000000111       (MAI0104
A0400000015019073400100000A050000100663A040200000076A010000002257       (MAI0105
A050000000111A0400000015019073400200000A0500002006638000000002256       (MAI0106
A060100001454A002000003415A050000000106A040200001551A010000002266       (MAI0107
A050000000106A040200001554A410000002305A007400400031A300000001500       (MAI0108
A060100000106A050000000106A040200001527A410000002277A050000001500       (MAI0109
A060100000077A002000002304A050000000106A040200001525A410000002304       (MAI0110
8000000002302A050000001501A060100000077A002000003415A050000000106       (MAI0111
A040200001541A010000002313A050000000106A040200001513A410000002317       (MAI0112
A050000001501A060100001453A002000000045A002000003415A050000000106       (MAI0113
A040200001535A010000002325A050000000106A040200001521A410000002510       (MAI0114
A0500000015008000000002326A060100001453A050000000111A040000001501       (MAI0115
A040200000105A010000002334A412000002341A050000001457A060100000105       (MAI0116
A050000000111A040000001501A060100000111A050000000105A060100001457       (MAI0117
A007400400027A300000001452A300000000700A052000001460A002000002351       (MAI0118
A007400400030A0074004000178000000002352A300000001452A300000000100       (MAI0119
A300000000044A060100000700A050000001500A060100000677A002000002364       (MAI0120
A050000000677A040000001501A060100000677A050000000700A040200000105       (MAI0121
A0400000001119013100000000A02000000145390131000000009076000000002       (MAI0122
A040000000677A010000002376A0120000025068000000002376A050000000677       (MAI0123
A060100000676A050000000111A040000001501A060100000675A002000002407       (MAI0124
A050000000675A040000001501A060100000675A050000000675A040200000105       (MAI0125
A010000002475A012000002475A050000000676A040000001501A060100000676       (MAI0126
A053400100676A053400200675A050000101452A0402002006638000000002422       (MAI0127
A410000002424A002000000053A053400100675A050000100663A040200000076       (MAI0128
A410000002435A053400100676A050000101452A040200001473A410000002435       (MAI0129
A002000000053A050000000111A0400000015019076000000002A040000000675       (MAI0130
A010000002450A050000000675A0402000015019073400100000A050000100663       (MAI0131
8000000002446A040200000076A010000002451A002000000052A053400100676       (MAI0132
A050000101452A040200001473A010000002461A050000101452A040200000076       (MAI0133
A010000002461A002000000052A050000000676A040000001501A060100000676       (MAI0134
A002000000067A050000000111A0400000015019076000000002A040000000675       (MAI0135
A4100000024748000000002472A050000000676A060100000670A002000002404       (MAI0136
A050000000676A060100000667A052000000077A002000002504A007400400032       (MAI0137
A300000000670A300000000667A002000000060A002000002361A002000000057       (MAI0138
A002000003415A050000000106A040200001543A010000002516A050000000106       (MAI0139
A040200001517A4100000025648000000002516A007400400031A300000001500       (MAI0140
A060100003710A007400400001A300000003710A060100001455A050000000700       (MAI0141
A040200001500A410000002540A00740040001590000000000069004501460060       (MAI0142
90123016401519015101250145901630060014390131014501259003360606060       (MAI0143
A002000002543A007400400025A3000000014528000000002542A300000000700       (MAI0144
A050000001455A040200001501A060100001455A050000001455A040200001500       (MAI0145
A010000002563A412000002563A007400400027A300000001452A300000000700       (MAI0146
A007400400017A300000001452A300000000100A300000000044A060100000700       (MAI0147
A002000000061A002000003415A050000000106A0402000015508000000002566       (MAI0148
A010000002572A050000000106A040200001552A410000002602A007400400027       (MAI0149
A300000001452A300000000700A452000001460A002000002600A007400400002       (MAI0150
A007400400030A002000003415A050000000106A040200001532A010000002610       (MAI0151
A050000000106A040200001510A410000003172A050000000111A040000001501       (MAI0152
8000000002612A060100000111A053400200111A050000200663A060100001464       (MAI0153
A050000000111A060100001471A050000000111A040000001501A060100000111       (MAI0154
A002000002627A050000000111A040000001501A060100000111A050000000111       (MAI0155
A040200000105A010000002640A012000002640A053400100111A050000100663       (MAI0156
A0402000014648000000002636A010000002640A002000002624A050000000111       (MAI0157
A060100001472A050000000111A040000001501A060100000111A002000002651       (MAI0158
A050000000111A040000001501A060100000111A050000000111A040200000105       (MAI0159
A010000002662A012000002662A053400100111A050000100663A040200001464       (MAI0160
A010000002662A0020000026468000000002662A050000000111A060100000664       (MAI0161
A050000000111A040000001501A060100000111A050000001501A060100001474       (MAI0162
A050000001500A060100000672A007400400031A300000001500A060100000106       (MAI0163
A050000000106A040200001546A410000002703A002000000063A002000002721       (MAI0164
A050000000106A040200001536A4100000027168000000002706A050000001471       (MAI0165
A0400000015019076000000002A040000001472A010000002715A050000001501       (MAI0166
A060100000672A002000002721A007400400001A300000000106A060100001474       (MAI0167
A002000000035A050000000700A060100000675A002000002730A050200001501       (MAI0168
A040000000675A060100000675A050000000675A0402000015018000000002732       (MAI0169
A010000002734A412000002744A050000000100A040000000675A040200000700       (MAI0170
9073400100000A053400200675A050000201452A060100101452A002000002725       (MAI0171
A050000000100A040200000700A040000001501A060100000110A050000001500       (MAI0172
A060100001476A050000001500A060100000102A050000000700A040000001501       (MAI0173
8000000002756A060100000103A050000000700A060100000101A050000001476       (MAI0174
A040000001501A060100001476A050000000110A040200000100A010000002771       (MAI0175
A412000002771A002000000046A050000000110A060100000676A050000001471       (MAI0176
A040000001501A060100000675A002000003002A050000000675A040000001501       (MAI0177
A0601000006758000000003002A050000000675A040200001472A010000003025       (MAI0178
A012000003025A050000000676A040200000100A010000003012A412000003013       (MAI0179
A002000000046A053400100675A053400200676A050000100663A040200201452       (MAI0180
A010000003021A002000000055A050000000676A040000001501A060100000676       (MAI0181
A002000002777A0020000000668000000003026A053400101476A053400200110       (MAI0182
A050000201452A060100101452A050000000110A040000001501A060100000110       (MAI0183
A002000000064A050000001501A060100000102A050000001472A040200001471       (MAI0184
A040200001501A040000000110A060100000110A050000001476A060100000103       (MAI0185
A050000001472A040000001501A0601000006758000000003052A002000003056       (MAI0186
A050000000675A040000001501A060100000675A050000000675A040200000664       (MAI0187
A010000003077A012000003077A053400101476A053400200675A050000200663       (MAI0188
A060100101452A050000001476A040000001501A060100001476A050000001476       (MAI0189
A040200000110A010000003076A412000003076A0020000000468000000003076       (MAI0190
A002000003053A050000001476A040200001501A060100000101A452000000672       (MAI0191
A002000003105A002000000065A050000001476A060100001476A002000003113       (MAI0192
A050000001476A040000001501A060100001476A050000000110A040200000100       (MAI0193
A010000003117A012000003127A053400101476A053400200110A050000201452       (MAI0194
8000000003122A060100101452A050000000110A040000001501A060100000110       (MAI0195
A002000003110A050000001476A040200001501A060100000700A050000001474       (MAI0196
A040200001501A060100001474A052000000102A002000003143A050000001474       (MAI0197
A040200001500A010000003143A012000003150A052000000077A002000003150       (MAI0198
A0074004000328000000003146A300000000103A300000000101A007400400003       (MAI0199
A300000001452A300000000700A300000000100A050000001474A040200001500       (MAI0200
A010000003171A412000003171A007400400027A300000001452A300000000700       (MAI0201
A007400400017A300000001452A300000000100A300000000044A060100000700       (MAI0202
A002000000063A0020000034158000000003172A050000000106A040200001547       (MAI0203
A010000003200A050000000106A040200001553A410000003261A007400400031       (MAI0204
A300000001500A060100001475A050000001475A040200001546A410000003207       (MAI0205
A002000000056A452000000671A002000003227A050000001475A040200001461       (MAI0206
A410000003227A007400400015900000000001080000000032169004701430125       (MAI0207
90121016201259006001640162901250060012190145014601639013001250151       (MAI0208
90060014501219014401250033A002000000060A007400400031A300000001500       (MAI0209
A060100001470A050000001470A040200001546A410000003237A050000001462       (MAI0210
A060100001470A007400400006A300000001475A3000000014708000000003242       (MAI0211
A300000000054A300000001501A007400400005A007400400020A300000000674       (MAI0212
A300000000666A300000001475A300000001470A007400400000A300000000674       (MAI0213
A300000000666A050000000665A060100001461A002000000070A002000003415       (MAI0214
A050000000106A040200001544A010000003267A050000000106A040200001524       (MAI0215
8000000003266A410000003303A007400400011A007400400005A007400400010       (MAI0216
A300000000673A300000000666A300000000041A007400400010A300000000674       (MAI0217
A300000000666A300000000042A002000000036A002000003415A050000000106       (MAI0218
A040200001520A410000003403A007400400031A300000001500A060100001463       (MAI0219
A0500000015018000000003312A060100000104A050000001463A040200001546       (MAI0220
A410000003325A050000001461A060100001463A050000001462A060100001470       (MAI0221
A050000001500A060100000104A002000003335A007400400031A300000001500       (MAI0222
A060100001470A050000001470A040200001546A410000003335A050000001462       (MAI0223
A060100001470A0500000014638000000003336A040200000665A410000003352       (MAI0224
A0074004000159000000000007900450146006090126013101439012500600145       (MAI0225
9012101440125900600127013190165012501459003360606060A002000000060       (MAI0226
A007400400027A300000001452A300000000700A050000001500A060100000700       (MAI0227
A452000001460A002000003362A0074004000028000000003362A007400400006       (MAI0228
A300000001463A300000001470A300000000054A300000000104A007400400005       (MAI0229
A007400400010A300000000673A300000000666A300000000037A007400400020       (MAI0230
A300000000674A300000000666A300000001463A300000001470A007400400012       (MAI0231
A002000003415A007400400015900000000000590045014601638000000003406       (MAI0232
9006001210060901510125015090164012501629016300356060A007400400025       (MAI0233
A300000000663A300000000105A002000000060A0074004000159000000000010       (MAI0234
90025014501249006001460126900600126013190143012500609015101250121       (MAI0235
901230130012590124006001229017000356060A007400400025A300000000663       (MAI0236
8000000003432A300000000105A050000001500A060100000700A050000001500       (MAI0237
A060100001460A002000000060A002000003510A0020000034448000000000030       (MAI0238
A0021000034428000000003442A063400203477A007400203477A007400400005       (MAI0239
A007400400010A300000000673A300000000666A300000000040A050200001500       (MAI0240
A060100003507A007400400004A300000000674A300000000666A300000003507       (MAI0241
A300000000673A007400400021A300000000673A300000000666A300000000036       (MAI0242
A007400400000A3000000006748000000003466A300000000666A050000001501       (MAI0243
A060100001460A050000001500A060100000700A050000001500A060100000671       (MAI0244
A002000003503A0074004000129300000000000A463400103477A063400403503       (MAI0245
90020002000019077400400000A053400203477A4534001034779002000400001       (MAI0246
8000000003510A002000003616A0020000035148000000000031A002100003512       (MAI0247
8000000003512A063400203605A007400203605A050000001546A060100001477       (MAI0248
A050000000111A060100000111A002000003524A050000000111A040000001501       (MAI0249
A060100000111A050000000111A040000001501A040200000105A010000003540       (MAI0250
A012000003540A050000000111A0400000015019073400100000A050000100663       (MAI0251
A0402000000768000000003536A410000003540A002000003521A050000000111       (MAI0252
A040000001501A060100000111A053400100111A050000100663A040200000076       (MAI0253
A410000003551A050000001477A002000003611A050000000111A040200000105       (MAI0254
A010000003561A012000003561A053400100111A050000100663A040200001473       (MAI0255
A410000003566A0500000001118000000003562A040200001501A060100000111       (MAI0256
A050000001477A002000003611A050000000111A040200003570A300000000663       (MAI0257
A062100003573A0074004000149300000000000A060100003615A450000001504       (MAI0258
A062100003600A4500000014779076700000000A450100003615A060200001477       (MAI0259
A002000000047A00740040001293000000000008000000003606A463400103605       (MAI0260
A06340040361190020002000019077400400000A053400203605A453400103605       (MAI0261
90020004000018000000003616A002000003707A0020000036228000000000032       (MAI0262
A0021000036208000000003620A063400203666A007400203666A050000000024       (MAI0263
A040200001501A060100003706A007400400025A300000001452A300000003706       (MAI0264
A007400400025A300000001466A300000001501A050000000024A040200000024       (MAI0265
A040000001501A060100003706A050000000024A040200001501A040200003642       (MAI0266
A300000001452A0621000036458000000003644A0074004000259300000000000       (MAI0267
A300000003706A007400400025A300000000075A300000001501A050000000700       (MAI0268
A040200000024A060100003706A050000000024A040200003657A300000001452       (MAI0269
A062100003662A0074004000259300000000000A300000003706A002000003702       (MAI0270
A0074004000129300000000000A4634001036668000000003670A063400403702       (MAI0271
9050000400001A062100003622A062100003634A0621000036379050000400002       (MAI0272
A062100003633A062100003653A06210000365590020002000019077400400000       (MAI0273
A053400203666A45340010366690020004000018000000003707A007400400012       (MAI0274
80000000037119000000000000                                              (MAI0275
$EOF   (MAIN)    06/29/10  14:18:01    BSS2OBJ 1.0.0                    (MAI0276
