0GETVAL 00061H0000000774616GETVAL 0001380000000000009002100000000       GETV0001
4EXIT   000008000000000006900000000013290000000001338000000000003       GETV0002
90000000000558000000000011960606044212480000000000059000000000072       GETV0003
80000000000049000000000060800000000000290000000000018000000000010       GETV0004
92330000000008000000000012A002000000015A063400200033A007400200033       GETV0005
A050000000004A060100000024A050000000005A060100000024A050000000011       GETV0006
A060100000024A050000000003A060100000024A050000000007A060100000024       GETV0007
A050000000006A060100000024A002000000053A0074004000009300000000000       GETV0008
A463400100033A06340040005380000000000369050000400001A062100000016       GETV0009
9050000400002A0621000000209050000400003A0621000000229050000400004       GETV0010
A0621000000249050000400005A0621000000269050000400006A062100000030       GETV0011
90020002000019077400400000A053400200033A4534001000339002000400001       GETV0012
9000000000000                                                           GETV0013
$EOF   GETVAL    12/22/10  14:58:11    BSS2OBJ 1.0.1                    GETV0014
