0CDUMP  00144H0000000774616CDUMP  0002280000000000009002100000000       CDUM0001
4DEFBC  0000090021000000004EXIT   0000190021000000004MPRINT 00002       CDUM0002
90021000000004OCLBC  0000390021000000004OCRBC  000049002100000000       CDUM0003
4TRKCV  000058000000000016900000010000080000000000159000000000663       CDUM0004
80000000000139000000000000800000000001790077777777778000000000014       CDUM0005
900000000000180000000000209233000000000A002000000024A063400200117       CDUM0006
A007400200117A007400400005A300000000024A060100000135A007400400002       CDUM0007
A300000000014A300000000017A300000000135A050000000013A060100000007       CDUM0008
A002000000041A050000000007A040000000014A060100000007A050000000007       CDUM0009
A040200000015A0100000001158000000000044A050000000016A040200000007       CDUM0010
9073400200000A050000200024A060100000011A050000000016A040200000007       CDUM0011
9073400200000A050000200024A060100000010A050000000011A040200000010       CDUM0012
A010000000114A007400400004A300000000010A060100000135A007400400003       CDUM0013
A300000000010A060100000136A0074004000048000000000070A300000000011       CDUM0014
A060100000137A007400400003A300000000011A060100000140A050000000007       CDUM0015
A040000000014A060100000141A007400400000A300000000141A060100000141       CDUM0016
A007400400002A300000000014A300000000141A300000000012A300000000140       CDUM0017
A300000000137A300000000012A300000000136A3000000001358000000000114       CDUM0018
A002000000036A002000000131800000000001296077777777778000000000116       CDUM0019
A0074004000019300000000000A463400100117A0634004001319050000400001       CDUM0020
A0601000000259050000400002A0621000000479050000400003A062100000054       CDUM0021
90020002000019077400400000A053400200117A4534001001179002000400001       CDUM0022
80000000001429000000000000                                              CDUM0023
$EOF   CDUMP     04/04/11  10:35:25    BSS2OBJ 1.0.1                    CDUM0024
