0CKENT  00626H0000000774616CKENT  0010580000000000009002100000000       CKEN0001
4CKDATE 0000090021000000004CKTRK  0000190021000000004EXIT   00002       CKEN0002
90021000000004PTETER 0000390021000000004USEDT  000048000000000101       CKEN0003
90000000000029000000000003800000000007790000000000009000000000001       CKEN0004
80000000001039233000000000A002000000107A063400200537A007400200537       CKEN0005
A053400200041A050000200024A060100000033A050000000077A060100000036       CKEN0006
A050000000077A060100000024A053400100045A050000100024A040200000077       CKEN0007
A010000000125A450000000036A450100000062A060200000036A050000000033       CKEN0008
A0402000000778000000000127A010000000416A053400100076A050000100024       CKEN0009
A040200000077A410000000144A053400100070A050000100024A040200000077       CKEN0010
A410000000144A053400100072A050000100024A040200000077A010000000147       CKEN0011
A450000000036A450100000062A060200000036A050000000033A040200000060       CKEN0012
A010000000157A4120000001578000000000153A450000000036A450100000013       CKEN0013
A450100000037A060200000036A050000000026A040200000161A300000000024       CKEN0014
A062100000164A0074004000009300000000000A410000000175A050000000027       CKEN0015
A040200000170A300000000024A062100000173A0074004000009300000000000       CKEN0016
A010000000201A450000000036A4501000000108000000000177A450100000037       CKEN0017
A060200000036A053400100046A050000100024A040200000061A010000000212       CKEN0018
A412000000212A450000000036A450100000014A450100000040A060200000036       CKEN0019
A053400100066A050000100024A040200000100A010000000226A412000000226       CKEN0020
A050000000100A060100100024A050000000100A0601000000248000000000223       CKEN0021
A450000000036A450100000016A060200000036A053400100046A050000100024       CKEN0022
A040200000077A410000000257A053400100057A050000100024A040200000077       CKEN0023
A410000000257A053400100052A050000100024A040200000077A410000000246       CKEN0024
A053400100042A050000100024A040200000077A010000000256A053400100042       CKEN0025
8000000000247A050000000077A060100100024A053400100052A050000000077       CKEN0026
A060100100024A050000000100A060100000024A002000000415A050000000033       CKEN0027
A040200000102A010000000310A050000000042A040200000264A300000000024       CKEN0028
A062100000267A0074004000019300000000000A010000000275A450000000036       CKEN0029
A4501000000128000000000273A450100000037A060200000036A050000000052       CKEN0030
A040200000277A300000000024A062100000302A0074004000019300000000000       CKEN0031
A010000000310A450000000036A450100000015A450100000040A060200000036       CKEN0032
A050000000033A040200000102A010000000327A053400100057A050000100024       CKEN0033
A040200000077A0100000003278000000000317A053400100067A050000100024       CKEN0034
A040200000061A010000000327A450000000036A450100000017A450100000037       CKEN0035
A060200000036A050000000033A040200000102A010000000415A450000000015       CKEN0036
A450100000012A432000000036A060200000623A050000000623A040200000077       CKEN0037
A410000000415A050000000052A0402000003438000000000343A300000000024       CKEN0038
A062100000347A007400400004A3000000001009300000000000A010000000361       CKEN0039
A050000000042A040200000353A300000000024A062100000357A007400400004       CKEN0040
A3000000001009300000000000A410000000365A450000000036A450100000075       CKEN0041
A450100000040A060200000036A050000000042A0402000003678000000000367       CKEN0042
A300000000024A062100000373A007400400004A3000000001019300000000000       CKEN0043
A010000000401A450000000036A450100000071A450100000037A060200000036       CKEN0044
A050000000052A040200000403A300000000024A062100000407A007400400004       CKEN0045
A3000000001019300000000000A010000000415A450000000036A450100000071       CKEN0046
8000000000413A450100000040A060200000036A002000000431A053400100045       CKEN0047
A050000100024A040200000077A410000000426A053400100067A050000100024       CKEN0048
A040200000077A010000000431A450000000036A450100000062A060200000036       CKEN0049
A050000000036A040200000077A010000000525A450000000036A432000000037       CKEN0050
A0602000006238000000000437A050000000623A040200000077A010000000446       CKEN0051
A4500000000409076000000006A432000000036A060200000036A007400400003       CKEN0052
A300000000024A300000000036A300000000024A450000000036A432000000062       CKEN0053
A060200000623A050000000623A040200000077A010000000505A050000000100       CKEN0054
A060100000024A0534001000458000000000463A050000000077A060100100024       CKEN0055
A050000000033A040200000077A010000000502A053400100072A050000000077       CKEN0056
A060100100024A053400100076A050000000077A060100100024A053400100070       CKEN0057
A050000000077A060100100024A002000000505A053400100067A050000000077       CKEN0058
A060100100024A450000000036A4320000000408000000000507A060200000623       CKEN0059
A050000000623A040200000077A010000000515A050000000100A060100000024       CKEN0060
A450000000036A432000000037A060200000623A050000000623A040200000077       CKEN0061
A010000000525A050000000100A002000000617A050000000033A040200000102       CKEN0062
A010000000533A050000000033A040200000077A4100000005348000000000533       CKEN0063
A002000000024A050000000077A00200000061780000000000539101212121212       CKEN0064
80000000000519001212121212800000000003490000000000079000000000024       CKEN0065
80000000000619000000000660800000000004790000000000008000000000043       CKEN0066
90000000000078000000000050900000000001080000000000449000000000010       CKEN0067
80000000000559000000023420900000000062080000000000609000000000003       CKEN0068
80000000000649000000000001900000000000280000000000069000000000003       CKEN0069
80000000000239000000000004800000000002790000000000058000000000074       CKEN0070
90000000000068000000000026900000000000780000000000079000000000010       CKEN0071
80000000000549000000000011800000000004590000000000128000000000041       CKEN0072
90000000000138000000000067900000000001480000000000729000000000015       CKEN0073
80000000000769000000000016800000000007090000000000178000000000057       CKEN0074
90000000000208000000000066900000000002180000000000469000000000022       CKEN0075
80000000000529000000000023800000000004290000000000248000000000073       CKEN0076
90000000000018000000000063900000000000180000000000319000000000002       CKEN0077
80000000000119000000000004800000000002290000000000108000000000012       CKEN0078
90000000000208000000000021900000000004080000000000759000000000100       CKEN0079
80000000000719000000000200800000000003090000000004008000000000032       CKEN0080
90000000010008000000000062900000000200080000000000139000000004000       CKEN0081
80000000000159000000010000800000000003790000000200009000000040000       CKEN0082
80000000000109000000100000800000000001490000002000008000000000017       CKEN0083
90000004000009000001000000800000000001690000020000008000000000025       CKEN0084
9000004000000800000000002490000100000008000000000536A007400400002       CKEN0085
9300000000000A463400100537A0634004006179050000400001A062100000110       CKEN0086
A062100000117A062100000131A062100000135A062100000141A060100000161       CKEN0087
A060100000170A062100000202A062100000213A062100000220A062100000227       CKEN0088
A062100000233A062100000237A062100000243A0621000002508000000000562       CKEN0089
A062100000253A060100000264A060100000277A062100000314A062100000320       CKEN0090
A060100000343A060100000353A060100000367A060100000403A062100000417       CKEN0091
A062100000423A060100000447A062100000464A062100000472A062100000475       CKEN0092
A062100000500A0621000005049050000400002A062100000222A062100000255       CKEN0093
8000000000606A0621000004619050000400003A062100000115A062100000514       CKEN0094
9050000400004A0621000005339050000400005A0601000004519002000200001       CKEN0095
9077400400000A053400200537A45340010053790020004000018000000000624       CKEN0096
9000000000000                                                           CKEN0097
$EOF   CKENT     04/04/11  10:27:10    BSS2OBJ 1.0.1                    CKEN0098
