0CKTRK  00652H0000000774616CKTRK  004416CVTRK  004106TRKCV  00355       CKTR0001
6CKDATE 003026DATECV 002166CVDATE 0014380000000000009002100000000       CKTR0002
4BCDEC  0000090021000000004DERBC  0000190021000000004EXIT   00002       CKTR0003
80000000001279000000000036800000000013590000777777778000000000122       CKTR0004
90000000000068000000000131900000000007780000000001169000000000000       CKTR0005
80000000001419373737373737800000000012090000000000038000000000137       CKTR0006
92020202020208000000000136906060606060680000000001329000000000143       CKTR0007
90000000007778000000000130900000000003780000000001259000000000017       CKTR0008
80000000001239000000000011900000000001480000000001219000000000005       CKTR0009
80000000001349000000007777800000000012690000000000308000000000117       CKTR0010
9000000000001800000000014092330000000008000000000142A002000000145       CKTR0011
A063400200626A007400200626A050000000024A060100000113A450000000126       CKTR0012
A062100000152A4500000001139476500000000A432000000134A060200000645       CKTR0013
A007400400000A300000000645A060100000645A450000000121A062100000163       CKTR0014
A4500000006459076700000000A060200000645A4500000001248000000000166       CKTR0015
A062100000170A4500000001139476500000000A432000000134A060200000646       CKTR0016
A007400400000A300000000646A060100000646A450000000113A432000000134       CKTR0017
A060200000647A007400400000A300000000647A060100000647A450000000123       CKTR0018
A062100000207A4500000006479076700000000A450100000646A450100000645       CKTR0019
8000000000212A060200000115A050000000115A002000000641A002000000220       CKTR0020
A063400200626A007400200626A050000000024A060100000113A450000000121       CKTR0021
A062100000225A4500000001139476500000000A432000000125A060200000647       CKTR0022
A007400400001A300000000647A060100000647A450000000647A432000000134       CKTR0023
A0602000006478000000000236A450000000126A062100000241A450000000647       CKTR0024
9076700000000A060200000647A450000000113A432000000130A060200000646       CKTR0025
A007400400001A300000000646A060100000646A450000000646A432000000134       CKTR0026
A060200000646A450000000124A062100000257A4500000006469076700000000       CKTR0027
A060200000646A4500000001238000000000262A062100000264A450000000113       CKTR0028
9476500000000A432000000133A060200000645A007400400001A300000000645       CKTR0029
A060100000645A450000000645A432000000134A450100000646A450100000647       CKTR0030
A060200000115A050000000115A002000000641A002000000304A063400200626       CKTR0031
A007400200626A050000000024A0601000001138000000000306A450000000123       CKTR0032
A062100000311A4500000001139476500000000A060200000115A450000000121       CKTR0033
A062100000316A4500000001139476500000000A432000000125A060200000054       CKTR0034
A450000000113A432000000130A060200000030A050000000030A040200000117       CKTR0035
A010000000330A412000000352A050000000030A0402000001308000000000332       CKTR0036
A010000000334A012000000352A050000000054A040200000117A010000000340       CKTR0037
A412000000352A050000000054A040200000124A010000000344A012000000352       CKTR0038
A050000000115A040200000132A010000000350A0120000003529475400000000       CKTR0039
A002000000353A050000000117A002000000641A002000000357A063400200626       CKTR0040
8000000000356A007400200626A050000000024A060100000113A050000000113       CKTR0041
A040000000136A060100000647A450000000647A432000000137A060200000114       CKTR0042
A450000000120A062100000372A45000000011494765000000009076000000006       CKTR0043
A060200000647A450000000117A062100000400A4500000001149476500000000       CKTR0044
90760000000068000000000402A432000000113A432000000647A060200000647       CKTR0045
A050000000647A002000000641A002000000412A063400200626A007400200626       CKTR0046
A050000000024A060100000113A050000000113A040000000141A060100000647       CKTR0047
A450000000647A432000000137A060200000114A450000000120A062100000425       CKTR0048
A45000000011494765000000008000000000426A060200000647A450000000117       CKTR0049
A062100000432A4500000001149476500000000A450100000113A450100000647       CKTR0050
A060200000647A050000000647A002000000641A002000000443A063400200626       CKTR0051
A007400200626A050000000024A060100000113A452000000035A002000000505       CKTR0052
A050000000046A060100000044A0020000004558000000000452A050000000044       CKTR0053
A040000000117A060100000044A050000000044A040200000041A010000000461       CKTR0054
A012000000465A053400100044A050000000055A060100100110A002000000452       CKTR0055
A050000000047A060100000044A002000000473A050000000044A040000000117       CKTR0056
A060100000044A050000000044A040200000042A0100000004778000000000476       CKTR0057
A012000000503A053400100044A050000000056A060100100110A002000000470       CKTR0058
A050000000116A060100000035A050000000113A040000000141A060100000647       CKTR0059
A450000000647A432000000137A060200000647A050000000647A040200000116       CKTR0060
A010000000520A050000000117A002000000641A050000000113A040000000136       CKTR0061
8000000000522A060100000647A450000000647A432000000137A060200000114       CKTR0062
A450000000120A062100000531A45000000011494765000000009076000000006       CKTR0063
A060200000647A450000000117A062100000537A4500000001149476500000000       CKTR0064
9076000000006A432000000113A432000000647A060200000115A450000000115       CKTR0065
A4320000001318000000000546A060200000070A450000000122A062100000552       CKTR0066
A4500000001159476500000000A432000000135A060200000647A007400400000       CKTR0067
A300000000647A060100000075A450000000127A062100000563A450000000115       CKTR0068
9476500000000A432000000131A060200000054A050000000054A040200000042       CKTR0069
A010000000572A0120000006068000000000572A050000000054A040200000047       CKTR0070
A010000000602A012000000602A050000000054A040200000041A010000000602       CKTR0071
A012000000606A050000000054A040200000046A010000000610A012000000610       CKTR0072
A050000000117A002000000641A053400200054A050000000075A040200200110       CKTR0073
A010000000621A012000000621A0500000000708000000000616A040200000117       CKTR0074
A010000000623A412000000623A050000000117A002000000641A050000000116       CKTR0075
A0020000006418000000000035900000000000180000000000529101212121212       CKTR0076
80000000000509001212121212800000000003290000000000079000000000024       CKTR0077
80000000000619000000000660800000000004690000000000008000000000041       CKTR0078
90000000000078000000000047900000000001080000000000429000000000010       CKTR0079
80000000000559000000023420900000000062080000000000609000000000003       CKTR0080
80000000000649000000000001900000000000280000000000049000000000003       CKTR0081
80000000000219000000000004800000000002590000000000058000000000074       CKTR0082
90000000000068000000000024900000000000780000000000059000000000010       CKTR0083
80000000000539000000000011800000000004390000000000128000000000037       CKTR0084
90000000000138000000000067900000000001480000000000729000000000015       CKTR0085
80000000001129000000000016800000000007090000000000178000000000057       CKTR0086
90000000000208000000000066900000000002180000000000459000000000022       CKTR0087
80000000000519000000000023800000000004090000000000248000000000073       CKTR0088
90000000000018000000000063900000000000180000000000279000000000002       CKTR0089
80000000000079000000000004800000000002090000000000108000000000010       CKTR0090
90000000000208000000000017900000000004080000000001119000000000100       CKTR0091
80000000000719000000000200800000000002690000000004008000000000031       CKTR0092
90000000010008000000000062900000000200080000000000119000000004000       CKTR0093
80000000000139000000010000800000000003490000000200008000000000036       CKTR0094
90000000400008000000000006900000010000080000000000129000000200000       CKTR0095
80000000000159000000400000900000100000080000000000149000002000000       CKTR0096
80000000000239000004000000800000000002290000100000008000000000625       CKTR0097
A0074004000029300000000000A463400100626A0634004006419050000400001       CKTR0098
A062100000145A062100000220A062100000304A062100000357A062100000412       CKTR0099
A06210000044390020002000019077400400000A053400200626A453400100626       CKTR0100
900200040000180000000006509000000000000                                 CKTR0101
$EOF   CKTRK     04/04/11  10:27:36    BSS2OBJ 1.0.1                    CKTR0102
