0PTETER 01264H0000000774616PTETER 004106PTFLER 003148000000000000       PTET0001
90021000000004BZEL   0000090021000000004COMBIN 000019002100000000       PTET0002
4DATECV 0000290021000000004DEFBC  0000390021000000004EXIT   00004       PTET0003
90021000000004KEYS   0000590021000000004MPRINT 000069002100000000       PTET0004
4OCABC  0000790021000000004TRKCV  0001080000000003019000000000043       PTET0005
80000000003059606060606060800000000031297777777777008000000000310       PTET0006
97777776000008000000000302900000000702080000000003069776000000000       PTET0007
80000000003119777777776000800000000030797777600000008000000000303       PTET0008
90060606060778000000000300900000000000380000000002769000000000000       PTET0009
9000000000001800000000030492330000000008000000000012C701061001050       PTET0010
8000000000313A002000000316A063400201153A007400201153A050000000024       PTET0011
A060100000220A007400400005A300000000276A060100001241A450000001241       PTET0012
9076000000006A432000000220A060200000250A050000000220A040200000276       PTET0013
A410000000333A002000001235A050000000300A060100000240A050000000250       PTET0014
A0402000002768000000000337A410000000342A050000000277A060100000240       PTET0015
A007400400003A300000000024A060100001241A007400400000A300000001241       PTET0016
A060100001241A007400400010A300000000024A060100001242A007400400010       PTET0017
A300000000024A060100001243A007400400010A300000000024A060100001244       PTET0018
A050000000030A0402000003638000000000363A3000000000249076700000022       PTET0019
A062200000375A050000000252A040200000370A300000000024A062100000375       PTET0020
A007400400006A300000000240A3000000003039200000000000A300000000260       PTET0021
A300000001244A300000000260A300000001243A300000000260A300000001242       PTET0022
A300000000260A300000001241A0020000000128000000000407A002000000412       PTET0023
A063400201153A007400201153A050000000024A060100000220A007400400005       PTET0024
A300000000276A060100001244A4500000012449076000000006A432000000220       PTET0025
A060200000250A050000000220A040200000276A410000000427A002000001235       PTET0026
A050000000300A060100000240A050000000250A0402000002768000000000433       PTET0027
A410000000436A050000000277A060100000240A053400100223A050000100024       PTET0028
A040200000276A010000000717A050000000224A040200000444A300000000024       PTET0029
A062100000447A0074004000109300000000000A060100001244A050000000235       PTET0030
A040200000453A300000000024A062100000456A0074004000109300000000000       PTET0031
8000000000457A060100001243A050000000231A040200000462A300000000024       PTET0032
A062100000465A0074004000039300000000000A060100001242A450000001242       PTET0033
A450100000307A053400100254A060200001242A450000100024A450100000311       PTET0034
A060200001241A050000000244A040200000500A300000000024A062100000503       PTET0035
A00740040000380000000005039300000000000A060100001245A007400400000       PTET0036
A300000001245A053400100256A060100001245A450000100024A450100000311       PTET0037
A053400100275A060200001246A450000100024A450100000311A053400100261       PTET0038
A060200001247A450000100024A450100000311A060200001250A050000000255       PTET0039
A040200000526A3000000000248000000000527A062100000531A007400400003       PTET0040
9300000000000A060100001251A450000001251A450100000307A053400100223       PTET0041
A060200001251A450000100024A450100000311A060200001252A050000000227       PTET0042
A040200000544A300000000024A062100000547A0074004000079300000000000       PTET0043
A060100001253A450000001253A4501000003068000000000553A060200001253       PTET0044
A050000000237A040200000556A300000000024A062100000561A007400400007       PTET0045
9300000000000A060100001254A450000001254A450100000306A060200001254       PTET0046
A050000000014A040200000570A300000000024A062100000573A007400400003       PTET0047
9300000000000A060100001255A050000000211A0402000005778000000000577       PTET0048
A300000000024A062100000602A0074004000029300000000000A053400100263       PTET0049
A060100001256A05600010002494754000000009076300000000A022100000302       PTET0050
A460000001257A007400400003A300000001257A060100001257A450000001257       PTET0051
A450100000310A060200001257A050000000212A040200000622A300000000024       PTET0052
8000000000623A062100000625A0074004000029300000000000A060100001260       PTET0053
A050000000030A040200000631A300000000024A062100000670A050000000013       PTET0054
A040200000635A300000000024A062100000666A050000000253A040200000641       PTET0055
A300000000024A062100000664A050000000252A040200000645A300000000024       PTET0056
A0621000006628000000000647A007400400003A300000000024A060100001261       PTET0057
A007400400000A300000001261A060100001261A007400400006A300000000240       PTET0058
A300000000312A300000001261A3000000002609300000000000A300000000260       PTET0059
9300000000000A3000000002609300000000000A3000000002609300000000000       PTET0060
A300000000260A3000000012608000000000673A300000001257A300000000260       PTET0061
A300000001256A300000000260A300000001255A300000001254A300000001253       PTET0062
A300000001252A300000001251A300000001250A300000001247A300000001246       PTET0063
A300000001245A300000001241A300000001242A300000000260A300000001243       PTET0064
A300000000260A300000001244A0020000010508000000000717A007400400001       PTET0065
A300000000273A300000000024A050000000255A040200000724A300000000024       PTET0066
A062100000727A0074004000039300000000000A060100001261A450000001261       PTET0067
A450100000307A053400100223A060200001261A450000100024A450100000311       PTET0068
A060200001260A050000000227A040200000742A3000000000248000000000743       PTET0069
A062100000745A0074004000079300000000000A060100001257A450000001257       PTET0070
A450100000306A060200001257A050000000237A040200000754A300000000024       PTET0071
A062100000757A0074004000079300000000000A060100001256A450000001256       PTET0072
A450100000306A060200001256A050000000030A040200000766A300000000024       PTET0073
8000000000767A062100001025A050000000013A040200000772A300000000024       PTET0074
A062100001023A050000000253A040200000776A300000000024A062100001021       PTET0075
A050000000252A040200001002A300000000024A062100001017A007400400003       PTET0076
A300000000024A060100001255A007400400000A300000001255A060100001255       PTET0077
A0074004000068000000001013A300000000240A300000000312A300000001255       PTET0078
A3000000002609300000000000A3000000002609300000000000A300000000260       PTET0079
9300000000000A3000000002609300000000000A300000000260A300000000270       PTET0080
A300000000260A300000000260A300000000260A300000000260A300000000267       PTET0081
A300000000260A3000000003058000000001037A300000001256A300000001257       PTET0082
A300000001260A300000001261A300000000260A300000000265A300000000305       PTET0083
A300000000305A300000000264A050000000276A060100000230A002000001056       PTET0084
A050000000230A040000000277A060100000230A050000000220A040200000276       PTET0085
A010000001151A450000000220A4320000002778000000001063A060200001261       PTET0086
A050000001261A040200000276A010000001136A450000000277A062100001072       PTET0087
A4500000002509076700000000A450100000277A060200000240A056000000230       PTET0088
A020000000241A460000001261A056000000230A020000000241A053400201261       PTET0089
9013100000000A040000200210A040200001106A3000000002108000000001107       PTET0090
9076700000022A062200001135A056000000230A0200000002419013100000000       PTET0091
A040000000277A040200001116A300000000210A062100001135A050000000301       PTET0092
A040200000230A060100001261A007400400003A300000001261A060100001261       PTET0093
A450000001261A450100000310A060200001261A007400400006A300000000240       PTET0094
8000000001133A300000001261A3000000002609200000000000A450000000277       PTET0095
A062100001141A4500000002509476500000000A060200000250A450000000277       PTET0096
A062100001146A4500000002209476500000000A060200000220A002000001053       PTET0097
A0020000012358000000000241900000000000580000000002059602551514651       PTET0098
94721513163709602431624260900000000000380000000002009255151465160       PTET0099
96024316242609602621632143900000000000380000000001739314563255160       PTET0100
92123426047469602221246022900000000000380000000001669242451256262       PTET0101
95121234260219602221246063900000000000380000000001609516060606060       PTET0102
94746314563259466621512460960222124602690000000000048000000000154       PTET0103
96444222551609512123426045960222124606390000000000038000000000147       PTET0104
96063512123429632523632524960644547514690000000000038000000000142       PTET0105
94260606060609246063512123960512564622590000000000038000000000134       PTET0106
92524606060609516445232163963465170606396024315125239000000000004       PTET0107
80000000001279252460606060951644523216392631432560639602421632160       PTET0108
90000000000048000000000123925446060606092551466031639604546454071       PTET0109
90000000000038000000000116945644422255192565312325609602221246024       PTET0110
90000000000038000000000111921234260606092162636063519602221246043       PTET0111
90000000000038000000000104960255151465196025456351709602621632143       PTET0112
90000000000038000000000077960512521246092460263143259602646512325       PTET0113
90000000000038000000000073921632560606096022212460249000000000002       PTET0114
80000000000659644563606060921626360234696022212460439000000000003       PTET0115
80000000000609432545276330925234651246096022212460519000000000003       PTET0116
80000000000539234664456360925234651246096022212460519000000000003       PTET0117
80000000000509602221246047900000000000180000000000409314531452760       PTET0118
92342602330219602270602221960263167252490000000000048000000000033       PTET0119
94325246060609452760262131923302131453196022212342609000000000004       PTET0120
80000000002609607777777777800000000023691012121212128000000000234       PTET0121
90012121212128000000000216900000000000790000000000248000000000246       PTET0122
90000000006608000000000232900000000000080000000002259000000000007       PTET0123
80000000002339000000000010800000000022690000000000108000000000242       PTET0124
90000000234209000000000620800000000024590000000000038000000000252       PTET0125
90000000000019000000000002800000000001390000000000038000000000030       PTET0126
90000000000048000000000212900000000000580000000002639000000000006       PTET0127
80000000002119000000000007800000000001490000000000108000000000237       PTET0128
90000000000118000000000227900000000001280000000002239000000000013       PTET0129
80000000002559000000000014800000000026190000000000158000000000275       PTET0130
90000000000168000000000256900000000001780000000002449000000000020       PTET0131
80000000002549000000000021800000000023190000000000228000000000235       PTET0132
90000000000238000000000224900000000002480000000002629000000000001       PTET0133
80000000002519000000000001800000000021490000000000028000000000016       PTET0134
90000000000048000000000027900000000001080000000000179000000000020       PTET0135
80000000000269000000000040800000000027490000000001008000000000257       PTET0136
90000000002008000000000213900000000040080000000002159000000001000       PTET0137
80000000002479000000002000800000000002090000000040008000000000022       PTET0138
90000000100008000000000221900000002000090000000400008000000000015       PTET0139
90000001000008000000000021900000020000080000000000249000000400000       PTET0140
90000010000008000000000023900000200000080000000000329000004000000       PTET0141
800000000003190000100000008000000001152A0074004000049300000000000       PTET0142
A463400101153A0634004012359050000400001A060100000363A060100000370       PTET0143
A062100000437A060100000444A060100000453A060100000462A062100000473       PTET0144
A060100000500A062100000511A062100000515A062100000521A060100000526       PTET0145
A062100000537A060100000544A0601000005568000000001176A060100000570       PTET0146
A060100000577A062100000605A060100000622A060100000631A060100000635       PTET0147
A060100000641A060100000645A060100000721A060100000724A062100000735       PTET0148
A060100000742A060100000754A060100000766A060100000772A060100000776       PTET0149
A0601000010029050000400002A062100000316A0621000004128000000001222       PTET0150
9050000400003A060100000357A060100000650A0601000010059050000400004       PTET0151
A0601000003549050000400005A0601000003519050000400006A060100000343       PTET0152
90020002000019077400400000A053400201153A4534001011539002000400001       PTET0153
80000000012629000000000000                                              PTET0154
$EOF   PTETER    04/04/11  10:27:51    BSS2OBJ 1.0.1                    PTET0155
