0USET   12155H0000000774616USET   120506USEDT  117666ORTUT  11716       USET0001
6RSTUT  116116WTTUT  114666RDTUT  1120280000000000009002100000000       USET0002
4CLOSE  0000090021000000004COMBIN 0000190021000000004EXIT   00002       USET0003
90021000000004IINDEX 0000390021000000004INDEX  000049002100000000       USET0004
4.RSTRN 0000590021000000004.SAVRN 0000690021000000004MPRINT 00007       USET0005
90021000000004OPEN   0001090021000000004READ   000119002100000000       USET0006
4SRHMFD 0001290021000000004TRUNC  0001390021000000004WRITE  00014       USET0007
80000000111639000000000005900000000001290000000000368000000011200       USET0008
97777777777778000000011176960665131633180000000111739452760636463       USET0009
80000000111759605125212431800000001117496025515146518000000011162       USET0010
90000000000038000000011172924516444646380000000111779742631432534       USET0011
80000000111719243162426463800000001115790000000000008000000011161       USET0012
90000000000028000000011166900000000004490000000026408000000011160       USET0013
9000000000001800000001117092330000000008000000000017C711464011457       USET0014
C7116040115778000000011201A002000011204A063400212127A007400212127       USET0015
A007400400006A5000000121469500000000000A050000000024A060100000124       USET0016
A452000000064A002000011265A050000000070A040200000075A040000011160       USET0017
9013100000000A02000000010694754000000009076300000000A022100011167       USET0018
A460000012152A0500000000708000000011225A040200000075A040000011160       USET0019
9013100000000A02000000010694754000000009076300000000A022100011166       USET0020
9013100000000A040000012152A040000011161A060100000105A050000000071       USET0021
A040200000076A0400000111609013100000000A0200000001109475400000000       USET0022
9076300000000A02210001116690131000000008000000011251A040000011160       USET0023
A060100000107A050000000105A040000000107A060100000113A007400400003       USET0024
A300000000075A300000000070A300000000076A300000000071A050000011157       USET0025
A060100000064A056000000124A0200000001139013100000000A040200000113       USET0026
A060100000126A007400400012A300000011160A3000000001238000000011275       USET0027
A300000011154A300000011171A300000011177A300000000017A007400400010       USET0028
A300000011161A300000011154A050000000126A040200011306A300000011126       USET0029
A062100011316A007400400011A300000011161A300000011160A300000000017       USET0030
A300000011156A3000000000179300000000000A300000000105A050000000105       USET0031
8000000011321A040000011160A060100012152A007400400013A300000011161       USET0032
A300000012152A300000000017A300000011156A300000000017A007400400000       USET0033
A300000011161A300000011154A300000000017A300000011156A300000000041       USET0034
A452000000041A002000011362A007400400001A300000000062A300000011154       USET0035
A0074004000148000000011345A300000011160A300000000123A300000000017       USET0036
A300000011156A300000000017A300000000062A300000000047A007400400000       USET0037
A300000011160A300000011154A300000000017A300000011156A300000011156       USET0038
A007400400012A300000011160A300000000123A300000011154A300000011172       USET0039
A300000011177A3000000000178000000011371A007400400010A300000011161       USET0040
A300000011154A050000000126A040000000105A040200011377A300000011126       USET0041
A062100011407A007400400011A300000011161A300000011160A300000000017       USET0042
A300000011156A3000000000179300000000000A300000000107A050000000107       USET0043
A040000011160A060100012152A0074004000138000000011415A300000011161       USET0044
A300000012152A300000000017A300000011156A300000000017A007400400000       USET0045
A300000011161A300000011154A300000000017A300000011156A300000000041       USET0046
A452000000041A002000011453A007400400001A300000000062A300000011154       USET0047
A007400400014A300000011160A300000000123A3000000000178000000011441       USET0048
A300000011156A300000000017A300000000062A300000000047A007400400000       USET0049
A300000011160A300000011154A300000000017A300000011156A300000011156       USET0050
A007400400005A5000000121469500000000000A002000012146A007400400007       USET0051
A300000011162A300000011174A300000011175A300000011173A007400400002       USET0052
8000000011465A002000011470A063400212127A007400212127A007400400006       USET0053
A5000000121469500000000000A050000000024A060100000124A056000000124       USET0054
A0200000001139013100000000A040200000113A060100000126A007400400012       USET0055
A300000011160A300000011156A300000011154A300000011171A300000011177       USET0056
A3000000000208000000011511A007400400010A300000011160A300000011154       USET0057
A050000000126A040200011516A300000011126A062100011526A007400400014       USET0058
A300000011160A300000011160A300000000020A300000011156A300000000020       USET0059
9300000000000A300000000105A007400400000A300000011160A300000011154       USET0060
A300000000020A3000000111568000000011535A300000011156A007400400012       USET0061
A300000011160A300000011156A300000011154A300000011172A300000011177       USET0062
A300000000020A007400400010A300000011160A300000011154A050000000126       USET0063
A040000000105A040200011553A300000011126A062100011563A007400400014       USET0064
A300000011160A300000011160A3000000000208000000011561A300000011156       USET0065
A3000000000209300000000000A300000000107A007400400000A300000011160       USET0066
A300000011154A300000000020A300000011156A300000011156A007400400005       USET0067
A5000000121469500000000000A002000012146A007400400007A300000011162       USET0068
A300000011174A300000011176A300000011173A0074004000058000000011605       USET0069
A5000000121469500000000000A002000012146A002000011613A063400212127       USET0070
A007400212127A452000000064A002000011667A050000000070A040200000075       USET0071
A0400000111609013100000000A02000000010694754000000009076300000000       USET0072
A022100011167A460000012152A050000000070A040200000075A040000011160       USET0073
80000000116319013100000000A02000000010694754000000009076300000000       USET0074
A0221000111669013100000000A040000012152A040000011161A060100000105       USET0075
A050000000071A040200000076A0400000111609013100000000A020000000110       USET0076
94754000000009076300000000A0221000111669013100000000A040000011160       USET0077
A0601000001078000000011655A050000000105A040000000107A060100000113       USET0078
A007400400003A300000000075A300000000070A300000000076A300000000071       USET0079
A050000011157A060100000064A056000000024A0200000001139013100000000       USET0080
A040200000113A060100000132A050000011160A060100000073A002000011702       USET0081
A050000000073A0400000111608000000011701A060100000073A050000000073       USET0082
A040200000113A010000011706A012000011714A050000000132A040000000073       USET0083
9073400100000A050000011200A060100111126A002000011677A002000012146       USET0084
A002000011720A063400212127A007400212127A056000000024A020000000113       USET0085
9013100000000A040200000113A0601000001328000000011725A056000000024       USET0086
A0200000001139013100000000A040200000113A060100000131A050000011160       USET0087
A060100000073A002000011740A050000000073A040000011160A060100000073       USET0088
A050000000073A040200000113A010000011744A012000011764A050000000132       USET0089
A040000000073A060100012152A050000000131A0400000000738000000011751       USET0090
9073400100000A053400212152A450000111126A432000211126A060200012152       USET0091
A050000000131A0400000000739073400100000A050000012152A060100111126       USET0092
A002000011735A002000012146A002000011770A063400212127A007400212127       USET0093
A056000000024A0200000001139013100000000A040200000113A060100000132       USET0094
8000000011775A050000000024A060100000135A007400400004A300000000135       USET0095
A300000011155A300000000104A050000011155A040000011160A060100011155       USET0096
A450000011165A062100012011A4500000001359476500000000A060200000103       USET0097
A050000000103A040200011164A010000012025A050000000103A040200000070       USET0098
A0100000120258000000012021A412000012025A050000000132A040000000105       USET0099
A060100000132A050000000132A0400000111559073400100000A450000111126       USET0100
A432000000104A060200000016A450000011163A062100012036A450000000016       USET0101
9476500000000A450100000016A060200000016A452000000016A002000012045       USET0102
9475400000000A0020000120468000000012045A050000011160A002000012146       USET0103
A002000012052A063400212127A007400212127A056000000024A020000000113       USET0104
9013100000000A040200000113A060100000132A050000000024A060100000135       USET0105
A007400400004A300000000135A300000011155A300000000104A050000011155       USET0106
A040000011160A060100011155A4500000111658000000012071A062100012073       USET0107
A4500000001359476500000000A060200000103A050000000103A040200011164       USET0108
A010000012107A050000000103A040200000070A010000012107A412000012107       USET0109
A050000000132A040000000105A060100000132A4500000001049076000000006       USET0110
A060200012152A050000000132A04000001115590734001000008000000012115       USET0111
A450000111126A432000012152A060200012152A050000000132A040000011155       USET0112
9073400100000A050000012152A060100111126A0020000121468000000000064       USET0113
90000000000018000000000101910121212121280000000000779001212121212       USET0114
80000000000479000000000007900000000002480000000001149000000000660       USET0115
80000000000759000000000000800000000007090000000000078000000000076       USET0116
90000000000108000000000071900000000001080000000001069000000023420       USET0117
80000000001109000000000620800000000011290000000000038000000000117       USET0118
90000000000019000000000002800000000002190000000000038000000000036       USET0119
90000000000048000000000043900000000000580000000001349000000000006       USET0120
80000000000429000000000007800000000002290000000000108000000000102       USET0121
90000000000118000000000072900000000001280000000000669000000000013       USET0122
80000000001229000000000014800000000013090000000000158000000011155       USET0123
90000000000168000000000125900000000001780000000001119000000000020       USET0124
80000000001219000000000021800000000007490000000000228000000000100       USET0125
90000000000238000000000067900000000002480000000001339000000000001       USET0126
80000000001169000000000001800000000004590000000000028000000000024       USET0127
90000000000048000000000035900000000001080000000000259000000000020       USET0128
80000000000349000000000040800000001112790000000001008000000000127       USET0129
90000000002008000000000044900000000040080000000000469000000001000       USET0130
80000000001159000000002000800000000002690000000040008000000000030       USET0131
90000000100008000000000063900000002000080000000000659000000040000       USET0132
80000000000239000000100000800000000002790000002000008000000000032       USET0133
90000004000009000001000000800000000003190000020000008000000000040       USET0134
9000004000000800000000003790000100000008000000012126A007400400002       USET0135
9300000000000A463400112127A0634004121469050000400001A062100011207       USET0136
A062100011473A062100011667A062100011720A062100011770A062100012052       USET0137
9050000400002A062100011725A062100011775A0621000120579002000200001       USET0138
9077400400000A053400212127A45340011212790020004000018000000012153       USET0139
9000000000000                                                           USET0140
$EOF   USET      04/04/11  10:28:13    BSS2OBJ 1.0.1                    USET0141
