0SRHMFD 01347H0000000774616SRHMFD 0114480000000000009002100000000       SRHM0001
4DREAD  0000090021000000004DWAIT  0000190021000000004EXIT   00002       SRHM0002
90021000000004EXPAND 0000390021000000004MPRINT 000049002100000000       SRHM0003
4OPEN   0000590021000000004READ   0000680000000011379456044262460       SRHM0004
94664452460319604546636026800000000113190000000000008000000001133       SRHM0005
90000000000039000000000764800000000114297426314325348000000001136       SRHM0006
94433263324338000000001132900000000000180000000011359233000000000       SRHM0007
8000000000010C701312001301C7012360012268000000001143A002000001146       SRHM0008
A063400201314A007400201314A452000001065A002000001220A053400101114       SRHM0009
A050000001136A060100101043A053400101115A050000001142A060100101043       SRHM0010
A007400400000A300000001103A300000000032A300000001063A007400400001       SRHM0011
A300000000010A300000001063A050000001134A0402000011108000000001167       SRHM0012
A040200001133A060100001074A050000001132A060100001075A002000001177       SRHM0013
A050000001075A040000001132A060100001075A050000001075A040200001051       SRHM0014
A010000001203A012000001213A053400101075A053400201074A050000201016       SRHM0015
A060100101062A050000001074A040200001132A060100001074A002000001174       SRHM0016
8000000001213A007400400003A300000001062A300000001043A050000001131       SRHM0017
A060100001065A007400400005A300000000024A300000001043A050000001110       SRHM0018
A040000001132A060100001120A007400400006A300000000024A300000001120       SRHM0019
A300000000010A300000001063A300000000010A300000001062A300000001051       SRHM0020
A0534001011158000000001237A050000101062A040200001142A410000001251       SRHM0021
A053400101114A050000101062A040200001136A410000001251A007400400003       SRHM0022
A300000001062A300000001043A053400201115A050000000024A040200201062       SRHM0023
A410000001275A053400201114A050000000024A040200201062A410000001275       SRHM0024
A007400400003A3000000010628000000001263A300000000024A053400101114       SRHM0025
A050000001136A060100100024A053400101115A050000001142A060100100024       SRHM0026
A050000001120A060100000024A002000001341A050000001120A040000001051       SRHM0027
A060100001120A002000000011A007400400004A300000001133A300000001123       SRHM0028
A300000000024A300000001123A3000000000248000000001307A300000001141       SRHM0029
A300000001140A300000001137A00200000002480000000011239607777777777       SRHM0030
80000000010659000000000001800000000106390000000000008000000001103       SRHM0031
91012121212128000000001101900121212121280000000010519000000000007       SRHM0032
90000000000248000000001111900000000066080000000010779000000000000       SRHM0033
80000000010719000000000007800000000110090000000000108000000001072       SRHM0034
90000000000108000000001105900000002342090000000006208000000001110       SRHM0035
90000000000038000000001114900000000000190000000000028000000000012       SRHM0036
90000000000038000000000027900000000000480000000010459000000000005       SRHM0037
80000000011269000000000006800000000104490000000000078000000000013       SRHM0038
90000000000108000000001104900000000001180000000010739000000000012       SRHM0039
80000000010679000000000013800000000111790000000000148000000001124       SRHM0040
90000000000158000000001130900000000001680000000011219000000000017       SRHM0041
80000000011079000000000020800000000111690000000000218000000001076       SRHM0042
90000000000228000000001102900000000002380000000010709000000000024       SRHM0043
80000000011259000000000001800000000111390000000000018000000001047       SRHM0044
90000000000028000000000015900000000000480000000000269000000000010       SRHM0045
80000000000169000000000020800000000002590000000000408000000001127       SRHM0046
90000000001008000000001122900000000020080000000010469000000000400       SRHM0047
80000000010509000000001000800000000111290000000020008000000000017       SRHM0048
90000000040008000000000021900000001000080000000010649000000020000       SRHM0049
80000000010669000000040000800000000001490000001000008000000000020       SRHM0050
90000002000008000000000023900000040000090000010000008000000000022       SRHM0051
90000020000008000000000031900000400000080000000000309000010000000       SRHM0052
8000000001313A0074004000029300000000000A463400101314A063400401341       SRHM0053
9050000400001A060100001221A0601000012279050000400002A062100001273       SRHM0054
9050000400003A060100001263A062100001266A0621000012719050000400004       SRHM0055
A062100001256A0601000013049050000400005A062100001252A060100001306       SRHM0056
90500004000068000000001337A06210000131290020002000019077400400000       SRHM0057
A053400201314A45340010131490020004000019000000000000                    SRHM0058
$EOF   SRHMFD    04/04/11  10:28:34    BSS2OBJ 1.0.1                    SRHM0059
