0SORT   00361H0000000774616SORT   0006480000000000009002100000000       SORT0001
4EXIT   0000090021000000004MPRINT 0000190021000000004RDIN   00002       SORT0002
90021000000004SW     00003800000000006296360242523428000000000052       SORT0003
94460314547649452760265146800000000005796044316262318000000000051       SORT0004
92433606060608000000000054945604433263394664452460318000000000060       SORT0005
96045466360268000000000045900254563517080000000000369000000000003       SORT0006
80000000000479210000000000800000000004690077777777778000000000037       SORT0007
90000000000048000000000041900000000000780000000000619606263464760       SORT0008
80000000000569600000000000800000000004390000000000609000000000077       SORT0009
80000000000429000000000016800000000004090000000000068000000000034       SORT0010
90000000000009000000000001800000000005092330000000008000000000024       SORT0011
C700251000237C700135000123C700225000224C7000770000738000000000063       SORT0012
A002000000066A063400200321A00740020032180000000000059443326332433       SORT0013
97426314325348000000000066A050000000034A060100000030A050200000040       SORT0014
A060100000033A002000000025A007400400002A300000000005A300000000042       SORT0015
A300000000024A450000000005A432000000044A060200000356A050000000356       SORT0016
A040200000043A410000000113A450000000040A062100000110A450000000005       SORT0017
9476500000000A4501000000568000000000112A060200000005A050000000005       SORT0018
A040200000061A410000000117A002000000024A007400400003A300000000035       SORT0019
A010000000123A007400400000A050000000035A060100000031A002000000131       SORT0020
A050000000031A040000000041A060100000031A050000000031A040200000024       SORT0021
A010000000225A012000000225A0500000000318000000000136A040000000035       SORT0022
9073400100000A050000100024A040200000006A410000000147A053400100031       SORT0023
A050000100024A040200000005A010000000150A002000000026A050000000033       SORT0024
A040000000041A060100000033A050000000034A060100000032A002000000161       SORT0025
A050000000032A040000000035A060100000032A0500000000328000000000162       SORT0026
A040200000041A010000000177A012000000177A050000000031A040000000032       SORT0027
A060100000356A050000000033A0400000000329073400100000A053400200356       SORT0028
A050000200024A060100100024A002000000156A050000000033A040000000037       SORT0029
9073400100000A450000100024A432000000046A450100000047A060200000356       SORT0030
8000000000206A050000000033A0400000000379073400100000A050000000356       SORT0031
A060100100024A053400100031A050000000034A060100100024A050000000031       SORT0032
A0400000000359073400100000A050000000034A060100100024A002000000027       SORT0033
A002000000126A007400400001A300000000036A300000000045A300000000005       SORT0034
A3000000000068000000000232A300000000060A300000000055A300000000054       SORT0035
A300000000051A002000000027A050000000035A060100000031A002000000245       SORT0036
A050000000031A040000000041A060100000031A050000000031A040200000024       SORT0037
A010000000310A012000000310A050000000031A0400000000359073400100000       SORT0038
A050000100024A0402000000348000000000256A410000000263A053400100031       SORT0039
A050000100024A040200000034A010000000307A050000000031A040000000035       SORT0040
A040200000266A300000000024A062100000300A050000000031A040200000272       SORT0041
A300000000024A062100000277A007400400001A300000000036A300000000045       SORT0042
93000000000009300000000000A3000000000578000000000302A300000000053       SORT0043
A300000000052A300000000062A050000000035A060100000030A002000000242       SORT0044
A452000000030A002000000314A002000000024A002000000320A050000000033       SORT0045
A040000000040A060100000024A002000000352A0074004000009300000000000       SORT0046
A463400100321A0634004003529050000400001A0621000001328000000000326       SORT0047
A0621000002469050000400002A062100000140A062100000144A062100000174       SORT0048
A062100000215A062100000222A062100000254A062100000260A060100000266       SORT0049
A0601000002729050000400003A0621000003169050000400004A062100000175       SORT0050
A062100000202A0621000002129050000400005A0621000003129002000200001       SORT0051
80000000003529077400400000A053400200321A4534001003219002000400001       SORT0052
80000000003579000000000000                                              SORT0053
$EOF   SORT      04/08/11  14:45:40    BSS2OBJ 1.0.1                    SORT0054
