0IOP    02742H0000000560766IOP    0140380000000000009002100000000       IOP 0001
4BNBCD  0000090021000000004COMPZ  0000190021000000004DIMFN  00002       IOP 0002
90021000000004ERRP   0000390021000000004EXIT   000049002100000000       IOP 0003
4FINDIN 0000590021000000004FINDN  0000690021000000004LZR    00007       IOP 0004
90021000000004OPCHK  0001090021000000004SUBST  000119234447516260       IOP 0005
92725634260609442131456060947646342606080000000013309000000000002       IOP 0006
80000000013739607360606060800000000136093345253360608000000001357       IOP 0007
93321452433608000000001371960332733606080000000013469016060606060       IOP 0008
80000000013329000000000004800000000135091360606060608000000001374       IOP 0009
96074013460608000000001361934333333606080000000013569316060606060       IOP 0010
80000000013649456060606060800000000136394160606060608000000001342       IOP 0011
90000000000218000000001344900606060606080000000013479116060606060       IOP 0012
80000000013629346060606060800000000140197460606060608000000001337       IOP 0013
90000000000138000000001343900000000003680000000013319000000000003       IOP 0014
80000000013419000000000020800000000133690000000000128000000001377       IOP 0015
96651316325608000000001333900000000000580000000013549245164446060       IOP 0016
80000000013409000000000016800000000135192223246060608000000001335       IOP 0017
90000000000118000000001375963214725606080000000013529223145215170       IOP 0018
80000000013709512521246060800000000133490000000000068000000001355       IOP 0019
92646514421638000000001365946454331452594751314563608000000001372       IOP 0020
96060606060608000000001367947644523306080000000013769646060606060       IOP 0021
80000000014009736060606060800000000132690000000000008000000001345       IOP 0022
90123606060608000000001327900000000000180000000013539233000000000       IOP 0023
8000000000017C701761001756C702017002014C702052002047C702140002135       IOP 0024
C701725001723C702634002632C701713001712C701623001623C701615001613       IOP 0025
C7016040016028000000000032C701573001571C701547001525C701516001514       IOP 0026
C701505001503C7014740014728000000000040C7014400014168000000000047       IOP 0027
C702302002302C702314002313C702400002356C702532002530C702214002213       IOP 0028
8000000001402A002000001405A063400202727A007400202727A050000056121       IOP 0029
A0400000013279073400100000A050000001345A060100161414A050000001326       IOP 0030
A060100000066A053400256111A002000200046A050000001327A060100000054       IOP 0031
A002000001424A050000000054A040000001327A060100000054A050000000054       IOP 0032
A0402000014268000000001426A300000061414A062100001431A007400400010       IOP 0033
9300000000000A410000001440A050000000054A040200056121A010000001437       IOP 0034
A012000001440A002000001421A050000000054A040200056121A010000001444       IOP 0035
A012000001451A053400100054A050000161414A040200001400A010000001451       IOP 0036
A002000000025A0500000614128000000001452A040200001376A410000001461       IOP 0037
A050000001367A060100001324A050000001372A060100001323A002000001465       IOP 0038
A050000001366A060100001324A050000001365A060100001323A050000001355       IOP 0039
A060100001325A050000001334A060100000062A002000000026A050000001370       IOP 0040
A060100001324A050000001352A0601000013238000000001476A050000001375       IOP 0041
A060100001325A050000001335A060100000062A002000000026A050000001370       IOP 0042
A060100001324A050000001351A060100001323A050000001375A060100001325       IOP 0043
A050000001340A060100000062A002000000026A050000001370A060100001324       IOP 0044
A050000001372A060100001323A050000001354A0601000013258000000001522       IOP 0045
A050000001335A060100000062A002000000026A050000001327A060100000054       IOP 0046
A002000001533A050000000054A040000001327A060100000054A050000000054       IOP 0047
A040200001535A300000061414A062100001540A0074004000109300000000000       IOP 0048
A410000001547A050000000054A040200056121A010000001546A012000001547       IOP 0049
8000000001546A002000001530A050000000054A040200056121A010000001553       IOP 0050
A012000001560A053400100054A050000161414A040200001400A010000001560       IOP 0051
A002000000025A050000001370A060100001324A050000001372A060100001323       IOP 0052
A050000001355A060100001325A050000001333A060100000062A002000000026       IOP 0053
A0500000013778000000001572A060100001324A050000001372A060100001323       IOP 0054
A050000001354A060100001325A050000001336A060100000062A002000000026       IOP 0055
A050000001377A060100001324A050000001352A060100001323A050000001375       IOP 0056
A060100001325A050000001336A060100000062A002000000026A050000001377       IOP 0057
A060100001324A0500000013518000000001616A060100001323A050000001375       IOP 0058
A060100001325A050000001341A060100000062A007400400012A050000000054       IOP 0059
A040200001331A010000001630A412000001656A450000001343A062100001633       IOP 0060
A4500000013169476500000000A060200002737A050000002737A040200001335       IOP 0061
A010000001641A012000001656A0500000013238000000001642A040200001351       IOP 0062
A410000001656A007400400006A300000001316A060100002737A007400400000       IOP 0063
A300000002737A060100002737A450000056122A450100002737A060200001316       IOP 0064
A002000001706A450000001343A062100001661A4500000013209476500000000       IOP 0065
A060200002737A050000002737A040200001335A0100000016678000000001666       IOP 0066
A012000001706A050000056111A040200001337A010000001675A050000056111       IOP 0067
A040200001334A410000001706A007400400006A300000001320A060100002737       IOP 0068
A007400400000A300000002737A060100002737A450000056122A450100002737       IOP 0069
A060200001320A007400400014A050000001327A060100056120A002000056104       IOP 0070
8000000001712A007400400011A002000002167A0020000017178000000000012       IOP 0071
A0021000017158000000001715A063400202156A007400202156A050000001326       IOP 0072
A060100000054A050000001326A060100001322A050000000062A060100000063       IOP 0073
A053400100062A050000161414A040200001345A410000001747A050000001322       IOP 0074
A040200001326A410000001744A050000000054A040000001327A060100000054       IOP 0075
A053400100054A0500000013458000000001741A060100101321A002000002162       IOP 0076
A002000001746A007400400003A300000001340A002000002155A053400100062       IOP 0077
A050000161414A040200001401A410000001772A050000001322A040000001327       IOP 0078
A060100001322A050000000054A040000001327A060100000054A053400100054       IOP 0079
A053400200062A050000261414A0601001013218000000001765A050000000062       IOP 0080
A040000001327A060100000062A002000000023A002000002155A053400100062       IOP 0081
A050000161414A040200001362A410000002003A050000001322A040200001327       IOP 0082
A060100001322A002000000017A002000002155A053400100062A050000161414       IOP 0083
A040200001347A010000002010A012000002105A0500001614148000000002011       IOP 0084
A040200001344A010000002014A412000002105A050000000062A040000001327       IOP 0085
A060100000062A053400100062A050000161414A040200001345A010000002034       IOP 0086
A050000161414A040200001347A010000002027A012000002034A050000161414       IOP 0087
A040200001344A010000002033A412000002034A002000000020A053400100062       IOP 0088
8000000002035A050000161414A040200001345A010000002047A050000000062       IOP 0089
A040200002042A300000061414A062100002045A0074004000109300000000000       IOP 0090
A010000002102A050000000054A040000001327A060100000054A050000000063       IOP 0091
A040200002054A300000061414A062100002063A050000000062A040200000063       IOP 0092
A0601000021668000000002061A007400400001A3000000021669300000000000       IOP 0093
A053400100054A060100101321A452000000066A002000002076A050000000054       IOP 0094
A040200002072A300000001321A062100002075A0074004000059300000000000       IOP 0095
A050000001326A060100000066A002000000023A002000002104A007400400003       IOP 0096
A300000001342A0020000021558000000002105A050000000062A040200002107       IOP 0097
A300000061414A062100002112A0074004000109300000000000A010000002116       IOP 0098
A002000000017A002000002155A053400100062A050000161414A040200001363       IOP 0099
A010000002123A012000002127A050000161414A040200001364A010000002133       IOP 0100
A012000002133A053400100062A0500001614148000000002131A040200001356       IOP 0101
A410000002135A050000001327A060100000066A050000000062A040000001327       IOP 0102
A060100000062A053400100062A050000161414A040200001345A010000002154       IOP 0103
A050000000062A040200002146A300000061414A062100002151A007400400010       IOP 0104
9300000000000A410000002154A002000000022A0020000000218000000002155       IOP 0105
A0074004000049300000000000A463400102156A0634004021629002000200001       IOP 0106
9077400400000A053400202156A45340010215690020004000018000000002167       IOP 0107
A002000002647A0020000021738000000000014A0021000021718000000002171       IOP 0108
A063400202636A007400202636A050000001326A060100000054A050000001326       IOP 0109
A060100000055A007400400015A300000001324A050000001323A040200001372       IOP 0110
A010000002206A007400400015A300000001323A050000001325A040200001372       IOP 0111
A010000002213A007400400015A300000001325A007400400013A050000000064       IOP 0112
8000000002215A040200001400A010000002342A050000000064A040200001401       IOP 0113
A010000002342A007400400015A300000000064A050000000055A040000001327       IOP 0114
9073400100000A050000101321A040200001362A010000002246A050000000055       IOP 0115
A0400000013279073400100000A050000101321A040200001400A010000002246       IOP 0116
A0500000000558000000002241A0400000013279073400100000A050000101321       IOP 0117
A040200001345A410000002303A050000000047A060100056077A050000000054       IOP 0118
A040200002252A300000061414A062100002255A0074004000029300000000000       IOP 0119
A300000056077A060100000057A007400400015A300000001401A007400400007       IOP 0120
A300000000057A0601000026468000000002265A007400400015A300000002646       IOP 0121
A007400400015A300000001361A050000000054A040200001331A040200002274       IOP 0122
A300000061414A062100002277A0074004000159300000000000A007400400015       IOP 0123
A300000001374A002000002341A007400400013A050000000064A040200001401       IOP 0124
A410000002337A007400400015A3000000000648000000002311A050000001327       IOP 0125
A060100001322A007400400013A050000000064A040200001401A410000002322       IOP 0126
A050000001322A040000001327A060100001322A050000000064A040200001362       IOP 0127
A410000002330A050000001322A040200001327A060100001322A007400400015       IOP 0128
A300000000064A050000001322A040200001326A0100000023368000000002335       IOP 0129
A002000000050A002000002341A007400400015A300000000064A002000002631       IOP 0130
A050000000064A040200001400A410000002350A007400400015A300000000064       IOP 0131
A002000002631A050000000055A060100000056A007400400015A300000000064       IOP 0132
A050000001327A060100001322A050000000056A040000001327A060100000056       IOP 0133
8000000002361A002000002365A050000000056A040000001327A060100000056       IOP 0134
A053400100056A050000101321A040200001401A010000002400A050000101321       IOP 0135
A040200001362A010000002400A050000101321A040200001345A010000002400       IOP 0136
A002000002362A053400100056A050000101321A040200001345A410000002406       IOP 0137
A0074004000038000000002405A300000001340A053400100056A050000101321       IOP 0138
A040200001401A410000002415A050000001322A040000001327A060100001322       IOP 0139
A053400100056A050000101321A040200001362A410000002424A050000001322       IOP 0140
A040200001327A060100001322A050000001322A040200001326A010000002430       IOP 0141
A002000000051A0500000000568000000002431A040200001327A060100000057       IOP 0142
A002000002437A050200001327A040000000057A060100000057A050000000057       IOP 0143
A040200000055A010000002443A412000002450A053400100057A050000101321       IOP 0144
A040200001350A010000002450A002000002434A050000000057A040200000055       IOP 0145
A010000002455A012000002455A0020000000538000000002455A050000000057       IOP 0146
A040200001327A040200002460A300000001321A062100002463A007400400015       IOP 0147
9300000000000A007400400015A300000001350A050000000057A040000001327       IOP 0148
A040200002471A300000001321A062100002474A0074004000159300000000000       IOP 0149
A050000000057A0400000013329073400100000A0500001013218000000002501       IOP 0150
A040200001362A410000002512A050000001346A060100000065A050000000057       IOP 0151
A040000001332A060100000061A002000000052A002000002603A050000000057       IOP 0152
A0400000013349073400100000A050000101321A040200001362A410000002601       IOP 0153
A050000000057A0400000013339073400200000A050000201321A060100000065       IOP 0154
8000000002525A050000000057A040000001334A060100000061A007400400015       IOP 0155
A300000001400A007400400015A300000000065A007400400015A300000001400       IOP 0156
A050000000057A040200001327A040200002541A300000001321A062100002544       IOP 0157
A0074004000159300000000000A007400400015A300000001371A050000000057       IOP 0158
A0400000013318000000002551A040200002552A300000001321A062100002555       IOP 0159
A0074004000159300000000000A007400400015A300000001357A050000000057       IOP 0160
A040200001327A040200002563A300000001321A062100002566A007400400015       IOP 0161
9300000000000A007400400015A300000001360A050000000057A040000001327       IOP 0162
A040200002574A3000000013218000000002575A062100002577A007400400015       IOP 0163
9300000000000A002000002603A007400400003A300000001340A007400400015       IOP 0164
A300000001373A050000000057A040200001330A060100000057A050000000061       IOP 0165
A060100000060A002000002616A050000000060A040000001327A060100000060       IOP 0166
A053400100057A050000101321A0402000013458000000002621A010000002631       IOP 0167
A053400200060A050000201321A060100101321A050000000057A040000001327       IOP 0168
A060100000057A002000002613A002000000053A050000000054A060100056121       IOP 0169
A002000002642A0074004000049300000000000A463400102636A063400402642       IOP 0170
90020002000019077400400000A053400202636A4534001026368000000002645       IOP 0171
90020004000018000000002647A002000002700A0020000026538000000000013       IOP 0172
A0021000026518000000002651A063400202670A007400202670A050000000055       IOP 0173
A040000001327A060100000055A053400100055A050000101321A040200001345       IOP 0174
A410000002663A002000000024A053400200055A050000201321A060100000064       IOP 0175
A002000002674A0074004000049300000000000A463400102670A063400402674       IOP 0176
900200020000190774004000008000000002675A053400202670A453400102670       IOP 0177
9002000400001A002000002726A0020000027048000000000015A002100002702       IOP 0178
8000000002702A063400202714A007400202714A050000000054A040000001327       IOP 0179
A060100000054A053400100054A050000000024A060100161414A002000002722       IOP 0180
A0074004000049300000000000A463400102714A0634004027229050000400001       IOP 0181
A06210000271090020002000019077400400000A053400202714A453400102714       IOP 0182
90020004000018000000002726A0074004000049300000000000A463400102727       IOP 0183
A06340040273390020002000019077400400000A053400202727A453400102727       IOP 0184
900200040000180000000027409000000000000                                 IOP 0185
$EOF   IOP       09/15/10  11:25:41    BSS2OBJ 1.0.1                    IOP 0186
