0DIMFN  00501H0000000560766DIMFN  004176FINDIN 003466LZR    00277       DIMF0001
6OPCHK  001756FINDN  001136FNCTFN 0004280000000000009002100000000       DIMF0002
4ERRP   0000090021000000004EXIT   0000180000000000209000000000027       DIMF0003
80000000000349606060606060800000000002290000000000448000000000040       DIMF0004
97700000000008000000000021900000000003680000000000159000000000006       DIMF0005
80000000000139000000000000800000000003697360606060608000000000025       DIMF0006
91360606060608000000000030933606060606080000000000379746060606060       DIMF0007
80000000000319346060606060800000000003596160606060608000000000032       DIMF0008
94060606060608000000000026920606060606080000000000169000000000025       DIMF0009
80000000000249000000003720800000000003395460606060608000000000017       DIMF0010
90000000000268000000000023900000000175080000000000149000000000001       DIMF0011
800000000002792330000000008000000000004C700156000153C700145000126       DIMF0012
C700326000303C7003450003438000000000041A002000000044A063400200453       DIMF0013
A007400200453A050000000014A060100000012A002000000052A050000000012       DIMF0014
A040000000014A060100000012A053400100012A050000167306A040200000024       DIMF0015
A010000000063A050000000012A040200067306A010000000062A012000000063       DIMF0016
A002000000047A050000000012A0402000673068000000000065A010000000067       DIMF0017
A012000000071A050000000012A002000000472A050000067306A040000000014       DIMF0018
A060100067306A050000067306A040200000023A010000000105A412000000105       DIMF0019
A050000067306A040200000014A060100067306A007400400000A300000000017       DIMF0020
A053400167306A050000000024A060100167306A0500000673068000000000111       DIMF0021
A002000000472A002000000115A063400200453A007400200453A050000000024       DIMF0022
A060100000011A050000000024A040200000033A410000000123A002000000004       DIMF0023
A050000000005A060100000003A002000000006A050000000014A060100000012       DIMF0024
A002000000134A050000000012A040000000014A060100000012A053400100012       DIMF0025
8000000000135A050000177150A040200000011A010000000145A050000000012       DIMF0026
A040200077150A010000000144A012000000145A002000000131A050000000012       DIMF0027
A040200077150A010000000151A012000000153A050000000012A002000000472       DIMF0028
A050000077150A040000000014A060100077150A050000077150A040200000024       DIMF0029
A0100000001678000000000161A412000000167A050000077150A040200000014       DIMF0030
A060100077150A007400400000A300000000016A053400177150A050000000011       DIMF0031
A060100177150A050000077150A002000000472A002000000177A063400200453       DIMF0032
A007400200453A050000000026A060100000010A050000000204A060100000265       DIMF0033
A002000000266A0020000002058000000000205A050000000032A060100000010       DIMF0034
A050000000212A060100000265A002000000266A002000000213A050000000033       DIMF0035
A060100000010A050000000220A060100000265A002000000266A002000000221       DIMF0036
A050000000035A060100000010A050000000226A060100000265A002000000266       DIMF0037
A002000000227A050000000031A0601000000108000000000231A050000000234       DIMF0038
A060100000265A002000000266A002000000235A050000000037A060100000010       DIMF0039
A050000000242A060100000265A002000000266A002000000243A050000000030       DIMF0040
A060100000010A050000000250A060100000265A002000000266A002000000251       DIMF0041
A050000000025A060100000010A050000000256A0601000002658000000000255       DIMF0042
A002000000266A002000000257A050000000036A060100000010A050000000264       DIMF0043
A060100000265A002000000266A002000000274A002000000265A050000000024       DIMF0044
A040200000010A410000000273A050000000014A002000000472A002000000265       DIMF0045
A050000000013A002000000472A002000000301A063400200453A007400200453       DIMF0046
8000000000301A050000000007A060100000003A050000000013A060100000012       DIMF0047
A002000000311A050000000012A040000000015A060100000012A050000000012       DIMF0048
A040200000021A010000000326A450000000012A062100000317A450000000024       DIMF0049
9076700000000A432000000040A060200000476A050000000476A040200000013       DIMF0050
A4100000003268000000000325A002000000306A050000000022A040200000012       DIMF0051
A062100000332A4500000000349476500000000A060200000476A450000000012       DIMF0052
A062100000337A4500000000249076700000000A450100000476A060200000011       DIMF0053
A002000000003A050000000011A002000000472A002000000350A063400200453       DIMF0054
A007400200453A0500000000148000000000351A060100000012A002000000356       DIMF0055
A050000000012A040000000014A060100000012A053400100012A050000173227       DIMF0056
A040200000024A010000000367A050000000012A040200073227A010000000366       DIMF0057
A012000000367A002000000353A050000000012A040200073227A010000000373       DIMF0058
A012000000375A050000000012A0020000004728000000000375A050000073227       DIMF0059
A040000000014A060100073227A050000073227A040200000024A010000000411       DIMF0060
A412000000411A050000073227A040000000014A060100073227A007400400000       DIMF0061
A300000000020A053400173227A050000000024A060100173227A050000073227       DIMF0062
A002000000472A002000000421A063400200453A0074002004538000000000421       DIMF0063
A050000000014A060100000012A002000000427A050000000012A040000000014       DIMF0064
A060100000012A053400100012A050000165335A040200000024A010000000440       DIMF0065
A050000000012A040200065335A010000000437A012000000440A002000000424       DIMF0066
A050000000012A040200065335A010000000445A412000000445A002000056077       DIMF0067
8000000000445A050000000012A0400000000239073400200000A050000265335       DIMF0068
A002000000472A0074004000019300000000000A463400100453A063400400472       DIMF0069
9050000400001A062100000054A062100000106A062100000115A062100000117       DIMF0070
A062100000266A062100000316A062100000336A062100000360A062100000412       DIMF0071
A062100000431800000000047190020002000019077400400000A053400200453       DIMF0072
A453400100453900200040000180000000004779000000000000                    DIMF0073
$EOF   DIMFN     09/15/10  11:26:26    BSS2OBJ 1.0.1                    DIMF0074
