0ERRP   00771H0000000560766ERRP   0063080000000000009002100000000       ERRP0001
4EXIT   0000090021000000004PRNTPC 0000180000000006249000000000000       ERRP0002
900000000000192330000000008000000000003C700753000751C700750000746       ERRP0003
C700745000743C700742000740C700737000735C700734000732C700731000727       ERRP0004
C700726000724C700723000721C700720000716C700715000713C700712000710       ERRP0005
C700707000705C700704000702C700701000677C700676000674C700673000671       ERRP0006
C7006700006668000000000025C700665000663C700662000660C700657000655       ERRP0007
C700654000652C700651000647C700646000644C7006430006418000000000035       ERRP0008
C7007540007538000000000627A002000000632A063400200755A007400200755       ERRP0009
A050000000624A060100056102A050000056103A040000000625A060100056103       ERRP0010
A053400200024A002000200034A007400400001A300000000273A002000000035       ERRP0011
A007400400001A300000000456A002000000035A007400400001A300000000472       ERRP0012
A002000000035A0074004000018000000000653A300000000507A002000000035       ERRP0013
A007400400001A300000000531A002000000035A007400400001A300000000545       ERRP0014
A002000000035A007400400001A300000000565A002000000035A007400400001       ERRP0015
A300000000601A002000000035A007400400001A300000000615A002000000035       ERRP0016
A007400400001A300000000051A0020000000358000000000677A007400400001       ERRP0017
A300000000066A002000000035A007400400001A300000000106A002000000035       ERRP0018
A007400400001A300000000123A002000000035A007400400001A300000000137       ERRP0019
A002000000035A007400400001A300000000153A002000000035A007400400001       ERRP0020
A300000000164A002000000035A007400400001A3000000002068000000000723       ERRP0021
A002000000035A007400400001A300000000223A002000000035A007400400001       ERRP0022
A300000000251A002000000035A007400400001A300000000302A002000000035       ERRP0023
A007400400001A300000000330A002000000035A007400400001A300000000353       ERRP0024
A002000000035A007400400001A300000000375A002000000035A007400400001       ERRP0025
8000000000747A300000000411A002000000035A007400400001A300000000437       ERRP0026
80000000006169065460606060933336001102397306306033339514651603102       ERRP0027
954545460255190103306054548000000000753A0020000561058000000000271       ERRP0028
95554545454549514651600160954545454255180000000004549555454545454       ERRP0029
95146516002609545454542551800000000047095554545454549514651600360       ERRP0030
95454545425518000000000505955545454545495146516004609545454542551       ERRP0031
80000000005279555454545454951465160056095454545425518000000000543       ERRP0032
95554545454549514651600660954545454255180000000005639555454545454       ERRP0033
95146516007609545454542551800000000057795554545454549514651601060       ERRP0034
95454545425518000000000613955545454545495146516011609545454542551       ERRP0035
80000000000479555454545454951465160010095454545425518000000000064       ERRP0036
95554545454549514651600101954545454255180000000001049555454545454       ERRP0037
95146516001029545454542551800000000012195554545454549514651600103       ERRP0038
95454545425518000000000135955545454545495146516001049545454542551       ERRP0039
80000000001519555454545454951465160010595454545425518000000000162       ERRP0040
95554545454549514651600106954545454255180000000002049555454545454       ERRP0041
95146516001079545454542551800000000022195554545454549514651600110       ERRP0042
95454545425518000000000247955545454545495146516001119545454542551       ERRP0043
80000000003009555454545454951465160020095454545425518000000000326       ERRP0044
95554545454549514651600201954545454255180000000003519555454545454       ERRP0045
95146516002029545454542551800000000037395554545454549514651600203       ERRP0046
95454545425518000000000407955545454545495146516002049545454542551       ERRP0047
80000000004359555454545454951465160020595454545425518000000000252       ERRP0048
97777777777779545454545455900346060606096260740100009513121224325       ERRP0049
94525246065219442545623146960462660243194564442225519662122432560       ERRP0050
94460214343469442167314464967232525246096360634660259216363254447       ERRP0051
80000000004409777777777777954545454545596325442545639214560626321       ERRP0052
96026465163519516260603145921512123632592243256023309312745465121       ERRP0053
90060454645409302145600606944465125606380000000004579777777777777       ERRP0054
95454545454559254563606060962632163254496021602446609224325603145       ERRP0055
96065215131219512163314645945466031632580000000004739777777777777       ERRP0056
95454545454559254563626060960215127644493163306045469633146456066       ERRP0057
92160266445239252631452560963606346602492163632544478000000000510       ERRP0058
97777777777779545454545455921446060606096047514627519215124604626       ERRP0059
93151626360239266325516026924603124602195160602321519212225436046       ERRP0060
94425456360439606263216325947252331267096360634660629216363254447       ERRP0061
80000000005329777777777777954545454545596325442545639314560626321       ERRP0062
94644442162609516046266023960456444222593123312545639314562642626       ERRP0063
80000000005469777777777777954545454545592524606060609626247254343       ERRP0064
92264636044319636451257360927606026252193025234231459303145256023       ERRP0065
94527604421239622544224331925456360512596263216325448000000000566       ERRP0066
97777777777779545454545455960452144256095131212243259456021606521       ERRP0067
96325516260319233021512123930214560066094446512560638000000000602       ERRP0068
97777777777779545454545455963606060606092163254425459603126606263       ERRP0069
96031456021459602567316362963302145600392625662551608000000000036       ERRP0070
97777777777779545454545455963254425456392745606263219456021626231       ERRP0071
95160314560219604564442225963254425456394546606263218000000000052       ERRP0072
97777777777779545454545455925456360606096263216325449456231464560       ERRP0073
92160243144259464560314560923636421633192551604764459314447514647       ERRP0074
80000000000679777777777777954545454545594325606060609652151312122       ERRP0075
96062464425609456260264651944254562314694560036024319255160633021       ERRP0076
96027512521639472523312670963606346606292163632544478000000000107       ERRP0077
97777777777779545454545455944442160606093145276023469516044316262       ERRP0078
96331464560469602646514421963254425456392551606263219314447514647       ERRP0079
80000000001249777777777777954545454545594425456360609606263216325       ERRP0080
92145603161469464560314560923636421633192551604764459314447514647       ERRP0081
80000000001409777777777777954545454545592545636060609626321632544       ERRP0082
92145603126609464560314560923636421633192551604764459314447514647       ERRP0083
80000000001549777777777777954545454545596331464560609603163255121       ERRP0084
92551603161469314447514647800000000016597777777777779545454545455       ERRP0085
93162636060609603161466043921456360314596023464562639634660476463       ERRP0086
96325444763609604651602163964442225517396246442560459255160314560       ERRP0087
93021512123639256331236023921434730212280000000002079777777777777       ERRP0088
95454545454559636060606060945636043316292151276444259633060454660       ERRP0089
92151626066319256021474725946456045214492664452363318000000000224       ERRP0090
97777777777779545454545455905003460606096331464560749242526314531       ERRP0091
95454545454559452363314645931452560266496046452540439626031456021       ERRP0092
92764442545639604626602151945644422255196621224325609446021434346       ERRP0093
94421673144649672325252460963606346602592163632544478000000000274       ERRP0094
97777777777779545454545455960232151246094546602545248000000000303       ERRP0095
97777777777779545454545455900003460606092562607402009215131212243       ERRP0096
92163252460659465160235125954545454545594362606060609636043212225       ERRP0097
92163254425459604626606263945644422255196621224325609446021434346       ERRP0098
94421673144649672325252460963606346602592163632544478000000000331       ERRP0099
97777777777779545454545455900346060606094460740100009475146275121       ERRP0100
92524602270609626023214343945236331464596046266026649456444222551       ERRP0101
96621224325609446021434346944216731446496723252524609636063466025       ERRP0102
92163632544478000000000354977777777777795454545454559000034606060       ERRP0103
92562607402009432560452144965215131212296325272551609604626603145       ERRP0104
94564442225519662122432560944602143434694421673144649672325252460       ERRP0105
96360634660259216363254447800000000037697777777777779545454545455       ERRP0106
94425456360609606263216325926465144216396031456021609442163314645       ERRP0107
92551602646519314447514647800000000041297777777777779545454545455       ERRP0108
96260606060609465160432562954545454545592551626060609302151212363       ERRP0109
96006010060239254563604626962632163254496360442124609316521432545       ERRP0110
92145602550649603145634660962432163252492560635121459454546636022       ERRP0111
925456360232196263216325448000000000754A0074004000009300000000000       ERRP0112
A463400100755A0634004007639050000400001A0621000006379002000200001       ERRP0113
9077400400000A053400200755A45340010075590020004000019000000000000       ERRP0114
$EOF   ERRP      11/03/10  14:16:52    BSS2OBJ 1.0.1                    ERRP0115
