0SUBST  07557H0000000560766SUBST  053766MADTR2 005678000000000000       SUBS0001
90021000000004BCDBN  0000090021000000004BNBCD  000019002100000000       SUBS0002
4COMPZ  0000290021000000004DIMFN  0000390021000000004ERRP   00004       SUBS0003
90021000000004EXIT   0000590021000000004FINDIN 000069002100000000       SUBS0004
4FINDN  0000790021000000004FNCTFN 0001090021000000004LZR    00011       SUBS0005
90021000000004OPCHK  0001290021000000004SUBST  000139002100000000       SUBS0006
4ZCOMPZ 000149242763606060943244560606094325653145609436447606060       SUBS0007
96225634360608000000000406900000000002180000000004349106060606060       SUBS0008
80000000004339076060606060800000000043290660606060608000000000431       SUBS0009
90560606060608000000000430904606060606080000000004259016060606060       SUBS0010
80000000004209000000740134800000000041790000000100008000000000410       SUBS0011
90000000000238000000000413900000000014480000000004079000000000022       SUBS0012
80000000004729314563255145800000000053796060606033218000000000440       SUBS0013
92122626060608000000000465926434621636080000000005619672122626060       SUBS0014
80000000005339603347336060800000000041590000000016048000000000564       SUBS0015
97400000000548000000000554964514560606080000000005139464560512563       SUBS0016
80000000004709266445236331800000000050293360606060608000000000551       SUBS0017
96346606060608000000000454925456351706080000000004519236331464560       SUBS0018
80000000004429214360266445800000000046392567632551458000000000412       SUBS0019
90000000000628000000000534960337460606080000000004459222543606060       SUBS0020
80000000004559254563604321800000000054696263216325448000000000501       SUBS0021
93345253360608000000000475933214524336080000000005449607326465160       SUBS0022
80000000005509633051466427800000000040490000000000158000000000532       SUBS0023
96033273360608000000000505941606060606080000000004579255160634660       SUBS0024
80000000005529635121456226800000000047693325330073609332733007360       SUBS0025
93343330073608000000000456925516060606080000000005609663025452565       SUBS0026
80000000004059000000000017800000000051294560606060608000000000520       SUBS0027
95000000000538000000000527950626663337480000000005269506243633374       SUBS0028
80000000005079436060606060800000000052395044504633748000000000553       SUBS0029
96360606060608000000000522950242363337480000000004749316060606060       SUBS0030
80000000005219502123463374800000000055596460606060608000000000524       SUBS0031
95050624345609506243453374800000000046092560606060508000000000462       SUBS0032
92567252364638000000000422900026060606080000000005309545160606060       SUBS0033
80000000004619256060606060800000000046692660606060608000000000517       SUBS0034
94760606060608000000000506942606060606080000000005159466060606060       SUBS0035
80000000004509236060606060800000000044492160606060608000000000424       SUBS0036
90060607360608000000000437920606060606080000000005049406060606060       SUBS0037
80000000005629676060606060800000000053596060006002008000000000421       SUBS0038
90000130051608000000000545962606060606080000000005429606521436425       SUBS0039
80000000004119000000000030800000000043591160606060608000000000423       SUBS0040
90060606060608000000000471930606060606080000000004369136060606060       SUBS0041
80000000004739314645606060800000000045292431442545628000000000416       SUBS0042
90000000017508000000000531954606060606080000000005419606073606060       SUBS0043
80000000005439607301736060800000000053696060136060608000000000556       SUBS0044
96521436425629652523634651800000000042790360606060608000000000426       SUBS0045
90260606060608000000000403900000000001480000000005639736060606060       SUBS0046
80000000005039346060606060800000000054096060606060608000000000402       SUBS0047
90000000000138000000000401900000000001280000000003679000000000000       SUBS0048
80000000005479632147256060800000000051194524606060608000000000565       SUBS0049
97460606060608000000000400900000000001180000000003779000000000010       SUBS0050
80000000004679266063214725800000000044792346512460008000000000441       SUBS0051
92123256051258000000000514946456060606080000000005109446023464444       SUBS0052
80000000005169475146275121800000000041490000000012748000000000376       SUBS0053
90000000000078000000000375900000000000680000000003749000000000005       SUBS0054
80000000003739000000000004800000000037290000000000038000000000371       SUBS0055
90000000000028000000000443921472560606080000000004649263143256063       SUBS0056
80000000004539254524604626800000000037090000000000018000000000446       SUBS0057
92330000000008000000000023C7073020073028000000000026C704613004565       SUBS0058
C704732004730C705036005034C702123002121C705413005411C707307007306       SUBS0059
C707303007303C703263003260C703500003473C703472003470C703373003363       SUBS0060
C703453003446C704462004460C705136005114C705110005106C705215005202       SUBS0061
C706233006231C7036340036118000000000050C703557003555C707306007304       SUBS0062
C705260005256C701367001364C701055001033C700751000747C701312001310       SUBS0063
C700737000715C707225007216C706220006212C706177006164C706470006460       SUBS0064
C706617006617C706555006554C706133006114C707213007213C703525003514       SUBS0065
C7027030026638000000000072C702642002640C704542004520C700624000622       SUBS0066
8000000000100C700651000647C701651001636C700707000705C700672000666       SUBS0067
C7053360053318000000000106C703100003076C705055005052C705402005400       SUBS0068
C704356004347C7005750005738000000000114C704727004724C704140004136       SUBS0069
8000000000566A002000000571A063400207543A007400207543A053400256111       SUBS0070
A002000200113A050000000453A060100061413A050000000464A060100061412       SUBS0071
A050000000443A060100061411A050000000370A060100057173A050000000371       SUBS0072
A060100057172A050000000372A060100057171A050200000373A060100057170       SUBS0073
A0502000003748000000000612A060100057167A050200000375A060100057166       SUBS0074
A050200000376A060100057165A050000000414A060100057164A002000000023       SUBS0075
A050000000516A060100061413A050000000510A060100061412A050000000514       SUBS0076
A060100061411A050000000370A060100057173A050000000371A060100057172       SUBS0077
A050000000372A0601000571718000000000636A050200000373A060100057170       SUBS0078
A050200000374A060100057167A050200000375A060100057166A050000000414       SUBS0079
A060100057165A002000000023A050000000441A060100061405A050000000447       SUBS0080
A060100061404A050000000467A060100061403A050000000376A060100057173       SUBS0081
A050000000377A060100057172A0500000004008000000000662A060100057171       SUBS0082
A050000000414A060100057170A002000000023A050000061405A040200000565       SUBS0083
A410000000672A002000000033A050000000511A060100061407A050000000547       SUBS0084
A060100061406A050000000374A060100057173A050000000375A060100057172       SUBS0085
A050000000414A060100057171A002000000023A0500000003678000000000706       SUBS0086
A060100000350A050000000367A060100000277A050000000401A060100000122       SUBS0087
A050000000401A060100000351A050000000351A060100000117A002000000723       SUBS0088
A050000000117A040000000370A060100000117A050000000117A040200056121       SUBS0089
A010000000727A012000000737A050000000117A040200000731A300000061414       SUBS0090
8000000000732A062100000734A0074004000129300000000000A410000000737       SUBS0091
A002000000720A050000000117A040200056121A010000000743A012000000747       SUBS0092
A053400100117A050000161414A040200000565A010000000752A050000000402       SUBS0093
A060100000302A002000000051A050000056107A040200000540A010000001017       SUBS0094
A0500000003678000000000756A060100000277A050000000351A040200000761       SUBS0095
A300000061414A062100000770A050000000117A040200000351A060100007553       SUBS0096
A007400400002A3000000075539300000000000A300000061414A050000000370       SUBS0097
A060100000125A002000001000A050000000125A040000000370A060100000125       SUBS0098
A050000000125A0402000562078000000001002A010000001004A012000001011       SUBS0099
A053400100125A050000156207A040200061414A010000001011A002000000775       SUBS0100
A050000000125A040200056207A010000001015A012000001017A050000000370       SUBS0101
A060100000277A050000056107A040200000540A010000001024A050000000122       SUBS0102
A060100000300A050000000367A0601000003538000000001026A050000000117       SUBS0103
A040000000370A060100000352A050000000352A060100000121A050000000352       SUBS0104
A060100000120A002000001041A050000000120A040000000370A060100000120       SUBS0105
A050000000120A040200056121A010000001045A012000001055A050000000120       SUBS0106
A040200001047A300000061414A062100001052A0074004000128000000001052       SUBS0107
9300000000000A410000001055A002000001036A053400100120A050000161414       SUBS0108
A040200000503A010000001064A050000161414A040200000563A410000001146       SUBS0109
A050000000353A040000000370A060100000353A050000000353A040200001071       SUBS0110
A300000000362A062100001105A050000000352A040200001075A300000061414       SUBS0111
8000000001076A062100001104A050000000120A040200000352A060100007553       SUBS0112
A007400400014A30000000755393000000000009300000000000A050000000353       SUBS0113
A040200000370A410000001116A053400100120A050000161414A040200000503       SUBS0114
A410000001116A002000000053A050000000353A040200000372A010000001126       SUBS0115
A4120000011268000000001122A050000000403A060100000302A002000000051       SUBS0116
A002000001140A050000000353A040200000371A410000001135A050000000120       SUBS0117
A040000000370A060100000352A002000001140A050000000120A040000000370       SUBS0118
A060100000352A053400100120A050000161414A040200000563A410000001145       SUBS0119
A002000000054A0020000011478000000001146A002000000055A053400100121       SUBS0120
A050000000361A060100161414A007400400011A300000000360A060100061405       SUBS0121
A050000000353A040200000371A410000001202A050000000426A060100061407       SUBS0122
A007400400000A300000000360A060100007553A007400400000A300000000361       SUBS0123
9013100000000A020000007553A4600000075538000000001172A007400400001       SUBS0124
A300000007553A060100007553A007400400011A300000007553A053400100121       SUBS0125
A060100161414A002000001232A050000000427A060100061407A007400400000       SUBS0126
A300000000357A060100007553A007400400000A300000000360A060100007554       SUBS0127
A007400400000A3000000003619013100000000A0200000075548000000001216       SUBS0128
A020000007553A460000007554A007400400001A300000007554A060100007554       SUBS0129
A007400400011A300000007554A053400100121A060100161414A007400400011       SUBS0130
A300000000357A060100061403A050000000277A040200000367A410000001312       SUBS0131
A050000000557A060100061413A050000000556A060100061412A050000000536       SUBS0132
8000000001242A060100061410A050000000543A060100061406A050000000541       SUBS0133
A060100061404A050000000540A060100056124A050000000370A060100056120       SUBS0134
A007400400007A300000000531A060100007554A007400400001A300000007554       SUBS0135
A060100007554A450000056122A450100007554A060200061411A050000056121       SUBS0136
A0601000003628000000001266A050000000121A0400000003709073400100000       SUBS0137
A050000000563A060100161414A050000000121A0400000003719073400100000       SUBS0138
A050000061411A060100161414A050000000056A060100056106A056000000371       SUBS0139
A0200000003539013100000000A040000000372A060100056121A002000000023       SUBS0140
A050000000362A0601000561218000000001312A053400100122A050000000121       SUBS0141
A060100157174A050000000121A040000000370A060100007554A050000000122       SUBS0142
A0400000003709073400100000A050000007554A060100157174A050000000121       SUBS0143
A040000000371A060100007554A050000000122A0400000003719073400100000       SUBS0144
A050000007554A060100157174A0500000001228000000001336A040000000372       SUBS0145
A060100000122A050000000121A040000000372A060100000123A002000001347       SUBS0146
A050000000123A040000000370A060100000123A050000000123A040200000120       SUBS0147
A010000001361A050200000123A053400100122A060100157174A050000000122       SUBS0148
A040000000370A060100000122A002000001344A0534002001218000000001362       SUBS0149
A050000261414A060100000361A050000065335A040000000370A060100065335       SUBS0150
A050000065335A040200000416A010000001401A412000001401A050000065335       SUBS0151
A040200000370A060100065335A050000000370A060100000302A002000000051       SUBS0152
A050000000350A040000000370A060100000350A050000000351A040200001406       SUBS0153
8000000001406A300000061414A062100001415A050000000117A040200000351       SUBS0154
A060100007554A007400400002A3000000075549300000000000A300000061414       SUBS0155
A053400165335A060100165335A050000065335A0400000004169073400100000       SUBS0156
A050000000361A060100165335A050000056107A040200000540A010000001553       SUBS0157
A0500000002778000000001432A040200000370A410000001553A050000000350       SUBS0158
A040200000370A060100000350A050000000300A060100000122A050000000351       SUBS0159
A060100000120A002000001447A050000000120A040000000370A060100000120       SUBS0160
A053400100120A050000161414A040200000503A010000001462A050200000120       SUBS0161
A053400100122A0601001571748000000001456A050000000122A040000000370       SUBS0162
A060100000122A002000001444A050200000120A053400100122A060100157174       SUBS0163
A050000000122A040000000370A060100000122A050000000120A040200056121       SUBS0164
A010000001503A050200000120A040200000370A053400100122A060100157174       SUBS0165
A050000000122A040000000370A0601000001228000000001502A002000001553       SUBS0166
A050000000350A040200000367A010000001553A412000001553A050000000122       SUBS0167
A040200000370A060100000124A002000001516A050200000370A040000000124       SUBS0168
A060100000124A050200000351A0534001001249076000000002A040000157174       SUBS0169
A010000001524A002000001513A050000000124A0601000001248000000001526       SUBS0170
A002000001532A050000000124A040000000370A060100000124A050000000122       SUBS0171
A0402000003709076000000002A040000000124A010000001540A012000001545       SUBS0172
A053400100124A050000157174A040000000370A060100157174A002000001527       SUBS0173
A050200000120A053400100122A060100157174A050000000122A040000000370       SUBS0174
8000000001552A060100000122A050000000120A040000000370A040200056121       SUBS0175
A010000001623A412000001623A050000000350A040200000367A410000001564       SUBS0176
A002000000034A050000000034A060100056106A050000000370A060100000121       SUBS0177
A002000001574A050000000121A040000000370A060100000121A050000000121       SUBS0178
A0402000003768000000001576A010000001600A012000001604A050200000121       SUBS0179
A053400100121A060100157174A002000001571A050000000377A060100057164       SUBS0180
A050000000400A060100057163A050000000452A060100061404A050000000473       SUBS0181
A060100061403A053400100122A050000000414A060100157174A050000000367       SUBS0182
A060100056120A0020000000238000000001622A002000001636A050000000120       SUBS0183
A040000000371A060100000351A050000000120A0400000003709073400100000       SUBS0184
A050000161414A040200000563A010000001635A002000000055A002000000057       SUBS0185
A050000056121A060100000117A002000001644A050200000370A040000000117       SUBS0186
A060100000117A053400100117A0500001614148000000001646A040200000540       SUBS0187
A410000001651A002000001641A050000000117A060100056121A050000000367       SUBS0188
A060100000311A050000000377A060100000117A002000001663A050000000117       SUBS0189
A040000000370A060100000117A050000000117A040200056121A010000001667       SUBS0190
A012000002033A053400100117A050000161414A0402000004368000000001672       SUBS0191
A410000001675A002000000110A002000002032A053400100117A050000161414       SUBS0192
A040200000471A410000002032A050000000403A060100000121A050000000117       SUBS0193
A040200000370A060100000120A002000001712A050200000370A040000000120       SUBS0194
A060100000120A050000000120A040200000311A010000001716A412000001747       SUBS0195
8000000001716A053400100120A050000161414A040200000540A010000001733       SUBS0196
A050000161414A040200000423A010000001726A412000001732A050000161414       SUBS0197
A040200000435A010000001733A412000001733A002000001747A053400100120       SUBS0198
A050000161414A040200000540A010000001746A053400100121A053400200120       SUBS0199
A0500002614148000000001742A060100157174A050000000121A040200000370       SUBS0200
A060100000121A002000001707A050000000121A040200000403A410000002000       SUBS0201
A050000000117A0400000003709073400200000A050000261414A060100000120       SUBS0202
A050000000117A040000000371A060100000117A002000001766A050000000117       SUBS0203
A040000000370A0601000001178000000001766A050000000117A040200056121       SUBS0204
A010000001777A012000001777A053400100117A050000161414A040200000120       SUBS0205
A010000001777A002000001763A002000002021A050000000121A040000000370       SUBS0206
A040200002003A300000057174A062100002012A050000000403A040200000121       SUBS0207
A060100007554A007400400014A30000000755480000000020129300000000000       SUBS0208
A300000061414A060100007554A007400400000A300000007554A040000000117       SUBS0209
A060100000117A050000000117A040200056121A010000002025A412000002027       SUBS0210
A007400400004A300000000411A050000000117A040000000370A060100000311       SUBS0211
A002000001660A050000000557A060100061413A0500000003778000000002036       SUBS0212
A060100000121A050000000370A060100057173A050000000371A060100057172       SUBS0213
A050000000372A060100057171A050000000373A060100057170A050200000374       SUBS0214
A060100057167A050200000375A060100057166A050000000376A060100057165       SUBS0215
A050000000542A060100061412A050000000545A060100061411A050000000367       SUBS0216
8000000002062A060100000344A053400156121A050000161414A040200000503       SUBS0217
A010000002072A050000000411A060100000302A002000000051A050000056124       SUBS0218
A060100061410A450000000421A450100000535A060200061405A050000000377       SUBS0219
A060100000351A050000000367A060100000311A050000000351A060100000117       SUBS0220
A0020000021118000000002106A050000000117A040000000370A060100000117       SUBS0221
A050000000117A040200056121A010000002115A012000002610A053400100117       SUBS0222
A050000161414A040200000436A410000002125A050000000411A060100000302       SUBS0223
A002000000051A002000002607A053400100117A050000161414A040200000562       SUBS0224
A410000002237A0500000001178000000002132A040200000370A060100000116       SUBS0225
A002000002140A050200000370A040000000116A060100000116A050000000116       SUBS0226
A040200000311A010000002144A412000002162A050000000116A040200002146       SUBS0227
A300000061414A062100002151A0074004000159300000000000A010000002162       SUBS0228
A050000000116A04000000037090734001000008000000002156A053400200116       SUBS0229
A050000261414A060100161414A002000002135A050000000116A040000000370       SUBS0230
9073400100000A050000000545A060100161414A050000000117A040000000370       SUBS0231
A060100000123A002000002176A050000000123A040000000370A060100000123       SUBS0232
A053400100123A050000161414A040200000540A4100000022038000000002202       SUBS0233
A002000002173A053400100123A050000161414A040200000565A010000002224       SUBS0234
A050000161414A040200000504A010000002224A050000161414A040200000437       SUBS0235
A010000002224A050000000123A040200002217A300000061414A062100002222       SUBS0236
A0074004000129300000000000A410000002236A053400100117A450000161414       SUBS0237
8000000002226A450100000424A060200161414A053400100121A050000000117       SUBS0238
A060100157174A050000000121A040000000370A060100000121A002000002607       SUBS0239
A053400100117A050000161414A040200000444A410000002246A050000000450       SUBS0240
A060100161414A002000002607A053400100117A050000161414A040200000515       SUBS0241
A4100000022558000000002252A050000000506A060100161414A002000002607       SUBS0242
A053400100117A050000161414A040200000471A410000002415A050000056121       SUBS0243
A040000000374A060100000123A050000000117A040200000370A060100000122       SUBS0244
A002000002273A050200000370A040000000122A060100000122A050000000122       SUBS0245
A040200000311A0100000022778000000002276A412000002326A053400100122       SUBS0246
A050000161414A040200000540A010000002312A050000000122A040200002305       SUBS0247
A300000061414A062100002310A0074004000159300000000000A010000002326       SUBS0248
A053400100122A050000161414A040200000540A010000002325A053400100123       SUBS0249
A053400200122A050000261414A0601001614148000000002322A050000000123       SUBS0250
A040200000370A060100000123A002000002270A050000056121A040000000374       SUBS0251
9076000000002A040000000123A410000002361A050000000117A040000000370       SUBS0252
9073400200000A050000261414A060100000122A050000000117A040000000371       SUBS0253
A060100000117A002000002347A050000000117A0400000003708000000002346       SUBS0254
A060100000117A050000000117A040200056121A010000002360A012000002360       SUBS0255
A053400100117A050000161414A040200000122A010000002360A002000002344       SUBS0256
A002000002403A050000000123A040000000370A040200002364A300000061414       SUBS0257
A062100002374A050000056121A040000000374A040200000123A060100007554       SUBS0258
8000000002372A007400400014A3000000075549300000000000A300000061414       SUBS0259
A060100007554A007400400000A300000007554A040000000117A060100000117       SUBS0260
A050000000117A040200056121A010000002407A412000002411A007400400004       SUBS0261
A300000000411A050000000117A040000000370A060100000311A002000002607       SUBS0262
A0534001001178000000002416A050000161414A040200000517A410000002511       SUBS0263
A050000000370A060100000344A050000000117A040200000370A060100000122       SUBS0264
A002000002432A050200000370A040000000122A060100000122A050000000122       SUBS0265
A040200000311A010000002436A412000002455A053400100122A050000161414       SUBS0266
A040200000437A0100000024548000000002442A050000161414A040200000504       SUBS0267
A010000002454A050000000122A040200002447A300000061414A062100002452       SUBS0268
A0074004000159300000000000A010000002455A002000002427A050000000122       SUBS0269
A040000000370A060100000120A002000002464A050000000120A040000000370       SUBS0270
A060100000120A050000000120A0402000001178000000002466A010000002470       SUBS0271
A012000002505A050000000120A0402000001229073400100000A053400200120       SUBS0272
A050000261414A060100100362A050200000120A053400100121A060100157174       SUBS0273
A050000000121A040000000370A060100000121A002000002461A050000000117       SUBS0274
A040200000122A060100000125A002000002607A4520000003448000000002512       SUBS0275
A002000002607A053400100117A050000161414A040200000466A010000002522       SUBS0276
A050000161414A040200000461A410000002607A050000000117A040200000370       SUBS0277
A060100000122A002000002531A050200000370A040000000122A060100000122       SUBS0278
A050000000122A040200002533A300000061414A062100002536A007400400015       SUBS0279
80000000025369300000000000A010000002541A002000002526A050000000125       SUBS0280
A060100000120A050000000122A040000000370A060100000122A002000002552       SUBS0281
A050000000122A040000000370A060100000122A050000000122A040200000117       SUBS0282
A010000002556A012000002574A050200000122A053400100121A060100157174       SUBS0283
A0500000001218000000002562A040000000370A060100000121A050000000120       SUBS0284
A040000000370A060100000120A053400100120A053400200122A050000261414       SUBS0285
A060100100362A002000002547A050000000121A0402000003709073400100000       SUBS0286
A050000000117A060100157174A007400400002A300000000120A300000000361       SUBS0287
A300000061414A0534001001178000000002606A060100161414A002000002106       SUBS0288
A053400156121A050000161414A040200000503A010000002621A050000000117       SUBS0289
A040200056121A010000002621A412000002621A002000000031A450000000530       SUBS0290
A450100000422A053400156121A060200161414A053400100121A050000056121       SUBS0291
A060100157174A050000000121A04000000037080000000026329073400100000       SUBS0292
A050000000414A060100157174A050000000540A060100056124A002000000023       SUBS0293
A050000000462A060100061413A050000000460A060100061412A050000000525       SUBS0294
A060100061411A053400256121A050000261414A060100061410A050000000503       SUBS0295
A060100061407A050000000370A060100056120A0074004000108000000002656       SUBS0296
A300000000524A300000000047A050000000374A060100056121A002000000023       SUBS0297
A050000056121A060100000117A002000002671A050200000370A040000000117       SUBS0298
A060100000117A053400100117A050000161414A040200000423A010000002676       SUBS0299
A412000002703A050000161414A040200000435A010000002702A012000002703       SUBS0300
8000000002702A002000002666A050000000117A040000000370A040200002706       SUBS0301
A300000061414A062100002715A050000056121A040200000117A060100007554       SUBS0302
A007400400002A3000000075549300000000000A060100007554A007400400007       SUBS0303
A300000007554A060100007554A007400400001A300000007554A060100007554       SUBS0304
A4500000561228000000002726A450100007554A060200000341A053400100117       SUBS0305
A050000161414A040200000563A410000002743A050000000341A060100000342       SUBS0306
A050000000117A040200000370A060100056121A002000000071A002000002770       SUBS0307
A053400100117A050000161414A040200000503A410000002755A050000000117       SUBS0308
A04020000037090734002000008000000002752A050000261414A060100000343       SUBS0309
A002000002770A050000000117A040200002757A300000061414A062100002762       SUBS0310
A0074004000129300000000000A010000002766A002000000033A002000002770       SUBS0311
A050000000540A060100000343A050000061406A040200000555A410000002776       SUBS0312
A050000000521A060100061411A0020000030318000000002776A050000061406       SUBS0313
A040200000474A410000003004A050000000522A060100061411A002000003031       SUBS0314
A050000061406A040200000553A410000003012A050000000523A060100061411       SUBS0315
A002000003031A050000061403A040200000507A410000003020A050000000526       SUBS0316
A060100061411A002000003031A050000061403A0402000005458000000003022       SUBS0317
A410000003026A050000000527A060100061411A002000003031A050000000376       SUBS0318
A060100000302A002000000051A050000000462A060100061413A050000000460       SUBS0319
A060100061412A050000000341A060100061410A050000000541A060100061407       SUBS0320
A450000000375A062100003044A4500000614119476500000000A032200000520       SUBS0321
8000000003046A060200007554A007400400010A300000007554A300000000047       SUBS0322
A050000061406A040200000512A410000003064A050000000541A060100061405       SUBS0323
A050000000343A060100061404A050000000400A060100056121A002000003066       SUBS0324
A050000000376A060100056121A053400156121A050000000503A060100161414       SUBS0325
A0500000003708000000003072A060100056120A050000000342A060100061406       SUBS0326
A002000000023A050000000373A060100000351A050000000370A060100000120       SUBS0327
A050000056121A060100000121A002000003110A050200000370A040000000121       SUBS0328
A060100000121A050000000121A040200003112A300000061414A062100003115       SUBS0329
A00740040001293000000000008000000003116A410000003120A002000003105       SUBS0330
A053400100121A050000161414A040200000563A010000003125A002000000033       SUBS0331
A050000000121A060100000117A002000003133A050200000370A040000000117       SUBS0332
A060100000117A050000000117A040200000367A010000003143A053400100117       SUBS0333
A050000161414A040200000503A0100000031438000000003142A002000003130       SUBS0334
A050000000117A040200000367A410000003151A050000000405A060100000302       SUBS0335
A002000000051A050000000117A040200000370A060100000303A050000056121       SUBS0336
A060100000351A050000000370A060100000117A002000003164A050000000117       SUBS0337
A040000000370A060100000117A050000000117A0402000003728000000003166       SUBS0338
A010000003170A012000003240A050000000351A060100000120A002000003176       SUBS0339
A050200000370A040000000120A060100000120A053400100120A050000161414       SUBS0340
A040200000503A010000003206A050000161414A040200000563A010000003206       SUBS0341
A002000003173A050000000120A040000000370A040200003211A300000061414       SUBS0342
8000000003212A062100003220A050000000351A040200000120A060100007554       SUBS0343
A007400400002A3000000075549300000000000A060100007554A007400400007       SUBS0344
A300000007554A060100007554A007400400001A300000007554A060100007554       SUBS0345
A450000056122A450100007554A053400100117A060200100362A050000000120       SUBS0346
A0402000003708000000003236A060100000351A002000003161A050000000560       SUBS0347
A060100061413A050000000456A060100061412A050000000370A060100057173       SUBS0348
A050000000371A060100057172A050000000373A060100000301A050000000372       SUBS0349
A060100057174A050000000035A060100000024A007400400017A002000000032       SUBS0350
A050000000361A0402000003608000000003262A410000003304A050000000370       SUBS0351
A060100000362A050000000361A040200000357A410000003271A002000000041       SUBS0352
A050000000120A0400000003709073400100000A050000000500A060100161414       SUBS0353
A050000000120A0400000003739073400100000A050000000357A060100161414       SUBS0354
A002000003361A050000000360A0402000003578000000003306A410000003324       SUBS0355
A050000000371A060100000362A050000000120A0400000003709073400100000       SUBS0356
A050000000477A060100161414A050000000120A0400000003739073400100000       SUBS0357
A050000000361A060100161414A002000003361A050000000361A040200000357       SUBS0358
A410000003344A050000000372A060100000362A0500000001208000000003332       SUBS0359
A0400000003709073400100000A050000000476A060100161414A050000000120       SUBS0360
A0400000003739073400100000A050000000360A060100161414A002000003361       SUBS0361
A050000000120A0400000003709073400100000A050000000500A060100161414       SUBS0362
A050000000120A0400000003739073400100000A050000000357A060100161414       SUBS0363
8000000003356A050000000036A060100056106A002000000040A050000000041       SUBS0364
A060100056106A050000000120A040000000370A060100007554A050000057174       SUBS0365
A0400000003709073400100000A050000007554A060100157174A050000000120       SUBS0366
A040000000371A060100007554A050000057174A0400000003719073400100000       SUBS0367
A0500000075548000000003402A060100157174A050000000120A040000000372       SUBS0368
A060100007554A050000057174A0400000003729073400100000A050000007554       SUBS0369
A060100157174A050000000120A040000000373A060100007554A050000057174       SUBS0370
A0400000003739073400100000A050000007554A060100157174A050000057174       SUBS0371
A04000000037490734001000008000000003426A050000000414A060100157174       SUBS0372
A050000000120A0400000003719073400100000A050000000552A060100161414       SUBS0373
A050000000120A0400000003729073400100000A050000000457A060100161414       SUBS0374
A050000000120A040000000373A060100056121A002000000023A053400100362       SUBS0375
A050000100362A040200056123A4100000034538000000003452A002000000034       SUBS0376
A050000000552A060100061413A050000000457A060100061412A053400200362       SUBS0377
A050000200362A060100061411A050000000370A060100056120A050000000034       SUBS0378
A060100056106A050000000372A060100056121A050000000540A060100056124       SUBS0379
A002000000023A050000000120A04000000037090734001000008000000003476       SUBS0380
A050000000477A060100161414A050000000120A0400000003739073400100000       SUBS0381
A050000000361A060100161414A050000000371A060100000362A050000000367       SUBS0382
A060100056120A050000000041A060100056106A002000000037A050000061411       SUBS0383
A040200000423A010000003520A412000003524A050000061411A040200000435       SUBS0384
8000000003522A010000003525A412000003525A002000000033A050000000372       SUBS0385
A060100000117A002000003533A050000000117A040000000370A060100000117       SUBS0386
A053400100117A050000161414A040200000435A010000003540A012000003551       SUBS0387
A050000161414A040200000423A010000003544A412000003551A050000000117       SUBS0388
A0402000561218000000003546A010000003550A012000003551A002000003530       SUBS0389
A050000000117A040200056121A010000003561A412000003561A050000000372       SUBS0390
A060100000302A002000000051A002000003571A050000000117A040200003563       SUBS0391
A300000061414A062100003566A0074004000129300000000000A010000003571       SUBS0392
A002000000033A0500000001178000000003572A040200000372A060100007554       SUBS0393
A007400400002A300000007554A300000061411A060100007554A007400400007       SUBS0394
A300000007554A060100007554A007400400001A300000007554A060100007554       SUBS0395
A450000056122A450100007554A060200000341A050000000117A040000000370       SUBS0396
A060100000120A002000003620A0500000001208000000003616A040000000370       SUBS0397
A060100000120A050000000120A040200056121A010000003624A012000003634       SUBS0398
A050000000120A040200003626A300000061414A062100003631A007400400012       SUBS0399
9300000000000A410000003634A002000003615A053400100120A050000161414       SUBS0400
A040200000436A410000003644A050000000120A0402000561218000000003642       SUBS0401
A010000003645A412000003645A002000000050A050000000120A040000000370       SUBS0402
A060100000121A002000003654A050000000121A040000000370A060100000121       SUBS0403
A050000000121A040200003656A300000061414A062100003661A007400400012       SUBS0404
9300000000000A410000003670A050000000121A040200056121A010000003667       SUBS0405
8000000003666A012000003670A002000003651A053400100121A050000161414       SUBS0406
A040200000563A010000003675A002000000033A050000000117A040200003677       SUBS0407
A300000061414A062100003706A050000000120A040200000117A060100007554       SUBS0408
A007400400002A3000000075549300000000000A300000000342A053400100117       SUBS0409
A0500001614148000000003712A040200000512A010000003715A412000003721       SUBS0410
A050000161414A040200000505A010000003725A412000003725A053400100117       SUBS0411
A050000161414A040200000474A410000003727A007400400006A300000000342       SUBS0412
A050000000120A040000000370A040200003732A300000061414A062100003742       SUBS0413
A050000000121A0402000001208000000003736A040200000370A060100007554       SUBS0414
A007400400002A3000000075549300000000000A300000000343A050000000120       SUBS0415
A0400000003709073400100000A050000161414A040200000512A010000003753       SUBS0416
A412000003762A050000000120A0400000003709073400100000A050000161414       SUBS0417
A040200000505A010000003770A4120000037708000000003762A050000000120       SUBS0418
A0400000003709073400100000A050000161414A040200000474A410000003772       SUBS0419
A007400400006A300000000343A050000000121A040000000370A060100000117       SUBS0420
A002000004001A050000000117A040000000370A060100000117A053400100117       SUBS0421
A050000161414A040200000563A010000004012A0500000001178000000004006       SUBS0422
A040200056121A010000004011A012000004012A002000003776A050000000121       SUBS0423
A040000000370A040200004015A300000061414A062100004025A050000000117       SUBS0424
A040200000121A040200000370A060100007554A007400400002A300000007554       SUBS0425
9300000000000A300000000362A050000000121A0400000003709073400100000       SUBS0426
8000000004032A050000161414A040200000512A010000004036A412000004045       SUBS0427
A050000000121A0400000003709073400100000A050000161414A040200000505       SUBS0428
A010000004053A412000004053A050000000121A0400000003709073400100000       SUBS0429
A050000161414A040200000474A410000004055A007400400006A300000000362       SUBS0430
A0500000003628000000004056A040200000346A410000004062A050000000345       SUBS0431
A060100000362A050000000342A040200000346A410000004067A050000000345       SUBS0432
A060100000342A050000000343A040200000346A410000004074A050000000345       SUBS0433
A060100000343A050000000341A040200000346A410000004101A050000000345       SUBS0434
A060100000341A0500000003428000000004102A040200000343A410000004174       SUBS0435
A050000056106A060100000025A050000000115A060100056106A050000056121       SUBS0436
A060100000310A007400400007A300000000531A060100007554A007400400001       SUBS0437
A300000007554A060100007554A450000056122A450100007554A060200000307       SUBS0438
A050000000307A060100061413A0500000004368000000004126A060100061412       SUBS0439
A050000000343A060100061411A050000000372A060100056121A050000000370       SUBS0440
A060100056120A002000000023A050000000307A060100000343A050000000120       SUBS0441
A0400000003709073400100000A050000161414A040200000512A010000004147       SUBS0442
A412000004156A050000000120A04000000037090734001000008000000004152       SUBS0443
A050000161414A040200000505A010000004164A412000004164A050000000120       SUBS0444
A0400000003709073400100000A050000161414A040200000474A410000004166       SUBS0445
A007400400006A300000000307A050000000025A060100056106A050000000540       SUBS0446
A060100056124A050000000310A060100056121A050000000117A040200056121       SUBS0447
8000000004176A010000004213A412000004213A050000000543A060100061404       SUBS0448
A050000000342A060100061403A050000000532A060100061402A050000000362       SUBS0449
A060100061401A050000000402A060100056121A002000004276A050000000117       SUBS0450
A040000000370A040200004216A300000061414A062100004225A050000056121       SUBS0451
A0402000001178000000004222A060100007554A007400400002A300000007554       SUBS0452
9300000000000A300000061403A050000061403A040200000346A410000004234       SUBS0453
A050000000345A060100061403A050000000117A0400000003709073400100000       SUBS0454
A050000161414A040200000512A010000004243A412000004252A050000000117       SUBS0455
A04000000037090734001000008000000004246A050000161414A040200000505       SUBS0456
A010000004260A412000004260A050000000117A0400000003709073400100000       SUBS0457
A050000161414A040200000474A410000004262A007400400006A300000061403       SUBS0458
A050000000563A060100061404A050000000563A060100061402A050000000342       SUBS0459
A060100061401A050000000532A0601000614008000000004272A050000000362       SUBS0460
A060100061377A050000000404A060100056121A050000000550A060100061413       SUBS0461
A050000000471A060100061412A050000000341A060100061411A050000000544       SUBS0462
A060100061410A050000000342A060100061407A050000000536A060100061406       SUBS0463
A050000000343A060100061405A050000056121A0400000003708000000004316       SUBS0464
A060100056121A053400156121A050000000475A060100161414A050000056121       SUBS0465
A0400000003709073400100000A050000000342A060100161414A050000056121       SUBS0466
A0400000003719073400100000A050000000501A060100161414A050000056121       SUBS0467
A0400000003729073400100000A050000000343A060100161414A050000056121       SUBS0468
8000000004342A040000000372A060100056121A050000000370A060100056120       SUBS0469
A002000000023A050000061405A040200000436A010000004355A050000061405       SUBS0470
A040200000565A410000004356A002000000110A050000000376A060100000117       SUBS0471
A002000004364A050000000117A040000000370A060100000117A050000000117       SUBS0472
A0402000561218000000004366A010000004370A012000004402A053400100117       SUBS0473
A050000161414A040200000423A010000004375A412000004402A050000161414       SUBS0474
A040200000435A010000004401A012000004402A002000004361A050000000117       SUBS0475
A040200056121A010000004411A412000004411A050000000401A060100000302       SUBS0476
A002000000051A0500000001178000000004412A040000000371A040200004414       SUBS0477
A300000061414A062100004424A050000056121A040200000117A040200000370       SUBS0478
A060100007554A007400400002A3000000075549300000000000A300000061413       SUBS0479
A060100000351A050000000117A040200000376A060100007554A007400400002       SUBS0480
A300000007554A300000061405A0601000075548000000004436A007400400007       SUBS0481
A300000007554A060100007554A007400400001A300000007554A060100007554       SUBS0482
A450000056122A450100007554A060200061411A050000000436A060100061412       SUBS0483
A050000000370A060100056120A050000000372A060100056121A050000000042       SUBS0484
A060100056106A002000000023A050000000351A0601000614108000000004462       SUBS0485
A050000000546A060100061413A050000000367A060100000351A053400100117       SUBS0486
A050000161414A040200000506A010000004473A012000004477A050000161414       SUBS0487
A040200000512A010000004503A012000004503A053400100117A050000161414       SUBS0488
A040200000474A410000004505A050000000370A060100000351A050000000455       SUBS0489
8000000004506A060100061412A050000000445A060100061411A050000000034       SUBS0490
A060100056106A050000000540A060100056124A050000000373A060100056121       SUBS0491
A002000000023A050000000374A060100000117A002000004526A050000000117       SUBS0492
A040000000370A060100000117A050000000117A040200056121A010000004532       SUBS0493
A0120000045428000000004532A050000000117A040200004534A300000061414       SUBS0494
A062100004537A0074004000129300000000000A410000004542A002000004523       SUBS0495
A050000056121A0400000003709073400100000A050000000367A060100161414       SUBS0496
A053400100117A050000161414A040200000565A010000004563A050000000117       SUBS0497
A040200004555A3000000614148000000004556A062100004560A007400400012       SUBS0498
9300000000000A010000004563A002000000033A050000000117A060100000121       SUBS0499
A050000000117A060100000120A002000004573A050000000120A040000000370       SUBS0500
A060100000120A053400100120A050000161414A040200000471A010000004613       SUBS0501
A050000000120A040200056121A0100000046038000000004602A012000004613       SUBS0502
A050000000120A040200004605A300000061414A062100004610A007400400012       SUBS0503
9300000000000A410000004613A002000004570A050000000120A040200056121       SUBS0504
A010000004620A412000004620A002000000027A053400100120A050000161414       SUBS0505
A040200000471A410000004717A050000000120A0402000003708000000004626       SUBS0506
A060100000124A002000004633A050200000370A040000000124A060100000124       SUBS0507
A050000000124A040200000117A010000004651A412000004651A053400100124       SUBS0508
A050000161414A040200000435A010000004644A012000004651A050000161414       SUBS0509
A040200000423A010000004650A412000004651A002000004630A050000000120       SUBS0510
8000000004652A0402000003709076000000002A040000000124A010000004672       SUBS0511
A050000000124A040200004660A300000061414A062100004663A007400400012       SUBS0512
9300000000000A410000004671A050000000124A040200000117A010000004671       SUBS0513
A012000004672A002000004673A002000000114A050000000124A040200004675       SUBS0514
A3000000614148000000004676A062100004704A050000000120A040200000124       SUBS0515
A060100007554A007400400014A3000000075549300000000000A300000000347       SUBS0516
A060100007554A007400400000A300000007554A060100000347A050000000120       SUBS0517
A040000000347A040000000370A060100000117A002000000026A053400100120       SUBS0518
A050000161414A0402000004368000000004722A410000004724A002000000033       SUBS0519
A050000000120A040000000370A060100000117A002000000026A050000000462       SUBS0520
A060100061413A050000000461A060100061412A053400100121A050000000534       SUBS0521
A060100161414A050000000121A060100057167A050000000121A040200000374       SUBS0522
A060100007554A007400400002A3000000075548000000004746A300000061407       SUBS0523
A300000061414A060100007554A007400400010A300000007554A300000000047       SUBS0524
A050000061407A040200000505A010000004760A012000004764A050000061407       SUBS0525
A040200000512A010000004767A012000004767A050000061407A040200000474       SUBS0526
A410000004772A007400400006A300000061414A3000000000508000000004772       SUBS0527
A050000000121A040200056121A010000005016A412000005016A050000000374       SUBS0528
A060100057174A050000000117A0400000003709073400100000A050000000423       SUBS0529
A060100161414A050000000117A0400000003719073400100000A050000000503       SUBS0530
A060100161414A050000000117A040000000371A060100056121A002000005034       SUBS0531
8000000005016A050000000375A060100057174A050000000121A040000000370       SUBS0532
A060100000301A050000056121A040200000370A060100000303A050000000030       SUBS0533
A060100000024A007400400017A007400400020A007400400021A002000000032       SUBS0534
A050000000370A060100057173A050000000371A060100057172A050200000372       SUBS0535
A0601000571718000000005042A050200000373A060100057170A050000057174       SUBS0536
A0400000003709073400100000A050000000414A060100157174A002000000023       SUBS0537
A050000061413A040200000545A410000005060A050000000402A060100000350       SUBS0538
A002000005062A050000000400A060100000350A050000000350A060100000117       SUBS0539
A002000005070A0500000001178000000005066A040000000370A060100000117       SUBS0540
A050000000117A040200056121A010000005074A012000005101A053400100117       SUBS0541
A050000161414A040200000565A010000005101A002000005065A050000000117       SUBS0542
A040200056121A010000005111A412000005111A002000000045A050000000373       SUBS0543
A060100000302A002000000051A0500000001178000000005112A040000000370       SUBS0544
A060100000121A050000000121A060100000120A002000005122A050000000120       SUBS0545
A040000000370A060100000120A050000000120A040200056121A010000005126       SUBS0546
A012000005136A053400100120A050000161414A040200000503A010000005136       SUBS0547
A050000161414A040200000563A010000005136A0020000051178000000005136       SUBS0548
A050000000120A040200056121A010000005143A412000005143A002000000044       SUBS0549
A050000056207A040000000370A060100056207A050000056207A040200000412       SUBS0550
A010000005153A412000005153A002000000044A050000056207A040200005155       SUBS0551
A300000056207A062100005171A050000000121A040200005161A300000061414       SUBS0552
8000000005162A062100005170A050000000120A040200000121A060100007554       SUBS0553
A007400400002A30000000755493000000000009300000000000A050000000120       SUBS0554
A040000000370A060100000121A053400100120A050000161414A040200000503       SUBS0555
A010000005202A002000000043A050000000350A040200005204A300000061414       SUBS0556
A0621000052138000000005206A050000000117A040200000350A060100007554       SUBS0557
A007400400002A3000000075549300000000000A300000000346A050000061413       SUBS0558
A060100056107A050000000463A060100061413A050000000442A060100061412       SUBS0559
A050000000451A060100061411A050000000370A060100057173A050000000371       SUBS0560
A060100057172A0500000003728000000005232A060100057171A050000000373       SUBS0561
A060100000120A002000005241A050000000120A040000000370A060100000120       SUBS0562
A050000000120A040200000117A010000005250A050200000120A053400100120       SUBS0563
A060100157174A002000005236A053400100120A050000000414A060100157174       SUBS0564
A050000000052A060100056106A0020000000238000000005256A050000000454       SUBS0565
A060100061413A050000000551A060100061412A050000000346A060100061411       SUBS0566
A050000000502A060100061410A007400400007A300000000346A060100007554       SUBS0567
A450000056122A450100007554A060200000345A053400100350A050000161414       SUBS0568
A040200000562A010000005314A050000161414A0402000005058000000005302       SUBS0569
A010000005304A012000005310A050000161414A040200000512A010000005314       SUBS0570
A012000005314A053400100350A050000161414A040200000474A410000005316       SUBS0571
A007400400006A300000000345A050000000373A060100056121A050000000370       SUBS0572
A060100056120A050000000414A060100057174A050000000034A060100056106       SUBS0573
8000000005326A050000000540A060100056124A002000000023A050000056121       SUBS0574
A040200000375A010000005336A412000005336A002000000033A050000000470       SUBS0575
A060100061413A050000000513A060100061412A050000000554A060100061411       SUBS0576
A050000000370A060100057173A050000000371A060100057172A050000000372       SUBS0577
A0601000571718000000005352A050000056107A040200000545A410000005362       SUBS0578
A050000000414A060100057170A050000000372A060100056121A002000005372       SUBS0579
A050000000373A060100056121A050000000373A060100057170A050000000414       SUBS0580
A060100057167A050000000345A060100061410A050000000423A060100000346       SUBS0581
A002000000023A0020000054008000000005376A063400207543A007400207543       SUBS0582
A050000000023A060100000024A050000000370A060100000301A050000056121       SUBS0583
A060100000303A007400400017A050000000370A060100057174A050000000301       SUBS0584
A060100000122A050000000367A060100000306A050000000367A060100000275       SUBS0585
A050000000367A060100000365A0500000003678000000005422A060100000304       SUBS0586
A050000000367A060100000364A050000000301A060100000121A002000005433       SUBS0587
A050000000121A040000000370A060100000121A050000000121A040200000303       SUBS0588
A010000005437A012000007243A050000000367A060100000304A050000000367       SUBS0589
A060100000364A050000000122A040200000301A0100000055028000000005446       SUBS0590
A050000000122A0402000003709073400100000A050000161414A040200000435       SUBS0591
A010000005455A012000005464A050000000122A0402000003709073400100000       SUBS0592
A050000161414A040200000423A010000005472A012000005472A050000000122       SUBS0593
A0402000003709073400100000A050000161414A040200000502A410000005502       SUBS0594
8000000005472A053400100121A050000161414A040200000471A010000005501       SUBS0595
A050000161414A040200000461A410000005502A002000005523A050000000121       SUBS0596
A040200005504A300000061414A062100005507A0074004000129300000000000       SUBS0597
A410000005523A053400100121A050000161414A040200000435A010000005516       SUBS0598
A0120000055228000000005516A050000161414A040200000423A010000005523       SUBS0599
A012000005523A002000006074A053400100122A053400200121A050000261414       SUBS0600
A060100161414A050000161414A040200000503A410000005533A007400400016       SUBS0601
A053400100122A050000161414A040200000565A410000005540A007400400020       SUBS0602
A050000000122A0400000003708000000005542A060100000122A050000000306       SUBS0603
A040200000370A410000005555A053400100121A050000161414A040200000436       SUBS0604
A410000005555A050000000371A060100000306A002000006073A053400100121       SUBS0605
A050000161414A040200000471A410000006042A050000000122A040200000371       SUBS0606
A060100000277A002000005570A0502000003708000000005566A040000000277       SUBS0607
A060100000277A050000000277A040200000301A010000005574A412000005606       SUBS0608
A053400100277A050000161414A040200000435A010000005601A012000005606       SUBS0609
A050000161414A040200000423A010000005605A412000005606A002000005565       SUBS0610
A050000000277A040000000370A040200005611A3000000614148000000005612       SUBS0611
A062100005621A050000000122A040200000277A040200000371A060100007554       SUBS0612
A007400400014A3000000075549300000000000A300000000363A060100007554       SUBS0613
A007400400000A300000007554A060100000363A007400400007A300000000531       SUBS0614
A007400400007A300000000531A060100007554A050000060161A040000000370       SUBS0615
80000000056369073400100000A050000007554A060100160161A050000000363       SUBS0616
A0402000003709076500000043A0221000003759013100000000A040000000370       SUBS0617
A060100000122A053400160161A050000000122A060100160161A007400400001       SUBS0618
A300000077150A060100007554A450000056122A450100007554A060200007554       SUBS0619
A0500000002778000000005662A0400000003709073400100000A050000007554       SUBS0620
A060100161414A007400400001A300000000122A060100007554A007400400011       SUBS0621
A300000007554A060100007554A450000000375A062100005677A450000007554       SUBS0622
9476500000000A032200000564A060200007554A050000000277A040000000371       SUBS0623
9073400100000A0500000075548000000005706A060100161414A050000000277       SUBS0624
A040000000370A053400157174A060100157174A050000000277A040000000371       SUBS0625
A060100007554A050000057174A0400000003709073400100000A050000007554       SUBS0626
A060100157174A050000057174A040000000371A060100057174A050000060161       SUBS0627
A040000000371A060100000127A0534002601618000000005732A050000000127       SUBS0628
A040000260161A060100060161A053400160161A050000000415A060100160161       SUBS0629
A050000000375A060100000122A050000060161A040200000370A060100000130       SUBS0630
A002000005751A050200000370A040000000130A060100000130A050000000130       SUBS0631
A040200000127A010000005755A412000006033A0500000001308000000005756       SUBS0632
A040200000127A410000005771A05600000036394754000000009076300000000       SUBS0633
A022100000375A02000000037590131000000009076000000002A040000000363       SUBS0634
A060100000122A05600000036394754000000009076300000000A022100000375       SUBS0635
A02000000037590131000000009076000000002A040000000363A410000006007       SUBS0636
8000000006002A050000000122A040200000367A410000006007A050000000375       SUBS0637
A060100000122A050000000130A040200006011A300000060161A062100006031       SUBS0638
A050000060161A0402000001309013100000000A020000000375A460000007554       SUBS0639
A050000000121A040200000374A040000007554A040200006024A300000061414       SUBS0640
A0621000060308000000006026A007400400002A3000000001229300000000000       SUBS0641
9300000000000A002000005746A050000000277A040000000372A060100000122       SUBS0642
A050000000121A040000000363A060100000121A002000006073A050000000122       SUBS0643
A0402000003719073400100000A050000161414A040200000531A410000006073       SUBS0644
A053400100121A0500001614148000000006052A040200000531A410000006073       SUBS0645
A050000000122A0402000003719073400100000A050000000533A060100161414       SUBS0646
A050000000122A040200000371A053400157174A060100157174A050000057174       SUBS0647
A040000000370A060100057174A050000000122A040200000370A060100000122       SUBS0648
A002000007240A053400100121A0500001614148000000006076A040200000540       SUBS0649
A010000007240A053400100122A053400200121A050000261414A060100161414       SUBS0650
A050000000122A040000000370A060100000125A050000000121A040000000370       SUBS0651
A060100000350A050000000370A060100000276A050000000350A060100000123       SUBS0652
A002000006122A050000000123A040000000370A0601000001238000000006122       SUBS0653
A050000000123A040200000303A010000006126A012000006133A053400100123       SUBS0654
A050000161414A040200000540A410000006133A002000006117A053400100125       SUBS0655
A053400200123A050000261414A060100161414A050000000123A040200000303       SUBS0656
A010000006143A012000006152A050000000123A040200006145A300000061414       SUBS0657
8000000006146A062100006150A0074004000129300000000000A010000006153       SUBS0658
A002000000062A050000000125A040000000370A060100000125A050000000367       SUBS0659
A060100000276A050000000123A040000000370A060100000350A002000000066       SUBS0660
A050000000122A040200006166A300000061414A062100006175A050000000125       SUBS0661
A0402000001228000000006172A060100007554A007400400002A300000007554       SUBS0662
9300000000000A300000061414A053400100125A050000161414A040200000565       SUBS0663
A410000006617A007400400020A050000000061A060100056077A007400400003       SUBS0664
A300000061414A300000056077A002000000064A050000000125A040200000370       SUBS0665
9073400100000A0500001614148000000006216A040200000466A010000006223       SUBS0666
A050000000367A060100000304A002000000063A050000000125A040200000122       SUBS0667
A040200000370A040200000375A010000006234A412000006234A050000000377       SUBS0668
A060100000302A002000000051A050000000370A060100000304A050000000125       SUBS0669
A040200000122A040200000370A0402000003728000000006242A010000006247       SUBS0670
A012000006247A050000000370A060100000364A002000000063A050000000367       SUBS0671
A060100000364A050000000122A040200006253A300000061414A062100006263       SUBS0672
A050000000125A040200000122A040200000370A060100007554A007400400002       SUBS0673
A3000000075549300000000000A300000061414A0534001001228000000006266       SUBS0674
A050000161414A040200000562A410000006273A050000000370A060100000365       SUBS0675
A050000000122A040200000370A010000006307A050000000125A040200000370       SUBS0676
A060100000125A050000000125A040000000370A0534001001259073400200000       SUBS0677
A050000261414A060100161414A050000061414A040200000561A010000006320       SUBS0678
8000000006312A050000061414A040200000465A010000006320A050000061414       SUBS0679
A040200000440A410000006407A050000000367A060100000340A050000000337       SUBS0680
A040200000370A060100000337A053400100122A050000161414A040200000444       SUBS0681
A410000006345A050000000537A060100161414A053400157174A050000000122       SUBS0682
A0601001571748000000006336A050000057174A040000000370A060100057174       SUBS0683
A050000000122A040000000370A060100000122A002000006405A053400100122       SUBS0684
A050000161414A040200000562A410000006354A050000000502A060100161414       SUBS0685
A002000006405A053400100122A050000000565A060100161414A050000000122       SUBS0686
A04000000037090734001000008000000006362A050000000423A060100161414       SUBS0687
A050000000122A0400000003719073400100000A050000000502A060100161414       SUBS0688
A050000000122A0400000003729073400100000A050000000423A060100161414       SUBS0689
A050000000122A0400000003739073400100000A050000000437A060100161414       SUBS0690
A050000000370A060100000305A0020000000658000000006406A002000006460       SUBS0691
A050000000122A040200000370A410000006460A050000000125A040200000374       SUBS0692
A010000006417A012000006417A002000000064A050000000370A060100000306       SUBS0693
A050000000472A060100061413A050000000442A060100061412A050000000451       SUBS0694
A060100061411A050000061414A060100061410A0534001571748000000006432       SUBS0695
A050000000370A060100157174A050000057174A0400000003709073400100000       SUBS0696
A050000000371A060100157174A050000057174A0400000003719073400100000       SUBS0697
A050000000372A060100157174A050000057174A0400000003729073400100000       SUBS0698
A050000000373A060100157174A050000057174A040000000373A060100057174       SUBS0699
8000000006456A050000000374A060100000125A050000061414A040200000465       SUBS0700
A010000006470A050000061414A040200000440A010000006470A007400400010       SUBS0701
A300000061414A053400100122A050000161414A040200000505A010000006475       SUBS0702
A012000006501A050000161414A040200000512A010000006505A012000006505       SUBS0703
A0534001001228000000006502A050000161414A040200000474A410000006511       SUBS0704
A452000000364A002000006511A052000000304A002000006543A053400100122       SUBS0705
A050000161414A040200000505A010000006516A012000006522A050000161414       SUBS0706
A040200000512A010000006526A012000006526A053400100122A050000161414       SUBS0707
A040200000474A4100000065308000000006526A452000000304A002000006543       SUBS0708
A053400100122A050000161414A040200000562A410000006540A052000000364       SUBS0709
A002000006540A052000000304A002000006543A050000000365A040200000370       SUBS0710
A410000006550A007400400006A300000061414A300000000050A050000000367       SUBS0711
A060100000365A050000000367A0601000003048000000006552A050000000367       SUBS0712
A060100000364A007400400021A050000000122A040200000370A010000006567       SUBS0713
A053400100123A050000161414A040200000565A010000006567A050000000407       SUBS0714
A060100000302A002000000051A053400100125A050000000534A060100161414       SUBS0715
A053400157174A050000000125A060100157174A0500000003058000000006576       SUBS0716
A040200000370A410000006610A053400100125A050000000540A060100161414       SUBS0717
A050000000367A060100000305A050000057174A040200000370A060100057174       SUBS0718
A050000057174A040000000370A060100057174A050000000125A040000000370       SUBS0719
A060100000122A002000007225A050000061414A040200000346A410000006654       SUBS0720
8000000006622A053400100122A050000000345A060100161414A053400157174       SUBS0721
A050000000122A060100157174A050000057174A040000000370A060100057174       SUBS0722
A050000000122A040000000370A060100000126A002000006642A050000000126       SUBS0723
A040000000370A060100000126A050000000126A040200000125A010000006654       SUBS0724
A0502000001268000000006646A053400157174A060100157174A050000057174       SUBS0725
A040000000370A060100057174A002000006637A050000000125A040200000122       SUBS0726
A040200000375A010000006662A412000006662A002000000046A050000000306       SUBS0727
A040200000370A410000006775A007400400007A300000000531A060100007554       SUBS0728
A007400400001A3000000075548000000006672A060100007554A450000056122       SUBS0729
A450100007554A060200007554A050000000275A0400000003709073400100000       SUBS0730
A050000007554A060100100275A050000000275A0400000003719073400100000       SUBS0731
A050000061414A060100100275A053400100122A050000161414A040200000505       SUBS0732
A010000006715A012000006721A0500001614148000000006716A040200000512       SUBS0733
A010000006725A012000006725A053400100122A050000161414A040200000474       SUBS0734
A410000006735A050000000275A040000000370A040200006730A300000000275       SUBS0735
A062100006733A0074004000069300000000000A300000000050A050000000275       SUBS0736
A040000000370A0534001001229073400200000A0500002002758000000006742       SUBS0737
A060100161414A053400157174A050000000122A060100157174A050000057174       SUBS0738
A040000000370A060100057174A050000000275A040000000371A060100000275       SUBS0739
A050000000275A040200000413A010000006763A412000006763A050000000410       SUBS0740
A060100000302A002000000051A050000000122A0400000003709073400100000       SUBS0741
8000000006766A053400200125A050000261414A060100161414A050000000122       SUBS0742
A040000000371A060100000122A002000007225A050000000306A040200000371       SUBS0743
A410000007106A050000000371A060100000126A002000007006A050000000126       SUBS0744
A040000000371A060100000126A050000000126A040200000275A010000007012       SUBS0745
A0120000070458000000007012A053400100126A050000100275A040200061414       SUBS0746
A410000007044A050000000126A040200000370A0534001001229073400200000       SUBS0747
A050000200275A060100161414A053400157174A050000000122A060100157174       SUBS0748
A050000057174A040000000370A060100057174A050000000122A040000000370       SUBS0749
9073400100000A0534002001258000000007036A050000261414A060100161414       SUBS0750
A050000000122A040000000371A060100000122A002000000060A002000007003       SUBS0751
A053400100122A050000161414A040200000505A010000007052A012000007056       SUBS0752
A050000161414A040200000512A010000007062A012000007062A053400100122       SUBS0753
A050000161414A040200000474A4100000070648000000007062A007400400006       SUBS0754
A300000061414A050000000125A040000000370A060100000122A050000000125       SUBS0755
A040200007071A300000061414A062100007074A0074004000129300000000000       SUBS0756
A410000007105A050000000123A040200000303A010000007105A412000007105       SUBS0757
A050000000122A040200000370A060100000122A0020000072258000000007106       SUBS0758
A053400100122A050000161414A040200000505A010000007113A012000007117       SUBS0759
A050000161414A040200000512A010000007123A012000007123A053400100122       SUBS0760
A050000161414A040200000474A410000007125A007400400006A300000061414       SUBS0761
A452000000340A002000007153A053400100125A050000161414A040200000503       SUBS0762
8000000007132A010000007136A050000161414A040200000563A410000007153       SUBS0763
A050000000122A0402000003709073400100000A050000161414A040200000534       SUBS0764
A010000007152A050000000122A0402000003709073400100000A050000161414       SUBS0765
A040200000563A410000007153A002000007213A053400100125A050000161414       SUBS0766
A0402000005658000000007156A010000007213A050000000067A060100056077       SUBS0767
A007400400003A300000061414A300000056077A050000000125A040200000370       SUBS0768
A053400157174A060100157174A050000057174A040000000370A060100057174       SUBS0769
A050000000125A0402000003709073400100000A0560001614149475400000000       SUBS0770
9076300000000A0221000004178000000007202A0200000004179413000000000       SUBS0771
A450100000420A060200007554A050000000125A0402000003709073400100000       SUBS0772
A050000007554A060100161414A050000000125A040000000370A060100000122       SUBS0773
A050000000123A040200000303A010000007225A412000007225A050000000122       SUBS0774
A040200000370A060100000122A0500000001238000000007226A060100000121       SUBS0775
A053400100125A050000161414A040200000503A410000007240A050000000123       SUBS0776
A040200000303A010000007237A012000007240A007400400016A050000000367       SUBS0777
A060100000276A002000005430A050000000024A040200000023A410000007255       SUBS0778
A050000000122A040200000370A060100056121A0534001571748000000007252       SUBS0779
A050000000414A060100157174A002000007301A050000000122A060100000126       SUBS0780
A002000007263A050000000126A040000000370A060100000126A050000000126       SUBS0781
A040200000303A010000007267A012000007276A050200000126A053400157174       SUBS0782
A060100157174A050000057174A040000000370A060100057174A002000007260       SUBS0783
8000000007276A050000057174A040200000370A060100057174A002000000024       SUBS0784
A002000056104A002000056105A007400400004A300000000302A007400400013       SUBS0785
A002000007433A0020000073138000000000015A0021000073118000000007311       SUBS0786
A063400207421A007400207421A050000000423A060100000366A050000007320       SUBS0787
A060100007407A002000007410A002000007321A050000000425A060100000366       SUBS0788
A050000007326A060100007407A002000007410A002000007327A050000000426       SUBS0789
A060100000366A050000007334A060100007407A002000007410A002000007335       SUBS0790
8000000007335A050000000427A060100000366A050000007342A060100007407       SUBS0791
A002000007410A002000007343A050000000430A060100000366A050000007350       SUBS0792
A060100007407A002000007410A002000007351A050000000431A060100000366       SUBS0793
A050000007356A060100007407A002000007410A002000007357A050000000432       SUBS0794
A0601000003668000000007361A050000007364A060100007407A002000007410       SUBS0795
A002000007365A050000000433A060100000366A050000007372A060100007407       SUBS0796
A002000007410A002000007373A050000000434A060100000366A050000007400       SUBS0797
A060100007407A002000007410A002000007401A050000000435A060100000366       SUBS0798
A050000007406A0601000074078000000007405A002000007410A002000007416       SUBS0799
A002000007407A050000000024A040200000366A410000007415A050000000370       SUBS0800
A002000007427A002000007407A050000000367A002000007427A007400400005       SUBS0801
9300000000000A463400107421A0634004074279050000400001A062100007410       SUBS0802
90020002000019077400400000A0534002074218000000007431A453400107421       SUBS0803
9002000400001A002000007542A0020000074378000000000021A002100007435       SUBS0804
8000000007435A063400207532A007400207532A050000000337A040000000370       SUBS0805
A060100000337A053400100337A050000000312A060100100337A050000000370       SUBS0806
A060100000340A002000007536A0020000074538000000000020A002100007451       SUBS0807
8000000007451A063400207532A007400207532A050000000312A040000000370       SUBS0808
A060100000312A050000000367A060100000340A002000007536A002000007464       SUBS0809
8000000000016A0021000074628000000007462A063400207532A007400207532       SUBS0810
A053400100337A050000100337A040200000312A410000007473A050000000337       SUBS0811
A040200000370A060100000337A0502000003709076000000002A040000000337       SUBS0812
A410000007502A050000000406A060100000302A002000000051A050000000312       SUBS0813
A040200000370A060100000312A0534001003378000000007506A050000100337       SUBS0814
A040200000312A410000007514A050000000370A060100000340A002000007516       SUBS0815
A050000000367A060100000340A002000007536A0020000075228000000000017       SUBS0816
A0021000075208000000007520A063400207532A007400207532A050000000367       SUBS0817
A060100000337A050000000367A060100000312A050000000367A060100000340       SUBS0818
A002000007536A0074004000059300000000000A463400107532A063400407536       SUBS0819
90020002000019077400400000A053400207532A4534001075329002000400001       SUBS0820
A00740040000593000000000008000000007544A463400107543A063400407547       SUBS0821
90020002000019077400400000A053400207543A4534001075439002000400001       SUBS0822
80000000075559000000000000                                              SUBS0823
$EOF   SUBST     09/15/10  11:23:50    BSS2OBJ 1.0.1                    SUBS0824
