0MADTRN 14504H0000000560766MADTRN 0761180000000000009002100000000       MADT0001
4ASSIGN 0000090021000000004BCDBN  0000190021000000004BNBCD  00002       MADT0002
90021000000004BRAKE  0000390021000000004BREAD  000049002100000000       MADT0003
4BZEL   0000590021000000004CHFILE 0000690021000000004CHNCOM 00007       MADT0004
90021000000004COMARG 0001090021000000004COMPZ  000119002100000000       MADT0005
4DCOMPZ 0001290021000000004ENDRD  0001390021000000004ERRP   00014       MADT0006
90021000000004EXIT   0001590021000000004FILE   000169002100000000       MADT0007
4FINDIN 0001790021000000004FINDN  0002090021000000004FSTATE 00021       MADT0008
90021000000004FWRITE 0002290021000000004GETMEM 000238000000000024       MADT0009
90021000000004IOP    0002490021000000004LZR    000259002100000000       MADT0010
4MADTR2 0002690021000000004NCOM   0002790021000000004OCRBC  00030       MADT0011
90021000000004OPCHK  0003190021000000004PRNTP  000329002100000000       MADT0012
4RDFLXC 0003390021000000004SEEK   0003490021000000004SETEOF 00035       MADT0013
90021000000004SETVBF 0003690021000000004SMEM   000379002100000000       MADT0014
4SUBST  0004090021000000004ZCOMPZ 0004190021000000004ZERO   00042       MADT0015
92560606060609263167312460947216443216094751476263449626060606060       MADT0016
80000000065529230173620501800000000653190100606060608000000006551       MADT0017
92301606073608000000006533906016060606080000000066719606060442124       MADT0018
80000000065659254524604626800000000666696026644523638000000006543       MADT0019
92144606060608000000006670960475146275180000000066209337360606060       MADT0020
80000000066179336060606060800000000653090100000000008000000006532       MADT0021
90160606060608000000006512900000000007480000000066249444624256263       MADT0022
80000000067069636060606060800000000665695125663145248000000006547       MADT0023
92221234262478000000006650951252124222380000000067169665131632522       MADT0024
80000000066519512521242231800000000671796651316325248000000006652       MADT0025
95125212424518000000006631945606060606080000000066429475131456346       MADT0026
80000000066419475131456326800000000664594764452330268000000006653       MADT0027
95125212426468000000006564925452446264780000000067129646060606060       MADT0028
80000000065639254524462626800000000660592664452363318000000006570       MADT0029
92545635170638000000006614931456325514580000000066009256763255145       MADT0030
80000000067149656060606060800000000662394360606060608000000006701       MADT0031
96263216325448000000006613931456325272580000000066259446060606060       MADT0032
80000000066439475146275121800000000663794721646225458000000006577       MADT0033
92567252364638000000006505900000000002480000000067039633051466427       MADT0034
80000000067159663025452565800000000650790000000000318000000006521       MADT0035
90000000011428000000006520900000000076480000000065049000000000023       MADT0036
80000000065029000000000021800000000650190000000000208000000006500       MADT0037
90000000000178000000006473900000000001280000000064729000000000011       MADT0038
80000000066309454633606060800000000664094721646225608000000006573       MADT0039
92551606346608000000006705963512145622680000000067249740000346060       MADT0040
80000000065159000000000102800000000652290000000012248000000006611       MADT0041
93060606060608000000006517900000000011080000000066549512544606060       MADT0042
80000000065239000000001274800000000657192546266060608000000006615       MADT0043
93146456060608000000006555924314425456280000000067229736060606060       MADT0044
97400000000548000000006621934606060606080000000066759606073606060       MADT0045
80000000066749606060606074800000000662294325452325608000000006572       MADT0046
92550643165218000000006470900000000000780000000066649536060606060       MADT0047
80000000065359074260736053800000000653490707070707078000000006537       MADT0048
91307070707078000000006676960652143642580000000067139652523634651       MADT0049
80000000066619513163254664951316325632180000000066609513163252451       MADT0050
80000000067049634647606060800000000670296321632544258000000006707       MADT0051
96422514664638000000006567925456225433180000000065619252124606060       MADT0052
80000000065769256631452460800000000656092521243145478000000006557       MADT0053
92521242451648000000006562925212463214780000000065759256364514560       MADT0054
80000000065469216462256060800000000671096445233060608000000006657       MADT0055
95131456360608000000006606926746060606092674622545628000000006601       MADT0056
92621232364448000000006603926506446633180000000066029262431653124       MADT0057
80000000066369466346606060800000000663494651442163748000000006711       MADT0058
96445236331468000000006655951255064254580000000066279452426314325       MADT0059
80000000066479506431652143800000000663594660606060608000000006612       MADT0060
93144254562318000000006542921434360606080000000066329464444464560       MADT0061
80000000065449215124312431800000000663394645633145648000000006541       MADT0062
92123426247218000000006700962623127456080000000067209666060606060       MADT0063
80000000066779626060606060800000000666395160606060608000000006644       MADT0064
94760606060608000000006616931606060606080000000066109276060606060       MADT0065
80000000066049266060606060800000000657492560606060608000000006556       MADT0066
92460606060608000000006545921606060606080000000065409136060606060       MADT0067
80000000067259746060606060800000000656692545246060608000000006550       MADT0068
92260606060608000000006536911606060606080000000065549236060606060       MADT0069
80000000065279006060606060800000000647690000000000158000000006626       MADT0070
94463510000008000000006646950500000000080000000066659546060606060       MADT0071
80000000065249000000001604800000000647790000000000168000000006721       MADT0072
97025626060608000000006667960433145426080000000064719000000000010       MADT0073
80000000067279777777777777800000000652690000606060608000000006525       MADT0074
90000006060608000000006516900000000010780000000066729606060605100       MADT0075
80000000065139000000000075900000000007680000000066739606060606060       MADT0076
80000000064749000000000013800000000651190000000000608000000006461       MADT0077
90000000000008000000006506900000000003080000000065039000000000022       MADT0078
80000000064639000000000002800000000647590000000000148000000006464       MADT0079
90000000000039000000000004900000000000590000000000068000000006510       MADT0080
90000000000368000000006726977777777000080000000064629000000000001       MADT0081
800000000655392330000000008000000000051C712574012574C710455010446       MADT0082
C710465010456C710475010466C710556010547C710572010563C707230007216       MADT0083
C710606010577C710626010617C710646010626C710670010656C707706007702       MADT0084
C707377007376C714416014413C714405014403C710704010675C711015011011       MADT0085
C7110170110158000000000073C711034011031C714327014326C712410012406       MADT0086
C714332014327C712543012541C714141014136C714147014145C712375012350       MADT0087
C710070010062C714361014357C712621012614C712624012621C712701012676       MADT0088
C712712012702C712717012714C712725012722C712042012036C713120013116       MADT0089
8000000000115C713126013124C713134013126C712502012500C712474012472       MADT0090
C712540012536C712477012475C712510012506C712554012552C712451012427       MADT0091
C712546012544C714044014042C714051014046C714467014466C712272012250       MADT0092
C712142012124C712245012244C712035012034C7120250120238000000000137       MADT0093
C712017012014C711645011631C711545011515C711730011704C711042011037       MADT0094
C711070011054C711310011310C712343012341C712211012207C712551012547       MADT0095
C714466014464C712532012530C712521012517C712527012525C712516012514       MADT0096
C712513012511C712524012522C7125350125338000000000161C714463014461       MADT0097
C711470011456C712557012555C712570012566C712562012560C712565012563       MADT0098
C710311010311C710311010306C712505012503C712573012571C711146011144       MADT0099
C711250011243C710337010335C707402007400C707653007651C710751010742       MADT0100
C7110000107718000000006730A002000007543A0020000067348000000000046       MADT0101
A0021000067328000000006732A063400207526A007400207526A050000056124       MADT0102
A060100002255A450000002236A432000006726A060200002236A450000006510       MADT0103
A062100006744A4500000002369476500000000A060200000236A050000000230       MADT0104
A060100002234A002000006754A050000002234A040000006462A060100002234       MADT0105
A050000002234A0402000002318000000006756A010000006760A012000006767       MADT0106
A053400102234A450000006510A062100006764A4500001021649476500000000       MADT0107
A060200102164A002000006751A450000006467A062100006772A450000000236       MADT0108
9076700000000A450100002236A053400200230A450100202164A060200002254       MADT0109
A050000000230A040000006462A0601000022348000000007002A002000007006       MADT0110
A050000002234A040000006467A060100002234A050000002234A040000006466       MADT0111
A040200000231A010000007013A012000007104A050000002234A040000006466       MADT0112
A060100007536A050000002234A0400000064659073400100000A450000006467       MADT0113
A062100007024A4500001021649076700000000A0602000075378000000007026       MADT0114
A050000002234A0400000064649073400100000A450000006475A062100007034       MADT0115
A4500001021649076700000000A060200007540A050000002234A040000006463       MADT0116
9073400100000A450000006503A062100007044A4500001021649076700000000       MADT0117
A060200007541A050000002234A0400000064629073400100000A450000006506       MADT0118
8000000007052A062100007054A4500001021649076700000000A053400102234       MADT0119
A060200007542A450000006510A062100007062A4500001021649076700000000       MADT0120
A450100007542A450100007541A450100007540A450100007537A053400207536       MADT0121
A450100202164A060200007542A050000002234A0402000002309076500000043       MADT0122
A02210000646780000000070769013100000000A0400000064639073400100000       MADT0123
A050000007542A060100102255A002000007003A050000002234A040200006467       MADT0124
A060100002234A050000002234A0402000002309076500000043A022100006467       MADT0125
9013100000000A040000006464A060100000241A050000000230A040000006462       MADT0126
A060100007542A0500000022348000000007122A040000006467A040200007542       MADT0127
A410000007130A050000000241A040200006462A060100000241A050000002234       MADT0128
A040000006466A040200000231A410000007135A002000000057A050000006510       MADT0129
A060100002235A053400100241A050000006461A060100102255A050000002234       MADT0130
A040000006467A060100002234A0020000071518000000007146A050000002234       MADT0131
A040000006462A060100002234A050000002234A040200000231A010000007155       MADT0132
A012000007171A053400102234A450000002235A062100007161A450000102164       MADT0133
9076700000000A053400100241A450100102255A060200102255A050000002235       MADT0134
A040200006467A060100002235A002000007146A0500000022358000000007172       MADT0135
A060100002235A002000007177A050200006467A040000002235A060100002235       MADT0136
A050000002235A040200006461A010000007203A412000007213A450000002235       MADT0137
A062100007206A4500000065119076700000000A053400100241A450100102255       MADT0138
A060200102255A002000007174A050000000241A040000006462A060100000241       MADT0139
8000000007216A050000000241A060100000241A002000007224A050000000241       MADT0140
A040000006462A060100000241A050000000241A040200006474A010000007230       MADT0141
A012000007234A053400100241A050000006673A060100102255A002000007221       MADT0142
A007400400044A002000007532A0020000072418000000000045A002100007237       MADT0143
8000000007237A063400207526A007400207526A050000000202A040200006514       MADT0144
A410000007245A002000000176A050000006462A060100002234A002000007253       MADT0145
A050000002234A040000006462A060100002234A050000002234A040200006513       MADT0146
A010000007257A012000007266A053400102234A450000006510A062100007263       MADT0147
A45000016141480000000072639476500000000A060200161414A002000007250       MADT0148
A050000006673A060100002255A450000006672A450100061413A060200002254       MADT0149
A050000006463A060100002234A002000007301A050000002234A040000006467       MADT0150
A060100002234A050000002234A040200006513A010000007305A012000007376       MADT0151
A050000002234A0400000064668000000007307A060100007542A050000002234       MADT0152
A0400000064659073400100000A450000006467A062100007316A450000161414       MADT0153
9076700000000A060200007541A050000002234A0400000064649073400100000       MADT0154
A450000006475A062100007326A4500001614149076700000000A060200007540       MADT0155
A050000002234A04000000646390734001000008000000007333A450000006503       MADT0156
A062100007336A4500001614149076700000000A060200007537A050000002234       MADT0157
A0400000064629073400100000A450000006506A062100007346A450000161414       MADT0158
9076700000000A053400102234A060200007536A450000006510A062100007354       MADT0159
A4500001614149076700000000A450100007536A4501000075378000000007357       MADT0160
A450100007540A450100007541A053400207542A450100261414A060200007542       MADT0161
A05600000223494754000000009076300000000A0221000064679013100000000       MADT0162
A0400000064639073400100000A050000007542A060100102255A002000007276       MADT0163
A007400400044A002000007532A050000006673A060100002255A050000006514       MADT0164
8000000007403A060100002234A002000007410A050000002234A040000006462       MADT0165
A060100002234A050000002234A040200006516A010000007414A012000007423       MADT0166
A053400102234A450000006510A062100007420A4500001614149476500000000       MADT0167
A060200161414A002000007405A450000006672A450100061316A060200002254       MADT0168
A4500000064678000000007427A062100007431A4500000613119076700000000       MADT0169
A060200007542A450000006475A062100007436A4500000613129076700000000       MADT0170
A060200007541A450000006503A062100007443A4500000613139076700000000       MADT0171
A060200007540A450000006506A062100007450A4500000613149076700000000       MADT0172
A060200007537A4500000065108000000007453A062100007455A450000061315       MADT0173
9076700000000A450100007537A450100007540A450100007541A450100007542       MADT0174
A450100061310A060200002253A450000006503A062100007467A450000061305       MADT0175
9076700000000A060200007542A450000006506A062100007474A450000061306       MADT0176
9076700000000A060200007541A4500000065108000000007477A062100007501       MADT0177
A4500000613079076700000000A450100007541A450100007542A450100006525       MADT0178
A060200002252A050000006465A060100002234A002000007514A050000002234       MADT0179
A040000006462A060100002234A050000002234A040200006474A010000007520       MADT0180
A012000007524A053400102234A050000006673A0601001022558000000007523       MADT0181
A002000007511A002000000065A0074004000159300000000000A463400107526       MADT0182
A06340040753290020002000019077400400000A053400207526A453400107526       MADT0183
90020004000018000000007543A002000007610A0020000075478000000000044       MADT0184
A0021000075458000000007545A063400207577A007400207577A007400400002       MADT0185
A300000000235A060100007607A450000006467A062100007555A450000007607       MADT0186
9076700000000A060200002237A450000006503A062100007562A450000002237       MADT0187
9476500000000A450100000570A060200002241A450000006503A062100007570       MADT0188
A45000000223790767000000008000000007571A450100006526A060200002240       MADT0189
A050000006727A060100002237A002000007603A0074004000159300000000000       MADT0190
A463400107577A06340040760390020002000019077400400000A053400207577       MADT0191
A45340010757790020004000018000000007610A002000007613A063400214470       MADT0192
A007400214470A007400400010A300000006462A300000000561A050000000561       MADT0193
A060100002166A007400400021A300000002166A300000002165C206471000210       MADT0194
A300000000064A050000000211A040200006461A010000007635A012000007635       MADT0195
A050000006667A060100002206A0020000001778000000007634A002000007702       MADT0196
A450000000211A432000002167A060200014500A050000014500A040200006461       MADT0197
A010000007702A007400400030A300000000211A060100014500A007400400005       MADT0198
A300000014500A060100002206A050000002166A060100002210A050000002165       MADT0199
A060100002207A007400400032A300000002212A0074004000338000000007660       MADT0200
A300000000556A300000006464A050000000556A040200006721A010000007670       MADT0201
A007400400007A300000006461A002000007702A050200006461A060100014500       MADT0202
A050200006461A060100014501A007400400006A300000002166A300000002165       MADT0203
A300000006461A300000014501A300000014500A007400400023A300000006461       MADT0204
8000000007704A040000000226A060100000221A050000000221A040000000226       MADT0205
A060100000222A050000000222A040000000226A060100000223A050000000223       MADT0206
A040000000226A060100000224A050000000224A040000000226A060100000225       MADT0207
A050000000225A040000006462A060100014501A007400400037A300000014501       MADT0208
A0074004000348000000007730A300000000561A300000003154A300000004035       MADT0209
A007400400035A300000000161A007400400036A300000006477A007400400000       MADT0210
A300000002166A300000004716A300000005577A3000000064608000000002165       MADT0211
96060604421248000000000560944212463514580000000002269000000000660       MADT0212
80000000021679000000000134800000000217793777777777779736060606060       MADT0213
96063256031639466024254325966316230606394660704664609444624257324       MADT0214
90000000000009000000000000900000000000096462606060609475125653146       MADT0215
8000000007744A050000006461A060100000563A050000000143A060100056105       MADT0216
A050000000051A060100056104A050000006461A060100065335A050000006461       MADT0217
A060100000571A050000006461A060100000235A050000006461A060100000562       MADT0218
A007400400042C261415077461A050000006462A060100060161A050000006524       MADT0219
A0601000601608000000007770A050000006461A060100077150A007400400020       MADT0220
A300000006665A050000006461A060100002170A050000006646A060100056122       MADT0221
A050000006461A060100056207A050000006673A060100056107A050000006461       MADT0222
A060100073227A050000006461A060100056117A050000006461A060100056116       MADT0223
A050000006461A0601000561158000000010014A050000006461A060100056114       MADT0224
A050000006462A060100056113A050000006461A060100056112A050000006461       MADT0225
A060100056110A050000006462A060100056102A050000006461A060100000207       MADT0226
A050000006461A060100000566A050000006461A060100000240A050000006461       MADT0227
A060100056103A050000006461A0601000007308000000010040A050000000143       MADT0228
A060100056106A050000006673A060100002236A050000006673A060100002223       MADT0229
A050000006673A060100002224A050000006626A060100000570A050000006461       MADT0230
A060100067306A050000006461A060100056120A050000006461A060100000237       MADT0231
A007400400035A300000000161A050000002223A0402000064628000000010064       MADT0232
A010000010070A050000000237A040200006461A010000010073A050000000571       MADT0233
A040000006462A060100000571A007400400004A300000000561C202240002255       MADT0234
A050000006727A060100002237A050000006461A060100002234A002000010106       MADT0235
A050000002234A040000006462A060100002234A050000002234A040200006476       MADT0236
8000000010110A010000010112A012000010155A050000006462A060100002235       MADT0237
A002000010120A050000002235A040000006462A060100002235A050000002235       MADT0238
A040200006467A010000010124A012000010154A050000006467A040200002235       MADT0239
9013100000000A020000006467A0534001022349013100000000A062100010134       MADT0240
A45000010225580000000101349476500000000A060200014501A450000006510       MADT0241
A062100010141A4500000145019076700000000A450100006527A060200014501       MADT0242
A056000006467A0200000022349013100000000A0400000022359073400100000       MADT0243
A050000014501A060100100720A002000010115A0020000101038000000000572       MADT0244
910002301546090130606073608000000010155A050000000717A040200006554       MADT0245
A410000010163A050000006462A060100002223A002000010165A050000006673       MADT0246
A060100002223A050000002223A040200006462A010000010202A050000000712       MADT0247
A040200006527A010000010202A050000000712A040200006673A010000010202       MADT0248
A452000002170A002000010201A0020000001038000000010201A002000000162       MADT0249
A050000006461A060100000203A050000006462A060100000202A050000006461       MADT0250
A060100000227A050000000717A040200006527A010000010214A412000010220       MADT0251
A050000000717A040200006536A010000010232A412000010232A050000000717       MADT0252
A040200006673A010000010232A050000006463A0601000002028000000010225       MADT0253
A050000000717A040200006550A410000010232A050000006462A060100000227       MADT0254
A050000000202A060100000202A002000010240A050000000202A040000006462       MADT0255
A060100000202A050000000202A040200006466A010000010244A012000010260       MADT0256
A053400100202A050000100720A040200006673A010000010257A050000000203       MADT0257
8000000010251A040000006462A060100000203A053400100203A053400200202       MADT0258
A050000200720A060100100727A002000010235A050000000717A040200006554       MADT0259
A010000010304A050000000203A040200006461A010000010304A007400400011       MADT0260
A300000000203A300000000726A060100014501A007400400020A300000014501       MADT0261
A0601000145018000000010275A007400400002A300000014501A060100014501       MADT0262
A450000056122A450100014501A060200056123A002000010306A050000006673       MADT0263
A060100056123A050000002224A040200006462A410000010312A002000000067       MADT0264
A050000000237A040200006461A410000010316A002000000143A050000056121       MADT0265
A04000000646290734001000008000000010321A050000006461A060100161414       MADT0266
A050000006673A060100056111A007400400011A300000006464A300000061413       MADT0267
A040200006566A410000010365A050000056121A040200006464A410000010341       MADT0268
A050000006566A060100000730A002000000143A002000010365A050000061410       MADT0269
A040200006725A410000010365A0500000064668000000010345A060100000202       MADT0270
A002000010352A050000000202A040000006462A060100000202A050000000202       MADT0271
A040200056121A010000010356A012000010364A053400100202A050000161414       MADT0272
A040200006540A410000010363A002000000131A002000010347A002000000175       MADT0273
A050000061413A040200006545A410000010371A0020000000528000000010371       MADT0274
A050000061413A040200006550A410000010375A002000000053A050000061413       MADT0275
A040200006554A410000010401A002000000054A050000061413A040200006556       MADT0276
A410000010405A002000000055A050000061413A040200006574A410000010411       MADT0277
A002000000056A050000061413A040200006604A410000010415A002000000060       MADT0278
8000000010415A050000061413A040200006610A410000010421A002000000061       MADT0279
A050000061413A040200006616A410000010425A002000000062A050000061413       MADT0280
A040200006644A410000010431A002000000063A050000061413A040200006663       MADT0281
A410000010435A002000000070A050000061413A040200006677A410000010441       MADT0282
A0020000002008000000010441A050000061413A040200006720A410000010445       MADT0283
A002000000201A002000000131A007400400011A300000006466A300000061412       MADT0284
A300000061414A040200006700A410000010455A002000000120A002000000131       MADT0285
A007400400011A300000006467A300000061412A300000061414A040200006541       MADT0286
A410000010465A0020000001658000000010465A002000000131A007400400011       MADT0287
A300000006467A300000061412A300000061414A040200006633A410000010475       MADT0288
A002000000051A050000061414A040200006544A410000010525A050000000235       MADT0289
A040200000562A010000010505A412000010505A002000000072A007400400011       MADT0290
A300000006464A300000061403A3000000005708000000010511A007400400041       MADT0291
A300000006466A300000061400A300000061414A060100014501A007400400001       MADT0292
A300000014501A040200006462A060100000235A050000000235A060100000562       MADT0293
A002000000073A050000061405A040200006725A010000010537A007400400011       MADT0294
A300000006466A300000061412A300000061414A0402000066328000000010535       MADT0295
A410000010537A002000000163A007400400011A300000006464A300000061412       MADT0296
A300000061414A040200006542A410000010546A002000000121A002000000131       MADT0297
A007400400011A300000006467A300000061412A300000061414A040200006612       MADT0298
A410000010556A002000000164A050000061412A040200006635A410000010562       MADT0299
8000000010561A002000000150A002000000131A007400400011A300000006467       MADT0300
A300000061412A300000061414A040200006647A410000010572A002000000051       MADT0301
A050000061414A040200006627A410000010576A002000000124A002000000131       MADT0302
A007400400011A300000006467A300000061412A300000061414A040200006655       MADT0303
A4100000106068000000010605A002000000143A050000061414A040200006711       MADT0304
A410000010612A002000000122A050000061414A040200006634A410000010616       MADT0305
A002000000172A002000000131A007400400011A300000006464A300000061412       MADT0306
A300000061414A040200006636A410000010626A002000000113A007400400011       MADT0307
A300000006467A3000000614128000000010631A300000061414A040200006602       MADT0308
A010000010645A050000061414A040200006603A010000010645A050000061414       MADT0309
A040200006601A010000010645A050000061414A040200006607A410000010646       MADT0310
A002000000126A007400400011A300000006463A300000061412A300000061414       MADT0311
A040200006606A410000010655A0020000001178000000010655A002000000131       MADT0312
A007400400011A300000006465A300000061412A300000061414A040200006657       MADT0313
A010000010667A050000061414A040200006710A410000010670A002000000171       MADT0314
A050000061414A040200006546A410000010674A002000000102A002000000131       MADT0315
A007400400011A300000006466A300000061412A3000000614148000000010701       MADT0316
A040200006575A410000010704A002000000123A007400400011A300000006467       MADT0317
A300000061412A300000061414A040200006562A410000010713A002000000156       MADT0318
A050000061414A040200006557A410000010717A002000000153A050000061414       MADT0319
A040200006560A410000010723A002000000155A007400400011A300000006466       MADT0320
8000000010725A300000061412A300000061414A040200006576A410000010732       MADT0321
A002000000166A007400400011A300000006464A300000061412A300000061414       MADT0322
A040200006561A410000010741A002000000157A002000000131A007400400011       MADT0323
A300000006467A300000061412A300000061414A040200006567A410000010751       MADT0324
A0020000000778000000010751A050000061414A040200006707A410000010755       MADT0325
A002000000122A050000061414A040200006702A410000010761A002000000071       MADT0326
A007400400011A300000006464A300000061412A300000061414A040200006704       MADT0327
A410000010770A002000000125A002000000131A007400400011A300000006467       MADT0328
A300000061412A3000000614148000000010775A040200006660A410000011000       MADT0329
A002000000154A050000061414A040200006662A410000011004A002000000152       MADT0330
A050000061414A040200006661A410000011010A002000000160A002000000131       MADT0331
A050000000235A040200000562A010000011020A412000011020A050000006466       MADT0332
A060100000557A002000000151A0074004000418000000011021A300000006463       MADT0333
A300000061373A060100014501A450000006506A062100011027A450000014501       MADT0334
9076700000000A060200056122A050000056124A040200006673A010000011037       MADT0335
A050000077150A040200006462A060100077150A050000060161A040200006462       MADT0336
A010000011310A050000006462A060100000207A0500000064628000000011045       MADT0337
A060100056120A050000006462A060100000243A050000006461A060100000554       MADT0338
A050000006673A060100056124A050000000243A0400000064629073400100000       MADT0339
A050000160161A040200006462A060100014501A007400400002A300000014501       MADT0340
A060100014501A450000056122A450100014501A060200061410A050000006713       MADT0341
8000000011071A060100061413A050000006676A060100061412A050000006677       MADT0342
A060100061411A050000006537A060100061407A050000006534A060100061406       MADT0343
A050000006535A060100061405A053400100243A050000160161A040000006471       MADT0344
A060100056121A053400156121A050000006664A060100161414A050000006462       MADT0345
A0601000002028000000011115A002000011121A050000000202A040000006462       MADT0346
A060100000202A053400200243A050000000202A040200260161A010000011126       MADT0347
A012000011141A050000000243A040000000202A040000006462A060100014501       MADT0348
A050000000202A0400000064709073400100000A053400214501A050000260161       MADT0349
A060100161414A0020000111168000000011141A050000000173A060100056106       MADT0350
A002000000051A050000000174A060100056106A050000006572A060100061413       MADT0351
A050000006622A060100061412A050000006674A060100061411A050000006675       MADT0352
A060100061407A050000000243A040000006462A040200011161A300000060161       MADT0353
A062100011164A00740040000293000000000008000000011165A060100014501       MADT0354
A450000056122A450100014501A060200061406A050000006621A060100061405       MADT0355
A050000000554A040000006464A060100000554A050000000554A040200006463       MADT0356
9073400100000A050000061406A060100100554A050000000243A040200011205       MADT0357
A300000060161A062100011210A00740040000293000000000008000000011211       MADT0358
A060100014501A007400400025A300000014501A060100014501A450000006467       MADT0359
A062100011220A4500000145019476500000000A032200006723A060200014501       MADT0360
A050000000554A0402000064629073400100000A050000014501A060100100554       MADT0361
A053400100554A050000006722A060100100554A050000006470A060100056121       MADT0362
8000000011235A053400200243A050000000243A040000260161A040000006463       MADT0363
A060100000243A002000000051A053400100243A050000160161A040200006524       MADT0364
A010000011250A002000000144A050000006462A060100060161A050000006524       MADT0365
A060100060160A050000006461A060100000207A050000000554A040000006462       MADT0366
A0601000561218000000011261A050000006462A060100061414A002000011267       MADT0367
A050000061414A040000006462A060100061414A050000061414A040200000554       MADT0368
A010000011301A050000061414A0400000064639073400100000A053400261414       MADT0369
A050000200554A060100161414A002000011264A050000006555A060100061413       MADT0370
A050000006615A0601000614128000000011305A050000000145A060100056106       MADT0371
A002000000051A050000056123A060100056124A050000000227A060100056110       MADT0372
A050000000730A040200006566A010000011322A050000000730A040200006571       MADT0373
A410000011323A002000000100A050000000143A060100056106A050000006461       MADT0374
A060100056120A050000006523A0601000571738000000011331A050000006461       MADT0375
A060100002170A050000002223A060100002224A050000002224A040200006462       MADT0376
A410000011436A050000006654A060100056111A050000006463A060100000203       MADT0377
A002000011350A050000000203A040000006462A060100000203A053400100203       MADT0378
A050000100720A040200006673A410000011355A0020000113458000000011355       MADT0379
A050000000203A040200006462A060100000203A050000000203A040000006462       MADT0380
A060100000202A002000011367A050000000202A040000006462A060100000202       MADT0381
A050000000202A040200006516A010000011373A012000011402A050000000202       MADT0382
A0402000002039073400100000A053400200202A050000200720A060100161414       MADT0383
8000000011401A002000011364A050000000202A040200000203A060100000202       MADT0384
A002000011411A050000000202A040000006462A060100000202A050000000202       MADT0385
A040200006516A010000011415A012000011421A053400100202A050000006673       MADT0386
A060100161414A002000011406A050000006516A060100056121A050000006523       MADT0387
A0601000571738000000011425A050000000237A040200006461A410000011435       MADT0388
A050000006461A060100002224A050000000103A060100056106A002000000167       MADT0389
A002000000103A050000006462A060100000237A050000006673A060100056111       MADT0390
A050000006461A060100056121A050000006461A060100061414A050000006461       MADT0391
A060100000566A0500000064618000000011451A060100000240A050000006461       MADT0392
A060100002263A050000006462A060100000565A050000006470A060100000203       MADT0393
A002000011464A050000000203A040000006462A060100000203A050000000203       MADT0394
A040200006517A010000011470A012000012035A052000000240A002000011474       MADT0395
A452000000566A002000011475A0020000001428000000011475A053400100203       MADT0396
A050000100720A040200006673A010000012034A050000100720A040200006611       MADT0397
A410000012014A053400156121A050000161414A040200006536A010000011511       MADT0398
A012000011566A050000161414A040200006527A010000011515A412000011566       MADT0399
A050000056121A060100000204A002000011523A0502000064628000000011521       MADT0400
A040000000204A060100000204A050000000204A040200000565A010000011527       MADT0401
A412000011545A053400100204A050000161414A040200006673A010000011544       MADT0402
A050000161414A040200006536A010000011537A012000011543A050000161414       MADT0403
A040200006527A010000011544A012000011544A002000011545A002000011520       MADT0404
8000000011545A050000000204A040000006462A040200011550A300000061414       MADT0405
A062100011557A050000056121A040200000204A060100014501A007400400041       MADT0406
A3000000145019300000000000A060100014501A007400400001A300000014501       MADT0407
A040000000203A060100002263A002000011704A053400156121A050000161414       MADT0408
A0402000066738000000011571A410000011631A050000056121A060100000204       MADT0409
A002000011600A050200006462A040000000204A060100000204A050000000204       MADT0410
A040200000565A010000011604A412000011611A053400100204A050000161414       MADT0411
A040200006673A410000011611A002000011575A053400100204A050000161414       MADT0412
A040200006536A0100000116168000000011615A012000011626A050000161414       MADT0413
A040200006527A010000011622A412000011626A050000000204A040200000565       MADT0414
A010000011627A012000011627A002000000140A002000000141A002000011704       MADT0415
A007400400011A300000006467A300000061412A040200006634A410000011703       MADT0416
A050000061413A040200006604A4100000117038000000011641A050000056121       MADT0417
A040200006470A010000011703A412000011703A050000000203A040000006462       MADT0418
9073400200000A050000200720A060100000564A050000000203A040000006463       MADT0419
A060100000204A002000011661A050000000204A040000006462A060100000204       MADT0420
A050000000204A040200006517A010000011665A0120000116728000000011665       MADT0421
A053400100204A050000100720A040200000564A010000011672A002000011656       MADT0422
A050000000204A060100002263A050000000204A040200006517A010000011702       MADT0423
A412000011702A050000006462A060100000240A002000011704A002000000137       MADT0424
A050000000203A060100000204A002000011712A050000000204A040000006462       MADT0425
8000000011711A060100000204A452000000240A002000011720A053400100204       MADT0426
A050000100720A040200000564A010000011745A050000000204A040200006517       MADT0427
A010000011724A012000011745A050000000204A040200002263A010000011730       MADT0428
A012000011745A050000056121A040000006462A060100056121A050000056121       MADT0429
A0402000065228000000011735A010000011740A412000011740A002000000136       MADT0430
A053400156121A053400200204A050000200720A060100161414A002000011707       MADT0431
A050000000204A040200006462A060100000203A452000000240A002000011774       MADT0432
A050000000204A040200006517A010000011757A412000011757A002000000135       MADT0433
A053400100204A0500001007208000000011761A040200000564A410000011772       MADT0434
A050000006461A060100000240A050000000204A060100000203A050000056121       MADT0435
A040000006463A060100000565A002000000137A002000012006A050000000204       MADT0436
A040200002263A010000012000A012000012006A050000006462A060100000566       MADT0437
A050000002263A040200006515A0601000022638000000012005A002000000135       MADT0438
A050000006461A060100000566A050000056121A040000006462A060100000565       MADT0439
A002000000135A050000056121A040000006462A060100056121A050000056121       MADT0440
A040200006522A010000012030A412000012030A050000006463A060100000557       MADT0441
A050000006462A060100002170A002000000151A0534001561218000000012031       MADT0442
A053400200203A050000200720A060100161414A002000011461A002000000103       MADT0443
A050000061407A040200006725A010000012042A002000000132A050000056121       MADT0444
A060100000202A002000012050A050200006462A040000000202A060100000202       MADT0445
A050000000202A040200012052A300000061414A062100012055A007400400031       MADT0446
80000000120559300000000000A410000012060A002000012045A053400100202       MADT0447
A050000161414A040200006722A010000012065A002000000131A007400400020       MADT0448
A300000006665A060100014501A007400400002A300000014501A060100014501       MADT0449
A450000056122A450100014501A060200061411A050000006725A060100061410       MADT0450
A0500000002028000000012101A040000006462A040200012103A300000061414       MADT0451
A062100012112A050000056121A040200000202A060100014501A007400400011       MADT0452
A3000000145019300000000000A300000061407A007400400017A300000061407       MADT0453
A050000006467A060100056121A050000006467A060100002256A050000006462       MADT0454
A060100000204A0500000022568000000012125A060100000203A002000012132       MADT0455
A050000000203A040000006462A060100000203A053400100203A050000161414       MADT0456
A040200006621A010000012142A050000161414A040200006722A010000012142       MADT0457
A002000012127A050000002256A040200012144A300000061414A062100012153       MADT0458
A050000000203A040200002256A0601000145018000000012151A007400400011       MADT0459
A3000000145019300000000000A060100014501A007400400020A300000014501       MADT0460
A060100014501A007400400002A300000014501A060100014501A450000056122       MADT0461
A450100014501A053400100204A060200160161A053400100203A050000161414       MADT0462
A040200006722A410000012202A050000000204A0400000064628000000012175       MADT0463
A060100000204A050000000203A040000006462A060100002256A002000000133       MADT0464
A050000006621A060100061406A050000000147A060100056106A002000000146       MADT0465
A050000061411A060100056124A050000006464A060100056121A050000006462       MADT0466
A060100000203A002000012221A050000000203A040000006462A060100000203       MADT0467
8000000012221A050000000203A040200000204A010000012225A012000012245       MADT0468
A053400200203A050000260161A060100061411A007400400002A300000000203       MADT0469
A060100014501A450000006503A062100012236A4500000145019076700000000       MADT0470
A450100006724A060200002236A050000000134A060100056106A002000000051       MADT0471
A0020000122168000000012245A050000006673A060100002236A002000000143       MADT0472
A050000006465A060100000202A002000012256A050000000202A040000006462       MADT0473
A060100000202A050000000202A040200056121A010000012262A012000012272       MADT0474
A050000000202A040200012264A300000061414A062100012267A007400400031       MADT0475
9300000000000A4100000122728000000012271A002000012253A050000000202       MADT0476
A040200056121A010000012303A012000012303A053400100202A050000161414       MADT0477
A040200006722A010000012303A002000000131A050000000202A040200056121       MADT0478
A010000012330A412000012330A050000000202A040200006466A060100014501       MADT0479
A007400400011A300000014501A3000000614078000000012315A060100014501       MADT0480
A007400400020A300000014501A060100014501A007400400002A300000014501       MADT0481
A060100014501A450000056122A450100014501A060200061411A002000012337       MADT0482
A050000000202A040200006466A060100014501A007400400011A300000014501       MADT0483
A300000061407A300000061411A050000006464A0601000561218000000012341       MADT0484
A050000006705A060100061413A050000006573A060100061412A050000006462       MADT0485
A060100056120A002000000051A050000061405A040200006527A010000012354       MADT0486
A412000012360A050000061405A040200006536A010000012364A412000012364       MADT0487
A050000056121A040200006467A010000012364A012000012375A050000061406       MADT0488
8000000012365A040200006527A010000012370A412000012375A050000061406       MADT0489
A040200006536A010000012374A012000012375A002000000075A050000056121       MADT0490
A040200006466A410000012405A050000006467A060100056121A050000006527       MADT0491
A060100061406A002000000075A002000000131A050000006640A060100061413       MADT0492
A0500000066308000000012411A060100061412A050000006462A060100057173       MADT0493
A050000006463A060100057172A050200006464A060100057171A050200006465       MADT0494
A060100057170A050200006466A060100057167A050000006523A060100057166       MADT0495
A002000000051A050000006466A060100000202A002000012435A050000000202       MADT0496
A040000006462A0601000002028000000012435A050000000202A040200012437       MADT0497
A300000061414A062100012442A0074004000319300000000000A410000012451       MADT0498
A050000000202A040200056121A010000012450A012000012451A002000012432       MADT0499
A050000000202A040200056121A010000012455A012000012456A002000000131       MADT0500
A050000006705A060100061413A0500000065738000000012461A060100061412       MADT0501
A450000056122A450100006462A060200061411A050000006464A060100056121       MADT0502
A050000006462A060100056120A002000000051A050000006463A060100056111       MADT0503
A007400400026A050000006465A060100056111A007400400026A050000006466       MADT0504
A060100056111A007400400026A050000006467A0601000561118000000012505       MADT0505
A007400400024A050000006470A060100056111A007400400026A050000006471       MADT0506
A060100056111A007400400024A050000006472A060100056111A007400400024       MADT0507
A050000006473A060100056111A007400400024A050000006474A060100056111       MADT0508
A007400400024A050000006475A060100056111A007400400024A050000006477       MADT0509
8000000012531A060100056111A007400400024A050000006500A060100056111       MADT0510
A007400400024A050000006501A060100056111A007400400026A050000006502       MADT0511
A060100056111A007400400026A050000006503A060100056111A007400400026       MADT0512
A050000006504A060100056111A007400400026A050000006462A060100056111       MADT0513
A0074004000268000000012555A050000006500A060100056111A007400400026       MADT0514
A050000006474A060100056111A007400400026A050000006471A060100056111       MADT0515
A007400400026A050000006472A060100056111A007400400026A050000006473       MADT0516
A060100056111A007400400026A050000056121A040200006461A410000012600       MADT0517
A002000056106A0500000064678000000012601A060100000727A050000006461       MADT0518
A060100000230A050000006462A060100000231A050000006461A060100002164       MADT0519
A050000006461A060100000567A050000006461A060100000555A050000000727       MADT0520
A040200006467A010000012621A012000012621A002000000111A050000000230       MADT0521
A040000006462A060100000230A0500000002308000000012625A040200056121       MADT0522
A010000012631A412000012631A002000000115A050000056120A040200006462       MADT0523
A410000012635A002000000110A050000000231A060100000231A002000012643       MADT0524
A050000000231A040000006462A060100000231A050000000231A040200006520       MADT0525
A010000012647A012000012676A053400200231A0500002571748000000012651       MADT0526
9076000000003A060100057174A050000057174A040200000230A010000012657       MADT0527
A012000012662A050000057174A040200006523A410000012663A002000000107       MADT0528
A050000057174A040200000230A410000012675A053400100231A050000157174       MADT0529
A040200006461A010000012674A012000012674A002000000106A002000000110       MADT0530
8000000012675A002000012640A053400200230A050000261414A060100000242       MADT0531
A002000000112A050000000230A040200012704A300000061414A062100012710       MADT0532
A007400400012A3000000064629300000000000A300000000726A050000006461       MADT0533
A060100000727A050000000727A040000006462A060100000727A053400200727       MADT0534
A0500002007278000000012721A060100000242A050000000242A040200006664       MADT0535
A410000012731A050000006462A040200000555A060100000555A002000013107       MADT0536
A052000000207A002000013100A050000000555A040200006462A410000013100       MADT0537
A050000000242A040200006611A410000013073A050000002164A060100000232       MADT0538
A002000012747A0502000064628000000012745A040000000232A060100000232       MADT0539
A053400100232A050000102164A040200006527A010000012754A412000012765       MADT0540
A050000102164A040200006536A010000012760A012000012765A050000000232       MADT0541
A040200000567A010000012764A412000012765A002000012744A050000000232       MADT0542
A040200002164A410000013012A0500000002308000000012771A040000006462       MADT0543
9073400200000A050000261414A060100000234A050000000230A040000006463       MADT0544
A060100000233A002000013004A050000000233A040000006462A060100000233       MADT0545
A053400100233A050000161414A040200000234A010000013011A002000013001       MADT0546
A002000013032A050000000232A040000006462A0402000130158000000013015       MADT0547
A300000002164A062100013024A050000002164A040200000232A060100014501       MADT0548
A007400400041A3000000145019300000000000A060100014501A007400400001       MADT0549
A300000014501A040000000230A060100000233A050000000230A060100000230       MADT0550
A002000013040A050000000230A040000006462A060100000230A050000000230       MADT0551
8000000013041A040200000233A010000013044A012000013061A050000002164       MADT0552
A040000006462A060100002164A050000002164A040200006521A010000013054       MADT0553
A412000013054A002000000114A053400102164A053400200230A050000261414       MADT0554
A060100102164A002000013035A050000002164A040000006462A060100000567       MADT0555
A0500000002308000000013065A040200006462A060100000230A050000006467       MADT0556
A060100000727A002000000105A002000013077A050000000242A040200006673       MADT0557
A410000013077A002000000105A002000013107A050000000555A040200006461       MADT0558
A410000013107A050000000242A040200006673A410000013107A002000000105       MADT0559
A050000002164A0400000064628000000013111A060100002164A050000002164       MADT0560
A040200006521A010000013120A412000013120A007400400014A300000006507       MADT0561
A053400102164A050000000242A060100102164A002000000105A050000006461       MADT0562
A060100000232A050000000232A0400000064679076000000002A040000002164       MADT0563
A010000013733A412000013733A0500000002328000000013135A040000006462       MADT0564
A040200013137A300000002164A062100013143A007400400011A300000006467       MADT0565
9300000000000A060100000230A050000000232A0400000064709073400200000       MADT0566
A050000202164A060100000231A007400400043A300000006715A300000006574       MADT0567
A010000013250A007400400047A300000006472A0500000064618000000013161       MADT0568
A060100000555A050000006461A060100000731A050000006473A060100000233       MADT0569
A002000013172A050000000233A040000006462A060100000233A050000000233       MADT0570
A040200002164A010000013176A012000013247A053400100233A050000102164       MADT0571
A040200006664A410000013206A050000006462A040200000555A060100000555       MADT0572
8000000013205A002000013246A050000000555A040200006461A410000013246       MADT0573
A053400100233A050000102164A040200006725A410000013221A050000000731       MADT0574
A040000006462A060100000731A002000013246A053400100233A050000102164       MADT0575
A040200006621A410000013231A050000000731A040200006462A060100000731       MADT0576
A0020000132468000000013231A050000000731A040200006461A410000013246       MADT0577
A053400100233A050000102164A040200006722A410000013246A050000000233       MADT0578
A040000006462A060100000232A007400400047A300000006461A002000000116       MADT0579
A002000013167A002000013733A007400400043A300000006703A300000006611       MADT0580
A010000013263A0074004000478000000013255A300000006471A007400400047       MADT0581
A300000006501A007400400047A300000006505A002000013733A007400400043       MADT0582
A300000006705A300000006574A010000013274A007400400047A300000006472       MADT0583
A007400400047A300000006475A002000013733A007400400043A300000006577       MADT0584
A300000006574A010000013303A0074004000478000000013301A300000006471       MADT0585
A002000013733A007400400043A300000006637A300000006635A010000013314       MADT0586
A007400400047A300000006467A007400400047A300000006473A002000013733       MADT0587
A007400400043A300000006643A300000006625A010000013325A007400400047       MADT0588
A300000006471A007400400047A300000006500A0020000137338000000013325       MADT0589
A007400400043A300000006555A300000006616A010000013343A053400102164       MADT0590
A050000102164A040200006722A410000013340A050000002164A040200006462       MADT0591
A060100002164A007400400047A300000006473A002000013733A007400400043       MADT0592
A300000006613A300000006663A010000013352A007400400047A300000006471       MADT0593
8000000013351A002000013733A007400400043A300000006701A300000006574       MADT0594
A010000013363A007400400047A300000006473A007400400047A300000006501       MADT0595
A002000013733A007400400043A300000006572A300000006623A010000013372       MADT0596
A007400400047A300000006475A002000013733A007400400043A300000006713       MADT0597
A3000000067148000000013375A010000013403A007400400047A300000006470       MADT0598
A007400400047A300000006477A002000013733A007400400043A300000006600       MADT0599
A300000006545A010000013414A007400400047A300000006472A007400400047       MADT0600
A300000006503A002000013733A007400400043A300000006614A300000006545       MADT0601
A010000013425A0074004000478000000013421A300000006472A007400400047       MADT0602
A300000006503A002000013733A007400400043A300000006570A300000006635       MADT0603
A010000013436A007400400047A300000006467A007400400047A300000006472       MADT0604
A002000013733A007400400043A300000006605A300000006635A010000013447       MADT0605
A007400400047A300000006472A0074004000478000000013445A300000006501       MADT0606
A002000013733A007400400043A300000006563A300000006712A010000013460       MADT0607
A007400400047A300000006465A007400400047A300000006470A002000013733       MADT0608
A007400400043A300000006564A300000006663A010000013471A007400400047       MADT0609
A300000006465A007400400047A300000006470A0020000137338000000013471       MADT0610
A007400400043A300000006653A300000006663A010000013502A007400400047       MADT0611
A300000006466A007400400047A300000006475A002000013733A007400400043       MADT0612
A300000006645A300000006635A010000013513A007400400047A300000006467       MADT0613
A007400400047A300000006476A002000013733A007400400043A300000006641       MADT0614
8000000013515A300000006635A010000013524A007400400047A300000006467       MADT0615
A007400400047A300000006476A002000013733A007400400043A300000006642       MADT0616
A300000006631A010000013537A007400400047A300000006467A007400400047       MADT0617
A300000006476A007400400047A300000006505A002000013733A007400400043       MADT0618
A3000000066528000000013541A300000006712A010000013550A007400400047       MADT0619
A300000006466A007400400047A300000006473A002000013733A007400400043       MADT0620
A300000006717A300000006663A010000013561A007400400047A300000006467       MADT0621
A007400400047A300000006474A002000013733A007400400043A300000006651       MADT0622
A300000006631A0100000135748000000013565A007400400047A300000006466       MADT0623
A007400400047A300000006475A007400400047A300000006502A002000013733       MADT0624
A007400400043A300000006716A300000006616A010000013607A007400400047       MADT0625
A300000006467A007400400047A300000006476A007400400047A300000006503       MADT0626
A002000013733A007400400043A3000000066508000000013611A300000006556       MADT0627
A010000013622A007400400047A300000006466A007400400047A300000006472       MADT0628
A007400400047A300000006477A002000013733A007400400043A300000006716       MADT0629
A300000006554A010000013635A007400400047A300000006467A007400400047       MADT0630
A300000006473A007400400047A300000006500A0020000137338000000013635       MADT0631
A007400400043A300000006547A300000006545A010000013652A007400400047       MADT0632
A300000006473A007400400047A300000006502A007400400047A300000006505       MADT0633
A007400400047A300000006507A002000013733A007400400043A300000006563       MADT0634
A300000006616A010000013667A007400400047A300000006465A007400400047       MADT0635
8000000013661A300000006470A007400400047A300000006475A007400400047       MADT0636
A300000006502A002000013733A007400400043A300000006656A300000006706       MADT0637
A010000013700A007400400047A300000006470A007400400047A300000006475       MADT0638
A002000013733A007400400043A300000006624A300000006663A010000013733       MADT0639
A0074004000478000000013705A300000006466A007400400047A300000006500       MADT0640
A050000006501A060100000232A002000013716A050000000232A040000006462       MADT0641
A060100000232A053400100232A050000102164A040200006722A010000013723       MADT0642
A002000013713A007400400047A300000006462A007400400047A300000006467       MADT0643
A007400400047A3000000065008000000013731A007400400047A300000006503       MADT0644
A0020000137648000000000043A0021000137348000000013734A063400213750       MADT0645
A007400213750A050000000231A040200000024A410000013746A050000000230       MADT0646
A040200000024A410000013746A050000006462A0020000137479475400000000       MADT0647
A0020000137609300000000000A463400113750A0634004137609050000400001       MADT0648
A0621000137429050000400002A06210001373790020002000018000000013760       MADT0649
9077400400000A053400213750A4534001137509002000400001A002000014042       MADT0650
A0020000137708000000000047A0021000137668000000013766A063400214030       MADT0651
A007400214030A050000002164A040000006462A060100002164A050000002164       MADT0652
A040200006521A010000014000A412000014000A002000000127A050000000232       MADT0653
A040000000024A060100000234A050000002164A060100000233A002000014011       MADT0654
A050200006462A040000000233A060100000233A0500000002338000000014012       MADT0655
A040200000234A010000014023A050000000233A040200006462A053400100233       MADT0656
9073400200000A050000202164A060100102164A002000014006A053400100233       MADT0657
A050000006673A060100102164A002000014036A0074004000159300000000000       MADT0658
A463400114030A0634004140369050000400001A0621000140019002000200001       MADT0659
80000000140369077400400000A053400214030A4534001140309002000400001       MADT0660
A050000006673A060100000236A050000006462A060100000230A050000000230       MADT0661
A040000006512A060100000231A050000000231A040200002164A010000014057       MADT0662
A412000014057A050000002164A060100000231A050000000231A040200000230       MADT0663
A0400000064628000000014062A060100014501A007400400002A300000014501       MADT0664
A060100002217A050000006512A040000000230A040200000231A060100014501       MADT0665
A007400400002A300000014501A060100002215A050000000235A040000006462       MADT0666
A060100000235A452000056102A002000014107A007400400046A007400400022       MADT0667
A300000002166C2022400022558000000014106A060100002273A452000056113       MADT0668
A0020000141118000000002213905546060606097323600373239606060606060       MADT0669
92301736260609606060606060923017360606092306732304739013060607360       MADT0670
8000000014111A050000000231A040200002164A410000014115A002000056106       MADT0671
A050000006673A060100056124A050000006673A060100002236A050000000236       MADT0672
A040200006673A410000014127A050000006532A060100000236A002000014132       MADT0673
A050000000236A040000006530A060100000236A050000000231A040000006462       MADT0674
A0601000002308000000014135A002000000130A050000000730A040200006571       MADT0675
A410000014147A050000000101A060100056105A007400400014A300000006505       MADT0676
A050000000143A060100056105A050000006461A060100000730A050000006673       MADT0677
A060100056124A050000073227A040200006461A410000014157A002000000076       MADT0678
A050000006613A0601000614138000000014161A050000006663A060100061412       MADT0679
A050000006462A060100056120A050000006462A060100000206A002000014173       MADT0680
A050000000206A040000006467A060100000206A050000000206A040200073227       MADT0681
A010000014177A012000014327A050000006463A060100000204A050000000206       MADT0682
A060100000203A002000014207A0500000002038000000014205A040000006462       MADT0683
A060100000203A050000000203A040200073227A010000014213A012000014312       MADT0684
A050000000206A0400000064669076000000002A040000000203A010000014221       MADT0685
A012000014312A050000000204A0400000064629073400100000A053400200203       MADT0686
A050000273227A060100161414A050000000204A0400000064638000000014231       MADT0687
A060100000204A050000006462A060100000205A002000014240A050000000205       MADT0688
A040000006462A060100000205A053400100205A053400200203A050000167306       MADT0689
A040200273227A010000014252A050000000205A040200067306A010000014251       MADT0690
A012000014252A002000014235A050000000203A040200073227A010000014262       MADT0691
8000000014255A050000000206A0400000064669076000000002A040000000203       MADT0692
A410000014276A050000000205A040200067306A010000014272A412000014272       MADT0693
A053400100204A050000006673A060100161414A002000014275A053400100204       MADT0694
A050000006617A060100161414A002000014311A050000000205A040200067306       MADT0695
A0100000143068000000014301A412000014306A053400100204A050000006722       MADT0696
A060100161414A002000014311A053400100204A050000006620A060100161414       MADT0697
A002000014204A050000000204A060100056121A050000000203A040200073227       MADT0698
A010000014323A412000014323A050000000076A060100056106A002000014325       MADT0699
A050000000074A0601000561068000000014325A002000000051A002000014170       MADT0700
A050000056107A040200006673A410000014337A050000006670A060100061412       MADT0701
A050000006543A060100061411A002000014343A050000006666A060100061412       MADT0702
A050000006615A060100061411A050000006565A060100061413A450000056122       MADT0703
A450100006462A060200056124A0500000064628000000014351A060100056120       MADT0704
A050000006464A060100056121A050000000104A060100056106A002000000051       MADT0705
A007400400013A300000000561A007400400016A300000002166A452000056102       MADT0706
A002000014374A050000000563A040000006462A060100000563A007400400027       MADT0707
A300000006671A300000002166A002000014403A0074004000328000000014375       MADT0708
A3000000021768000000002171977777777777796026314325339442124635145       MADT0709
9465160314560943256025515194751462221228000000014376A007400400032       MADT0710
A3000000022728000000002264977777777777796242336060609466645605131       MADT0711
96225602163609216325247364943256023512594421246026318000000014400       MADT0712
A007400400003A007400400007A300000006461A050000006462A060100000202       MADT0713
A050000006513A060100000203A050000006533A060100002230A050000006551       MADT0714
A060100002227A050000000235A040000006462A060100000235A452000056102       MADT0715
A002000014425A007400400045A007400400022A300000002166C202240002255       MADT0716
8000000014424A060100002273A050000000202A040200006462A410000014460       MADT0717
A050000006514A060100000202A050000006516A060100000203A050000006531       MADT0718
A060100002230A050000006552A060100002227A050000006514A060100000204       MADT0719
A002000014446A050000000204A040000006462A060100000204A050000000204       MADT0720
A0402000065168000000014450A010000014452A012000014460A053400100204       MADT0721
A050000161414A040200006673A010000014457A002000000066A002000014443       MADT0722
80000000022259546060606060973230373230592301606073609606060606060       MADT0723
9516073606060962010073013090130606073608000000014460A002000056106       MADT0724
A050000006571A060100000730A002000000170A007400400014A300000000557       MADT0725
A007400400040A0074004000159300000000000A463400114470A063400414474       MADT0726
90020002000019077400400000A053400214470A4534001144709002000400001       MADT0727
80000000145029000000000000                                              MADT0728
$EOF   MADTRN    09/15/10  16:11:52    BSS2OBJ 1.0.1                    MADT0729
