0ADJPRB 00140H0000000774616ADJPRB 0003180000000000009002100000000       ADJP0001
4EXIT   000008000000000024900000000003080000000000229000000000000       ADJP0002
80000000000269000000000060800000000002590000000000448000000000023       ADJP0003
9000000000001800000000002792330000000008000000000002C700113000112       ADJP0004
8000000000030A002000000033A063400200115A007400200115A050000000023       ADJP0005
A060100000003A002000000041A050000000003A040000000023A060100000003       ADJP0006
A050000000003A040200000010A010000000045A012000000113A056000000003       ADJP0007
A02000000001190131000000009076000000002A040000000025A053400200003       ADJP0008
A0601000001348000000000054A450000000024A432000200020A060200000135       ADJP0009
A450000000134A062100000062A4500000001359476500000000A060200000021       ADJP0010
A050000000021A040200000026A010000000072A050000000021A040200000022       ADJP0011
A410000000073A002000000002A050000000003A0400000000239073400200000       ADJP0012
A450000000024A4320002000128000000000100A060200000135A450000000024       ADJP0013
A062100000104A4500000000219076700000000A450100000135A450100000012       ADJP0014
A060200000024A050000000024A002000000130A002000000036A002000000024       ADJP0015
80000000000139000000007700900000077000090000770000009007700000000       ADJP0016
90000000000029000000000000800000000000490000000000779000000007777       ADJP0017
90000007777779000077777777900000000000590000000000069600000000000       ADJP0018
800000000002190000000000008000000000114A0074004000009300000000000       ADJP0019
A463400100115A0634004001309050000400001A062100000054A062100000076       ADJP0020
A062100000107A0621000001109050000400002A0621000001139002000200001       ADJP0021
9077400400000A053400200115A45340010011590020004000018000000000136       ADJP0022
9000000000000                                                           ADJP0023
$EOF   ADJPRB    11/30/11  09:31:47    BSS2OBJ 1.0.1                    ADJP0024
