0BPNCH  00744H0000000756626BPNCH  002546BPUDL  002468000000000000       BPNC0001
90021000000004BINEOF 0000090021000000004BPNCHI 000019002100000000       BPNC0002
4BPUNCH 0000290021000000004CHFILE 0000390021000000004CLOSE  00004       BPNC0003
90021000000004ERR    0000590021000000004EXIT   000069002100000000       BPNC0004
4FLIP1  0000790021000000004FSTATE 0001090021000000004OPEN   00011       BPNC0005
90021000000004RDFILE 00012951252124222680000000002339000000000661       BPNC0006
80000000002309000000000043900000000012080000000002279000000000034       BPNC0007
80000000002269000000000024800000000022490000000000178000000000236       BPNC0008
90000000022248000000000243960606060606080000000002409224764452330       BPNC0009
80000000002449777777777777800000000023590000000022028000000000223       BPNC0010
90000000000128000000000234900000000154080000000002329000000000660       BPNC0011
80000000002219000000000002800000000024295160606060608000000000225       BPNC0012
90000000000208000000000222900000000001080000000002179000000000000       BPNC0013
80000000002379000000077777800000000022090000000000018000000000241       BPNC0014
92330000000008000000000015C700265000260C700532000513C700506000502       BPNC0015
C700463000456C700667000663C700673000667C700677000673C700703000677       BPNC0016
C700707000703C700713000707C700717000713C700724000717C700726000724       BPNC0017
C700443000431C700652000651C7005760005748000000000245A002000000250       BPNC0018
A063400200731A007400200731A050000000237A060100000036A002000000015       BPNC0019
A002000000256A063400200731A007400200731A050000000217A060100000036       BPNC0020
A007400400010A300000077453A300000077452C200222000206A300000000021       BPNC0021
A050000000237A060100077461A050000077460A0402000002178000000000271       BPNC0022
A410000000301A450000000207A432000000225A060200000741A050000000741       BPNC0023
A040200000217A010000000301A002000000024A007400400011A300000000242       BPNC0024
A300000077453A300000077452A300000000217A300000000221A300000000021       BPNC0025
A300000077431A050000000232A060100000046A050000000234A060100000047       BPNC0026
8000000000315A050200000220A060100000142A050000000232A060100000040       BPNC0027
A050000000217A060100000041A050000000223A060100000044A007400400001       BPNC0028
A300000000235A050000077455A060100000130A050000077454A060100000131       BPNC0029
A050000077453A060100000133A050000077452A060100000134A050000077425       BPNC0030
A0601000001328000000000341A050000077424A060100000135A050000000244       BPNC0031
A060100000136A007400400007A300000000130A050000000240A060100000127       BPNC0032
A050000077427A060100000132A050000077426A060100000133A050000077453       BPNC0033
A060100000134A050000077452A060100000135A050000000243A060100000136       BPNC0034
A050000077425A0601000001378000000000365A050000077424A060100000140       BPNC0035
A007400400002C200140000127A007400400001A300000000236A050000000046       BPNC0036
A040200000375A300000077423A062100000403A007400400012A300000077453       BPNC0037
A300000077452A300000000217B200232000000A300000000020A300000000040       BPNC0038
A300000000022A300000077431A0500000002248000000000411A060100000044       BPNC0039
A050000000047A040200000414A300000077423A062100000422A007400400012       BPNC0040
A300000077453A300000077452A300000000217B200232000000A300000000020       BPNC0041
A300000000040A300000000022A300000077431A050000000226A060100000044       BPNC0042
A050000000220A060100000045A002000000437A0500000000458000000000435       BPNC0043
A040000000220A060100000045A050000000045A040200000227A010000000443       BPNC0044
A012000000453A007400400013A050000000046A040200000142A053400100045       BPNC0045
9073400200000A050000277423A060100100141A002000000434A007400400002       BPNC0046
C200105000140A002000000032A007400400004A300000077453A300000077452       BPNC0047
8000000000461A300000000025A300000077431A050000000237A060100000041       BPNC0048
A050000000044A040200000223A410000000471A002000000032A050000000040       BPNC0049
A060100000042A050000000232A060100000040A050000000044A040200000224       BPNC0050
A410000000501A002000000032A002000000033A050000000044A040200000223       BPNC0051
A4100000005068000000000505A002000000016A050000000042A060100000040       BPNC0052
A050000000223A060100000044A002000000033A050000000045A040200000220       BPNC0053
A010000000532A412000000532A050000000045A040200000227A010000000523       BPNC0054
A012000000532A050000000045A040200000525A3000000001419076700000022       BPNC0055
A062200000531A0074004000028000000000531A200000000140A007400400000       BPNC0056
A300000000236A050000000036A040200000237A410000000574A450000000207       BPNC0057
A432000000231A060200000741A050000000741A040200000217A010000000546       BPNC0058
A002000000026A050000000207A040200000217A010000000553A012000000553       BPNC0059
A002000000027A450000000230A0621000005568000000000555A450000000207       BPNC0060
9476500000000A060200000741A050000000741A040200000217A010000000564       BPNC0061
A002000000027A007400400003A300000077453A300000077452A300000000220       BPNC0062
A300000000177A300000000177A300000000023A300000077431A050000000220       BPNC0063
A002000000735A002000000663A0020000006028000000000013A002100000600       BPNC0064
8000000000600A063400200653A007400200653A050000000142A040000000220       BPNC0065
A060100000142A050000000142A040200000040A010000000611A412000000651       BPNC0066
A050000000217A060100000142A050000000047A040200000233A010000000624       BPNC0067
A412000000624A050000000232A060100000047A050000000234A060100000046       BPNC0068
A0020000006308000000000624A050000000234A060100000047A050000000232       BPNC0069
A060100000046A050000000041A040200000217A010000000634A002000000017       BPNC0070
A050000000047A040200000636A300000077423A062100000644A007400400012       BPNC0071
A300000077453A300000077452A300000000217B200232000000A300000000020       BPNC0072
A300000000040A3000000000228000000000650A300000077431A002000000657       BPNC0073
A0074004000069300000000000A463400100653A0634004006579002000200001       BPNC0074
9077400400000A053400200653A4534001006539002000400001A007400400005       BPNC0075
C200143000145A300000000200A30000000003180000000001439452460606060       BPNC0076
946636026466492631432560458000000000667A007400400005C200146000152       BPNC0077
A300000000202A300000000030800000000014694523306060609465160224764       BPNC0078
9263143256026921243145276092551516051258000000000673A007400400005       BPNC0079
C200153000155A300000000200A30000000003180000000001539602631432560       BPNC0080
924254325632592321451463608000000000677A007400400005C200156000162       BPNC0081
A300000000202A300000000031800000000015693143256060609652163256026       BPNC0082
9602160475131946646347646392321451463608000000000703A007400400005       BPNC0083
C200163000165A300000000202A30000000003180000000001639263143256060       BPNC0084
923434662256092321451463608000000000707A007400400005C200166000172       BPNC0085
A300000000200A300000000034800000000016693143253360609236325246026       BPNC0086
9604751466325924254325632592321451463608000000000713A007400400005       BPNC0087
C200173000176A300000000200A30000000003480000000001739432563252460       BPNC0088
9454663602425960263143256094331454225248000000000717A007400400004       BPNC0089
A300000077453A300000077452A300000000025A300000077431A007400400000       BPNC0090
A300000000236A050000000217A00200000073580000000002029000000000007       BPNC0091
80000000002049000000000005800000000020090000000000038000000000203       BPNC0092
90000000000068000000000205900000000000480000000002019000000000002       BPNC0093
80000000000409000000000000800000000017794000000000008000000000037       BPNC0094
92462422524638000000000043933263143253380000000000359235170442147       BPNC0095
90000000000008000000000044900000000000080000000000429000000000000       BPNC0096
800000000004190000000000008000000000730A0074004000069300000000000       BPNC0097
A463400100731A06340040073590020002000019077400400000A053400200731       BPNC0098
A453400100731900200040000180000000007429000000000000                    BPNC0099
$EOF   BPNCH     11/30/11  09:32:02    BSS2OBJ 1.0.1                    BPNC0100
