0DPNCH  03324H0000000756626DPNCH  012666PRNT   012266SSPRDL 01216       DPNC0001
6SSPRNT 012066DPUDL  012006PRNDL  0117280000000000009002100000000       DPNC0002
4BPNCHI 0000090021000000004BPUNCH 0000190021000000004CHFILE 00002       DPNC0003
90021000000004CLOSE  0000390021000000004DERBC  000049002100000000       DPNC0004
4DPUNCH 0000590021000000004ERR    0000690021000000004EXIT   00007       DPNC0005
90021000000004FLIP1  0001090021000000004FSTATE 000119002100000000       DPNC0006
4NPRINT 0001290021000000004ONLINE 0001390021000000004OPEN   00014       DPNC0007
90021000000004PACKFP 0001590021000000004PNCEOF 000169002100000000       DPNC0008
4RDFILE 0001790021000000004SERIAL 0002090021000000004UNPACK 00021       DPNC0009
90021000000004UNTAB  00022921432746436080000000000249215123306060       DPNC0010
92621476060609272563264563943316247606094345622321459442124606060       DPNC0011
94663302551609512521242226951252124434596223513147638000000001144       DPNC0012
90000000006618000000001142900000000022680000000011409000000000203       DPNC0013
80000000011509000060606060800000000113490000000000308000000001160       DPNC0014
96060600000008000000001131900000000002280000000011249000000000011       DPNC0015
80000000011679777777000011800000000112190000000000048000000001165       DPNC0016
96223513147638000000001157960604331624780000000011539436247466463       DPNC0017
80000000011569602143274643800000000116196060602621478000000001164       DPNC0018
96060606321478000000001162960606044212480000000011559516445234644       DPNC0019
80000000011359000000000043800000000113790000000001208000000001141       DPNC0020
90000000002048000000001122900000000000780000000011369000000000077       DPNC0021
80000000011669777777000000800000000113290000000000248000000001154       DPNC0022
95160606060608000000001130900000000002080000000011259000000000012       DPNC0023
80000000011239000000000010800000000112790000000000178000000001145       DPNC0024
90000000015408000000001143900000000066080000000011469000000002202       DPNC0025
80000000011639606060606060800000000115292447644523308000000001170       DPNC0026
97777777777778000000001126900000000001680000000011479000000077777       DPNC0027
80000000011339000000000026800000000111790000000000009000000000001       DPNC0028
800000000115192330000000008000000000037C701505001473C701274001272       DPNC0029
C701676001674C701570001565C701560001554C701535001530C703005003001       DPNC0030
C703011003005C703015003011C703021003015C703025003021C703031003025       DPNC0031
C703035003031C703041003035C703045003041C703164003162C703156003151       DPNC0032
C7014670014638000000000061C703160003156C702257002254C702153002153       DPNC0033
C702161002157C701737001735C701234001232C701236001234C701352001350       DPNC0034
C702703002675C702763002761C703171003170C703277003276C703140003137       DPNC0035
C7030470030458000000001171A002000001174A063400203311A007400203311       DPNC0036
A050000001120A060100000422A002000000066A002000001202A063400203311       DPNC0037
A007400203311A050000001120A060100000422A002000000040A002000001210       DPNC0038
A063400203311A007400203311A050000001117A060100000422A050000001120       DPNC0039
A060100001052A0020000000678000000001215A002000001220A063400203311       DPNC0040
A007400203311A050000001120A060100000422A050000001120A060100001052       DPNC0041
A002000000067A002000001230A063400203311A007400203311A050000001117       DPNC0042
A060100000422A050000001117A060100001052A050000001120A060100001046       DPNC0043
A050000001133A060100001116A0074004000128000000001241C200143000116       DPNC0044
A050000077455A060100001057A050000077454A060100001061A050000077453       DPNC0045
A060100001063A050000077452A060100001065A050000077427A060100001067       DPNC0046
A050000077426A060100001071A050000077425A060100001073A050000077424       DPNC0047
A0601000010758000000001072960606060606096060606060609606060606060       DPNC0048
96060606060608000000001056960606060606096060606060609606060606060       DPNC0049
96060606060609606060606060960606060606096060606060609606060606060       DPNC0050
96026465160609606060606060960606060606096060606060608000000001262       DPNC0051
A007400400012C201075001056A002000000070A002000001270A063400203311       DPNC0052
A007400203311A050000001117A060100000422A050000001117A060100001046       DPNC0053
A050000001117A060100001052A050000001117A060100001052A050000001147       DPNC0054
A060100077461A050000001126A060100001116A050000077455A060100000726       DPNC0055
8000000001306A050000077454A060100000727A050000077453A060100000731       DPNC0056
A050000077452A060100000732A050000077425A060100000730A050000077424       DPNC0057
A060100000733A050000001170A060100000734A007400400010A300000000726       DPNC0058
A050000001152A060100000725A050000077427A060100000730A050000077426       DPNC0059
A0601000007318000000001332A050000077453A060100000732A050000077452       DPNC0060
A060100000733A050000001163A060100000734A050000077425A060100000735       DPNC0061
A050000077424A060100000736A007400400000A300000001146A007400400001       DPNC0062
C200736000725A050000001143A060100000450A050000001145A060100000451       DPNC0063
A050000001143A0601000004268000000001356A050000001117A060100000755       DPNC0064
A050000001117A060100000427A050000001117A060100001076A050000001127       DPNC0065
A060100000444A050000001126A060100000445A050000001163A060100000720       DPNC0066
A050000001126A060100001115A007400400011A300000077453A300000077452       DPNC0067
C201123001104A300000000047A0500000011258000000001402A060100001113       DPNC0068
A050000077460A040200001117A410000001415A450000001105A432000001130       DPNC0069
A060200003321A050000003321A040200001117A010000001415A002000000050       DPNC0070
A007400400014A300000001154A300000077453A300000077452A300000001020       DPNC0071
A300000001020A300000000047A300000077431A0500000004508000000001426       DPNC0072
A040200001427A300000077423A062100001435A007400400017A300000077453       DPNC0073
A300000077452A300000001117B201143000000A300000000044A300000000426       DPNC0074
A300000000045A300000077431A050000001127A060100001113A050000000451       DPNC0075
A040200001446A300000077423A062100001454A007400400017A300000077453       DPNC0076
8000000001452A300000077452A300000001117B201143000000A300000000044       DPNC0077
A300000000426A300000000045A300000077431A050000001132A060100001113       DPNC0078
A053400100450A450000177423A432000001166A060200000753A050000000753       DPNC0079
A040200001166A410000001473A002000000065A050000001120A060100001021       DPNC0080
A0020000015018000000001476A050000001021A040000001120A060100001021       DPNC0081
A050000001021A040200001126A010000001505A012000001520A050000000450       DPNC0082
A040200000755A060100003321A050000001127A0402000010219073400100000       DPNC0083
A053400203321A050000277423A060100100737A007400400033A002000001476       DPNC0084
A452000001046A0020000015258000000001522A007400400012C200736000720       DPNC0085
A002000001527A007400400005C200736000721A002000000037A007400400003       DPNC0086
A300000077453A300000077452A300000000045A300000077431A050000001136       DPNC0087
A060100000427A050000001113A040200001125A410000001543A002000000060       DPNC0088
A050000000426A060100000430A0500000011438000000001546A060100000426       DPNC0089
A050000001113A040200001127A410000001553A002000000060A002000000074       DPNC0090
A050000001113A040200001125A410000001560A002000000042A050000000430       DPNC0091
A060100000426A050000001125A060100001113A002000000074A050000000443       DPNC0092
A040200001122A410000001627A007400400021A3000000007008000000001572       DPNC0093
A300000001021A300000000414A300000001141A060100000424A050000000424       DPNC0094
A040200001120A060100000424A050000000424A040200001141A010000001607       DPNC0095
A412000001607A007400400013C200761000764A050000000416A040000001125       DPNC0096
A060100000416A007400400421A007400400015A300000000414A300000000737       DPNC0097
8000000001616A300000000424A300000000445A452000001046A002000001626       DPNC0098
A452000001076A002000001626A007400400012C201077001103A002000001633       DPNC0099
A050000001127A060100000444A050000001126A060100000445A050000001117       DPNC0100
A060100000443A452000001046A002000001665A050000000444A040200001133       DPNC0101
A0100000016448000000001642A050000001127A060100001115A050000000444       DPNC0102
A040200001115A040000001120A040200001650A3000000007379076700000022       DPNC0103
A062200001660A050000000444A040200001655A300000000737A062100001660       DPNC0104
A0074004000129200000000000A007400400012C200143000116A002000000041       DPNC0105
A002000001674A0500000004458000000001666A040200001667A300000000737       DPNC0106
A062100001672A007400400005B200736000000A007400400016A452000000422       DPNC0107
A002000001733A050000001105A040200001117A010000001703A012000001703       DPNC0108
A002000000054A450000001105A432000001137A060200003321A050000003321       DPNC0109
A040200001117A010000001712A0020000000558000000001712A450000001135       DPNC0110
A062100001715A4500000011059476500000000A060200003321A050000003321       DPNC0111
A040200001117A010000001723A002000000054A007400400002A300000077453       DPNC0112
A300000077452A300000001120A300000001020A300000001020A300000000046       DPNC0113
A300000077431A050000001120A002000003315A0074004000268000000001736       DPNC0114
A300000077452A002000002116A0020000017438000000000026A002100001741       DPNC0115
8000000001741A063400202075A007400202075A050000001117A060100001051       DPNC0116
A050000001163A060100000720A050000001117A060100001053A452000001052       DPNC0117
A002000001755A050000001120A0601000010539050000000000A040200001155       DPNC0118
A410000001771A050000001120A060100001053A050000001133A060100000444       DPNC0119
A0500000011338000000001765A060100000445A050000000032A060100000421       DPNC0120
A0020000020739050000000000A040200001162A410000002005A050000000031       DPNC0121
A060100000421A050000001120A060100001051A050000001127A060100000444       DPNC0122
A050000001126A060100000445A0020000020739050000000000A040200001164       DPNC0123
A01000000201390500000000008000000002011A040200001161A410000002024       DPNC0124
A050000000025A060100000421A050000001120A060100001051A050000001127       DPNC0125
A060100000444A050000001126A060100000445A0020000020739050000000000       DPNC0126
A040200001156A410000002036A050000001133A060100000444A050000001133       DPNC0127
A060100000445A050000000023A0601000004218000000002035A002000002073       DPNC0128
9050000000000A040200001153A0100000020449050000000000A040200001157       DPNC0129
A410000002053A050000001133A060100000444A050000001133A060100000445       DPNC0130
A050000000027A060100000421A0020000020739050000000000A040200001165       DPNC0131
A410000002065A050000001133A060100000444A0500000011338000000002061       DPNC0132
A060100000445A050000000035A060100000421A002000002073A050000001133       DPNC0133
A060100000444A050000001133A060100000445A050000000032A060100000421       DPNC0134
A002000002112A0074004000079300000000000A463400102075A063400402112       DPNC0135
9050000400001A062100001755A062100001771A062100002005A062100002010       DPNC0136
8000000002105A062100002024A062100002036A062100002041A062100002053       DPNC0137
90020002000019077400400000A053400202075A4534001020759002000400001       DPNC0138
A050000001117A060100000077A050000001117A060100000115A050000000450       DPNC0139
A060100000447A002000002130A050200001120A040000000447A060100000447       DPNC0140
A0500000004508000000002131A0402000011219076000000002A040000000447       DPNC0141
A010000002143A053400100447A050000177423A040200001166A010000002142       DPNC0142
A002000000063A002000002125A050000000450A0402000011219073400100000       DPNC0143
A050000177423A040200001167A410000002153A050000001120A060100000115       DPNC0144
A050000001122A0601000004438000000002155A050000001117A060100000416       DPNC0145
A050000001117A060100001076A050000001117A060100000415A007400400034       DPNC0146
A300000000414A300000001141A060100000424A050000000416A040000001125       DPNC0147
A060100000416A452000000115A002000002176A007400400024A002000002177       DPNC0148
A007400400421A007400400015A3000000004148000000002201A300000000737       DPNC0149
A300000000424A300000000445A452000001046A002000002241A452000000415       DPNC0150
A002000002214A050000000444A060100000446A050000000445A060100000444       DPNC0151
A050000000444A040200002216A300000000737A062100002221A007400400012       DPNC0152
B200736000000A452000000415A002000002234A0500000004468000000002225       DPNC0153
A060100000444A050000000164A060100000147A050000000164A060100000146       DPNC0154
A007400400012C200146000164A452000001076A002000002240A007400400012       DPNC0155
C2010770011038000000001077923216325243396260635164459314525606621       DPNC0156
963303162604396054545454608000000002240A002000002247A050000000445       DPNC0157
A040200002243A300000000737A062100002246A007400400005B200736000000       DPNC0158
A002000000064A002000002414A0020000022548000000000024A002100002252       DPNC0159
8000000002252A063400202404A007400202404A050000001115A040200001117       DPNC0160
A410000002270A050000000077A040000001120A060100000077A007400400034       DPNC0161
A300000000414A300000001141A060100000424A002000000062A002000002401       DPNC0162
A050000000077A040200001121A410000002327A050000001115A040200001124       DPNC0163
A4100000023278000000002276A050000001117A060100000416A050000001117       DPNC0164
A060100000077A007400400027A050000001120A060100000413A452000001052       DPNC0165
A002000002311A050000000420A060100000413A052000001046A002000002315       DPNC0166
A050000000165A060100000413A050000001120A060100000415A050000000164       DPNC0167
A060100000147A0500000001648000000002322A060100000146A007400400026       DPNC0168
A300000000676A002000002410A002000002401A050000000077A040200001117       DPNC0169
A010000002401A412000002401A050000000077A060100000077A002000002341       DPNC0170
A050200001120A040000000077A060100000077A050000000077A040200001117       DPNC0171
A010000002401A412000002401A4520000010518000000002346A002000002372       DPNC0172
A007400400004A300000000416A060100001055A050000000416A040000001125       DPNC0173
A060100000416A450000001131A062100002360A4500000010559476500000000       DPNC0174
A450100001160A060200000147A450000001134A062100002366A450000001055       DPNC0175
9076700000000A450100001150A06020000014680000000001469606060606060       DPNC0176
96060606060609606060606060960606060606096060606060609606060606060       DPNC0177
96060606060609606060606060960606060606096060606060609606060606060       DPNC0178
96060606060609606060606060960606060606096060606060608000000002371       DPNC0179
A002000002376A050000000164A060100000147A050000000164A060100000146       DPNC0180
A007400400012C200146000164A002000002336A007400400421A002000002410       DPNC0181
A0074004000079300000000000A463400102404A0634004024109002000200001       DPNC0182
9077400400000A053400202404A4534001024049002000400001A002000002500       DPNC0183
8000000002415A0020000024208000000000032A0021000024168000000002416       DPNC0184
A063400202470A007400202470800000000103194000000000009000000000171       DPNC0185
90000000001579000000000145900000000013390000000001219000000000107       DPNC0186
90000000000759000000000063900000000005190000000000379000000000025       DPNC0187
90000000000138000000002420A050000001053A040200002422A300000000414       DPNC0188
A062100002430A007400400022A300000001045A300000001117A300000000414       DPNC0189
9300000000000A300000000424A060100000424A050000001053A040200001117       DPNC0190
A010000002466A412000002466A050000000424A040000001053A060100000424       DPNC0191
A050000000424A0402000011418000000002444A010000002450A412000002450       DPNC0192
A050000001141A060100000424A050000001120A060100001047A002000002456       DPNC0193
A050000001047A040000001120A060100001047A050000001047A040200001053       DPNC0194
A010000002462A012000002466A053400101047A050000000165A060100100414       DPNC0195
A002000002453A002000002474A00740040000780000000024709300000000000       DPNC0196
A463400102470A06340040247490020002000019077400400000A053400202470       DPNC0197
A4534001024709002000400001A002000002533A0020000025048000000000025       DPNC0198
A0021000025028000000002502A063400202523A0074002025238000000000431       DPNC0199
94000000000009000000000067900000000005690000000000529000000000046       DPNC0200
90000000000429000000000036900000000002090000000000108000000002504       DPNC0201
A007400400022A300000000441A300000001117A300000000414A300000000414       DPNC0202
A300000000424A060100000424A007400400020A300000000414A300000000416       DPNC0203
A300000000424A300000001076A060100000424A002000002527A007400400007       DPNC0204
9300000000000A463400102523A06340040252790020002000019077400400000       DPNC0205
8000000002530A053400202523A4534001025239002000400001A002000002563       DPNC0206
A0020000025378000000000023A0021000025358000000002535A063400202553       DPNC0207
A0074002025538000000000100940000000000090000000001029000000000075       DPNC0208
90000000000709000000000063900000000005690000000000519000000000044       DPNC0209
90000000000379000000000032900000000002590000000000209000000000013       DPNC0210
8000000002537A007400400022A300000000114A300000001117A300000000414       DPNC0211
A300000000413A300000000424A040000001120A060100000424A050000000165       DPNC0212
A060100000413A002000002557A0074004000079300000000000A463400102553       DPNC0213
A06340040255790020002000019077400400000A053400202553A453400102553       DPNC0214
90020004000018000000002563A002000002624A0020000025678000000000027       DPNC0215
A0021000025658000000002565A063400202614A007400202614A002000002572       DPNC0216
8000000000035A0021000025708000000002570A063400202614A007400202614       DPNC0217
800000000074094000000000008000000002572A050000000424A040200001140       DPNC0218
A010000002600A412000002600A050000001140A060100000424A007400400022       DPNC0219
A300000000740A300000001117A300000000414A300000000413A300000000424       DPNC0220
A040000001120A060100000424A050000000165A060100000413A002000002620       DPNC0221
A0074004000079300000000000A4634001026148000000002616A063400402620       DPNC0222
90020002000019077400400000A053400202614A4534001026149002000400001       DPNC0223
A002000002657A0020000026308000000000031A0021000026268000000002626       DPNC0224
A063400202647A007400202647800000000074194000000000009000000000067       DPNC0225
90000000000579000000000052900000000004590000000000409000000000033       DPNC0226
90000000000269000000000021900000000001480000000007549000000000014       DPNC0227
8000000002630A007400400022A300000000752A300000000754A300000000414       DPNC0228
A300000000414A300000000424A060100000424A007400400020A300000000414       DPNC0229
A300000000416A300000000424A300000001076A060100000424A002000002653       DPNC0230
A0074004000079300000000000A463400102647A0634004026539002000200001       DPNC0231
90774004000008000000002654A053400202647A4534001026479002000400001       DPNC0232
A002000003001A0020000026638000000000034A0021000026618000000002661       DPNC0233
A063400202764A007400202764A050000000450A0402000007559073400100000       DPNC0234
A450000177423A432000001166A060200000753A050000000753A040200001166       DPNC0235
A010000002675A002000000076A050000000450A0402000007559073400100000       DPNC0236
A450000177423A432000001147A060200001115A050000001115A040200001117       DPNC0237
8000000002705A410000002710A050000001163A060100000677A007400400033       DPNC0238
A050000001120A060100001021A002000002717A050000001021A040000001120       DPNC0239
A060100001021A050000001021A040200001142A010000002723A012000002737       DPNC0240
A050000001021A040200001115A010000002727A012000002737A050000000450       DPNC0241
A0402000007558000000002731A0534001010219073400200000A050000277423       DPNC0242
A060100100700A007400400033A002000002714A050000001021A040200001120       DPNC0243
A060100001021A007400400021A300000000700A3000000010219300000000000       DPNC0244
9300000000000A060100000425A050000000425A040200001120A060100000425       DPNC0245
A05000000042590402000000008000000002755A010000002761A412000002761       DPNC0246
A007400400030A002000000052A050000000425A002000002775A007400400007       DPNC0247
9300000000000A463400102764A0634004027759050000400001A060100002745       DPNC0248
9050000400002A060100002746A06210000275490020002000019077400400000       DPNC0249
A053400202764A45340010276490020004000018000000003001A007400400006       DPNC0250
C200756000760A300000001025A30000000005780000000007569263143256060       DPNC0251
92124314527609255151605125960434645276093162606346469544331452560       DPNC0252
96054545454549514651606060921514260255194331452540449605454545454       DPNC0253
8000000003005A007400400006C200771000773A300000001023A300000000056       DPNC0254
80000000007719602631432560924254325632592321451463608000000003011       DPNC0255
A007400400006C200774000776A300000001025A3000000000618000000000774       DPNC0256
9452460606060946636026466492631432560458000000003015A007400400006       DPNC0257
C200777001003A300000001025A30000000006180000000007779314325606060       DPNC0258
96521632560269602160475131946646347646392321451463608000000003021       DPNC0259
A007400400006C201004001006A300000001025A3000000000618000000001004       DPNC0260
9263143253360923434662256092321451463608000000003025A007400400006       DPNC0261
C200761000764A300000001023A300000000072A007400400006C200765000770       DPNC0262
A300000001023A300000000075A007400400006C201007001012A300000001023       DPNC0263
A3000000000568000000001007943256325246094546636024259602631432560       DPNC0264
94331454225248000000003041A007400400006C201013001017A300000001023       DPNC0265
A3000000000568000000001013931432533606092363252460269604751466325       DPNC0266
924254325632592321451463608000000003045A050000001163A060100000720       DPNC0267
A050000001117A060100000443A050000001120A060100001021A002000003057       DPNC0268
A050000001021A040000001120A060100001021A050000001021A040200001126       DPNC0269
A010000003063A012000003141A050000000450A040200000755A060100003321       DPNC0270
A050000001127A04020000102190734001000008000000003071A053400203321       DPNC0271
A050000277423A060100100737A007400400033A050000000450A040200000755       DPNC0272
9073400100000A450000177423A432000001166A060200003321A050000003321       DPNC0273
A040200001166A410000003140A050000001122A060100000443A452000001046       DPNC0274
A002000003123A050000001127A040200001021A0402000031158000000003115       DPNC0275
A3000000007379076700000022A062200003121A007400400012A200000000720       DPNC0276
A002000003133A050000001127A040200001021A040200003126A300000000737       DPNC0277
9076700000022A062200003132A007400400005A200000000721A050000001021       DPNC0278
A040200001126A010000003137A002000000053A002000000071A002000003054       DPNC0279
8000000003141A452000001046A002000003146A007400400012C200736000720       DPNC0280
A002000003150A007400400005C200736000721A002000000076A007400400003       DPNC0281
A300000077453A300000077452A300000000051A300000077431A452000001046       DPNC0282
A002000003161A002000003162A007400400016A050000001117A002000003315       DPNC0283
A0020000032238000000003165A0020000031708000000000030A002100003166       DPNC0284
8000000003166A063400203213A007400203213A007400400033A050000000450       DPNC0285
A0402000007559073400100000A450000177423A432000001166A060200000753       DPNC0286
A050000000753A040200001166A010000003203A002000000073A050000000450       DPNC0287
A0402000007559073400100000A450000177423A432000001147A060200001115       DPNC0288
A0020000032178000000003212A0074004000079300000000000A463400103213       DPNC0289
A06340040321790020002000019077400400000A053400203213A453400103213       DPNC0290
9002000400001A002000003310A0020000032278000000000033A002100003225       DPNC0291
8000000003225A063400203300A007400203300A050000000755A040000001120       DPNC0292
A060100000755A050000000755A040200000426A010000003236A412000003276       DPNC0293
A050000001117A060100000755A050000000451A040200001144A010000003251       DPNC0294
A412000003251A050000001143A060100000451A050000001145A060100000450       DPNC0295
A0020000032558000000003251A050000001145A060100000451A050000001143       DPNC0296
A060100000450A050000000427A040200001117A010000003261A002000000043       DPNC0297
A050000000451A040200003263A300000077423A062100003271A007400400017       DPNC0298
A300000077453A300000077452A300000001117B201143000000A300000000044       DPNC0299
A300000000426A3000000000458000000003275A300000077431A002000003304       DPNC0300
A0074004000079300000000000A463400103300A0634004033049002000200001       DPNC0301
9077400400000A053400203300A45340010330090020004000018000000000427       DPNC0302
90000000000008000000000443900000000000080000000010229000000000057       DPNC0303
80000000010509000000000077800000000014590000000000358000000001054       DPNC0304
90000000000728000000000165900000000006080000000004209000000000040       DPNC0305
80000000007559000000000000800000000014095454545454549545454545454       DPNC0306
95454545454549545454545454954545454545480000000001339545454545454       DPNC0307
95454545454549545454545454954545454545495454545454548000000000126       DPNC0308
95454545454549545454545454954545454545495454545454549545454545454       DPNC0309
80000000001219545454545454954545454545495454545454549545454545454       DPNC0310
95454545454548000000000116901545454545495454545454549545454545454       DPNC0311
80000000010259000000000007800000000102790000000000058000000001023       DPNC0312
90000000000038000000001026900000000000680000000010309000000000004       DPNC0313
80000000010249000000000002800000000042690000000000008000000001020       DPNC0314
94000000000008000000000423924624225246380000000004429332631432533       DPNC0315
800000000041792351704421478000000003310A0074004000079300000000000       DPNC0316
A463400103311A06340040331590020002000019077400400000A053400203311       DPNC0317
A453400103311900200040000180000000033229000000000000                    DPNC0318
$EOF   DPNCH     11/30/11  09:32:10    BSS2OBJ 1.0.1                    DPNC0319
