0(MAIN) 037622000000002426H00000007566280000000000009002100000000       (MAI0001
4.03200 0000090021000000004ADDMFD 0000190021000000004ADJPRB 00002       (MAI0002
90021000000004ALLOT  0000390021000000004ATTACH 000049002100000000       (MAI0003
4BINEOF 0000590021000000004BINREW 0000690021000000004BPNCHI 00007       (MAI0004
90021000000004BPNCH  0001090021000000004BPUDL  000119002100000000       (MAI0005
4BPUNCH 0001290021000000004BSRA2  0001390021000000004BUFFER 00014       (MAI0006
90021000000004CARRY  0001590021000000004CHARG1 000169002100000000       (MAI0007
4CHARGE 0001790021000000004CHFILE 0002090021000000004CHNGE  00021       (MAI0008
90021000000004CLOSE  0002290021000000004DELFIL 000238000000000024       (MAI0009
90021000000004DLETE  0002490021000000004DPNCH  000259002100000000       (MAI0010
4DPUDL  0002690021000000004ERR    0002790021000000004EXIT   00030       (MAI0011
90021000000004FSTATE 0003190021000000004GETTIM 000329002100000000       (MAI0012
4INPUT  0003390021000000004.SETUP 0003490021000000004LJUST  00035       (MAI0013
90021000000004LNK    0003690021000000004NLINK  000379002100000000       (MAI0014
4NPRINT 0004090021000000004ONLINE 0004190021000000004OPEN   00042       (MAI0015
90021000000004PNCEOF 0004390021000000004PNCH7  000449002100000000       (MAI0016
4PRIV   0004590021000000004PRNDL  0004690021000000004PRNEOF 00047       (MAI0017
800000000005090021000000004PRNT   0005090021000000004PU7DL  00051       (MAI0018
90021000000004RDCARD 0005290021000000004RDWAIT 000539002100000000       (MAI0019
4RESETF 0005490021000000004RUNCRY 0005590021000000004SCANI  00056       (MAI0020
90021000000004SCAN   0005790021000000004SCNMFD 000609002100000000       (MAI0021
4SSPRDL 0006190021000000004SSPRNT 0006290021000000004STPCH1 00063       (MAI0022
90021000000004STPCHG 0006490021000000004TAPEI  000659002100000000       (MAI0023
4TAPE   0006690021000000004TILOCK 0006790021000000004UPDATE 00070       (MAI0024
90021000000004UPDCHG 0007190021000000004UPDMFD 000728000000002400       (MAI0025
90000000077779000000077777800000000242497426314325348000000002405       (MAI0026
94433263324338000000002376900000000220180000000024159603145476463       (MAI0027
80000000024049234426430000800000000241396003020706008000000002425       (MAI0028
97777777777008000000002366900000000001280000000023709000000000077       (MAI0029
80000000024229606062634647800000000241496023434662258000000002421       (MAI0030
96060606060608000000002375900000000100280000000024069466463476463       (MAI0031
80000000024109515064256263800000000241696047513145638000000002407       (MAI0032
94751452425438000000002423964472444262480000000024179606043314542       (MAI0033
96060606060238000000002367900000000001680000000023749000000000726       (MAI0034
80000000024119516060606060800000000237190000000001248000000002363       (MAI0035
90000000000068000000002365900000000001080000000023619000000000003       (MAI0036
90000000000048000000002373900000000066080000000024129516660606060       (MAI0037
80000000023729000000000144800000000236090000000000028000000002377       (MAI0038
90000000022028000000002356900000000000080000000024029076000000160       (MAI0039
80000000023649000000000007800000000235790000000000018000000002403       (MAI0040
92330000000008000000000074C703240003237C702462002460C702676002666       (MAI0041
C702473002467C703224003220C703160003150C703635003631C703454003447       (MAI0042
C702770002764C703150003146C703115003114C703102003075C703722003716       (MAI0043
C703726003722C703732003726C703734003732C703745003741C703646003644       (MAI0044
8000000000116C703656003654C703670003664C703674003670C703700003674       (MAI0045
C703702003700C703712003706C703716003712C703751003745C703755003751       (MAI0046
C703136003134C703234003230C703054003051C703602003577C703444003441       (MAI0047
C702503002473C703467003463C702747002746C7025350025338000000000140       (MAI0048
C703640003636C702577002567C703527003525C703555003553C703573003572       (MAI0049
C703566003565C7034700034678000000002426A0074004000348000000002251       (MAI0050
90000000000078000000002253900000000000580000000022479000000000003       (MAI0051
80000000022529000000000006800000000225490000000000048000000002250       (MAI0052
90000000000028000000002077900000000000080000000022469400000000000       (MAI0053
80000000020759246242252463800000000210193326314325338000000001771       (MAI0054
92351704421478000000002427A007400400045A300000002356A060100077460       (MAI0055
A007400400007A300000002377A007400400006A007400400032A300000077425       (MAI0056
A300000077424A050000077425A060100002104A050000077424A060100002102       (MAI0057
A007400400012C202102002106800000000210296060606060609606060606060       (MAI0058
9606060606060951246260606096031246023218000000002446A007400400072       (MAI0059
A300000002075A300000002101A300000000075A007400400004A300000002075       (MAI0060
A300000002101A007400400003A300000002360A300000002372A050000002356       (MAI0061
A060100077457A007400400004A300000002075A300000002101A007400400054       (MAI0062
A300000000077A007400400022A300000002265A3000000021018000000002472       (MAI0063
A300000000134A007400400042A300000002412A300000002265A300000002101       (MAI0064
A300000002246A300000002246A300000000113A300000077431A007400400014       (MAI0065
A300000002265A300000002101C202373001110A300000000113A300000077431       (MAI0066
A450000002360A432000002364A450100002402A060200002516A050000002357       (MAI0067
800000000251690000000000009475400000000A010000002522A002000000135       (MAI0068
A450000002362A432000002364A450100002402A060200002527A050000002357       (MAI0069
90000000000009475400000000A010000002533A002000000127A007400400041       (MAI0070
C2021100021118000000002110960263143256295150642562638000000002535       (MAI0071
A007400400064A007400400071A450000002361A432000002364A450100002402       (MAI0072
A060200002544A05000000235790000000000009475400000000A010000002567       (MAI0073
A050000002067A060100077455A050000002070A060100077454A007400400004       (MAI0074
A300000077455A300000077454A300000000114A007400400031A300000002255       (MAI0075
8000000002561A300000002264C202365000150A300000000114A007400400041       (MAI0076
C2020710020748000000002071950642562636294446456051259452760242125       (MAI0077
96263215163318000000002566A002000000076A450000002361A432000002364       (MAI0078
A450100002402A060200002574A05000000235790000000000009475400000000       (MAI0079
A010000002620A007400400041C202322002331A007400400041C202332002335       (MAI0080
A007400400041C202336002345800000000232295064256263609314564256051       (MAI0081
94660234645639666360036063925622563606294446453360519252460242125       (MAI0082
92631453162309506431633360966456063466094651600260249626663600360       (MAI0083
93360606060609636063214725946603145476494560634660249306004602466       (MAI0084
9644760663163921452460026096266636003608000000002605A007400400000       (MAI0085
9300000000007A450000002361A432000002364A450100002402A060200002614       (MAI0086
A05000000235790000000000009475400000000A010000002620A002000000135       (MAI0087
A450000002360A432000002364A450100002402A060200002625A050000002357       (MAI0088
90000000000009475400000000A010000002631A0020000001358000000002631       (MAI0089
A450000002362A432000002364A450100002402A060200002636A050000002357       (MAI0090
90000000000009475400000000A010000002642A002000000127A007400400067       (MAI0091
A300000000141A007400400060A300000077455A300000077454A300000000106       (MAI0092
A060100002321A050000002321A040200002356A410000002655A002000000106       (MAI0093
8000000002655A007400400004A300000077455A300000077454A300000000141       (MAI0094
A007400400031A300000002255A300000002264C202365000150A300000000141       (MAI0095
A450000002363A432000002364A450100002402A060200002673A050000002357       (MAI0096
90000000000009475400000000A410000002711A450000000151A432000002357       (MAI0097
A0602000037578000000002701A050000003757A040200002357A410000002711       (MAI0098
A007400400023A300000002255A300000002264A300000000141A002000000141       (MAI0099
A007400400017A300000077455A300000077454A007400400032A300000077425       (MAI0100
A300000077424A007400400020A300000002255A300000002264A300000002371       (MAI0101
A300000002246A3000000022468000000002725A300000000116A300000077431       (MAI0102
A007400400042A300000002411A300000002255A300000002264A300000002246       (MAI0103
A300000002246A300000000141A007400400014A300000002255A300000002264       (MAI0104
C202374000161A300000000115A300000077431A007400400067A300000000131       (MAI0105
A007400400063A007400400053A3000000022558000000002751A300000002264       (MAI0106
A300000002356C202367077432A300000000107A300000002077A300000000116       (MAI0107
A300000077431A007400400027C277447077432A300000002251A300000000104       (MAI0108
A007400400056A300000077432A300000000117A060100002100A050000002100       (MAI0109
A040200002420A410000002774A002000000131A0500000023578000000002775       (MAI0110
A060100002107A002000003002A050000002107A040000002357A060100002107       (MAI0111
A053400102107A050000102065A040200002100A010000003013A050000002107       (MAI0112
A040200002065A010000003012A012000003013A002000002777A050000002107       (MAI0113
A040200002065A010000003020A412000003020A002000000121A050000002100       (MAI0114
8000000003021A040200002417A010000003026A050000002100A040200002423       (MAI0115
A410000003027A002000000120A050000002107A040200003031A300000002021       (MAI0116
A062100003034A0074004000169300000000000A050000077446A060100077427       (MAI0117
A050000077447A060100077426A050000002100A040200002407A010000003047       (MAI0118
A0500000021008000000003045A040200002416A410000003051A007400400040       (MAI0119
C202076002076A007400400057A300000000136A060100077453A007400400057       (MAI0120
A300000000117A060100077452A050000077452A040200002410A410000003066       (MAI0121
A050000077453A040200002406A410000003066A002000000131A053400102107       (MAI0122
A050000102043A0601000037578000000003071A007400403757A060100002321       (MAI0123
A007400400070A002000000131A007400400022A300000002255A300000002264       (MAI0124
A300000000112A300000077431A007400400020A300000002255A300000002264       (MAI0125
A300000002357A300000002246A300000002246A300000000124A300000077431       (MAI0126
A007400400064A002000000141A0074004000718000000003115A007400400041       (MAI0127
C202124002132A007400400041C20211200211780000000021249256021026060       (MAI0128
96645406321479666360044024943256233606292562636026319252460515064       (MAI0129
92631453162308000000002112964316360606094064474060509626663600460       (MAI0130
96060606060609606060606060960606060606092560606060609604645433145       (MAI0131
940605125212496266636001608000000003121A0074004000009300000000001       (MAI0132
A450000002362A432000002364A450100002402A060200003130A050000002357       (MAI0133
90000000000009475400000000A410000003134A002000000135A050000002356       (MAI0134
A060100002066A007400400041C20231300232080000000023139600433606060       (MAI0135
92563606266639023360512562963214725602195163314527609214460626321       (MAI0136
8000000003140A007400400041C202120002123A0074004000009300000000002       (MAI0137
A007400400067A300000000133A007400400065A300000002375A450000002357       (MAI0138
A432000002364A450100002402A060200003155A0500000023579000000000000       (MAI0139
9475400000000A010000003171A007400400052C200074077432A050000002421       (MAI0140
A0601000774478000000003164A050000002421A060100077446A050000002367       (MAI0141
A060100002346A002000003176A007400400066C277447077432A300000000123       (MAI0142
A300000000101A060100002346A450000002360A432000002364A450100002402       (MAI0143
A060200003203A05000000235790000000000009475400000000A010000003207       (MAI0144
A002000000135A4500000023628000000003210A432000002364A450100002402       (MAI0145
A060200003214A05000000235790000000000009475400000000A010000003220       (MAI0146
A002000000140A007400400056A300000077432A300000000101A060100002100       (MAI0147
A007400400027C277447077432A300000002251A300000000130A050000002100       (MAI0148
A040200002414A410000003234A0020000001408000000003234A050000002100       (MAI0149
A040200002422A410000003275A007400400064A007400400071A007400400041       (MAI0150
C202242002245A007400400041C202232002234A007400400041C202236002241       (MAI0151
80000000022429256060606060946456331456494064474060239626663600260       (MAI0152
80000000022329506431636060940246645406096266636002609626060606060       (MAI0153
96360263143259512550642562940246645406096266636004608000000003247       (MAI0154
A0074004000009300000070707A450000002362A432000002364A450100002402       (MAI0155
A060200003256A05000000235790000000000009475400000000A010000003262       (MAI0156
A002000000140A450000002360A432000002364A450100002402A060200003267       (MAI0157
A05000000235790000000000009475400000000A010000003273A002000000135       (MAI0158
8000000003273A007400400013A002000000105A050000002100A040200002420       (MAI0159
A410000003305A050000002066A040200002356A410000003304A002000000133       (MAI0160
A002000000101A050000002357A060100002107A002000003313A050000002107       (MAI0161
A040000002357A060100002107A053400202107A050000002100A040200202065       (MAI0162
A0100000033248000000003317A050000002107A040200002065A010000003323       (MAI0163
A012000003324A002000003310A050000002107A040200002065A010000003331       (MAI0164
A412000003331A002000000122A050000002356A060100002066A007400400057       (MAI0165
A300000000122A060100003757A007400400002A300000003757A300000000122       (MAI0166
A060100077455A0074004000578000000003343A300000000122A060100077454       (MAI0167
A450000077454A432000002370A060200003757A050000003757A040200002366       (MAI0168
A010000003360A412000003360A007400400035A300000077454A060100077454       (MAI0169
A002000003377A450000077454A432000002425A060200003757A050000003757       (MAI0170
A040200002413A410000003377A4500000774548000000003367A432000002364       (MAI0171
A060200003757A050000002365A040200003757A060100003757A450000003757       (MAI0172
A450100002404A060200077454A007400400064A007400400017A300000077455       (MAI0173
A300000077454A050000002107A040200003405A300000002021A062100003410       (MAI0174
A0074004000169300000000000A050000002100A0402000024238000000003413       (MAI0175
A410000003415A002000000103A007400400004A300000077455A300000077454       (MAI0176
A300000000110A300000077431A050000077455A060100077427A050000077454       (MAI0177
A060100077426A050000002100A040200002407A010000003434A050000002100       (MAI0178
A040200002416A410000003436A007400400040C202076002076A007400400032       (MAI0179
8000000003437A300000077425A300000077424A007400400057A300000000101       (MAI0180
A060100077453A007400400057A300000000122A060100077452A053400102107       (MAI0181
A050000102043A060100003757A007400403757A060100002321A007400400070       (MAI0182
A007400400063A050000002100A040200002415A410000003462A002000000101       (MAI0183
A0020000001338000000003463A007400400027C202226002231A300000002251       (MAI0184
A3000000001468000000002226963336060606096463602524319252460314547       (MAI0185
92631453162308000000003467A007400400064A007400400071A007400400004       (MAI0186
A300000002075A300000002101A300000000111A300000077431A050000002101       (MAI0187
A060100077452A050000002421A060100077455A050000002421A060100077454       (MAI0188
A050000002421A060100077427A050000002421A060100077426A007400400031       (MAI0189
A300000001771A3000000021018000000003513C202365000150A300000000102       (MAI0190
A050000000152A040200002357A010000003525A007400400022A300000001771       (MAI0191
A300000002101A300000000111A300000077431A007400400007A300000002376       (MAI0192
A007400400012C202275002312A007400400012C2023030022668000000002267       (MAI0193
96060606060609606060606060960606060606096060606060609606060606060       (MAI0194
96060606060609606060606060960606060606096060606060609606060606060       (MAI0195
96060606060609606060606060960606060606096060606060609606060606060       (MAI0196
96060606060609706063214725926602321515194025452460469626346476060       (MAI0197
800000000226692343466225608000000003533A007400400005A300000002376       (MAI0198
A007400400005A300000002376A007400400055A007400400040C202076002076       (MAI0199
A007400400040C201772001777800000000177296321472533609232151517060       (MAI0200
96362604626609234645632545943256046266096054546321228000000003544       (MAI0201
A050000001771A060100077453A007400400050A007400400023A300000001771       (MAI0202
A300000002101A300000000143A007400400040C202076002076A007400400040       (MAI0203
C2022560022618000000002256962252460606094751462325629642562636260       (MAI0204
96054545125508000000003557A050000002265A060100077453A007400400022       (MAI0205
A300000002265A300000002101A300000000145A007400400050A007400400023       (MAI0206
A300000002265A300000002101A300000000144A007400400047A007400400022       (MAI0207
A300000002405A300000002424A300000000132A050000077461A040200002356       (MAI0208
A010000003612A0074004000438000000003603A007400400007A300000002377       (MAI0209
A007400400005A300000002377A007400400005A300000002377A007400400055       (MAI0210
A450000002361A432000002364A450100002402A060200003617A050000002357       (MAI0211
90000000000009475400000000A010000003626A007400400041C202262002263       (MAI0212
8000000002262962666360033395125622563608000000003624A007400400000       (MAI0213
9300000000010A050000002356A060100077457A007400400030A050000077457       (MAI0214
A040200002401A410000003635A002000000142A002000000143A007400400041       (MAI0215
C2023470023558000000002347960043360606092563606266639623360512562       (MAI0216
96360263143259512550642562951633145276092144606263218000000003640       (MAI0217
A007400400013A0074004000009300000000003A002000000137A050000077455       (MAI0218
A060100002163A050000077454A060100002162A007400400027C202162002167       (MAI0219
A300000002251A300000000107800000000216392562606060609626360263143       (MAI0220
9626051506425947514623256292321451463608000000003654A050000077455       (MAI0221
A060100002167A050000077454A060100002166A007400400027C202166002174       (MAI0222
A300000002251A300000000107800000000217094325626060609256263602631       (MAI0223
9452760515064960512521243192551516031458000000003664A007400400027       (MAI0224
C202175002200A300000002251A30000000013680000000021759442163606060       (MAI0225
9626360264651943605150642593143432527218000000003670A007400400027       (MAI0226
C202201002205A300000002251A30000000013680000000022019432562606060       (MAI0227
92562636026319464460515064927214360265194546636043258000000003674       (MAI0228
A007400400027C202206002211A300000002251A3000000001368000000002206       (MAI0229
95124606060609514643606646943602346456393143432527218000000003700       (MAI0230
A050000002400A060100002066A007400400027C202212002215A300000002251       (MAI0231
A3000000001258000000002212963606060606096026465144219436023215124       (MAI0232
93143432527218000000003706A007400400027C202216002221A300000002251       (MAI0233
A3000000001008000000002216960210260606092551516046459652551252460       (MAI0234
96445512523468000000003712A007400400027C202222002225A300000002251       (MAI0235
A3000000001418000000002222963602631432596051506425629242543256325       (MAI0236
92321451463608000000003716A007400400027C202133002135A300000002251       (MAI0237
A3000000001258000000002133944262460606094663603145609646225516045       (MAI0238
8000000003722A007400400027C202136002143A300000002251A300000000142       (MAI0239
80000000021369256060606060963514664224396325456362609462660234645       (MAI0240
963212243256092321515170608000000003726A007400400027C202144002147       (MAI0241
A300000002251A300000000141800000000214496026314325609515064256263       (MAI0242
923434662256092321451463608000000003732A007400400041C202150002157       (MAI0243
80000000021509273360606060960622143652195164456046519432533605125       (MAI0244
93123626026319632163316263946472545606292321451463608000000003734       (MAI0245
A007400400022A300000002265A300000002101A300000000144A002000000075       (MAI0246
A007400400027C202160002162A300000002251A3000000001418000000002160       (MAI0247
9506425626362944464560512594546602421258000000003745A050000002100       (MAI0248
A040200002415A010000003751A002000000101A007400400066C277433077432       (MAI0249
A300000000126A300000000101A00200000012680000000774319000000000000       (MAI0250
80000000020679602300000506960111111111180000000774619000000000000       (MAI0251
80000000774569000000000000800000000226596263216331628000000002100       (MAI0252
90000000000008000000002346900000000000080000000020769016060606060       (MAI0253
80000000022559466463476463800000000226495150642562638000000002044       (MAI0254
96445433145429233026314325960604331454296023215151709074764242543       (MAI0255
92247642425439244764242543947514524254396447244426249603145476463       (MAI0256
96262475124439626247514563907476445233092425432563259224764452330       (MAI0257
9244764452330960475131456390000000000218000000002022A700000000037       (MAI0258
A700000000021A700000000036A700000000015A700000000051A700000000011       (MAI0259
A700000000026A700000000046A700000000001A700000000033A700000000061       (MAI0260
A700000000062A700000000044A700000000024A700000000010A700000000025       (MAI0261
A7000000000508000000002000900000000000090000000000009000000000000       (MAI0262
90000000000069000000000003900000000000590000000000049000000000002       (MAI0263
90000000000009000000000001900000000000290000000000029000000000003       (MAI0264
90000000000009000000000005900000000000490000000000028000000003756       (MAI0265
A00740040003080000000037609000000000000                                 (MAI0266
$EOF   (MAIN)    12/06/11  12:26:00    BSS2OBJ 1.0.1                    (MAI0267
