0INPUT  03313H0000000756626INPUT  0231480000000000009002100000000       INPU0001
4BUFFER 0000090021000000004CHFILE 0000190021000000004CLOSE  00002       INPU0002
90021000000004DECCNV 0000390021000000004DELFIL 000049002100000000       INPU0003
4ERR    0000590021000000004EXIT   0000690021000000004FSTATE 00007       INPU0004
90021000000004OPEN   0001090021000000004SCAN   000119002100000000       INPU0005
4SETFIL 0001290021000000004SOCTBN 0001390021000000004SPRDOC 00014       INPU0006
90021000000004TAPE   0001590021000000004WRFILE 000168000000002260       INPU0007
90000000000038000000002267900000000003380000000022669000000000026       INPU0008
80000000022779000000700000800000000227690000000777778000000002265       INPU0009
90000000000258000000002304907700000000080000000022649000000000022       INPU0010
80000000023019000077000000800000000225790000000000028000000002312       INPU0011
97777770000008000000002300900000077777780000000022759000000001604       INPU0012
80000000022749000000000661800000000227090000000000358000000002310       INPU0013
97005000000009700700000000800000000230290005000000008000000002305       INPU0014
90777770000008000000002273900000000066080000000023079666060606060       INPU0015
80000000022639000000000012800000000227190000000000439000000000120       INPU0016
80000000022629000000000010800000000225590000000000008000000002303       INPU0017
90760000001608000000002261900000000000780000000022569000000000001       INPU0018
800000000230692330000000008000000000020C702635002625C703102003076       INPU0019
C702715002711C702723002716C703273003267C702605002565C703222003216       INPU0020
C703226003222C703230003226C703250003244C703254003250C703257003254       INPU0021
C703267003263C702732002730C703243003234C702707002705C702444002437       INPU0022
C7027510027378000000000042C702737002732C703021003015C703122003104       INPU0023
C702506002470C702403002400C702423002413C702565002561C703213003206       INPU0024
C702366002355C7026710026658000000002313A002000002316A063400203300       INPU0025
A0074002033008000000000156900000000000780000000001609000000000005       INPU0026
80000000001549000000000003800000000015790000000000068000000000161       INPU0027
90000000000048000000000155900000000000280000000000739000000000000       INPU0028
80000000001539400000000000800000000007292462422524638000000000074       INPU0029
9332631432533800000000006092351704421478000000002316A050000002255       INPU0030
A060100000172A050000002255A060100077451A007400400007A300000077453       INPU0031
A300000077452C202262002243A300000000051A300000077431A050000077460       INPU0032
A040200002255A410000002353A450000002244A432000002272A060200003310       INPU0033
A050000003310A040200002255A010000002342A0020000000318000000002342       INPU0034
A450000002271A062100002345A4500000022449476500000000A060200003310       INPU0035
A050000003310A040200002255A010000002353A002000000031A050000002244       INPU0036
A060100077451A050000002256A060100000105A002000002363A050000000105       INPU0037
A040000002256A060100000105A050000000105A040200002263A010000002377       INPU0038
8000000002366A007400400007A300000002145A300000002160C202262002243       INPU0039
A300000000046A053400200105A050000202160A060100002160A002000002360       INPU0040
A002000000026A007400400011A300000000047A060100077451A007400400013       INPU0041
A300000077451A060100077451A050000077451A040200002256A410000002413       INPU0042
A0500000022558000000002412A060100077451A007400400010A300000002307       INPU0043
A300000002145A300000002160A300000002256A300000000153A300000000026       INPU0044
A300000077431A007400400000A300000002145A300000002160C202273076543       INPU0045
A300000000026A300000077431A050000002256A060100000162A050000002273       INPU0046
A060100000105A0500000022558000000002436A060100000057A007400400015       INPU0047
C202252002217A300000000050A300000000025A060100002253A452000000162       INPU0048
A002000002466A450000002217A432000002305A060200003310A050000003310       INPU0049
A040200002302A410000002455A002000000040A050000002255A060100000162       INPU0050
A450000002217A432000002311A0602000033108000000002462A050000003310       INPU0051
A040200002310A410000002466A002000000041A050000002256A060100000104       INPU0052
A050000000057A060100000057A002000002476A050000000057A040000002256       INPU0053
A060100000057A050000000104A040200002253A010000002502A012000002523       INPU0054
A050000000057A040200002273A010000002523A0120000025238000000002506       INPU0055
A050000002270A040200000104A060100003310A050000000105A040200000057       INPU0056
9073400100000A053400203310A050000202253A060100102143A050000000104       INPU0057
A040000002256A060100000104A002000002473A050000000057A040200002273       INPU0058
A010000002527A412000002560A050000000105A040200002531A300000002143       INPU0059
8000000002532A062100002537A007400400016A300000002145A300000002160       INPU0060
A300000002255B202273000000A300000000153A300000000153A300000000027       INPU0061
A300000077431A050000000105A040200002274A010000002553A412000002553       INPU0062
A050000002273A060100000105A002000002555A050000002275A060100000105       INPU0063
A0500000022558000000002556A060100000057A002000000045A002000000040       INPU0064
A007400400005C200164000171A300000000156A3000000000228000000000164       INPU0065
94547646333609604546636031933602631432594560632147259214523706046       INPU0066
95125246445248000000002565A050000000057A040200002255A010000002605       INPU0067
A050000000105A040200002572A300000002143A062100002600A007400400016       INPU0068
A300000002145A300000002160A300000002255B200057000000A300000000153       INPU0069
A300000000153A300000000027A300000077431A007400400002A300000002145       INPU0070
A300000002160A3000000000328000000002611A300000077431A007400400001       INPU0071
A300000077453A300000077452A300000002256A300000000153A300000000153       INPU0072
A300000000020A007400400004A300000077453A300000077452A300000000020       INPU0073
A007400400001A300000002145A300000002160A300000077451A300000077453       INPU0074
A300000077452A300000000030A3000000774318000000002635A007400400007       INPU0075
A300000077453A300000077452C202262002243A300000000034A300000077431       INPU0076
A007400400003A300000077454A060100003310A450000003310A432000002300       INPU0077
A060200000163A050000000163A040200002255A410000002665A007400400011       INPU0078
A300000000053A060100003310A007400400003A3000000033108000000002661       INPU0079
A060100003310A450000003310A432000002300A060200000163A450000002252       INPU0080
A432000002312A450100000163A060200002252A007400400012A300000077453       INPU0081
A300000077452A300000002251A300000002252A300000077451A300000002257       INPU0082
A300000000037A007400400004A300000002145A300000002160A300000000037       INPU0083
8000000002705A050000002161A060100002160A050000002256A002000003304       INPU0084
A007400400015C202252002217A300000000022A300000000023A002000000022       INPU0085
A007400400002A300000002145A300000002160A300000000035A300000077431       INPU0086
A007400400004A300000002145A300000002160A300000000035A300000077431       INPU0087
A0500000022558000000002731A002000003304A007400400015C202252002217       INPU0088
A300000000050A300000000024A060100002253A450000002217A432000002311       INPU0089
A060200003310A050000003310A040200002310A010000002751A007400400005       INPU0090
C200075000103A300000000156A30000000002280000000000759336060606060       INPU0091
96031454764639432560454663923423360263196031456024259436023215124       INPU0092
93143432527218000000002751A450000002217A432000002301A060200003310       INPU0093
A450000002264A062100002757A4500000033109476500000000A060200002162       INPU0094
A450000002217A432000002304A060200003310A450000002265A062100002767       INPU0095
A4500000033109476500000000A060200002254A450000002162A450100002254       INPU0096
A060200002162A0500000021628000000002775A040200002255A410000003000       INPU0097
A002000000042A450000002217A432000002276A060200002254A050000002254       INPU0098
A040200000172A010000003007A002000000033A050000000172A040000002256       INPU0099
A060100000172A450000002217A432000002277A060200002144A050000002162       INPU0100
A040200002266A010000003021A0120000030248000000003021A050000002162       INPU0101
A060100002254A002000003026A050000002256A060100002254A050000002217       INPU0102
A060100000056A050000002256A060100000104A002000003036A050000000104       INPU0103
A040000002256A060100000104A050000000104A040200002254A010000003042       INPU0104
A012000003051A050000002267A04020000010490734002000008000000003045       INPU0105
A450000000056A036100202253A060200000056A002000003033A050000000056       INPU0106
A040200002220A010000003102A450000002264A062100003057A450000002217       INPU0107
9476500000000A060200003310A007400400014A300000003310A060100000065       INPU0108
A450000002217A432000002276A060200003310A007400400014A300000003310       INPU0109
8000000003071A060100000064A007400400005C200061000071A300000000156       INPU0110
A300000000021A050000002220A040200002255A010000003102A002000000022       INPU0111
80000000000619476463336060945466360314596026314325609606060606060       INPU0112
96060606060609602321512460951465160464596264446025519233025234260       INPU0113
8000000003102A050000002256A060100000104A050000000057A060100000057       INPU0114
A002000003112A050000000057A040000002256A060100000057A050000000104       INPU0115
A040200002162A010000003116A012000003150A050000000057A040200002273       INPU0116
A010000003150A012000003150A050000002254A040200002256A410000003133       INPU0117
A0500000001058000000003126A0402000000579073400100000A050000002221       INPU0118
A060100102143A002000003144A050000002267A040200000104A060100003310       INPU0119
A050000000105A0402000000579073400100000A053400203310A050000202253       INPU0120
A060100102143A050000000104A040000002256A060100000104A002000003107       INPU0121
A050000000057A0402000022738000000003152A010000003154A412000003205       INPU0122
A050000000105A040200003156A300000002143A062100003164A007400400016       INPU0123
A300000002145A300000002160A300000002255B202273000000A300000000153       INPU0124
A300000000153A300000000027A300000077431A050000000105A040200002274       INPU0125
A010000003200A412000003200A0500000022738000000003176A060100000105       INPU0126
A002000003202A050000002275A060100000105A050000002255A060100000057       INPU0127
A002000000044A002000000042A050000077431A040200002260A010000003213       INPU0128
A412000003213A002000000031A050000002255A060100077431A002000000052       INPU0129
A007400400005C200106000113A300000000156A3000000000228000000000106       INPU0130
96463606060609652560314547960512523253193143256063469464725456026       INPU0131
92321451463608000000003222A007400400005C200113000120A300000000156       INPU0132
A3000000000228000000000114931454764636092560264651609276060263143       INPU0133
966513163314592551514651608000000003226A050000002160A060100000121       INPU0134
A007400400005C200121000130A300000000156A300000000036A007400400001       INPU0135
A300000002145A300000002160A300000002255A300000000153A300000000153       INPU0136
A300000000037A002000000037800000000012293363254447339432560316260       INPU0137
94525666026319314325336060960464324602692425432563259232145146360       INPU0138
800000000012193326314325338000000003244A007400400005C200131000136       INPU0139
A300000000156A300000000022800000000013193145476463339256045466360       INPU0140
96233602631439602567316263943512521247092631432560218000000003250       INPU0141
A007400400005C200137000141A300000000156A3000000000358000000000137       INPU0142
9263143253360923434662256092321451463608000000003254A007400400014       INPU0143
A300000000172A060100000142A007400400005C200142000146A300000000154       INPU0144
A3000000000438000000000142960606060606094422255160609452325604564       INPU0145
960622550642592621644363708000000003263A007400400005C200147000152       INPU0146
A300000000156A300000000037800000000014796333606060609216260434662       INPU0147
926314325606693145476463608000000003267A050000002144A040200002255       INPU0148
A010000003273A002000000025A007400400005C200054000055A300000000156       INPU0149
A3000000000258000000000054963602321512494546604321628000000002145       INPU0150
93363254447338000000002153933263143053393326314304339332631430333       INPU0151
93326314302339332631430133933263143253380000000021469332631437133       INPU0152
93326314311339332631431033933263143073393326314306338000000002161       INPU0153
93326314325338000000000162900000000000190000000000008000000003277       INPU0154
A0074004000069300000000000A463400103300A0634004033049002000200001       INPU0155
9077400400000A053400203300A45340010330090020004000018000000003311       INPU0156
9000000000000                                                           INPU0157
$EOF   INPUT     11/30/11  09:32:29    BSS2OBJ 1.0.1                    INPU0158
