0CHNGE  00707H0000000756626CHNGE  005266LNK    003606ADDMFD 00267       CHNG0001
6NLINK  002456DLETE  00144800000000000090021000000004ADJPRB 00000       CHNG0002
90021000000004ALLOT  0000190021000000004ATTACH 000029002100000000       CHNG0003
4CHFILE 0000390021000000004DECCNV 0000490021000000004DELFIL 00005       CHNG0004
90021000000004ERR    0000690021000000004EXIT   000079002100000000       CHNG0005
4FSTATE 0001090021000000004LINK   0001190021000000004OPEN   00012       CHNG0006
90021000000004SCAN   0001390021000000004SOCTBN 000149002100000000       CHNG0007
4TRFILE 0001590021000000004UNLINK 0001690021000000004UPDMFD 00017       CHNG0008
80000000001419606060606060800000000014096060606060548000000000133       CHNG0009
90000000000038000000000132900000000000280000000001429666060606060       CHNG0010
80000000001359000000000043900000000012080000000001309000000000000       CHNG0011
80000000001349000000000010800000000013190000000000018000000000137       CHNG0012
92330000000008000000000021C700304000301C700212000205C700230000222       CHNG0013
C700425000420C700645000640C700236000232C700242000236C700355000351       CHNG0014
C700521000515C700525000521C700667000663C700266000262C700357000355       CHNG0015
C700513000501C700655000645C700434000425C700673000667C700244000242       CHNG0016
8000000000043C7005730005638000000000143A002000000146A063400200674       CHNG0017
A007400200674A007400400010A300000077453A300000077452C200134000044       CHNG0018
A300000000026A050000077460A040200000130A410000000213A450000000045       CHNG0019
A432000000136A060200000704A050000000704A040200000130A010000000165       CHNG0020
A002000000041A450000000135A0621000001708000000000167A450000000045       CHNG0021
9476500000000A060200000704A050000000704A040200000130A010000000176       CHNG0022
A002000000041A007400400003A300000077453A300000077452A300000000131       CHNG0023
A300000000114A300000000114A300000000022A007400400005A300000077453       CHNG0024
A300000077452A300000000027A300000077431A0020000002308000000000213       CHNG0025
A007400400012A300000000142A300000077453A300000077452A300000000114       CHNG0026
A300000000114A300000000023A007400400015A300000077453A300000077452       CHNG0027
A300000000130A300000000027A300000077431A050000000131A002000000700       CHNG0028
A007400400006C200065000067A300000000121A3000000000428000000000065       CHNG0029
9452460606060943256026466496045466026318000000000236A007400400006       CHNG0030
C200070000072A300000000121A30000000004280000000000709602631432560       CHNG0031
924254325632592321451463608000000000242A050000000130A002000000700       CHNG0032
A002000000247A063400200674A007400200674A050000077460A040200000130       CHNG0033
A410000000253A002000000041A007400400016A300000077453A300000077452       CHNG0034
A300000000034A300000077431A050000000131A002000000700A007400400006       CHNG0035
C200112000113A300000000121A30000000003580000000001119336060606060       CHNG0036
964454331454292321451463608000000000266A002000000271A063400200674       CHNG0037
A007400200674A050000077460A040200000130A410000000275A002000000041       CHNG0038
A007400400017A300000077455A300000077454A300000000021A007400400013       CHNG0039
A300000000031A060100000057A007400400013A300000000031A060100000056       CHNG0040
A007400400013A300000000031A0601000001278000000000312A007400400004       CHNG0041
A300000000057A060100000057A007400400004A300000000056A060100000056       CHNG0042
A007400400004A300000000127A060100000127A007400400002A300000077455       CHNG0043
A300000077454A300000000030A300000077431A007400400001A300000000131       CHNG0044
A300000000057A300000000030A300000077431A0074004000018000000000336       CHNG0045
A300000000132A300000000056A300000000030A300000077431A007400400001       CHNG0046
A300000000133A300000000127A300000000030A300000077431A050000000131       CHNG0047
A002000000700A007400400006C200073000076A300000000121A300000000035       CHNG0048
80000000000739633145276060960214343466392560663163309635146642243       CHNG0049
8000000000355A050000000130A002000000700A002000000362A063400200674       CHNG0050
A007400200674A050000077460A040200000130A410000000366A002000000041       CHNG0051
A007400400010A300000077453A300000077452C200134000044A300000000040       CHNG0052
A450000000135A062100000376A4500000000459476500000000A060200000704       CHNG0053
A0500000007048000000000401A040200000130A010000000411A007400400016       CHNG0054
A300000077453A300000077452A300000000032A300000077431A002000000425       CHNG0055
A007400400003A300000077453A300000077452A300000000131A300000000114       CHNG0056
A300000000114A300000000024A007400400005A300000077453A300000077452       CHNG0057
A300000000032A3000000774318000000000425A007400400013A300000000031       CHNG0058
A060100000704A007400400000A300000000704A300000000031A060100000125       CHNG0059
A007400400013A300000000031A060100000126A050000000114A060100077451       CHNG0060
A050000000114A060100000063A050000000114A060100000064A007400400013       CHNG0061
A300000000036A060100000063A0500000000638000000000451A040200000140       CHNG0062
A410000000455A050000000114A060100000063A007400400013A300000000036       CHNG0063
A060100000064A050000000064A040200000140A410000000465A050000000114       CHNG0064
A060100000064A007400400013A300000000036A060100077451A050000077451       CHNG0065
A040200000140A410000000476A050000000114A0601000774518000000000475       CHNG0066
A002000000036A007400400014A300000077451A060100077451A007400400011       CHNG0067
A300000077453A300000077452A300000000125A300000000126A300000000063       CHNG0068
A300000000064A300000077451A300000000032A300000077431A050000000131       CHNG0069
A002000000700A007400400006C200077000102A300000000121A300000000035       CHNG0070
80000000000779442163606060962636026465194360515064259314343252721       CHNG0071
8000000000521A007400400006C200103000104A300000000121A300000000035       CHNG0072
8000000000103943314542606092321451463608000000000525A002000000530       CHNG0073
A063400200674A007400200674A050000077460A040200000130A410000000534       CHNG0074
A002000000041A007400400013A300000000031A060100077451A050000077451       CHNG0075
A040200000140A010000000545A050000077451A040200000141A410000000547       CHNG0076
A050000000114A060100077451A050000077451A0402000001148000000000551       CHNG0077
A010000000555A007400400014A300000077451A060100077451A007400400013       CHNG0078
A300000000043A060100000115A007400400013A300000000043A060100000116       CHNG0079
A050000000115A040200000140A010000000571A050000000115A040200000141       CHNG0080
A410000000573A050000000114A060100000115A050000000116A040200000140       CHNG0081
8000000000575A010000000601A050000000116A040200000141A410000000603       CHNG0082
A050000000114A060100000116A050000000116A040200000114A410000000612       CHNG0083
A050000000115A040200000114A410000000612A002000000037A050000000115       CHNG0084
A040200000114A410000000617A050000077453A060100000115A050000000116       CHNG0085
A0402000001148000000000621A410000000624A050000077452A060100000116       CHNG0086
A007400400010A300000000115A300000000116C200134000044A300000000037       CHNG0087
A007400400003A300000000115A300000000116A300000000131A300000000114       CHNG0088
A300000000114A300000000025A007400400005A300000000115A300000000116       CHNG0089
A300000000033A3000000774318000000000645A007400400003A300000077453       CHNG0090
A300000077452A300000077451A300000000115A300000000116A300000000033       CHNG0091
A300000077431A050000000140A060100000115A050000000140A060100000116       CHNG0092
A050000000131A002000000700A007400400006C200105000106A300000000121       CHNG0093
A3000000000358000000000105923302631432592321451463608000000000667       CHNG0094
A007400400006C200110000113A300000000121A3000000000428000000000107       CHNG0095
93360606060609314325272524963604751316592446336045469232145146360       CHNG0096
80000000001259606060606060960606060606080000000000639400000000000       CHNG0097
94000000000008000000000115960606060606096060606060608000000000121       CHNG0098
90000000000078000000000123900000000000580000000001179000000000003       CHNG0099
80000000001229000000000006800000000012490000000000048000000000120       CHNG0100
90000000000028000000000061900000000000080000000001149400000000000       CHNG0101
80000000000609246242252463800000000006293326314325338000000000055       CHNG0102
92351704421478000000000673A0074004000079300000000000A463400100674       CHNG0103
A06340040070090020002000019077400400000A053400200674A453400100674       CHNG0104
900200040000180000000007059000000000000                                 CHNG0105
$EOF   CHNGE     11/30/11  09:32:46    BSS2OBJ 1.0.1                    CHNG0106
