0CARRY  01673H0000000756626CARRY  014336PNCH7  011356PU7DL  01127       CARR0001
800000000000090021000000004ATTACH 0000090021000000004BINEOF 00001       CARR0002
90021000000004BINREW 0000290021000000004BPNCHI 000039002100000000       CARR0003
4BPUNCH 0000490021000000004BUFFER 0000590021000000004CHFILE 00006       CARR0004
90021000000004CLOSE  0000790021000000004DELFIL 000109002100000000       CARR0005
4ERR    0001190021000000004EXIT   0001290021000000004FCHECK 00013       CARR0006
90021000000004FLIP1  0001490021000000004FSTATE 000159002100000000       CARR0007
4OPEN   0001690021000000004P7CARD 0001790021000000004RDFILE 00020       CARR0008
90021000000004SCAN   0002190021000000004WRFILE 000228000000001115       CARR0009
90000000022218000000001105900000000001680000000011249666060606060       CARR0010
80000000011139000000002201800000000110790000000000439000000000120       CARR0011
80000000011039000000000007800000000112295160606060608000000001112       CARR0012
90000000015408000000001111900000000066080000000011169000000002224       CARR0013
80000000011239606060606060800000000112090747644523308000000001125       CARR0014
97777777777778000000001106900000000002080000000011049000000000010       CARR0015
80000000011149000000002202800000000110190000000000008000000001117       CARR0016
90000000777778000000001102900000000000180000000011219233000000000       CARR0017
8000000000024C701230001226C701602001574C701343001340C701337001331       CARR0018
C701607001603C701613001607C701617001613C701623001617C701627001623       CARR0019
C701633001627C701637001633C701643001637C701647001643C701510001506       CARR0020
C701546001536C701143001141C701302001265C7016530016478000000000046       CARR0021
C701657001655C7014320014308000000001126A002000001131A063400201660       CARR0022
A007400201660A050000001117A060100000051A002000000043A002000001137       CARR0023
A063400201660A007400201660A050000001101A060100000051A007400400003       CARR0024
A300000001114A007400400015A300000077453A300000077452C201104001070       CARR0025
A300000000030A050000077460A0402000011018000000001152A410000001162       CARR0026
A450000001071A432000001106A060200001670A050000001670A040200001101       CARR0027
A010000001162A002000000034A050000077455A060100000102A050000077454       CARR0028
A060100000103A050000077453A060100000105A050000077452A060100000106       CARR0029
A050000077425A060100000104A050000077424A0601000001078000000001176       CARR0030
A050000001125A060100000110A007400400014A300000000102A050000001120       CARR0031
A060100000101A050000077427A060100000104A050000077426A060100000105       CARR0032
A050000077453A060100000106A050000077452A060100000107A050000001123       CARR0033
A060100000110A050000077425A060100000111A050000077424A060100000112       CARR0034
8000000001222A007400400004C200112000101A007400400003A300000001116       CARR0035
A050000001111A060100000053A050000001112A060100000076A050000001111       CARR0036
A060100000077A007400400016A300000001122A300000077453A300000077452       CARR0037
A300000000165A300000000165A300000000030A300000077431A050000001101       CARR0038
A0601000010778000000001246A050000000077A040200001250A300000077423       CARR0039
A062100001256A007400400020A300000077453A300000077452A300000001101       CARR0040
B201111000000A300000000027A300000000053A300000000031A300000077431       CARR0041
A050000001103A060100001077A050000000076A040200001267A300000077423       CARR0042
A062100001275A0074004000208000000001272A300000077453A300000077452       CARR0043
A300000001101B201111000000A300000000027A300000000053A300000000031       CARR0044
A300000077431A050000000077A040200001304A300000077423A062100001307       CARR0045
A0074004000179300000000000A300000001111A300000001101A050000000077       CARR0046
A040200001111A010000001324A4120000013248000000001316A050000001111       CARR0047
A060100000077A050000001112A060100000076A002000000044A002000001331       CARR0048
A050000001112A060100000077A050000001111A060100000076A002000000044       CARR0049
A007400400013A300000077453A300000077452A300000000026A300000000031       CARR0050
A300000077431A002000000027A050000001077A0402000011018000000001342       CARR0051
A010000001354A050000000077A040200001345A300000077423A062100001350       CARR0052
A0074004000179300000000000A300000001111A300000001101A002000001356       CARR0053
A050000001111A060100000076A050000000076A040200001360A300000077423       CARR0054
A062100001363A0074004000179300000000000A300000000053A300000001103       CARR0055
8000000001366A007400400001A300000001116A007400400007A300000077453       CARR0056
A300000077452A300000000036A300000077431A050000000051A040200001117       CARR0057
A410000001430A450000001071A432000001110A060200001670A050000001670       CARR0058
A040200001101A010000001407A002000000037A450000001107A062100001412       CARR0059
A45000000107180000000014129476500000000A060200001670A050000001670       CARR0060
A040200001101A010000001420A002000000040A007400400006A300000077453       CARR0061
A300000077452A300000001060A300000000165A300000000165A300000000035       CARR0062
A300000077431A050000001102A002000001664A002000001435A063400201660       CARR0063
A007400201660A0074004000158000000001436A300000077453A300000077452       CARR0064
C201104001070A300000000030A050000077460A040200001101A410000001454       CARR0065
A450000001071A432000001106A060200001670A050000001670A040200001101       CARR0066
A010000001454A002000000034A050000001101A060100000051A050000001117       CARR0067
A060100077457A007400400003A3000000011138000000001462A050000077455       CARR0068
A060100000175A050000077454A060100000176A050000077453A060100000054       CARR0069
A050000077452A060100000055A007400400021A300000000041A060100000175       CARR0070
A007400400021A300000000032A060100000176A007400400021A300000000041       CARR0071
A060100000054A007400400021A300000000032A0601000000558000000001506       CARR0072
A050000000175A060100000060A050000000176A060100000062A050000000054       CARR0073
A060100000064A050000000055A060100000066A050000001061A040200001101       CARR0074
A010000001561A007400400002A007400400000A300000000052A300000000056       CARR0075
A007400400015A300000000050A300000000056C201104001047A300000000042       CARR0076
8000000001532A007400400010A300000000050A300000000056A300000000042       CARR0077
A007400400016A300000001124A300000000050A300000000056A300000000165       CARR0078
A300000000165A300000000033A300000077431A007400400005A300000000050       CARR0079
A300000000056C201111000177A300000000033A300000077431A007400400000       CARR0080
A3000000774558000000001556A300000077454A050000001101A060100001061       CARR0081
A007400400022A300000000050A300000000056A300000001101C201105000057       CARR0082
A300000000033A300000077431A007400400004C200074000057A007400400003       CARR0083
A300000001115A007400400013A300000000050A300000000056A300000000024       CARR0084
A300000000033A3000000774318000000001602A002000000025A007400400011       CARR0085
C200114000116A300000000167A30000000004680000000001149246060606060       CARR0086
925602646644594546602631438000000001607A007400400011C200117000123       CARR0087
A300000000171A300000000045800000000011794523306060609465160074764       CARR0088
9263143256026921243145276092551516051258000000001613A007400400011       CARR0089
C200124000127A300000000171A30000000004680000000001249514421636060       CARR0090
9256263602646943605125506493143432527218000000001617A007400400011       CARR0091
C200130000135A300000000173A30000000002480000000001309456325456362       CARR0092
96046266023469606321224325960232151517092560663163309635146642243       CARR0093
8000000001623A007400400011C200134000142A300000000171A300000000047       CARR0094
80000000001369314325336060965216325602696021604751319466463476463       CARR0095
92321451463608000000001627A007400400011C200144000150A300000000171       CARR0096
A3000000000478000000000143933606060606094746512151709634660632544       CARR0097
9602631432560923302145272592321451463608000000001633A007400400011       CARR0098
C200151000153A300000000171A30000000004780000000001519263143253360       CARR0099
923434662256092321451463608000000001637A007400400011C200154000160       CARR0100
A300000000167A300000000047800000000015493143256060609236325246026       CARR0101
9604751466325924254325632592321451463608000000001643A007400400011       CARR0102
C200161000164A300000000167A30000000004780000000001619432563252460       CARR0103
9454663602425960263143256094331454225248000000001647A007400400007       CARR0104
A300000077453A300000077452A300000000046A007400400001A300000001116       CARR0105
A050000001101A002000001664800000000005793145476463738000000000061       CARR0106
96060606060608000000000063960606060606096060606060609606060606060       CARR0107
96060606060609606060606060960606060606096060606060609606060606060       CARR0108
96060606060609606060606060800000000106090000000000018000000000076       CARR0109
90000000015409000000000660800000000016690000000000008000000001061       CARR0110
90000000007778000000000051900000000000080000000001719000000000007       CARR0111
80000000001739000000000005800000000016790000000000038000000000172       CARR0112
90000000000068000000000174900000000000480000000001709000000000002       CARR0113
80000000000539000000000000800000000016594000000000008000000000052       CARR0114
92462422524638000000000056933263143253380000000000509235170442147       CARR0115
8000000001657A0074004000129300000000000A463400101660A063400401664       CARR0116
90020002000019077400400000A053400201660A4534001016609002000400001       CARR0117
80000000016719000000000000                                              CARR0118
$EOF   CARRY     11/30/11  09:32:56    BSS2OBJ 1.0.1                    CARR0119
