0SCNMFD 02173H0000000756626SCNMFD 0163780000000000009002100000000       SCNM0001
4ATTACH 0000090021000000004CLOSE  0000190021000000004ERR    00002       SCNM0002
90021000000004EXIT   0000390021000000004OPEN   000049002100000000       SCNM0003
4RDFILE 000059512521242226800000000163090000000006618000000001632       SCNM0004
90000000777778000000001635974263143253480000000016239000000000005       SCNM0005
80000000016269000000000024800000000162590000000000178000000001624       SCNM0006
90000000000128000000001631900000000154080000000016229000000000002       SCNM0007
80000000016279000000000660800000000162090000000000008000000001634       SCNM0008
95160606060608000000001621900000000000180000000016339233000000000       SCNM0009
8000000000010C702011002004C702034002030C702043002041C702050002044       SCNM0010
C702056002052C702062002056C702052002050C701663001653C702136002135       SCNM0011
C7017400017378000000001636A002000001641A063400202150A007400202150       SCNM0012
80000000016149000000000007800000000161690000000000058000000001612       SCNM0013
90000000000038000000001615900000000000680000000016179000000000004       SCNM0014
80000000016139000000000002800000000156590000000000008000000001610       SCNM0015
94000000000008000000001564924624225246380000000015709332631432533       SCNM0016
800000000156392351704421478000000001641A452000001611A002000001737       SCNM0017
A007400400000A300000001575A300000001570A300000000013A007400400001       SCNM0018
A300000001575A300000001570A300000000017A007400400004A300000001634       SCNM0019
A300000001575A300000001570A300000001610A300000001610A300000000013       SCNM0020
A300000077431A050000001620A0601000016118000000001665A050000001620       SCNM0021
A060100001566A050000001627A060100001565A050000001622A060100001576       SCNM0022
A050000001627A060100001573A050000001631A060100001574A050000001624       SCNM0023
A060100001571A050000001573A040200001703A300000001562A062100001711       SCNM0024
A007400400005A300000001575A300000001570A3000000016208000000001711       SCNM0025
B201627000000A300000000010A300000001565A300000000014A300000077431       SCNM0026
A050000001625A060100001571A050000001574A040200001722A300000001562       SCNM0027
A062100001730A007400400005A300000001575A300000001570A300000001620       SCNM0028
B201627000000A300000000010A300000001565A300000000014A300000077431       SCNM0029
8000000001735A050000001626A060100001571A007400400006A050000001573       SCNM0030
A0402000015769073400200000A0500002015629060100000000A007400400006       SCNM0031
A050000001573A0402000015769073400200000A0500002015629060100000000       SCNM0032
A050000001621A060100001572A002000001761A050000001572A040000001621       SCNM0033
A0601000015728000000001761A050000001572A040200001623A010000001765       SCNM0034
A012000001767A007400400006A0020000017569050000000000A040200001620       SCNM0035
A4100000017769050000000000A040200001620A410000001776A002000000021       SCNM0036
9050000000000A040200001635A410000002002A002000000021A050000001621       SCNM0037
A002000002165A0074004000018000000002005A300000001575A300000001570       SCNM0038
A300000000015A300000077431A050000001632A060100001566A050000001571       SCNM0039
A040200001624A410000002017A002000000021A050000001565A060100001567       SCNM0040
A050000001627A060100001565A050000001571A040200001625A410000002027       SCNM0041
A002000000021A002000000020A0500000015718000000002031A040200001624       SCNM0042
A410000002034A002000000012A050000001567A060100001565A050000001624       SCNM0043
A060100001571A002000000020A050000001621A0601000016119002000000000       SCNM0044
A007400400002C201577001601A300000001614A3000000000168000000001577       SCNM0045
9626044262460947514623256292321451463608000000002050A050000001620       SCNM0046
A002000002165A007400400002C201602001604A300000001614A300000000016       SCNM0047
80000000016029276044262460951252124314592551514651608000000002056       SCNM0048
A007400400002C201605001607A300000001614A3000000000168000000001605       SCNM0049
9443326332433923434662256092321451463608000000002062A002000002147       SCNM0050
A0020000020668000000000006A0021000020648000000002064A063400202137       SCNM0051
A007400202137A050000001576A040000001621A060100001576A050000001576       SCNM0052
A040200001565A010000002075A412000002135A050000001620A060100001576       SCNM0053
A050000001574A040200001630A010000002110A412000002110A050000001627       SCNM0054
A060100001574A050000001631A060100001573A0020000021148000000002110       SCNM0055
A050000001631A060100001574A050000001627A060100001573A050000001566       SCNM0056
A040200001620A010000002120A002000000011A050000001574A040200002122       SCNM0057
A300000001562A062100002130A007400400005A300000001575A300000001570       SCNM0058
A300000001620B201627000000A300000000010A300000001565A300000000014       SCNM0059
8000000002134A300000077431A002000002143A0074004000039300000000000       SCNM0060
A463400102137A06340040214390020002000019077400400000A053400202137       SCNM0061
A4534001021379002000400001800000000161190000000000018000000001566       SCNM0062
90000000000008000000001571900000000000080000000015679000000000000       SCNM0063
80000000015759443326332433800000000157097426314325348000000002147       SCNM0064
A0074004000039300000000000A463400102150A0634004021659050000400001       SCNM0065
A062100001744A0621000017679050000400002A062100001752A062100001772       SCNM0066
A0621000017769050000400003A06210000204390020002000019077400400000       SCNM0067
A053400202150A45340010215090020004000019000000000000                    SCNM0068
$EOF   SCNMFD    11/30/11  09:33:12    BSS2OBJ 1.0.1                    SCNM0069
