0SCNMFD 00233H0000000756626SCNMFD 0006380000000000009002100000000       SCNM0001
4ATTACH 0000090021000000004CLOSE  0000190021000000004ERR    00002       SCNM0002
90021000000004EXIT   0000390021000000004OPEN   000049002100000000       SCNM0003
4RDFILE 0000590021000000004RDWAIT 0000680000000000579000000000007       SCNM0004
80000000000569000000000003800000000006195160606060608000000000054       SCNM0005
90000000000009000000000001800000000006092330000000008000000000010       SCNM0006
C700173000167C700175000173C700162000160C700205000201C700201000175       SCNM0007
C700112000077C7001400001268000000000062A002000000065A063400200206       SCNM0008
A0074002002068000000000050900000000000780000000000529000000000005       SCNM0009
80000000000469000000000003800000000005190000000000068000000000053       SCNM0010
90000000000048000000000047900000000000280000000000219000000000000       SCNM0011
80000000000449400000000000800000000002092462422524638000000000022       SCNM0012
9332631432533800000000001792351704421478000000000065A452000000045       SCNM0013
A002000000126A007400400000A300000000032A300000000022A300000000010       SCNM0014
A007400400001A300000000032A300000000022A300000000015A050200000054       SCNM0015
A060100000227A050200000054A060100000230A007400400004A300000000061       SCNM0016
A300000000032A300000000022A300000000230A3000000002278000000000111       SCNM0017
A300000000010A050000000054A060100000045A050200000054A060100000230       SCNM0018
A007400400005A300000000032A300000000022A300000000054C200056000023       SCNM0019
A300000000012A300000000230A300000000014A050200000054A060100000230       SCNM0020
A007400400006A300000000032A300000000022A300000000054C200057000023       SCNM0021
8000000000135A300000000012A300000000230A300000000014A050000000023       SCNM0022
9060100000000A05000000002490601000000009050000000000A040200000022       SCNM0023
A01000000015594500000000009450100000000A060200000230A050000000230       SCNM0024
A040200000054A410000000156A002000000016A050000000055A002000000223       SCNM0025
A0500000000558000000000161A060100000045A007400400001A300000000032       SCNM0026
A300000000022A3000000000139002000000000A007400400002C200033000035       SCNM0027
A300000000050A300000000011800000000003396260442624609475146232562       SCNM0028
92321451463608000000000173A050000000054A002000000223A007400400002       SCNM0029
C200036000040A300000000050A30000000001180000000000369276044262460       SCNM0030
951252124314592551514651608000000000201A007400400002C200041000043       SCNM0031
A300000000050A300000000011800000000004194426246060609234346622560       SCNM0032
92321451463608000000000045900000000000180000000000329443326332433       SCNM0033
800000000002297426314325348000000000205A0074004000039300000000000       SCNM0034
A463400100206A0634004002239050000400001A062100000141A062100000147       SCNM0035
9050000400002A062100000143A062100000144A0621000001509050000400003       SCNM0036
A06210000016690020002000019077400400000A053400200206A453400100206       SCNM0037
900200040000180000000002319000000000000                                 SCNM0038
$EOF   SCNMFD    11/30/11  09:33:06    BSS2OBJ 1.0.1                    SCNM0039
